{
  "contractName": "Election",
  "abi": [
    {
      "inputs": [],
      "stateMutability": "nonpayable",
      "type": "constructor"
    },
    {
      "inputs": [],
      "name": "approvedCandidateCount",
      "outputs": [
        {
          "internalType": "uint256",
          "name": "",
          "type": "uint256"
        }
      ],
      "stateMutability": "view",
      "type": "function"
    },
    {
      "inputs": [],
      "name": "authority",
      "outputs": [
        {
          "internalType": "address",
          "name": "",
          "type": "address"
        }
      ],
      "stateMutability": "view",
      "type": "function"
    },
    {
      "inputs": [],
      "name": "candidateCount",
      "outputs": [
        {
          "internalType": "uint256",
          "name": "",
          "type": "uint256"
        }
      ],
      "stateMutability": "view",
      "type": "function"
    },
    {
      "inputs": [
        {
          "internalType": "uint256",
          "name": "",
          "type": "uint256"
        }
      ],
      "name": "candidateReg",
      "outputs": [
        {
          "internalType": "uint256",
          "name": "CandidateRegId",
          "type": "uint256"
        },
        {
          "internalType": "string",
          "name": "name",
          "type": "string"
        },
        {
          "internalType": "uint256",
          "name": "ward",
          "type": "uint256"
        },
        {
          "internalType": "address",
          "name": "id",
          "type": "address"
        },
        {
          "internalType": "uint256",
          "name": "vote",
          "type": "uint256"
        },
        {
          "internalType": "uint256",
          "name": "VoterId",
          "type": "uint256"
        },
        {
          "internalType": "enum Election.candidateStatus",
          "name": "status",
          "type": "uint8"
        },
        {
          "internalType": "string",
          "name": "remark",
          "type": "string"
        }
      ],
      "stateMutability": "view",
      "type": "function"
    },
    {
      "inputs": [
        {
          "internalType": "uint256",
          "name": "",
          "type": "uint256"
        }
      ],
      "name": "candidatelist",
      "outputs": [
        {
          "internalType": "uint256",
          "name": "CandidateRegId",
          "type": "uint256"
        },
        {
          "internalType": "string",
          "name": "name",
          "type": "string"
        },
        {
          "internalType": "uint256",
          "name": "ward",
          "type": "uint256"
        },
        {
          "internalType": "address",
          "name": "id",
          "type": "address"
        },
        {
          "internalType": "uint256",
          "name": "vote",
          "type": "uint256"
        },
        {
          "internalType": "uint256",
          "name": "VoterId",
          "type": "uint256"
        },
        {
          "internalType": "enum Election.candidateStatus",
          "name": "status",
          "type": "uint8"
        },
        {
          "internalType": "string",
          "name": "remark",
          "type": "string"
        }
      ],
      "stateMutability": "view",
      "type": "function"
    },
    {
      "inputs": [
        {
          "internalType": "address",
          "name": "",
          "type": "address"
        }
      ],
      "name": "candidatelogin",
      "outputs": [
        {
          "internalType": "uint256",
          "name": "",
          "type": "uint256"
        }
      ],
      "stateMutability": "view",
      "type": "function"
    },
    {
      "inputs": [
        {
          "internalType": "uint256",
          "name": "",
          "type": "uint256"
        }
      ],
      "name": "voter",
      "outputs": [
        {
          "internalType": "uint256",
          "name": "RegId",
          "type": "uint256"
        },
        {
          "internalType": "string",
          "name": "voterName",
          "type": "string"
        },
        {
          "internalType": "uint256",
          "name": "voterWard",
          "type": "uint256"
        },
        {
          "internalType": "address",
          "name": "voterAddress",
          "type": "address"
        },
        {
          "internalType": "uint256",
          "name": "voterId",
          "type": "uint256"
        },
        {
          "internalType": "bool",
          "name": "status",
          "type": "bool"
        }
      ],
      "stateMutability": "view",
      "type": "function"
    },
    {
      "inputs": [],
      "name": "voterCount",
      "outputs": [
        {
          "internalType": "uint256",
          "name": "",
          "type": "uint256"
        }
      ],
      "stateMutability": "view",
      "type": "function"
    },
    {
      "inputs": [
        {
          "internalType": "address",
          "name": "",
          "type": "address"
        }
      ],
      "name": "voterlogin",
      "outputs": [
        {
          "internalType": "uint256",
          "name": "",
          "type": "uint256"
        }
      ],
      "stateMutability": "view",
      "type": "function"
    },
    {
      "inputs": [
        {
          "internalType": "address",
          "name": "",
          "type": "address"
        }
      ],
      "name": "votes",
      "outputs": [
        {
          "internalType": "bool",
          "name": "",
          "type": "bool"
        }
      ],
      "stateMutability": "view",
      "type": "function"
    },
    {
      "inputs": [
        {
          "internalType": "string",
          "name": "_name",
          "type": "string"
        },
        {
          "internalType": "uint256",
          "name": "_ward",
          "type": "uint256"
        }
      ],
      "name": "voterRegistration",
      "outputs": [],
      "stateMutability": "nonpayable",
      "type": "function"
    },
    {
      "inputs": [
        {
          "internalType": "uint256",
          "name": "_voterRegId",
          "type": "uint256"
        }
      ],
      "name": "allocateId",
      "outputs": [],
      "stateMutability": "nonpayable",
      "type": "function"
    },
    {
      "inputs": [
        {
          "internalType": "string",
          "name": "_name",
          "type": "string"
        },
        {
          "internalType": "uint256",
          "name": "_ward",
          "type": "uint256"
        },
        {
          "internalType": "uint256",
          "name": "_voterId",
          "type": "uint256"
        }
      ],
      "name": "cantidateRegistration",
      "outputs": [],
      "stateMutability": "nonpayable",
      "type": "function"
    },
    {
      "inputs": [
        {
          "internalType": "address",
          "name": "_voteraddress",
          "type": "address"
        },
        {
          "internalType": "string",
          "name": "_remark",
          "type": "string"
        }
      ],
      "name": "approveCadidedress",
      "outputs": [],
      "stateMutability": "nonpayable",
      "type": "function"
    },
    {
      "inputs": [
        {
          "internalType": "address",
          "name": "_voteraddress",
          "type": "address"
        },
        {
          "internalType": "string",
          "name": "_remark",
          "type": "string"
        }
      ],
      "name": "RejectedCadidedress",
      "outputs": [],
      "stateMutability": "nonpayable",
      "type": "function"
    },
    {
      "inputs": [],
      "name": "result",
      "outputs": [
        {
          "internalType": "string",
          "name": "",
          "type": "string"
        },
        {
          "internalType": "uint256",
          "name": "",
          "type": "uint256"
        },
        {
          "internalType": "uint256",
          "name": "",
          "type": "uint256"
        }
      ],
      "stateMutability": "view",
      "type": "function"
    }
  ],
  "bytecode": "0x60806040526103e8600a5534801561001657600080fd5b50336000806101000a81548173ffffffffffffffffffffffffffffffffffffffff021916908373ffffffffffffffffffffffffffffffffffffffff160217905550612844806100666000396000f3fe608060405234801561001057600080fd5b50600436106101005760003560e01c8063a9a981a311610097578063bf7e214f11610066578063bf7e214f146102c2578063d8bff5a5146102e0578063e749ee4814610310578063f22e9d0b1461034057610100565b8063a9a981a31461021c578063ab8ed1ba1461023a578063b1c63ed01461026f578063bcaf189b1461028b57610100565b80635f4e5628116100d35780635f4e56281461018b57806365372147146101a75780637400df71146101c7578063911eb81d146101e557610100565b8063032071f4146101055780630ceab5a91461012157806342169e481461013d5780634bc819461461015b575b600080fd5b61011f600480360381019061011a9190611e83565b61035c565b005b61013b60048036038101906101369190611f50565b6106ec565b005b610145610b70565b6040516101529190611fbb565b60405180910390f35b61017560048036038101906101709190611fd6565b610b76565b6040516101829190611fbb565b60405180910390f35b6101a560048036038101906101a09190611f50565b610b8e565b005b6101af611276565b6040516101be9392919061208b565b60405180910390f35b6101cf611400565b6040516101dc9190611fbb565b60405180910390f35b6101ff60048036038101906101fa91906120c9565b611406565b60405161021398979695949392919061217c565b60405180910390f35b61022461158b565b6040516102319190611fbb565b60405180910390f35b610254600480360381019061024f91906120c9565b611591565b60405161026696959493929190612223565b60405180910390f35b6102896004803603810190610284919061228b565b611682565b005b6102a560048036038101906102a091906120c9565b6118b0565b6040516102b998979695949392919061217c565b60405180910390f35b6102ca611a35565b6040516102d791906122e7565b60405180910390f35b6102fa60048036038101906102f59190611fd6565b611a59565b6040516103079190612302565b60405180910390f35b61032a60048036038101906103259190611fd6565b611a79565b6040516103379190611fbb565b60405180910390f35b61035a600480360381019061035591906120c9565b611a91565b005b6000600190505b6007548111610424573373ffffffffffffffffffffffffffffffffffffffff166003600083815260200190815260200160002060030160009054906101000a900473ffffffffffffffffffffffffffffffffffffffff1673ffffffffffffffffffffffffffffffffffffffff161415610411576040517f08c379a00000000000000000000000000000000000000000000000000000000081526004016104089061238f565b60405180910390fd5b808061041c906123de565b915050610363565b506000600190505b6008548111610520573373ffffffffffffffffffffffffffffffffffffffff166002600083815260200190815260200160002060030160009054906101000a900473ffffffffffffffffffffffffffffffffffffffff1673ffffffffffffffffffffffffffffffffffffffff161480156104cd5750600015156002600083815260200190815260200160002060050160009054906101000a900460ff161515145b1561050d576040517f08c379a000000000000000000000000000000000000000000000000000000000815260040161050490612473565b60405180910390fd5b8080610518906123de565b91505061042c565b5060076000815480929190610534906123de565b9190505550600060405180610100016040528060075481526020018581526020018481526020013373ffffffffffffffffffffffffffffffffffffffff1681526020016000815260200183815260200182600281111561059757610596612105565b5b8152602001604051806020016040528060008152508152506003600060075481526020019081526020016000206000820151816000015560208201518160010190805190602001906105ea929190611c50565b506040820151816002015560608201518160030160006101000a81548173ffffffffffffffffffffffffffffffffffffffff021916908373ffffffffffffffffffffffffffffffffffffffff1602179055506080820151816004015560a0820151816005015560c08201518160060160006101000a81548160ff0219169083600281111561067b5761067a612105565b5b021790555060e082015181600701908051906020019061069c929190611c50565b50905050600754600660003373ffffffffffffffffffffffffffffffffffffffff1673ffffffffffffffffffffffffffffffffffffffff1681526020019081526020016000208190555050505050565b60008054906101000a900473ffffffffffffffffffffffffffffffffffffffff1673ffffffffffffffffffffffffffffffffffffffff163373ffffffffffffffffffffffffffffffffffffffff161461077a576040517f08c379a000000000000000000000000000000000000000000000000000000000815260040161077190612505565b60405180910390fd5b6000600190505b6009548111610842578273ffffffffffffffffffffffffffffffffffffffff166004600083815260200190815260200160002060030160009054906101000a900473ffffffffffffffffffffffffffffffffffffffff1673ffffffffffffffffffffffffffffffffffffffff16141561082f576040517f08c379a000000000000000000000000000000000000000000000000000000000815260040161082690612571565b60405180910390fd5b808061083a906123de565b915050610781565b50600080600190505b6007548111610b27578373ffffffffffffffffffffffffffffffffffffffff166003600083815260200190815260200160002060030160009054906101000a900473ffffffffffffffffffffffffffffffffffffffff1673ffffffffffffffffffffffffffffffffffffffff161415610b1457600960008154809291906108d1906123de565b919050555060006002905060405180610100016040528060036000858152602001908152602001600020600001548152602001600360008581526020019081526020016000206001018054610925906125c0565b80601f0160208091040260200160405190810160405280929190818152602001828054610951906125c0565b801561099e5780601f106109735761010080835404028352916020019161099e565b820191906000526020600020905b81548152906001019060200180831161098157829003601f168201915b50505050508152602001600360008581526020019081526020016000206002015481526020018673ffffffffffffffffffffffffffffffffffffffff1681526020016000815260200160036000858152602001908152602001600020600501548152602001826002811115610a1657610a15612105565b5b81526020018581525060036000848152602001908152602001600020600082015181600001556020820151816001019080519060200190610a58929190611c50565b506040820151816002015560608201518160030160006101000a81548173ffffffffffffffffffffffffffffffffffffffff021916908373ffffffffffffffffffffffffffffffffffffffff1602179055506080820151816004015560a0820151816005015560c08201518160060160006101000a81548160ff02191690836002811115610ae957610ae8612105565b5b021790555060e0820151816007019080519060200190610b0a929190611c50565b5090505060019250505b8080610b1f906123de565b91505061084b565b5060018114610b6b576040517f08c379a0000000000000000000000000000000000000000000000000000000008152600401610b629061263e565b60405180910390fd5b505050565b60085481565b60056020528060005260406000206000915090505481565b60008054906101000a900473ffffffffffffffffffffffffffffffffffffffff1673ffffffffffffffffffffffffffffffffffffffff163373ffffffffffffffffffffffffffffffffffffffff1614610c1c576040517f08c379a0000000000000000000000000000000000000000000000000000000008152600401610c1390612505565b60405180910390fd5b6000600190505b6009548111610ce4578273ffffffffffffffffffffffffffffffffffffffff166004600083815260200190815260200160002060030160009054906101000a900473ffffffffffffffffffffffffffffffffffffffff1673ffffffffffffffffffffffffffffffffffffffff161415610cd1576040517f08c379a0000000000000000000000000000000000000000000000000000000008152600401610cc890612571565b60405180910390fd5b8080610cdc906123de565b915050610c23565b50600080600190505b600754811161122d578373ffffffffffffffffffffffffffffffffffffffff166003600083815260200190815260200160002060030160009054906101000a900473ffffffffffffffffffffffffffffffffffffffff1673ffffffffffffffffffffffffffffffffffffffff16141561121a5760096000815480929190610d73906123de565b919050555060006001905060405180610100016040528060036000858152602001908152602001600020600001548152602001600360008581526020019081526020016000206001018054610dc7906125c0565b80601f0160208091040260200160405190810160405280929190818152602001828054610df3906125c0565b8015610e405780601f10610e1557610100808354040283529160200191610e40565b820191906000526020600020905b815481529060010190602001808311610e2357829003601f168201915b50505050508152602001600360008581526020019081526020016000206002015481526020018673ffffffffffffffffffffffffffffffffffffffff1681526020016000815260200160036000858152602001908152602001600020600501548152602001826002811115610eb857610eb7612105565b5b81526020018581525060036000848152602001908152602001600020600082015181600001556020820151816001019080519060200190610efa929190611c50565b506040820151816002015560608201518160030160006101000a81548173ffffffffffffffffffffffffffffffffffffffff021916908373ffffffffffffffffffffffffffffffffffffffff1602179055506080820151816004015560a0820151816005015560c08201518160060160006101000a81548160ff02191690836002811115610f8b57610f8a612105565b5b021790555060e0820151816007019080519060200190610fac929190611c50565b509050506040518061010001604052806009548152602001600360008581526020019081526020016000206001018054610fe5906125c0565b80601f0160208091040260200160405190810160405280929190818152602001828054611011906125c0565b801561105e5780601f106110335761010080835404028352916020019161105e565b820191906000526020600020905b81548152906001019060200180831161104157829003601f168201915b50505050508152602001600360008581526020019081526020016000206002015481526020018673ffffffffffffffffffffffffffffffffffffffff16815260200160008152602001600360008581526020019081526020016000206005015481526020018260028111156110d6576110d5612105565b5b81526020018581525060046000600954815260200190815260200160002060008201518160000155602082015181600101908051906020019061111a929190611c50565b506040820151816002015560608201518160030160006101000a81548173ffffffffffffffffffffffffffffffffffffffff021916908373ffffffffffffffffffffffffffffffffffffffff1602179055506080820151816004015560a0820151816005015560c08201518160060160006101000a81548160ff021916908360028111156111ab576111aa612105565b5b021790555060e08201518160070190805190602001906111cc929190611c50565b5090505081600660008773ffffffffffffffffffffffffffffffffffffffff1673ffffffffffffffffffffffffffffffffffffffff1681526020019081526020016000208190555060019250505b8080611225906123de565b915050610ced565b5060018114611271576040517f08c379a00000000000000000000000000000000000000000000000000000000081526004016112689061263e565b60405180910390fd5b505050565b6060600080600160095410156112c1576040517f08c379a00000000000000000000000000000000000000000000000000000000081526004016112b8906126aa565b60405180910390fd5b6000806000600190505b600954811161132257826004600083815260200190815260200160002060040154111561130f57600460008281526020019081526020016000206004015492508091505b808061131a906123de565b9150506112cb565b506004600082815260200190815260200160002060010160046000838152602001908152602001600020600401546004600084815260200190815260200160002060020154828054611373906125c0565b80601f016020809104026020016040519081016040528092919081815260200182805461139f906125c0565b80156113ec5780601f106113c1576101008083540402835291602001916113ec565b820191906000526020600020905b8154815290600101906020018083116113cf57829003601f168201915b505050505092509450945094505050909192565b60095481565b600460205280600052604060002060009150905080600001549080600101805461142f906125c0565b80601f016020809104026020016040519081016040528092919081815260200182805461145b906125c0565b80156114a85780601f1061147d576101008083540402835291602001916114a8565b820191906000526020600020905b81548152906001019060200180831161148b57829003601f168201915b5050505050908060020154908060030160009054906101000a900473ffffffffffffffffffffffffffffffffffffffff16908060040154908060050154908060060160009054906101000a900460ff1690806007018054611508906125c0565b80601f0160208091040260200160405190810160405280929190818152602001828054611534906125c0565b80156115815780601f1061155657610100808354040283529160200191611581565b820191906000526020600020905b81548152906001019060200180831161156457829003601f168201915b5050505050905088565b60075481565b60026020528060005260406000206000915090508060000154908060010180546115ba906125c0565b80601f01602080910402602001604051908101604052809291908181526020018280546115e6906125c0565b80156116335780601f1061160857610100808354040283529160200191611633565b820191906000526020600020905b81548152906001019060200180831161161657829003601f168201915b5050505050908060020154908060030160009054906101000a900473ffffffffffffffffffffffffffffffffffffffff16908060040154908060050160009054906101000a900460ff16905086565b6000600190505b600854811161174a573373ffffffffffffffffffffffffffffffffffffffff166002600083815260200190815260200160002060030160009054906101000a900473ffffffffffffffffffffffffffffffffffffffff1673ffffffffffffffffffffffffffffffffffffffff161415611737576040517f08c379a000000000000000000000000000000000000000000000000000000000815260040161172e90612716565b60405180910390fd5b8080611742906123de565b915050611689565b506008600081548092919061175e906123de565b91905055506040518060c0016040528060085481526020018381526020018281526020013373ffffffffffffffffffffffffffffffffffffffff16815260200160018152602001600015158152506002600060085481526020019081526020016000206000820151816000015560208201518160010190805190602001906117e7929190611c50565b506040820151816002015560608201518160030160006101000a81548173ffffffffffffffffffffffffffffffffffffffff021916908373ffffffffffffffffffffffffffffffffffffffff1602179055506080820151816004015560a08201518160050160006101000a81548160ff021916908315150217905550905050600854600560003373ffffffffffffffffffffffffffffffffffffffff1673ffffffffffffffffffffffffffffffffffffffff168152602001908152602001600020819055505050565b60036020528060005260406000206000915090508060000154908060010180546118d9906125c0565b80601f0160208091040260200160405190810160405280929190818152602001828054611905906125c0565b80156119525780601f1061192757610100808354040283529160200191611952565b820191906000526020600020905b81548152906001019060200180831161193557829003601f168201915b5050505050908060020154908060030160009054906101000a900473ffffffffffffffffffffffffffffffffffffffff16908060040154908060050154908060060160009054906101000a900460ff16908060070180546119b2906125c0565b80601f01602080910402602001604051908101604052809291908181526020018280546119de906125c0565b8015611a2b5780601f10611a0057610100808354040283529160200191611a2b565b820191906000526020600020905b815481529060010190602001808311611a0e57829003601f168201915b5050505050905088565b60008054906101000a900473ffffffffffffffffffffffffffffffffffffffff1681565b60016020528060005260406000206000915054906101000a900460ff1681565b60066020528060005260406000206000915090505481565b60008054906101000a900473ffffffffffffffffffffffffffffffffffffffff1673ffffffffffffffffffffffffffffffffffffffff163373ffffffffffffffffffffffffffffffffffffffff1614611b1f576040517f08c379a0000000000000000000000000000000000000000000000000000000008152600401611b1690612505565b60405180910390fd5b600115156002600083815260200190815260200160002060050160009054906101000a900460ff1615151415611b8a576040517f08c379a0000000000000000000000000000000000000000000000000000000008152600401611b8190612782565b60405180910390fd5b600160026000838152602001908152602001600020600401541415611c1257600a6000815480929190611bbc906123de565b9190505550600a54600260008381526020019081526020016000206004018190555060016002600083815260200190815260200160002060050160006101000a81548160ff021916908315150217905550611c4d565b6040517f08c379a0000000000000000000000000000000000000000000000000000000008152600401611c44906127ee565b60405180910390fd5b50565b828054611c5c906125c0565b90600052602060002090601f016020900481019282611c7e5760008555611cc5565b82601f10611c9757805160ff1916838001178555611cc5565b82800160010185558215611cc5579182015b82811115611cc4578251825591602001919060010190611ca9565b5b509050611cd29190611cd6565b5090565b5b80821115611cef576000816000905550600101611cd7565b5090565b6000604051905090565b600080fd5b600080fd5b600080fd5b600080fd5b6000601f19601f8301169050919050565b7f4e487b7100000000000000000000000000000000000000000000000000000000600052604160045260246000fd5b611d5a82611d11565b810181811067ffffffffffffffff82111715611d7957611d78611d22565b5b80604052505050565b6000611d8c611cf3565b9050611d988282611d51565b919050565b600067ffffffffffffffff821115611db857611db7611d22565b5b611dc182611d11565b9050602081019050919050565b82818337600083830152505050565b6000611df0611deb84611d9d565b611d82565b905082815260208101848484011115611e0c57611e0b611d0c565b5b611e17848285611dce565b509392505050565b600082601f830112611e3457611e33611d07565b5b8135611e44848260208601611ddd565b91505092915050565b6000819050919050565b611e6081611e4d565b8114611e6b57600080fd5b50565b600081359050611e7d81611e57565b92915050565b600080600060608486031215611e9c57611e9b611cfd565b5b600084013567ffffffffffffffff811115611eba57611eb9611d02565b5b611ec686828701611e1f565b9350506020611ed786828701611e6e565b9250506040611ee886828701611e6e565b9150509250925092565b600073ffffffffffffffffffffffffffffffffffffffff82169050919050565b6000611f1d82611ef2565b9050919050565b611f2d81611f12565b8114611f3857600080fd5b50565b600081359050611f4a81611f24565b92915050565b60008060408385031215611f6757611f66611cfd565b5b6000611f7585828601611f3b565b925050602083013567ffffffffffffffff811115611f9657611f95611d02565b5b611fa285828601611e1f565b9150509250929050565b611fb581611e4d565b82525050565b6000602082019050611fd06000830184611fac565b92915050565b600060208284031215611fec57611feb611cfd565b5b6000611ffa84828501611f3b565b91505092915050565b600081519050919050565b600082825260208201905092915050565b60005b8381101561203d578082015181840152602081019050612022565b8381111561204c576000848401525b50505050565b600061205d82612003565b612067818561200e565b935061207781856020860161201f565b61208081611d11565b840191505092915050565b600060608201905081810360008301526120a58186612052565b90506120b46020830185611fac565b6120c16040830184611fac565b949350505050565b6000602082840312156120df576120de611cfd565b5b60006120ed84828501611e6e565b91505092915050565b6120ff81611f12565b82525050565b7f4e487b7100000000000000000000000000000000000000000000000000000000600052602160045260246000fd5b6003811061214557612144612105565b5b50565b600081905061215682612134565b919050565b600061216682612148565b9050919050565b6121768161215b565b82525050565b600061010082019050612192600083018b611fac565b81810360208301526121a4818a612052565b90506121b36040830189611fac565b6121c060608301886120f6565b6121cd6080830187611fac565b6121da60a0830186611fac565b6121e760c083018561216d565b81810360e08301526121f98184612052565b90509998505050505050505050565b60008115159050919050565b61221d81612208565b82525050565b600060c0820190506122386000830189611fac565b818103602083015261224a8188612052565b90506122596040830187611fac565b61226660608301866120f6565b6122736080830185611fac565b61228060a0830184612214565b979650505050505050565b600080604083850312156122a2576122a1611cfd565b5b600083013567ffffffffffffffff8111156122c0576122bf611d02565b5b6122cc85828601611e1f565b92505060206122dd85828601611e6e565b9150509250929050565b60006020820190506122fc60008301846120f6565b92915050565b60006020820190506123176000830184612214565b92915050565b7f73616d652063616e6469646174652063616e277420626520726567697374657260008201527f20616761696e0000000000000000000000000000000000000000000000000000602082015250565b600061237960268361200e565b91506123848261231d565b604082019050919050565b600060208201905081810360008301526123a88161236c565b9050919050565b7f4e487b7100000000000000000000000000000000000000000000000000000000600052601160045260246000fd5b60006123e982611e4d565b91507fffffffffffffffffffffffffffffffffffffffffffffffffffffffffffffffff82141561241c5761241b6123af565b5b600182019050919050565b7f566f746572206973206e6f742076657269666965640000000000000000000000600082015250565b600061245d60158361200e565b915061246882612427565b602082019050919050565b6000602082019050818103600083015261248c81612450565b9050919050565b7f617574686f726974792063616e206f6e6c792063616c6c20746869732066756e60008201527f6374696f6e000000000000000000000000000000000000000000000000000000602082015250565b60006124ef60258361200e565b91506124fa82612493565b604082019050919050565b6000602082019050818103600083015261251e816124e2565b9050919050565b7f616c7265616479206170726f7665640000000000000000000000000000000000600082015250565b600061255b600f8361200e565b915061256682612525565b602082019050919050565b6000602082019050818103600083015261258a8161254e565b9050919050565b7f4e487b7100000000000000000000000000000000000000000000000000000000600052602260045260246000fd5b600060028204905060018216806125d857607f821691505b602082108114156125ec576125eb612591565b5b50919050565b7f74686572206973206e6f20737563682063616e64696461746500000000000000600082015250565b600061262860198361200e565b9150612633826125f2565b602082019050919050565b600060208201905081810360008301526126578161261b565b9050919050565b7f7468657265206973206e6f2063616e6469646174650000000000000000000000600082015250565b600061269460158361200e565b915061269f8261265e565b602082019050919050565b600060208201905081810360008301526126c381612687565b9050919050565b7f616c726561647920637265617465640000000000000000000000000000000000600082015250565b6000612700600f8361200e565b915061270b826126ca565b602082019050919050565b6000602082019050818103600083015261272f816126f3565b9050919050565b7f416c726561647920766f74657220494420416c6c6f6361746564200000000000600082015250565b600061276c601b8361200e565b915061277782612736565b602082019050919050565b6000602082019050818103600083015261279b8161275f565b9050919050565b7f4669737420796f75206e65656420746f20726567697374657200000000000000600082015250565b60006127d860198361200e565b91506127e3826127a2565b602082019050919050565b60006020820190508181036000830152612807816127cb565b905091905056fea26469706673582212205fd62c17dc854b121d8e93d2e084933663cb2175d83d6874e88c86f1855964fb64736f6c634300080a0033",
  "immutableReferences": {},
  "source": "// SPDX-License-Identifier: GPL-3.0\npragma solidity ^0.8.7;\n\ncontract Election {\n    address public authority;\n    constructor(){\n        authority = msg.sender;\n    }\n     struct Voter{\n        uint RegId;\n        string voterName;\n        uint voterWard;\n        address voterAddress;\n        uint voterId;\n        bool status;\n        \n    }\n    struct  Candidate{\n        uint CandidateRegId;\n        string name;\n        uint ward;\n        address id;\n        uint vote;\n        uint VoterId;\n        candidateStatus  status;\n        string remark;   \n    } \n    enum candidateStatus {pending, approved, rejected}\n    mapping (address => bool) public votes;\n    mapping (uint => Voter) public voter;\n    mapping (uint  => Candidate) public candidateReg;\n    mapping (uint  => Candidate) public candidatelist;\n    mapping (address => uint ) public voterlogin;\n    mapping (address => uint) public candidatelogin;\n    uint public candidateCount;\n    uint public voterCount;\n    uint public approvedCandidateCount;\n \n    modifier authorization(){\n        require(msg.sender == authority,\"authority can only call this function\");\n        _;\n    }\n    \n    function voterRegistration(\n        string memory _name, \n        uint _ward \n    ) \n        public\n    {\n        for(uint i = 1; i <=  voterCount; i++ ){\n            if(voter[i].voterAddress == msg.sender){\n                revert(\"already created\");\n            }\n        }\n        voterCount++;\n        voter[voterCount] = Voter(\n            voterCount,\n            _name,\n            _ward,\n            msg.sender,\n            1,\n            false\n        );\n        voterlogin[msg.sender] = voterCount;\n    }\n    uint voterIdgenerator = 1000;\n\n    function allocateId(uint _voterRegId) public authorization {\n            if(voter[_voterRegId].status == true){\n                revert(\"Already voter ID Allocated \");\n            }\n            // else if(_voterRegId <= 0 || _voterRegId > count  ){\n            //     revert(\"voter not found\");\n            // }   \n        \n                else if(voter[_voterRegId].voterId == 1){\n                     voterIdgenerator++;\n                      voter[_voterRegId].voterId = voterIdgenerator;\n                  voter[_voterRegId].status = true;\n            } \n            else{\n                revert(\"Fist you need to register\");\n            }\n\n                         \n    }\n\n    function cantidateRegistration(string memory _name, uint _ward, uint _voterId)public{\n    // add conditon to valte\n           for(uint j=1 ; j<=candidateCount;j++){\n             if(candidateReg[j].id == msg.sender ){\n                 revert(\"same candidate can't be register again\");\n             }\n         }\n         for(uint j=1 ; j<=voterCount;j++){\n             if(voter[j].voterAddress == msg.sender && voter[j].status == false){\n                 revert(\"Voter is not verified\");\n             }\n         }\n\n         candidateCount++;\n                    candidateStatus _candidateStatus = candidateStatus.pending;\n                    candidateReg[candidateCount] = Candidate(\n                        candidateCount,\n                        _name,\n                        _ward,\n                        msg.sender, \n                        0,\n                        _voterId, \n                        _candidateStatus,\n                        \"\"\n                     \n                    );\n                    candidatelogin[msg.sender] = candidateCount;  \n    }\n\n    function approveCadidedress(address _voteraddress, string memory _remark) public authorization {\n         for(uint j=1 ; j<=approvedCandidateCount;j++){\n             if(candidatelist[j].id == _voteraddress){\n                 revert(\"already aproved\");\n             }\n         }\n         uint flag = 0;\n        for(uint i=1; i <= candidateCount; i++ ){\n            if(candidateReg[i].id == _voteraddress){\n                \n                        approvedCandidateCount++;\n                        candidateStatus _candidateStatus = candidateStatus.approved;\n                        candidateReg[i] = Candidate(candidateReg[i].CandidateRegId, candidateReg[i].name,candidateReg[i].ward,_voteraddress,0, candidateReg[i].VoterId, _candidateStatus,_remark);\n                        candidatelist[approvedCandidateCount] = Candidate(\n                            approvedCandidateCount, \n                            candidateReg[i].name,\n                            candidateReg[i].ward,\n                            _voteraddress, \n                            0,\n                            candidateReg[i].VoterId, \n                            _candidateStatus,\n                            _remark\n                        );  \n                          candidatelogin[_voteraddress] = i; \n                        \n\n                        flag =1;\n                      }\n\n        }\n        if(flag != 1){\n            revert(\"ther is no such candidate\");\n        }\n     }\n       function RejectedCadidedress(address _voteraddress, string memory _remark) public authorization {\n         for(uint j=1 ; j<=approvedCandidateCount;j++){\n             if(candidatelist[j].id == _voteraddress){\n                 revert(\"already aproved\");\n             }\n         }\n         uint flag = 0;\n        for(uint i=1; i<= candidateCount; i++ ){\n            if(candidateReg[i].id == _voteraddress){\n                \n                        approvedCandidateCount++;\n                        candidateStatus _candidateStatus = candidateStatus.rejected;\n                        candidateReg[i] = Candidate(candidateReg[i].CandidateRegId, candidateReg[i].name,candidateReg[i].ward,_voteraddress,0, candidateReg[i].VoterId, _candidateStatus,_remark);\n                       \n\n                        flag =1;\n                      }\n\n        }\n        if(flag != 1){\n            revert(\"ther is no such candidate\");\n        }\n     }\n\n     function result() public view returns(string memory, uint, uint){\n         require(approvedCandidateCount>=1, \"there is no candidate\");\n         uint votecount ;\n         uint index ;\n         for(uint i =1 ; i<=approvedCandidateCount; i++){\n             if(candidatelist[i].vote > votecount){\n                 votecount = candidatelist[i].vote;\n                 index = i ;\n                }\n          }\n         return(\n            candidatelist[index].name,\n            candidatelist[index].vote,\n            candidatelist[index].ward\n            );   \n     } \n}\n\n\n",
  "sourcePath": "/home/nisamudheen/Desktop/sps/voting_smartcontract/contracts/election.sol",
  "compiler": {
    "name": "solc",
    "version": "0.8.10+commit.fc410830.Emscripten.clang"
  },
  "schemaVersion": "3.4.3",
  "updatedAt": "2021-12-31T03:14:04.153Z",
  "devdoc": {
    "kind": "dev",
    "methods": {},
    "version": 1
  },
  "userdoc": {
    "kind": "user",
    "methods": {},
    "version": 1
  }
}