{
  "contractName": "Election",
  "abi": [
    {
      "inputs": [],
      "stateMutability": "nonpayable",
      "type": "constructor"
    },
    {
      "inputs": [],
      "name": "approvedCandidateCount",
      "outputs": [
        {
          "internalType": "uint256",
          "name": "",
          "type": "uint256"
        }
      ],
      "stateMutability": "view",
      "type": "function"
    },
    {
      "inputs": [],
      "name": "authority",
      "outputs": [
        {
          "internalType": "address",
          "name": "",
          "type": "address"
        }
      ],
      "stateMutability": "view",
      "type": "function"
    },
    {
      "inputs": [],
      "name": "candidateCount",
      "outputs": [
        {
          "internalType": "uint256",
          "name": "",
          "type": "uint256"
        }
      ],
      "stateMutability": "view",
      "type": "function"
    },
    {
      "inputs": [
        {
          "internalType": "uint256",
          "name": "",
          "type": "uint256"
        }
      ],
      "name": "candidateReg",
      "outputs": [
        {
          "internalType": "uint256",
          "name": "CandidateRegId",
          "type": "uint256"
        },
        {
          "internalType": "string",
          "name": "name",
          "type": "string"
        },
        {
          "internalType": "uint256",
          "name": "ward",
          "type": "uint256"
        },
        {
          "internalType": "address",
          "name": "id",
          "type": "address"
        },
        {
          "internalType": "uint256",
          "name": "vote",
          "type": "uint256"
        },
        {
          "internalType": "uint256",
          "name": "VoterId",
          "type": "uint256"
        },
        {
          "internalType": "enum Election.candidateStatus",
          "name": "status",
          "type": "uint8"
        },
        {
          "internalType": "string",
          "name": "remark",
          "type": "string"
        }
      ],
      "stateMutability": "view",
      "type": "function"
    },
    {
      "inputs": [
        {
          "internalType": "uint256",
          "name": "",
          "type": "uint256"
        }
      ],
      "name": "candidatelist",
      "outputs": [
        {
          "internalType": "uint256",
          "name": "CandidateRegId",
          "type": "uint256"
        },
        {
          "internalType": "string",
          "name": "name",
          "type": "string"
        },
        {
          "internalType": "uint256",
          "name": "ward",
          "type": "uint256"
        },
        {
          "internalType": "address",
          "name": "id",
          "type": "address"
        },
        {
          "internalType": "uint256",
          "name": "vote",
          "type": "uint256"
        },
        {
          "internalType": "uint256",
          "name": "VoterId",
          "type": "uint256"
        },
        {
          "internalType": "enum Election.candidateStatus",
          "name": "status",
          "type": "uint8"
        },
        {
          "internalType": "string",
          "name": "remark",
          "type": "string"
        }
      ],
      "stateMutability": "view",
      "type": "function"
    },
    {
      "inputs": [
        {
          "internalType": "address",
          "name": "",
          "type": "address"
        }
      ],
      "name": "candidatelogin",
      "outputs": [
        {
          "internalType": "uint256",
          "name": "",
          "type": "uint256"
        }
      ],
      "stateMutability": "view",
      "type": "function"
    },
    {
      "inputs": [
        {
          "internalType": "uint256",
          "name": "",
          "type": "uint256"
        }
      ],
      "name": "voter",
      "outputs": [
        {
          "internalType": "uint256",
          "name": "RegId",
          "type": "uint256"
        },
        {
          "internalType": "string",
          "name": "voterName",
          "type": "string"
        },
        {
          "internalType": "uint256",
          "name": "voterWard",
          "type": "uint256"
        },
        {
          "internalType": "address",
          "name": "voterAddress",
          "type": "address"
        },
        {
          "internalType": "uint256",
          "name": "voterId",
          "type": "uint256"
        },
        {
          "internalType": "bool",
          "name": "status",
          "type": "bool"
        }
      ],
      "stateMutability": "view",
      "type": "function"
    },
    {
      "inputs": [],
      "name": "voterCount",
      "outputs": [
        {
          "internalType": "uint256",
          "name": "",
          "type": "uint256"
        }
      ],
      "stateMutability": "view",
      "type": "function"
    },
    {
      "inputs": [
        {
          "internalType": "address",
          "name": "",
          "type": "address"
        }
      ],
      "name": "voterlogin",
      "outputs": [
        {
          "internalType": "uint256",
          "name": "",
          "type": "uint256"
        }
      ],
      "stateMutability": "view",
      "type": "function"
    },
    {
      "inputs": [
        {
          "internalType": "address",
          "name": "",
          "type": "address"
        }
      ],
      "name": "votes",
      "outputs": [
        {
          "internalType": "bool",
          "name": "",
          "type": "bool"
        }
      ],
      "stateMutability": "view",
      "type": "function"
    },
    {
      "inputs": [
        {
          "internalType": "string",
          "name": "_name",
          "type": "string"
        },
        {
          "internalType": "uint256",
          "name": "_ward",
          "type": "uint256"
        }
      ],
      "name": "voterRegistration",
      "outputs": [],
      "stateMutability": "nonpayable",
      "type": "function"
    },
    {
      "inputs": [
        {
          "internalType": "uint256",
          "name": "_voterRegId",
          "type": "uint256"
        }
      ],
      "name": "allocateId",
      "outputs": [],
      "stateMutability": "nonpayable",
      "type": "function"
    },
    {
      "inputs": [
        {
          "internalType": "string",
          "name": "_name",
          "type": "string"
        },
        {
          "internalType": "uint256",
          "name": "_ward",
          "type": "uint256"
        },
        {
          "internalType": "uint256",
          "name": "_voterId",
          "type": "uint256"
        }
      ],
      "name": "cantidateRegistration",
      "outputs": [],
      "stateMutability": "nonpayable",
      "type": "function"
    },
    {
      "inputs": [
        {
          "internalType": "address",
          "name": "_voteraddress",
          "type": "address"
        },
        {
          "internalType": "string",
          "name": "_remark",
          "type": "string"
        }
      ],
      "name": "approveCadidedress",
      "outputs": [],
      "stateMutability": "nonpayable",
      "type": "function"
    },
    {
      "inputs": [
        {
          "internalType": "address",
          "name": "_voteraddress",
          "type": "address"
        },
        {
          "internalType": "string",
          "name": "_remark",
          "type": "string"
        }
      ],
      "name": "RejectedCadidedress",
      "outputs": [],
      "stateMutability": "nonpayable",
      "type": "function"
    },
    {
      "inputs": [],
      "name": "result",
      "outputs": [
        {
          "internalType": "string",
          "name": "",
          "type": "string"
        },
        {
          "internalType": "uint256",
          "name": "",
          "type": "uint256"
        },
        {
          "internalType": "uint256",
          "name": "",
          "type": "uint256"
        }
      ],
      "stateMutability": "view",
      "type": "function"
    }
  ],
  "bytecode": "0x60806040526103e8600a5534801561001657600080fd5b50336000806101000a81548173ffffffffffffffffffffffffffffffffffffffff021916908373ffffffffffffffffffffffffffffffffffffffff1602179055506128d4806100666000396000f3fe608060405234801561001057600080fd5b50600436106101005760003560e01c8063a9a981a311610097578063bf7e214f11610066578063bf7e214f146102c2578063d8bff5a5146102e0578063e749ee4814610310578063f22e9d0b1461034057610100565b8063a9a981a31461021c578063ab8ed1ba1461023a578063b1c63ed01461026f578063bcaf189b1461028b57610100565b80635f4e5628116100d35780635f4e56281461018b57806365372147146101a75780637400df71146101c7578063911eb81d146101e557610100565b8063032071f4146101055780630ceab5a91461012157806342169e481461013d5780634bc819461461015b575b600080fd5b61011f600480360381019061011a9190611f7f565b61035c565b005b61013b6004803603810190610136919061204c565b6105f0565b005b610145610cc4565b60405161015291906120b7565b60405180910390f35b610175600480360381019061017091906120d2565b610cca565b60405161018291906120b7565b60405180910390f35b6101a560048036038101906101a0919061204c565b610ce2565b005b6101af611372565b6040516101be93929190612187565b60405180910390f35b6101cf6114fc565b6040516101dc91906120b7565b60405180910390f35b6101ff60048036038101906101fa91906121c5565b611502565b604051610213989796959493929190612278565b60405180910390f35b610224611687565b60405161023191906120b7565b60405180910390f35b610254600480360381019061024f91906121c5565b61168d565b6040516102669695949392919061231f565b60405180910390f35b61028960048036038101906102849190612387565b61177e565b005b6102a560048036038101906102a091906121c5565b6119ac565b6040516102b9989796959493929190612278565b60405180910390f35b6102ca611b31565b6040516102d791906123e3565b60405180910390f35b6102fa60048036038101906102f591906120d2565b611b55565b60405161030791906123fe565b60405180910390f35b61032a600480360381019061032591906120d2565b611b75565b60405161033791906120b7565b60405180910390f35b61035a600480360381019061035591906121c5565b611b8d565b005b6000600190505b6007548111610424573373ffffffffffffffffffffffffffffffffffffffff166003600083815260200190815260200160002060030160009054906101000a900473ffffffffffffffffffffffffffffffffffffffff1673ffffffffffffffffffffffffffffffffffffffff161415610411576040517f08c379a00000000000000000000000000000000000000000000000000000000081526004016104089061248b565b60405180910390fd5b808061041c906124da565b915050610363565b5060076000815480929190610438906124da565b9190505550600060405180610100016040528060075481526020018581526020018481526020013373ffffffffffffffffffffffffffffffffffffffff1681526020016000815260200183815260200182600281111561049b5761049a612201565b5b8152602001604051806020016040528060008152508152506003600060075481526020019081526020016000206000820151816000015560208201518160010190805190602001906104ee929190611d4c565b506040820151816002015560608201518160030160006101000a81548173ffffffffffffffffffffffffffffffffffffffff021916908373ffffffffffffffffffffffffffffffffffffffff1602179055506080820151816004015560a0820151816005015560c08201518160060160006101000a81548160ff0219169083600281111561057f5761057e612201565b5b021790555060e08201518160070190805190602001906105a0929190611d4c565b50905050600754600660003373ffffffffffffffffffffffffffffffffffffffff1673ffffffffffffffffffffffffffffffffffffffff1681526020019081526020016000208190555050505050565b60008054906101000a900473ffffffffffffffffffffffffffffffffffffffff1673ffffffffffffffffffffffffffffffffffffffff163373ffffffffffffffffffffffffffffffffffffffff161461067e576040517f08c379a000000000000000000000000000000000000000000000000000000000815260040161067590612595565b60405180910390fd5b6000600190505b6009548111610746578273ffffffffffffffffffffffffffffffffffffffff166004600083815260200190815260200160002060030160009054906101000a900473ffffffffffffffffffffffffffffffffffffffff1673ffffffffffffffffffffffffffffffffffffffff161415610733576040517f08c379a000000000000000000000000000000000000000000000000000000000815260040161072a90612601565b60405180910390fd5b808061073e906124da565b915050610685565b50600080600190505b6007548111610c7b578373ffffffffffffffffffffffffffffffffffffffff166003600083815260200190815260200160002060030160009054906101000a900473ffffffffffffffffffffffffffffffffffffffff1673ffffffffffffffffffffffffffffffffffffffff161415610c6857600960008154809291906107d5906124da565b9190505550600060029050604051806101000160405280600754815260200160036000858152602001908152602001600020600101805461081590612650565b80601f016020809104026020016040519081016040528092919081815260200182805461084190612650565b801561088e5780601f106108635761010080835404028352916020019161088e565b820191906000526020600020905b81548152906001019060200180831161087157829003601f168201915b50505050508152602001600360008581526020019081526020016000206002015481526020013373ffffffffffffffffffffffffffffffffffffffff168152602001600081526020016003600085815260200190815260200160002060050154815260200182600281111561090657610905612201565b5b81526020018581525060036000848152602001908152602001600020600082015181600001556020820151816001019080519060200190610948929190611d4c565b506040820151816002015560608201518160030160006101000a81548173ffffffffffffffffffffffffffffffffffffffff021916908373ffffffffffffffffffffffffffffffffffffffff1602179055506080820151816004015560a0820151816005015560c08201518160060160006101000a81548160ff021916908360028111156109d9576109d8612201565b5b021790555060e08201518160070190805190602001906109fa929190611d4c565b509050506040518061010001604052806009548152602001600360008581526020019081526020016000206001018054610a3390612650565b80601f0160208091040260200160405190810160405280929190818152602001828054610a5f90612650565b8015610aac5780601f10610a8157610100808354040283529160200191610aac565b820191906000526020600020905b815481529060010190602001808311610a8f57829003601f168201915b50505050508152602001600360008581526020019081526020016000206002015481526020018673ffffffffffffffffffffffffffffffffffffffff1681526020016000815260200160036000858152602001908152602001600020600501548152602001826002811115610b2457610b23612201565b5b815260200185815250600460006009548152602001908152602001600020600082015181600001556020820151816001019080519060200190610b68929190611d4c565b506040820151816002015560608201518160030160006101000a81548173ffffffffffffffffffffffffffffffffffffffff021916908373ffffffffffffffffffffffffffffffffffffffff1602179055506080820151816004015560a0820151816005015560c08201518160060160006101000a81548160ff02191690836002811115610bf957610bf8612201565b5b021790555060e0820151816007019080519060200190610c1a929190611d4c565b5090505081600660008773ffffffffffffffffffffffffffffffffffffffff1673ffffffffffffffffffffffffffffffffffffffff1681526020019081526020016000208190555060019250505b8080610c73906124da565b91505061074f565b5060018114610cbf576040517f08c379a0000000000000000000000000000000000000000000000000000000008152600401610cb6906126ce565b60405180910390fd5b505050565b60085481565b60056020528060005260406000206000915090505481565b60008054906101000a900473ffffffffffffffffffffffffffffffffffffffff1673ffffffffffffffffffffffffffffffffffffffff163373ffffffffffffffffffffffffffffffffffffffff1614610d70576040517f08c379a0000000000000000000000000000000000000000000000000000000008152600401610d6790612595565b60405180910390fd5b6000600190505b6009548111610e38578273ffffffffffffffffffffffffffffffffffffffff166004600083815260200190815260200160002060030160009054906101000a900473ffffffffffffffffffffffffffffffffffffffff1673ffffffffffffffffffffffffffffffffffffffff161415610e25576040517f08c379a0000000000000000000000000000000000000000000000000000000008152600401610e1c90612601565b60405180910390fd5b8080610e30906124da565b915050610d77565b50600080600190505b6007548111611329578373ffffffffffffffffffffffffffffffffffffffff166003600083815260200190815260200160002060030160009054906101000a900473ffffffffffffffffffffffffffffffffffffffff1673ffffffffffffffffffffffffffffffffffffffff1614156113165760096000815480929190610ec7906124da565b91905055506000600190506040518061010001604052806007548152602001600360008581526020019081526020016000206001018054610f0790612650565b80601f0160208091040260200160405190810160405280929190818152602001828054610f3390612650565b8015610f805780601f10610f5557610100808354040283529160200191610f80565b820191906000526020600020905b815481529060010190602001808311610f6357829003601f168201915b50505050508152602001600360008581526020019081526020016000206002015481526020013373ffffffffffffffffffffffffffffffffffffffff1681526020016000815260200160036000858152602001908152602001600020600501548152602001826002811115610ff857610ff7612201565b5b8152602001858152506003600084815260200190815260200160002060008201518160000155602082015181600101908051906020019061103a929190611d4c565b506040820151816002015560608201518160030160006101000a81548173ffffffffffffffffffffffffffffffffffffffff021916908373ffffffffffffffffffffffffffffffffffffffff1602179055506080820151816004015560a0820151816005015560c08201518160060160006101000a81548160ff021916908360028111156110cb576110ca612201565b5b021790555060e08201518160070190805190602001906110ec929190611d4c565b50905050604051806101000160405280600954815260200160036000858152602001908152602001600020600101805461112590612650565b80601f016020809104026020016040519081016040528092919081815260200182805461115190612650565b801561119e5780601f106111735761010080835404028352916020019161119e565b820191906000526020600020905b81548152906001019060200180831161118157829003601f168201915b50505050508152602001600360008581526020019081526020016000206002015481526020018673ffffffffffffffffffffffffffffffffffffffff168152602001600081526020016003600085815260200190815260200160002060050154815260200182600281111561121657611215612201565b5b81526020018581525060046000600954815260200190815260200160002060008201518160000155602082015181600101908051906020019061125a929190611d4c565b506040820151816002015560608201518160030160006101000a81548173ffffffffffffffffffffffffffffffffffffffff021916908373ffffffffffffffffffffffffffffffffffffffff1602179055506080820151816004015560a0820151816005015560c08201518160060160006101000a81548160ff021916908360028111156112eb576112ea612201565b5b021790555060e082015181600701908051906020019061130c929190611d4c565b5090505060019250505b8080611321906124da565b915050610e41565b506001811461136d576040517f08c379a0000000000000000000000000000000000000000000000000000000008152600401611364906126ce565b60405180910390fd5b505050565b6060600080600160095410156113bd576040517f08c379a00000000000000000000000000000000000000000000000000000000081526004016113b49061273a565b60405180910390fd5b6000806000600190505b600954811161141e57826004600083815260200190815260200160002060040154111561140b57600460008281526020019081526020016000206004015492508091505b8080611416906124da565b9150506113c7565b50600460008281526020019081526020016000206001016004600083815260200190815260200160002060040154600460008481526020019081526020016000206002015482805461146f90612650565b80601f016020809104026020016040519081016040528092919081815260200182805461149b90612650565b80156114e85780601f106114bd576101008083540402835291602001916114e8565b820191906000526020600020905b8154815290600101906020018083116114cb57829003601f168201915b505050505092509450945094505050909192565b60095481565b600460205280600052604060002060009150905080600001549080600101805461152b90612650565b80601f016020809104026020016040519081016040528092919081815260200182805461155790612650565b80156115a45780601f10611579576101008083540402835291602001916115a4565b820191906000526020600020905b81548152906001019060200180831161158757829003601f168201915b5050505050908060020154908060030160009054906101000a900473ffffffffffffffffffffffffffffffffffffffff16908060040154908060050154908060060160009054906101000a900460ff169080600701805461160490612650565b80601f016020809104026020016040519081016040528092919081815260200182805461163090612650565b801561167d5780601f106116525761010080835404028352916020019161167d565b820191906000526020600020905b81548152906001019060200180831161166057829003601f168201915b5050505050905088565b60075481565b60026020528060005260406000206000915090508060000154908060010180546116b690612650565b80601f01602080910402602001604051908101604052809291908181526020018280546116e290612650565b801561172f5780601f106117045761010080835404028352916020019161172f565b820191906000526020600020905b81548152906001019060200180831161171257829003601f168201915b5050505050908060020154908060030160009054906101000a900473ffffffffffffffffffffffffffffffffffffffff16908060040154908060050160009054906101000a900460ff16905086565b6000600190505b6008548111611846573373ffffffffffffffffffffffffffffffffffffffff166002600083815260200190815260200160002060030160009054906101000a900473ffffffffffffffffffffffffffffffffffffffff1673ffffffffffffffffffffffffffffffffffffffff161415611833576040517f08c379a000000000000000000000000000000000000000000000000000000000815260040161182a906127a6565b60405180910390fd5b808061183e906124da565b915050611785565b506008600081548092919061185a906124da565b91905055506040518060c0016040528060085481526020018381526020018281526020013373ffffffffffffffffffffffffffffffffffffffff16815260200160018152602001600015158152506002600060085481526020019081526020016000206000820151816000015560208201518160010190805190602001906118e3929190611d4c565b506040820151816002015560608201518160030160006101000a81548173ffffffffffffffffffffffffffffffffffffffff021916908373ffffffffffffffffffffffffffffffffffffffff1602179055506080820151816004015560a08201518160050160006101000a81548160ff021916908315150217905550905050600854600560003373ffffffffffffffffffffffffffffffffffffffff1673ffffffffffffffffffffffffffffffffffffffff168152602001908152602001600020819055505050565b60036020528060005260406000206000915090508060000154908060010180546119d590612650565b80601f0160208091040260200160405190810160405280929190818152602001828054611a0190612650565b8015611a4e5780601f10611a2357610100808354040283529160200191611a4e565b820191906000526020600020905b815481529060010190602001808311611a3157829003601f168201915b5050505050908060020154908060030160009054906101000a900473ffffffffffffffffffffffffffffffffffffffff16908060040154908060050154908060060160009054906101000a900460ff1690806007018054611aae90612650565b80601f0160208091040260200160405190810160405280929190818152602001828054611ada90612650565b8015611b275780601f10611afc57610100808354040283529160200191611b27565b820191906000526020600020905b815481529060010190602001808311611b0a57829003601f168201915b5050505050905088565b60008054906101000a900473ffffffffffffffffffffffffffffffffffffffff1681565b60016020528060005260406000206000915054906101000a900460ff1681565b60066020528060005260406000206000915090505481565b60008054906101000a900473ffffffffffffffffffffffffffffffffffffffff1673ffffffffffffffffffffffffffffffffffffffff163373ffffffffffffffffffffffffffffffffffffffff1614611c1b576040517f08c379a0000000000000000000000000000000000000000000000000000000008152600401611c1290612595565b60405180910390fd5b600115156002600083815260200190815260200160002060050160009054906101000a900460ff1615151415611c86576040517f08c379a0000000000000000000000000000000000000000000000000000000008152600401611c7d90612812565b60405180910390fd5b600160026000838152602001908152602001600020600401541415611d0e57600a6000815480929190611cb8906124da565b9190505550600a54600260008381526020019081526020016000206004018190555060016002600083815260200190815260200160002060050160006101000a81548160ff021916908315150217905550611d49565b6040517f08c379a0000000000000000000000000000000000000000000000000000000008152600401611d409061287e565b60405180910390fd5b50565b828054611d5890612650565b90600052602060002090601f016020900481019282611d7a5760008555611dc1565b82601f10611d9357805160ff1916838001178555611dc1565b82800160010185558215611dc1579182015b82811115611dc0578251825591602001919060010190611da5565b5b509050611dce9190611dd2565b5090565b5b80821115611deb576000816000905550600101611dd3565b5090565b6000604051905090565b600080fd5b600080fd5b600080fd5b600080fd5b6000601f19601f8301169050919050565b7f4e487b7100000000000000000000000000000000000000000000000000000000600052604160045260246000fd5b611e5682611e0d565b810181811067ffffffffffffffff82111715611e7557611e74611e1e565b5b80604052505050565b6000611e88611def565b9050611e948282611e4d565b919050565b600067ffffffffffffffff821115611eb457611eb3611e1e565b5b611ebd82611e0d565b9050602081019050919050565b82818337600083830152505050565b6000611eec611ee784611e99565b611e7e565b905082815260208101848484011115611f0857611f07611e08565b5b611f13848285611eca565b509392505050565b600082601f830112611f3057611f2f611e03565b5b8135611f40848260208601611ed9565b91505092915050565b6000819050919050565b611f5c81611f49565b8114611f6757600080fd5b50565b600081359050611f7981611f53565b92915050565b600080600060608486031215611f9857611f97611df9565b5b600084013567ffffffffffffffff811115611fb657611fb5611dfe565b5b611fc286828701611f1b565b9350506020611fd386828701611f6a565b9250506040611fe486828701611f6a565b9150509250925092565b600073ffffffffffffffffffffffffffffffffffffffff82169050919050565b600061201982611fee565b9050919050565b6120298161200e565b811461203457600080fd5b50565b60008135905061204681612020565b92915050565b6000806040838503121561206357612062611df9565b5b600061207185828601612037565b925050602083013567ffffffffffffffff81111561209257612091611dfe565b5b61209e85828601611f1b565b9150509250929050565b6120b181611f49565b82525050565b60006020820190506120cc60008301846120a8565b92915050565b6000602082840312156120e8576120e7611df9565b5b60006120f684828501612037565b91505092915050565b600081519050919050565b600082825260208201905092915050565b60005b8381101561213957808201518184015260208101905061211e565b83811115612148576000848401525b50505050565b6000612159826120ff565b612163818561210a565b935061217381856020860161211b565b61217c81611e0d565b840191505092915050565b600060608201905081810360008301526121a1818661214e565b90506121b060208301856120a8565b6121bd60408301846120a8565b949350505050565b6000602082840312156121db576121da611df9565b5b60006121e984828501611f6a565b91505092915050565b6121fb8161200e565b82525050565b7f4e487b7100000000000000000000000000000000000000000000000000000000600052602160045260246000fd5b6003811061224157612240612201565b5b50565b600081905061225282612230565b919050565b600061226282612244565b9050919050565b61227281612257565b82525050565b60006101008201905061228e600083018b6120a8565b81810360208301526122a0818a61214e565b90506122af60408301896120a8565b6122bc60608301886121f2565b6122c960808301876120a8565b6122d660a08301866120a8565b6122e360c0830185612269565b81810360e08301526122f5818461214e565b90509998505050505050505050565b60008115159050919050565b61231981612304565b82525050565b600060c08201905061233460008301896120a8565b8181036020830152612346818861214e565b905061235560408301876120a8565b61236260608301866121f2565b61236f60808301856120a8565b61237c60a0830184612310565b979650505050505050565b6000806040838503121561239e5761239d611df9565b5b600083013567ffffffffffffffff8111156123bc576123bb611dfe565b5b6123c885828601611f1b565b92505060206123d985828601611f6a565b9150509250929050565b60006020820190506123f860008301846121f2565b92915050565b60006020820190506124136000830184612310565b92915050565b7f73616d652063616e6469646174652063616e277420626520726567697374657260008201527f20616761696e0000000000000000000000000000000000000000000000000000602082015250565b600061247560268361210a565b915061248082612419565b604082019050919050565b600060208201905081810360008301526124a481612468565b9050919050565b7f4e487b7100000000000000000000000000000000000000000000000000000000600052601160045260246000fd5b60006124e582611f49565b91507fffffffffffffffffffffffffffffffffffffffffffffffffffffffffffffffff821415612518576125176124ab565b5b600182019050919050565b7f617574686f726974792063616e206f6e6c792063616c6c20746869732066756e60008201527f6374696f6e000000000000000000000000000000000000000000000000000000602082015250565b600061257f60258361210a565b915061258a82612523565b604082019050919050565b600060208201905081810360008301526125ae81612572565b9050919050565b7f616c7265616479206170726f7665640000000000000000000000000000000000600082015250565b60006125eb600f8361210a565b91506125f6826125b5565b602082019050919050565b6000602082019050818103600083015261261a816125de565b9050919050565b7f4e487b7100000000000000000000000000000000000000000000000000000000600052602260045260246000fd5b6000600282049050600182168061266857607f821691505b6020821081141561267c5761267b612621565b5b50919050565b7f74686572206973206e6f20737563682063616e64696461746500000000000000600082015250565b60006126b860198361210a565b91506126c382612682565b602082019050919050565b600060208201905081810360008301526126e7816126ab565b9050919050565b7f7468657265206973206e6f2063616e6469646174650000000000000000000000600082015250565b600061272460158361210a565b915061272f826126ee565b602082019050919050565b6000602082019050818103600083015261275381612717565b9050919050565b7f616c726561647920637265617465640000000000000000000000000000000000600082015250565b6000612790600f8361210a565b915061279b8261275a565b602082019050919050565b600060208201905081810360008301526127bf81612783565b9050919050565b7f416c726561647920766f74657220494420416c6c6f6361746564200000000000600082015250565b60006127fc601b8361210a565b9150612807826127c6565b602082019050919050565b6000602082019050818103600083015261282b816127ef565b9050919050565b7f4669737420796f75206e65656420746f20726567697374657200000000000000600082015250565b600061286860198361210a565b915061287382612832565b602082019050919050565b600060208201905081810360008301526128978161285b565b905091905056fea26469706673582212206e950d1a7f4468433c3290ff6ee9df7bcd9540c1608597e6eb7b8e54cf602fe764736f6c634300080a0033",
  "immutableReferences": {},
  "source": "// SPDX-License-Identifier: GPL-3.0\npragma solidity ^0.8.7;\n\ncontract Election {\n    address public authority;\n    constructor(){\n        authority = msg.sender;\n    }\n     struct Voter{\n        uint RegId;\n        string voterName;\n        uint voterWard;\n        address voterAddress;\n        uint voterId;\n        bool status;\n        \n    }\n    struct  Candidate{\n        uint CandidateRegId;\n        string name;\n        uint ward;\n        address id;\n        uint vote;\n        uint VoterId;\n        candidateStatus  status;\n        string remark;   \n    } \n    enum candidateStatus {pending, approved, rejected}\n    mapping (address => bool) public votes;\n    mapping (uint => Voter) public voter;\n    mapping (uint  => Candidate) public candidateReg;\n    mapping (uint  => Candidate) public candidatelist;\n    mapping (address => uint ) public voterlogin;\n    mapping (address => uint) public candidatelogin;\n    uint public candidateCount;\n    uint public voterCount;\n    uint public approvedCandidateCount;\n \n    modifier authorization(){\n        require(msg.sender == authority,\"authority can only call this function\");\n        _;\n    }\n    \n    function voterRegistration(\n        string memory _name, \n        uint _ward \n    ) \n        public\n    {\n        for(uint i = 1; i <=  voterCount; i++ ){\n            if(voter[i].voterAddress == msg.sender){\n                revert(\"already created\");\n            }\n        }\n        voterCount++;\n        voter[voterCount] = Voter(\n            voterCount,\n            _name,\n            _ward,\n            msg.sender,\n            1,\n            false\n        );\n        voterlogin[msg.sender] = voterCount;\n    }\n    uint voterIdgenerator = 1000;\n\n    function allocateId(uint _voterRegId) public authorization {\n            if(voter[_voterRegId].status == true){\n                revert(\"Already voter ID Allocated \");\n            }\n            // else if(_voterRegId <= 0 || _voterRegId > count  ){\n            //     revert(\"voter not found\");\n            // }   \n        \n                else if(voter[_voterRegId].voterId == 1){\n                     voterIdgenerator++;\n                      voter[_voterRegId].voterId = voterIdgenerator;\n                  voter[_voterRegId].status = true;\n            } \n            else{\n                revert(\"Fist you need to register\");\n            }\n\n                         \n    }\n\n    function cantidateRegistration(string memory _name, uint _ward, uint _voterId)public{\n           for(uint j=1 ; j<=candidateCount;j++){\n             if(candidateReg[j].id == msg.sender ){\n                 revert(\"same candidate can't be register again\");\n             }\n         }\n\n         candidateCount++;\n                    candidateStatus _candidateStatus = candidateStatus.pending;\n                    candidateReg[candidateCount] = Candidate(\n                        candidateCount,\n                        _name,\n                        _ward,\n                        msg.sender, \n                        0,\n                        _voterId, \n                        _candidateStatus,\n                        \"\"\n                     \n                    );\n                    candidatelogin[msg.sender] = candidateCount;  \n    }\n\n    function approveCadidedress(address _voteraddress, string memory _remark) public authorization {\n         for(uint j=1 ; j<=approvedCandidateCount;j++){\n             if(candidatelist[j].id == _voteraddress){\n                 revert(\"already aproved\");\n             }\n         }\n         uint flag = 0;\n        for(uint i=1; i<= candidateCount; i++ ){\n            if(candidateReg[i].id == _voteraddress){\n                \n                        approvedCandidateCount++;\n                        candidateStatus _candidateStatus = candidateStatus.approved;\n                        candidateReg[i] = Candidate(candidateCount, candidateReg[i].name,candidateReg[i].ward,msg.sender,0, candidateReg[i].VoterId, _candidateStatus,_remark);\n                        candidatelist[approvedCandidateCount] = Candidate(\n                            approvedCandidateCount, \n                            candidateReg[i].name,\n                            candidateReg[i].ward,\n                            _voteraddress, \n                            0,\n                            candidateReg[i].VoterId, \n                            _candidateStatus,\n                            _remark\n                        );  \n                        \n\n                        flag =1;\n                      }\n\n        }\n        if(flag != 1){\n            revert(\"ther is no such candidate\");\n        }\n     }\n       function RejectedCadidedress(address _voteraddress, string memory _remark) public authorization {\n         for(uint j=1 ; j<=approvedCandidateCount;j++){\n             if(candidatelist[j].id == _voteraddress){\n                 revert(\"already aproved\");\n             }\n         }\n         uint flag = 0;\n        for(uint i=1; i<= candidateCount; i++ ){\n            if(candidateReg[i].id == _voteraddress){\n                \n                        approvedCandidateCount++;\n                        candidateStatus _candidateStatus = candidateStatus.rejected;\n                        candidateReg[i] = Candidate(candidateCount, candidateReg[i].name,candidateReg[i].ward,msg.sender,0, candidateReg[i].VoterId, _candidateStatus,_remark);\n                        candidatelist[approvedCandidateCount] = Candidate(\n                            approvedCandidateCount, \n                            candidateReg[i].name,\n                            candidateReg[i].ward,\n                            _voteraddress, \n                            0,\n                            candidateReg[i].VoterId, \n                            _candidateStatus,\n                            _remark\n                        );  \n                        candidatelogin[_voteraddress] = i;  \n\n                        flag =1;\n                      }\n\n        }\n        if(flag != 1){\n            revert(\"ther is no such candidate\");\n        }\n     }\n\n     function result() public view returns(string memory, uint, uint){\n         require(approvedCandidateCount>=1, \"there is no candidate\");\n         uint votecount ;\n         uint index ;\n         for(uint i =1 ; i<=approvedCandidateCount; i++){\n             if(candidatelist[i].vote > votecount){\n                 votecount = candidatelist[i].vote;\n                 index = i ;\n                }\n          }\n         return(\n            candidatelist[index].name,\n            candidatelist[index].vote,\n            candidatelist[index].ward\n            );   \n     } \n}\n\n\n",
  "sourcePath": "/home/nisamudheen/Desktop/sps/voting_smartcontract/contracts/election.sol",
  "compiler": {
    "name": "solc",
    "version": "0.8.10+commit.fc410830.Emscripten.clang"
  },
  "schemaVersion": "3.4.3",
  "updatedAt": "2021-12-28T16:34:40.298Z",
  "devdoc": {
    "kind": "dev",
    "methods": {},
    "version": 1
  },
  "userdoc": {
    "kind": "user",
    "methods": {},
    "version": 1
  }
}