{
  "contractName": "Election",
  "abi": [
    {
      "inputs": [],
      "stateMutability": "nonpayable",
      "type": "constructor"
    },
    {
      "inputs": [
        {
          "internalType": "uint256",
          "name": "",
          "type": "uint256"
        }
      ],
      "name": "candidateReg",
      "outputs": [
        {
          "internalType": "uint256",
          "name": "CandidateId",
          "type": "uint256"
        },
        {
          "internalType": "string",
          "name": "name",
          "type": "string"
        },
        {
          "internalType": "uint256",
          "name": "ward",
          "type": "uint256"
        },
        {
          "internalType": "uint256",
          "name": "voteCount",
          "type": "uint256"
        },
        {
          "internalType": "address",
          "name": "id",
          "type": "address"
        },
        {
          "internalType": "uint256",
          "name": "VoterId",
          "type": "uint256"
        },
        {
          "internalType": "enum Election.candidateStatus",
          "name": "status",
          "type": "uint8"
        }
      ],
      "stateMutability": "view",
      "type": "function"
    },
    {
      "inputs": [
        {
          "internalType": "uint256",
          "name": "",
          "type": "uint256"
        }
      ],
      "name": "candidateslist",
      "outputs": [
        {
          "internalType": "uint256",
          "name": "CandidateId",
          "type": "uint256"
        },
        {
          "internalType": "string",
          "name": "name",
          "type": "string"
        },
        {
          "internalType": "uint256",
          "name": "ward",
          "type": "uint256"
        },
        {
          "internalType": "uint256",
          "name": "voteCount",
          "type": "uint256"
        },
        {
          "internalType": "address",
          "name": "id",
          "type": "address"
        },
        {
          "internalType": "uint256",
          "name": "VoterId",
          "type": "uint256"
        },
        {
          "internalType": "enum Election.candidateStatus",
          "name": "status",
          "type": "uint8"
        }
      ],
      "stateMutability": "view",
      "type": "function"
    },
    {
      "inputs": [
        {
          "internalType": "uint256",
          "name": "",
          "type": "uint256"
        }
      ],
      "name": "voter",
      "outputs": [
        {
          "internalType": "uint256",
          "name": "index",
          "type": "uint256"
        },
        {
          "internalType": "string",
          "name": "voterName",
          "type": "string"
        },
        {
          "internalType": "uint256",
          "name": "voterWard",
          "type": "uint256"
        },
        {
          "internalType": "address",
          "name": "voterAddress",
          "type": "address"
        },
        {
          "internalType": "bool",
          "name": "verify",
          "type": "bool"
        },
        {
          "internalType": "uint256",
          "name": "voterId",
          "type": "uint256"
        }
      ],
      "stateMutability": "view",
      "type": "function"
    },
    {
      "inputs": [
        {
          "internalType": "string",
          "name": "_name",
          "type": "string"
        },
        {
          "internalType": "uint256",
          "name": "_ward",
          "type": "uint256"
        },
        {
          "internalType": "uint256",
          "name": "_age",
          "type": "uint256"
        }
      ],
      "name": "voterIdReg",
      "outputs": [],
      "stateMutability": "nonpayable",
      "type": "function"
    },
    {
      "inputs": [
        {
          "internalType": "uint256",
          "name": "",
          "type": "uint256"
        }
      ],
      "name": "voteridcard",
      "outputs": [
        {
          "internalType": "string",
          "name": "voterName",
          "type": "string"
        },
        {
          "internalType": "uint256",
          "name": "voterWard",
          "type": "uint256"
        },
        {
          "internalType": "uint256",
          "name": "age",
          "type": "uint256"
        },
        {
          "internalType": "uint256",
          "name": "voterIds",
          "type": "uint256"
        }
      ],
      "stateMutability": "view",
      "type": "function"
    },
    {
      "inputs": [
        {
          "internalType": "address",
          "name": "",
          "type": "address"
        }
      ],
      "name": "votes",
      "outputs": [
        {
          "internalType": "bool",
          "name": "",
          "type": "bool"
        }
      ],
      "stateMutability": "view",
      "type": "function"
    },
    {
      "inputs": [
        {
          "internalType": "string",
          "name": "_name",
          "type": "string"
        },
        {
          "internalType": "uint256",
          "name": "_ward",
          "type": "uint256"
        },
        {
          "internalType": "uint256",
          "name": "_voterId",
          "type": "uint256"
        }
      ],
      "name": "voterRegistration",
      "outputs": [],
      "stateMutability": "nonpayable",
      "type": "function"
    },
    {
      "inputs": [
        {
          "internalType": "uint256",
          "name": "_voterId",
          "type": "uint256"
        }
      ],
      "name": "voterVerify",
      "outputs": [],
      "stateMutability": "nonpayable",
      "type": "function"
    },
    {
      "inputs": [],
      "name": "applyForCantidate",
      "outputs": [],
      "stateMutability": "nonpayable",
      "type": "function"
    },
    {
      "inputs": [
        {
          "internalType": "address",
          "name": "_voteraddress",
          "type": "address"
        }
      ],
      "name": "approveCadidedress",
      "outputs": [],
      "stateMutability": "nonpayable",
      "type": "function"
    },
    {
      "inputs": [],
      "name": "result",
      "outputs": [
        {
          "internalType": "string",
          "name": "",
          "type": "string"
        },
        {
          "internalType": "uint256",
          "name": "",
          "type": "uint256"
        }
      ],
      "stateMutability": "view",
      "type": "function"
    }
  ],
  "bytecode": "0x60806040526103e860005534801561001657600080fd5b5033600360006101000a81548173ffffffffffffffffffffffffffffffffffffffff021916908373ffffffffffffffffffffffffffffffffffffffff160217905550612206806100676000396000f3fe608060405234801561001057600080fd5b50600436106100a95760003560e01c806395cf05091161007157806395cf050914610142578063ab8ed1ba1461015e578063bcaf189b14610193578063ca6ea96d146101c9578063d8bff5a5146101e5578063d8d4c92614610215576100a9565b8063542ac40d146100ae57806365372147146100b8578063656ee5cc146100d75780637bd01925146100f3578063905d04c214610126575b600080fd5b6100b661024b565b005b6100c0610613565b6040516100ce9291906117d7565b60405180910390f35b6100f160048036038101906100ec919061197c565b610782565b005b61010d600480360381019061010891906119eb565b61096a565b60405161011d9493929190611a18565b60405180910390f35b610140600480360381019061013b91906119eb565b610a22565b005b61015c60048036038101906101579190611ac2565b610c13565b005b610178600480360381019061017391906119eb565b61129f565b60405161018a96959493929190611b19565b60405180910390f35b6101ad60048036038101906101a891906119eb565b611390565b6040516101c09796959493929190611bf8565b60405180910390f35b6101e360048036038101906101de919061197c565b611487565b005b6101ff60048036038101906101fa9190611ac2565b61156b565b60405161020c9190611c6e565b60405180910390f35b61022f600480360381019061022a91906119eb565b61158b565b6040516102429796959493929190611bf8565b60405180910390f35b6000600190505b6009548111610610573373ffffffffffffffffffffffffffffffffffffffff166005600083815260200190815260200160002060030160009054906101000a900473ffffffffffffffffffffffffffffffffffffffff1673ffffffffffffffffffffffffffffffffffffffff161480156102f35750600115156005600083815260200190815260200160002060030160149054906101000a900460ff161515145b1561054a576008600081548092919061030b90611cb8565b919050555060006040518060e00160405280600854815260200160056000858152602001908152602001600020600101805461034690611d30565b80601f016020809104026020016040519081016040528092919081815260200182805461037290611d30565b80156103bf5780601f10610394576101008083540402835291602001916103bf565b820191906000526020600020905b8154815290600101906020018083116103a257829003601f168201915b5050505050815260200160056000858152602001908152602001600020600201548152602001600081526020016005600085815260200190815260200160002060030160009054906101000a900473ffffffffffffffffffffffffffffffffffffffff1673ffffffffffffffffffffffffffffffffffffffff1681526020016005600085815260200190815260200160002060040154815260200182600281111561046d5761046c611b81565b5b8152506006600060085481526020019081526020016000206000820151816000015560208201518160010190805190602001906104ab929190611682565b50604082015181600201556060820151816003015560808201518160040160006101000a81548173ffffffffffffffffffffffffffffffffffffffff021916908373ffffffffffffffffffffffffffffffffffffffff16021790555060a0820151816005015560c08201518160060160006101000a81548160ff0219169083600281111561053c5761053b611b81565b5b0217905550905050506105fd565b3373ffffffffffffffffffffffffffffffffffffffff166006600083815260200190815260200160002060040160009054906101000a900473ffffffffffffffffffffffffffffffffffffffff1673ffffffffffffffffffffffffffffffffffffffff1614806105bc57506000600954145b156105fc576040517f08c379a00000000000000000000000000000000000000000000000000000000081526004016105f390611dae565b60405180910390fd5b5b808061060890611cb8565b915050610252565b50565b606060006001600a54101561065d576040517f08c379a000000000000000000000000000000000000000000000000000000000815260040161065490611e1a565b60405180910390fd5b6000806000600190505b600a5481116106be5782600760008381526020019081526020016000206003015411156106ab57600760008281526020019081526020016000206003015492508091505b80806106b690611cb8565b915050610667565b506007600082815260200190815260200160002060010160076000838152602001908152602001600020600301548180546106f890611d30565b80601f016020809104026020016040519081016040528092919081815260200182805461072490611d30565b80156107715780601f1061074657610100808354040283529160200191610771565b820191906000526020600020905b81548152906001019060200180831161075457829003601f168201915b505050505091509350935050509091565b6000600190505b600954811161084a573373ffffffffffffffffffffffffffffffffffffffff166005600083815260200190815260200160002060030160009054906101000a900473ffffffffffffffffffffffffffffffffffffffff1673ffffffffffffffffffffffffffffffffffffffff161415610837576040517f08c379a000000000000000000000000000000000000000000000000000000000815260040161082e90611e86565b60405180910390fd5b808061084290611cb8565b915050610789565b506009600081548092919061085e90611cb8565b91905055506040518060c0016040528060095481526020018481526020018381526020013373ffffffffffffffffffffffffffffffffffffffff168152602001600015158152602001828152506005600060095481526020019081526020016000206000820151816000015560208201518160010190805190602001906108e6929190611682565b506040820151816002015560608201518160030160006101000a81548173ffffffffffffffffffffffffffffffffffffffff021916908373ffffffffffffffffffffffffffffffffffffffff16021790555060808201518160030160146101000a81548160ff02191690831515021790555060a08201518160040155905050505050565b600260205280600052604060002060009150905080600001805461098d90611d30565b80601f01602080910402602001604051908101604052809291908181526020018280546109b990611d30565b8015610a065780601f106109db57610100808354040283529160200191610a06565b820191906000526020600020905b8154815290600101906020018083116109e957829003601f168201915b5050505050908060010154908060020154908060030154905084565b600360009054906101000a900473ffffffffffffffffffffffffffffffffffffffff1673ffffffffffffffffffffffffffffffffffffffff163373ffffffffffffffffffffffffffffffffffffffff1614610ab2576040517f08c379a0000000000000000000000000000000000000000000000000000000008152600401610aa990611f18565b60405180910390fd5b600115156005600083815260200190815260200160002060030160149054906101000a900460ff1615151415610b1d576040517f08c379a0000000000000000000000000000000000000000000000000000000008152600401610b1490611f84565b60405180910390fd5b6000811080610b2d575060015481115b15610b6d576040517f08c379a0000000000000000000000000000000000000000000000000000000008152600401610b6490611ff0565b60405180910390fd5b600260008281526020019081526020016000206003015460056000838152602001908152602001600020600401541415610bd55760016005600083815260200190815260200160002060030160146101000a81548160ff021916908315150217905550610c10565b6040517f08c379a0000000000000000000000000000000000000000000000000000000008152600401610c079061205c565b60405180910390fd5b50565b600360009054906101000a900473ffffffffffffffffffffffffffffffffffffffff1673ffffffffffffffffffffffffffffffffffffffff163373ffffffffffffffffffffffffffffffffffffffff1614610ca3576040517f08c379a0000000000000000000000000000000000000000000000000000000008152600401610c9a90611f18565b60405180910390fd5b60005b600a548111610d67578173ffffffffffffffffffffffffffffffffffffffff166007600083815260200190815260200160002060040160009054906101000a900473ffffffffffffffffffffffffffffffffffffffff1673ffffffffffffffffffffffffffffffffffffffff161415610d54576040517f08c379a0000000000000000000000000000000000000000000000000000000008152600401610d4b906120c8565b60405180910390fd5b8080610d5f90611cb8565b915050610ca6565b506000600190505b600854811161129b578173ffffffffffffffffffffffffffffffffffffffff166006600083815260200190815260200160002060040160009054906101000a900473ffffffffffffffffffffffffffffffffffffffff1673ffffffffffffffffffffffffffffffffffffffff161415611288576000600190505b60015481116112865760026000828152602001908152602001600020600101546006600084815260200190815260200160002060020154148015610e58575060026000828152602001908152602001600020600301546006600084815260200190815260200160002060050154145b1561127357600a6000815480929190610e7090611cb8565b91905055506000600190506040518060e001604052806008548152602001600660008681526020019081526020016000206001018054610eaf90611d30565b80601f0160208091040260200160405190810160405280929190818152602001828054610edb90611d30565b8015610f285780601f10610efd57610100808354040283529160200191610f28565b820191906000526020600020905b815481529060010190602001808311610f0b57829003601f168201915b5050505050815260200160066000868152602001908152602001600020600201548152602001600081526020013373ffffffffffffffffffffffffffffffffffffffff16815260200160066000868152602001908152602001600020600501548152602001826002811115610fa057610f9f611b81565b5b81525060066000858152602001908152602001600020600082015181600001556020820151816001019080519060200190610fdc929190611682565b50604082015181600201556060820151816003015560808201518160040160006101000a81548173ffffffffffffffffffffffffffffffffffffffff021916908373ffffffffffffffffffffffffffffffffffffffff16021790555060a0820151816005015560c08201518160060160006101000a81548160ff0219169083600281111561106d5761106c611b81565b5b02179055509050506040518060e00160405280600a5481526020016006600086815260200190815260200160002060010180546110a990611d30565b80601f01602080910402602001604051908101604052809291908181526020018280546110d590611d30565b80156111225780601f106110f757610100808354040283529160200191611122565b820191906000526020600020905b81548152906001019060200180831161110557829003601f168201915b5050505050815260200160066000868152602001908152602001600020600201548152602001600081526020018573ffffffffffffffffffffffffffffffffffffffff1681526020016006600086815260200190815260200160002060050154815260200182600281111561119a57611199611b81565b5b81525060076000600a5481526020019081526020016000206000820151816000015560208201518160010190805190602001906111d8929190611682565b50604082015181600201556060820151816003015560808201518160040160006101000a81548173ffffffffffffffffffffffffffffffffffffffff021916908373ffffffffffffffffffffffffffffffffffffffff16021790555060a0820151816005015560c08201518160060160006101000a81548160ff0219169083600281111561126957611268611b81565b5b0217905550905050505b808061127e90611cb8565b915050610de9565b505b808061129390611cb8565b915050610d6f565b5050565b60056020528060005260406000206000915090508060000154908060010180546112c890611d30565b80601f01602080910402602001604051908101604052809291908181526020018280546112f490611d30565b80156113415780601f1061131657610100808354040283529160200191611341565b820191906000526020600020905b81548152906001019060200180831161132457829003601f168201915b5050505050908060020154908060030160009054906101000a900473ffffffffffffffffffffffffffffffffffffffff16908060030160149054906101000a900460ff16908060040154905086565b60066020528060005260406000206000915090508060000154908060010180546113b990611d30565b80601f01602080910402602001604051908101604052809291908181526020018280546113e590611d30565b80156114325780601f1061140757610100808354040283529160200191611432565b820191906000526020600020905b81548152906001019060200180831161141557829003601f168201915b5050505050908060020154908060030154908060040160009054906101000a900473ffffffffffffffffffffffffffffffffffffffff16908060050154908060060160009054906101000a900460ff16905087565b60128110156114cb576040517f08c379a00000000000000000000000000000000000000000000000000000000081526004016114c29061215a565b60405180910390fd5b600160008154809291906114de90611cb8565b91905055506040518060800160405280848152602001838152602001828152602001600154600054611510919061217a565b8152506002600060015481526020019081526020016000206000820151816000019080519060200190611544929190611682565b50602082015181600101556040820151816002015560608201518160030155905050505050565b60046020528060005260406000206000915054906101000a900460ff1681565b60076020528060005260406000206000915090508060000154908060010180546115b490611d30565b80601f01602080910402602001604051908101604052809291908181526020018280546115e090611d30565b801561162d5780601f106116025761010080835404028352916020019161162d565b820191906000526020600020905b81548152906001019060200180831161161057829003601f168201915b5050505050908060020154908060030154908060040160009054906101000a900473ffffffffffffffffffffffffffffffffffffffff16908060050154908060060160009054906101000a900460ff16905087565b82805461168e90611d30565b90600052602060002090601f0160209004810192826116b057600085556116f7565b82601f106116c957805160ff19168380011785556116f7565b828001600101855582156116f7579182015b828111156116f65782518255916020019190600101906116db565b5b5090506117049190611708565b5090565b5b80821115611721576000816000905550600101611709565b5090565b600081519050919050565b600082825260208201905092915050565b60005b8381101561175f578082015181840152602081019050611744565b8381111561176e576000848401525b50505050565b6000601f19601f8301169050919050565b600061179082611725565b61179a8185611730565b93506117aa818560208601611741565b6117b381611774565b840191505092915050565b6000819050919050565b6117d1816117be565b82525050565b600060408201905081810360008301526117f18185611785565b905061180060208301846117c8565b9392505050565b6000604051905090565b600080fd5b600080fd5b600080fd5b600080fd5b7f4e487b7100000000000000000000000000000000000000000000000000000000600052604160045260246000fd5b61185d82611774565b810181811067ffffffffffffffff8211171561187c5761187b611825565b5b80604052505050565b600061188f611807565b905061189b8282611854565b919050565b600067ffffffffffffffff8211156118bb576118ba611825565b5b6118c482611774565b9050602081019050919050565b82818337600083830152505050565b60006118f36118ee846118a0565b611885565b90508281526020810184848401111561190f5761190e611820565b5b61191a8482856118d1565b509392505050565b600082601f8301126119375761193661181b565b5b81356119478482602086016118e0565b91505092915050565b611959816117be565b811461196457600080fd5b50565b60008135905061197681611950565b92915050565b60008060006060848603121561199557611994611811565b5b600084013567ffffffffffffffff8111156119b3576119b2611816565b5b6119bf86828701611922565b93505060206119d086828701611967565b92505060406119e186828701611967565b9150509250925092565b600060208284031215611a0157611a00611811565b5b6000611a0f84828501611967565b91505092915050565b60006080820190508181036000830152611a328187611785565b9050611a4160208301866117c8565b611a4e60408301856117c8565b611a5b60608301846117c8565b95945050505050565b600073ffffffffffffffffffffffffffffffffffffffff82169050919050565b6000611a8f82611a64565b9050919050565b611a9f81611a84565b8114611aaa57600080fd5b50565b600081359050611abc81611a96565b92915050565b600060208284031215611ad857611ad7611811565b5b6000611ae684828501611aad565b91505092915050565b611af881611a84565b82525050565b60008115159050919050565b611b1381611afe565b82525050565b600060c082019050611b2e60008301896117c8565b8181036020830152611b408188611785565b9050611b4f60408301876117c8565b611b5c6060830186611aef565b611b696080830185611b0a565b611b7660a08301846117c8565b979650505050505050565b7f4e487b7100000000000000000000000000000000000000000000000000000000600052602160045260246000fd5b60038110611bc157611bc0611b81565b5b50565b6000819050611bd282611bb0565b919050565b6000611be282611bc4565b9050919050565b611bf281611bd7565b82525050565b600060e082019050611c0d600083018a6117c8565b8181036020830152611c1f8189611785565b9050611c2e60408301886117c8565b611c3b60608301876117c8565b611c486080830186611aef565b611c5560a08301856117c8565b611c6260c0830184611be9565b98975050505050505050565b6000602082019050611c836000830184611b0a565b92915050565b7f4e487b7100000000000000000000000000000000000000000000000000000000600052601160045260246000fd5b6000611cc3826117be565b91507fffffffffffffffffffffffffffffffffffffffffffffffffffffffffffffffff821415611cf657611cf5611c89565b5b600182019050919050565b7f4e487b7100000000000000000000000000000000000000000000000000000000600052602260045260246000fd5b60006002820490506001821680611d4857607f821691505b60208210811415611d5c57611d5b611d01565b5b50919050565b7f73616d652063616e6469646174652063616e2774206265206164646400000000600082015250565b6000611d98601c83611730565b9150611da382611d62565b602082019050919050565b60006020820190508181036000830152611dc781611d8b565b9050919050565b7f7468657265206973206e6f2063616e6469646174650000000000000000000000600082015250565b6000611e04601583611730565b9150611e0f82611dce565b602082019050919050565b60006020820190508181036000830152611e3381611df7565b9050919050565b7f616c726561647920637265617465640000000000000000000000000000000000600082015250565b6000611e70600f83611730565b9150611e7b82611e3a565b602082019050919050565b60006020820190508181036000830152611e9f81611e63565b9050919050565b7f617574686f726974792063616e206f6e6c792063616c6c20746869732066756e60008201527f6374696f6e000000000000000000000000000000000000000000000000000000602082015250565b6000611f02602583611730565b9150611f0d82611ea6565b604082019050919050565b60006020820190508181036000830152611f3181611ef5565b9050919050565b7f616c726561647920766572696679000000000000000000000000000000000000600082015250565b6000611f6e600e83611730565b9150611f7982611f38565b602082019050919050565b60006020820190508181036000830152611f9d81611f61565b9050919050565b7f766f746572206e6f7420666f756e640000000000000000000000000000000000600082015250565b6000611fda600f83611730565b9150611fe582611fa4565b602082019050919050565b6000602082019050818103600083015261200981611fcd565b9050919050565b7f766f746572206964206e6f20666f756e64000000000000000000000000000000600082015250565b6000612046601183611730565b915061205182612010565b602082019050919050565b6000602082019050818103600083015261207581612039565b9050919050565b7f616c7265616479206170726f7665640000000000000000000000000000000000600082015250565b60006120b2600f83611730565b91506120bd8261207c565b602082019050919050565b600060208201905081810360008301526120e1816120a5565b9050919050565b7f5468697320706572736f6e206973206e6f7420656c696769626c6520666f722060008201527f766f746572732049640000000000000000000000000000000000000000000000602082015250565b6000612144602983611730565b915061214f826120e8565b604082019050919050565b6000602082019050818103600083015261217381612137565b9050919050565b6000612185826117be565b9150612190836117be565b9250827fffffffffffffffffffffffffffffffffffffffffffffffffffffffffffffffff038211156121c5576121c4611c89565b5b82820190509291505056fea264697066735822122060719fb0ab5498200ddc49b6f950953a39482df0923607d7c126198f7f7486e364736f6c634300080a0033",
  "immutableReferences": {},
  "source": "// SPDX-License-Identifier: GPL-3.0\npragma solidity ^0.8.7;\n\ncontract VoterId{\n struct voterIdcard{\n        string voterName;\n        uint voterWard;\n        uint age;\n        uint voterIds;\n    }\n    uint num = 1000;\n    uint count;\n    mapping (uint => voterIdcard) public voteridcard;\n\n    function voterIdReg(\n        string memory _name,\n        uint _ward,\n        uint _age \n    ) \n        public\n    {\n        require(\n            _age >= 18,\n            \"This person is not eligible for voters Id\"\n        );\n        count++;\n        voteridcard[count] = voterIdcard(\n            _name,\n            _ward,\n            _age,\n            num+count\n        );\n    }\n}\n\ncontract Election is VoterId{\n    address authority;\n    constructor(){\n        authority = msg.sender;\n    }\n     struct Voter{\n        uint index;\n        string voterName;\n        uint voterWard;\n        address voterAddress;\n        bool verify;\n        uint voterId;\n    }\n    struct  Candidates{\n        uint CandidateId;\n        string name;\n        uint ward;\n        uint voteCount;\n        address id;\n        uint VoterId;\n        candidateStatus  status;   \n    } \n    enum candidateStatus {pending, approved, rejected}\n    mapping(address => bool) public votes;\n    mapping (uint => Voter) public voter;\n    mapping (uint  => Candidates) public candidateReg;\n    mapping (uint  => Candidates) public candidateslist;\n    uint candedatesCount;\n    uint voterCount;\n    uint approvedCandidateCount;\n \n    modifier authorization(){\n        require(msg.sender == authority,\"authority can only call this function\");\n        _;\n    }\n    \n    function voterRegistration(\n        string memory _name, \n        uint _ward, \n        uint _voterId \n    ) \n        public\n    {\n        for(uint i = 1; i <= voterCount; i++ ){\n            if(voter[i].voterAddress == msg.sender){\n                revert(\"already created\");\n            }\n        }\n        voterCount++;\n        voter[voterCount] = Voter(\n            voterCount,\n            _name,\n            _ward,\n            msg.sender,\n            false,\n            _voterId\n        );\n    }\n\n    function voterVerify(uint _voterId) public authorization {\n            if(voter[_voterId].verify == true){\n                revert(\"already verify\");\n            }\n            else if(_voterId < 0 || _voterId > count  ){\n                revert(\"voter not found\");\n            }   \n            else if(voter[_voterId].voterId == voteridcard[_voterId].voterIds){\n                  voter[_voterId].verify = true;\n            }else{\n                 revert(\"voter id no found\");\n            }       \n    }\n\n    function applyForCantidate()public{\n         for(uint i=1; i<= voterCount; i++ ){           \n                if(voter[i].voterAddress == msg.sender && voter[i].verify == true){\n                    candedatesCount++;\n                    candidateStatus _candidateStatus = candidateStatus.pending;\n                    candidateReg[candedatesCount] = Candidates(\n                        candedatesCount,\n                        voter[i].voterName,\n                        voter[i].voterWard,\n                        0,\n                        voter[i].voterAddress, \n                        voter[i].voterId, \n                        _candidateStatus\n                    );\n\n                }\n                else if(candidateReg[i].id == msg.sender || voterCount == 0){\n                    revert(\"same candidate can't be addd\");\n                }          \n        } \n    }\n\n    function approveCadidedress(address _voteraddress) public authorization {\n         for(uint j ; j<=approvedCandidateCount;j++){\n             if(candidateslist[j].id == _voteraddress){\n                 revert(\"already aproved\");\n             }\n         }\n        for(uint i=1; i<= candedatesCount; i++ ){\n            if(candidateReg[i].id == _voteraddress){\n                for(uint j =1; j<= count; j++){\n                    if( candidateReg[i].ward == voteridcard[j].voterWard && candidateReg[i].VoterId == voteridcard[j].voterIds){\n                        approvedCandidateCount++;\n                        candidateStatus _candidateStatus = candidateStatus.approved;\n                        candidateReg[i] = Candidates(candedatesCount, candidateReg[i].name,candidateReg[i].ward,0,msg.sender, candidateReg[i].VoterId, _candidateStatus);\n                        candidateslist[approvedCandidateCount] = Candidates(\n                            approvedCandidateCount, \n                            candidateReg[i].name,\n                            candidateReg[i].ward,\n                            0,\n                            _voteraddress, \n                            candidateReg[i].VoterId, \n                            _candidateStatus\n                        );    \n                    }\n                }\n            }\n        }\n     }\n\n     function result() public view returns(string memory , uint ){\n         require(approvedCandidateCount>=1, \"there is no candidate\");\n         uint votecont ;\n         uint index ;\n         for(uint i =1 ; i<=approvedCandidateCount; i++){\n             if(candidateslist[i].voteCount > votecont){\n                 votecont = candidateslist[i].voteCount;\n                 index = i;\n             }\n         }\n        return(\n            candidateslist[index].name,\n            candidateslist[index].voteCount\n        );   \n     } \n}\n\n\n",
  "sourcePath": "/home/nisamudheen/Desktop/sps/voting_smartcontract/contracts/election.sol",
  "compiler": {
    "name": "solc",
    "version": "0.8.10+commit.fc410830.Emscripten.clang"
  },
  "schemaVersion": "3.4.3",
  "updatedAt": "2021-12-13T04:43:15.865Z",
  "devdoc": {
    "kind": "dev",
    "methods": {},
    "version": 1
  },
  "userdoc": {
    "kind": "user",
    "methods": {},
    "version": 1
  }
}