{
  "contractName": "Election",
  "abi": [
    {
      "inputs": [],
      "stateMutability": "nonpayable",
      "type": "constructor"
    },
    {
      "inputs": [],
      "name": "approvedCandidateCount",
      "outputs": [
        {
          "internalType": "uint256",
          "name": "",
          "type": "uint256"
        }
      ],
      "stateMutability": "view",
      "type": "function"
    },
    {
      "inputs": [],
      "name": "authority",
      "outputs": [
        {
          "internalType": "address",
          "name": "",
          "type": "address"
        }
      ],
      "stateMutability": "view",
      "type": "function"
    },
    {
      "inputs": [],
      "name": "candidateCount",
      "outputs": [
        {
          "internalType": "uint256",
          "name": "",
          "type": "uint256"
        }
      ],
      "stateMutability": "view",
      "type": "function"
    },
    {
      "inputs": [
        {
          "internalType": "uint256",
          "name": "",
          "type": "uint256"
        }
      ],
      "name": "candidateReg",
      "outputs": [
        {
          "internalType": "uint256",
          "name": "CandidateRegId",
          "type": "uint256"
        },
        {
          "internalType": "string",
          "name": "name",
          "type": "string"
        },
        {
          "internalType": "uint256",
          "name": "ward",
          "type": "uint256"
        },
        {
          "internalType": "address",
          "name": "id",
          "type": "address"
        },
        {
          "internalType": "uint256",
          "name": "vote",
          "type": "uint256"
        },
        {
          "internalType": "uint256",
          "name": "VoterId",
          "type": "uint256"
        },
        {
          "internalType": "enum Election.candidateStatus",
          "name": "status",
          "type": "uint8"
        },
        {
          "internalType": "string",
          "name": "remark",
          "type": "string"
        }
      ],
      "stateMutability": "view",
      "type": "function"
    },
    {
      "inputs": [
        {
          "internalType": "uint256",
          "name": "",
          "type": "uint256"
        }
      ],
      "name": "candidatelist",
      "outputs": [
        {
          "internalType": "uint256",
          "name": "CandidateRegId",
          "type": "uint256"
        },
        {
          "internalType": "string",
          "name": "name",
          "type": "string"
        },
        {
          "internalType": "uint256",
          "name": "ward",
          "type": "uint256"
        },
        {
          "internalType": "address",
          "name": "id",
          "type": "address"
        },
        {
          "internalType": "uint256",
          "name": "vote",
          "type": "uint256"
        },
        {
          "internalType": "uint256",
          "name": "VoterId",
          "type": "uint256"
        },
        {
          "internalType": "enum Election.candidateStatus",
          "name": "status",
          "type": "uint8"
        },
        {
          "internalType": "string",
          "name": "remark",
          "type": "string"
        }
      ],
      "stateMutability": "view",
      "type": "function"
    },
    {
      "inputs": [
        {
          "internalType": "address",
          "name": "",
          "type": "address"
        }
      ],
      "name": "candidatelogin",
      "outputs": [
        {
          "internalType": "uint256",
          "name": "",
          "type": "uint256"
        }
      ],
      "stateMutability": "view",
      "type": "function"
    },
    {
      "inputs": [],
      "name": "time",
      "outputs": [
        {
          "internalType": "uint256",
          "name": "",
          "type": "uint256"
        }
      ],
      "stateMutability": "view",
      "type": "function"
    },
    {
      "inputs": [],
      "name": "voteEnd",
      "outputs": [
        {
          "internalType": "uint256",
          "name": "",
          "type": "uint256"
        }
      ],
      "stateMutability": "view",
      "type": "function"
    },
    {
      "inputs": [],
      "name": "voteStart",
      "outputs": [
        {
          "internalType": "uint256",
          "name": "",
          "type": "uint256"
        }
      ],
      "stateMutability": "view",
      "type": "function"
    },
    {
      "inputs": [
        {
          "internalType": "uint256",
          "name": "",
          "type": "uint256"
        }
      ],
      "name": "voter",
      "outputs": [
        {
          "internalType": "uint256",
          "name": "RegId",
          "type": "uint256"
        },
        {
          "internalType": "string",
          "name": "voterName",
          "type": "string"
        },
        {
          "internalType": "uint256",
          "name": "voterWard",
          "type": "uint256"
        },
        {
          "internalType": "address",
          "name": "voterAddress",
          "type": "address"
        },
        {
          "internalType": "uint256",
          "name": "voterId",
          "type": "uint256"
        },
        {
          "internalType": "bool",
          "name": "status",
          "type": "bool"
        }
      ],
      "stateMutability": "view",
      "type": "function"
    },
    {
      "inputs": [],
      "name": "voterCount",
      "outputs": [
        {
          "internalType": "uint256",
          "name": "",
          "type": "uint256"
        }
      ],
      "stateMutability": "view",
      "type": "function"
    },
    {
      "inputs": [
        {
          "internalType": "address",
          "name": "",
          "type": "address"
        }
      ],
      "name": "voterlogin",
      "outputs": [
        {
          "internalType": "uint256",
          "name": "",
          "type": "uint256"
        }
      ],
      "stateMutability": "view",
      "type": "function"
    },
    {
      "inputs": [
        {
          "internalType": "address",
          "name": "",
          "type": "address"
        }
      ],
      "name": "votes",
      "outputs": [
        {
          "internalType": "bool",
          "name": "",
          "type": "bool"
        }
      ],
      "stateMutability": "view",
      "type": "function"
    },
    {
      "inputs": [
        {
          "internalType": "string",
          "name": "_name",
          "type": "string"
        },
        {
          "internalType": "uint256",
          "name": "_ward",
          "type": "uint256"
        }
      ],
      "name": "voterRegistration",
      "outputs": [],
      "stateMutability": "nonpayable",
      "type": "function"
    },
    {
      "inputs": [
        {
          "internalType": "uint256",
          "name": "_voterRegId",
          "type": "uint256"
        }
      ],
      "name": "allocateId",
      "outputs": [],
      "stateMutability": "nonpayable",
      "type": "function"
    },
    {
      "inputs": [
        {
          "internalType": "string",
          "name": "_name",
          "type": "string"
        },
        {
          "internalType": "uint256",
          "name": "_ward",
          "type": "uint256"
        },
        {
          "internalType": "uint256",
          "name": "_voterId",
          "type": "uint256"
        }
      ],
      "name": "cantidateRegistration",
      "outputs": [],
      "stateMutability": "nonpayable",
      "type": "function"
    },
    {
      "inputs": [
        {
          "internalType": "address",
          "name": "_voteraddress",
          "type": "address"
        },
        {
          "internalType": "string",
          "name": "_remark",
          "type": "string"
        }
      ],
      "name": "approveCadidedress",
      "outputs": [],
      "stateMutability": "nonpayable",
      "type": "function"
    },
    {
      "inputs": [
        {
          "internalType": "address",
          "name": "_voteraddress",
          "type": "address"
        },
        {
          "internalType": "string",
          "name": "_remark",
          "type": "string"
        }
      ],
      "name": "RejectedCadidedress",
      "outputs": [],
      "stateMutability": "nonpayable",
      "type": "function"
    },
    {
      "inputs": [],
      "name": "result",
      "outputs": [
        {
          "internalType": "string",
          "name": "",
          "type": "string"
        },
        {
          "internalType": "uint256",
          "name": "",
          "type": "uint256"
        },
        {
          "internalType": "uint256",
          "name": "",
          "type": "uint256"
        }
      ],
      "stateMutability": "view",
      "type": "function"
    }
  ],
  "bytecode": "0x6080604052426003556103e8600d553480156200001b57600080fd5b50336000806101000a81548173ffffffffffffffffffffffffffffffffffffffff021916908373ffffffffffffffffffffffffffffffffffffffff160217905550610258426200006c9190620000c7565b600181905550611c2042620000829190620000c7565b60028190555062000124565b6000819050919050565b7f4e487b7100000000000000000000000000000000000000000000000000000000600052601160045260246000fd5b6000620000d4826200008e565b9150620000e1836200008e565b9250827fffffffffffffffffffffffffffffffffffffffffffffffffffffffffffffffff0382111562000119576200011862000098565b5b828201905092915050565b6128d180620001346000396000f3fe608060405234801561001057600080fd5b50600436106101215760003560e01c8063a9a981a3116100ad578063d8bff5a511610071578063d8bff5a51461031f578063ddbe8f091461034f578063e031535b1461036d578063e749ee481461038b578063f22e9d0b146103bb57610121565b8063a9a981a31461025b578063ab8ed1ba14610279578063b1c63ed0146102ae578063bcaf189b146102ca578063bf7e214f1461030157610121565b80634bc81946116100f45780634bc819461461019a5780635f4e5628146101ca57806365372147146101e65780637400df7114610206578063911eb81d1461022457610121565b8063032071f4146101265780630ceab5a91461014257806316ada5471461015e57806342169e481461017c575b600080fd5b610140600480360381019061013b9190611f10565b6103d7565b005b61015c60048036038101906101579190611fdd565b610767565b005b610166610beb565b6040516101739190612048565b60405180910390f35b610184610bf1565b6040516101919190612048565b60405180910390f35b6101b460048036038101906101af9190612063565b610bf7565b6040516101c19190612048565b60405180910390f35b6101e460048036038101906101df9190611fdd565b610c0f565b005b6101ee6112f7565b6040516101fd93929190612118565b60405180910390f35b61020e611481565b60405161021b9190612048565b60405180910390f35b61023e60048036038101906102399190612156565b611487565b604051610252989796959493929190612209565b60405180910390f35b61026361160c565b6040516102709190612048565b60405180910390f35b610293600480360381019061028e9190612156565b611612565b6040516102a5969594939291906122b0565b60405180910390f35b6102c860048036038101906102c39190612318565b611703565b005b6102e460048036038101906102df9190612156565b611931565b6040516102f8989796959493929190612209565b60405180910390f35b610309611ab6565b6040516103169190612374565b60405180910390f35b61033960048036038101906103349190612063565b611ada565b604051610346919061238f565b60405180910390f35b610357611afa565b6040516103649190612048565b60405180910390f35b610375611b00565b6040516103829190612048565b60405180910390f35b6103a560048036038101906103a09190612063565b611b06565b6040516103b29190612048565b60405180910390f35b6103d560048036038101906103d09190612156565b611b1e565b005b6000600190505b600a54811161049f573373ffffffffffffffffffffffffffffffffffffffff166006600083815260200190815260200160002060030160009054906101000a900473ffffffffffffffffffffffffffffffffffffffff1673ffffffffffffffffffffffffffffffffffffffff16141561048c576040517f08c379a00000000000000000000000000000000000000000000000000000000081526004016104839061241c565b60405180910390fd5b80806104979061246b565b9150506103de565b506000600190505b600b54811161059b573373ffffffffffffffffffffffffffffffffffffffff166005600083815260200190815260200160002060030160009054906101000a900473ffffffffffffffffffffffffffffffffffffffff1673ffffffffffffffffffffffffffffffffffffffff161480156105485750600015156005600083815260200190815260200160002060050160009054906101000a900460ff161515145b15610588576040517f08c379a000000000000000000000000000000000000000000000000000000000815260040161057f90612500565b60405180910390fd5b80806105939061246b565b9150506104a7565b50600a60008154809291906105af9061246b565b91905055506000604051806101000160405280600a5481526020018581526020018481526020013373ffffffffffffffffffffffffffffffffffffffff1681526020016000815260200183815260200182600281111561061257610611612192565b5b81526020016040518060200160405280600081525081525060066000600a548152602001908152602001600020600082015181600001556020820151816001019080519060200190610665929190611cdd565b506040820151816002015560608201518160030160006101000a81548173ffffffffffffffffffffffffffffffffffffffff021916908373ffffffffffffffffffffffffffffffffffffffff1602179055506080820151816004015560a0820151816005015560c08201518160060160006101000a81548160ff021916908360028111156106f6576106f5612192565b5b021790555060e0820151816007019080519060200190610717929190611cdd565b50905050600a54600960003373ffffffffffffffffffffffffffffffffffffffff1673ffffffffffffffffffffffffffffffffffffffff1681526020019081526020016000208190555050505050565b60008054906101000a900473ffffffffffffffffffffffffffffffffffffffff1673ffffffffffffffffffffffffffffffffffffffff163373ffffffffffffffffffffffffffffffffffffffff16146107f5576040517f08c379a00000000000000000000000000000000000000000000000000000000081526004016107ec90612592565b60405180910390fd5b6000600190505b600c5481116108bd578273ffffffffffffffffffffffffffffffffffffffff166007600083815260200190815260200160002060030160009054906101000a900473ffffffffffffffffffffffffffffffffffffffff1673ffffffffffffffffffffffffffffffffffffffff1614156108aa576040517f08c379a00000000000000000000000000000000000000000000000000000000081526004016108a1906125fe565b60405180910390fd5b80806108b59061246b565b9150506107fc565b50600080600190505b600a548111610ba2578373ffffffffffffffffffffffffffffffffffffffff166006600083815260200190815260200160002060030160009054906101000a900473ffffffffffffffffffffffffffffffffffffffff1673ffffffffffffffffffffffffffffffffffffffff161415610b8f57600c600081548092919061094c9061246b565b9190505550600060029050604051806101000160405280600660008581526020019081526020016000206000015481526020016006600085815260200190815260200160002060010180546109a09061264d565b80601f01602080910402602001604051908101604052809291908181526020018280546109cc9061264d565b8015610a195780601f106109ee57610100808354040283529160200191610a19565b820191906000526020600020905b8154815290600101906020018083116109fc57829003601f168201915b50505050508152602001600660008581526020019081526020016000206002015481526020018673ffffffffffffffffffffffffffffffffffffffff1681526020016000815260200160066000858152602001908152602001600020600501548152602001826002811115610a9157610a90612192565b5b81526020018581525060066000848152602001908152602001600020600082015181600001556020820151816001019080519060200190610ad3929190611cdd565b506040820151816002015560608201518160030160006101000a81548173ffffffffffffffffffffffffffffffffffffffff021916908373ffffffffffffffffffffffffffffffffffffffff1602179055506080820151816004015560a0820151816005015560c08201518160060160006101000a81548160ff02191690836002811115610b6457610b63612192565b5b021790555060e0820151816007019080519060200190610b85929190611cdd565b5090505060019250505b8080610b9a9061246b565b9150506108c6565b5060018114610be6576040517f08c379a0000000000000000000000000000000000000000000000000000000008152600401610bdd906126cb565b60405180910390fd5b505050565b60035481565b600b5481565b60086020528060005260406000206000915090505481565b60008054906101000a900473ffffffffffffffffffffffffffffffffffffffff1673ffffffffffffffffffffffffffffffffffffffff163373ffffffffffffffffffffffffffffffffffffffff1614610c9d576040517f08c379a0000000000000000000000000000000000000000000000000000000008152600401610c9490612592565b60405180910390fd5b6000600190505b600c548111610d65578273ffffffffffffffffffffffffffffffffffffffff166007600083815260200190815260200160002060030160009054906101000a900473ffffffffffffffffffffffffffffffffffffffff1673ffffffffffffffffffffffffffffffffffffffff161415610d52576040517f08c379a0000000000000000000000000000000000000000000000000000000008152600401610d49906125fe565b60405180910390fd5b8080610d5d9061246b565b915050610ca4565b50600080600190505b600a5481116112ae578373ffffffffffffffffffffffffffffffffffffffff166006600083815260200190815260200160002060030160009054906101000a900473ffffffffffffffffffffffffffffffffffffffff1673ffffffffffffffffffffffffffffffffffffffff16141561129b57600c6000815480929190610df49061246b565b919050555060006001905060405180610100016040528060066000858152602001908152602001600020600001548152602001600660008581526020019081526020016000206001018054610e489061264d565b80601f0160208091040260200160405190810160405280929190818152602001828054610e749061264d565b8015610ec15780601f10610e9657610100808354040283529160200191610ec1565b820191906000526020600020905b815481529060010190602001808311610ea457829003601f168201915b50505050508152602001600660008581526020019081526020016000206002015481526020018673ffffffffffffffffffffffffffffffffffffffff1681526020016000815260200160066000858152602001908152602001600020600501548152602001826002811115610f3957610f38612192565b5b81526020018581525060066000848152602001908152602001600020600082015181600001556020820151816001019080519060200190610f7b929190611cdd565b506040820151816002015560608201518160030160006101000a81548173ffffffffffffffffffffffffffffffffffffffff021916908373ffffffffffffffffffffffffffffffffffffffff1602179055506080820151816004015560a0820151816005015560c08201518160060160006101000a81548160ff0219169083600281111561100c5761100b612192565b5b021790555060e082015181600701908051906020019061102d929190611cdd565b50905050604051806101000160405280600c5481526020016006600085815260200190815260200160002060010180546110669061264d565b80601f01602080910402602001604051908101604052809291908181526020018280546110929061264d565b80156110df5780601f106110b4576101008083540402835291602001916110df565b820191906000526020600020905b8154815290600101906020018083116110c257829003601f168201915b50505050508152602001600660008581526020019081526020016000206002015481526020018673ffffffffffffffffffffffffffffffffffffffff168152602001600081526020016006600085815260200190815260200160002060050154815260200182600281111561115757611156612192565b5b81526020018581525060076000600c54815260200190815260200160002060008201518160000155602082015181600101908051906020019061119b929190611cdd565b506040820151816002015560608201518160030160006101000a81548173ffffffffffffffffffffffffffffffffffffffff021916908373ffffffffffffffffffffffffffffffffffffffff1602179055506080820151816004015560a0820151816005015560c08201518160060160006101000a81548160ff0219169083600281111561122c5761122b612192565b5b021790555060e082015181600701908051906020019061124d929190611cdd565b5090505081600960008773ffffffffffffffffffffffffffffffffffffffff1673ffffffffffffffffffffffffffffffffffffffff1681526020019081526020016000208190555060019250505b80806112a69061246b565b915050610d6e565b50600181146112f2576040517f08c379a00000000000000000000000000000000000000000000000000000000081526004016112e9906126cb565b60405180910390fd5b505050565b60606000806001600c541015611342576040517f08c379a000000000000000000000000000000000000000000000000000000000815260040161133990612737565b60405180910390fd5b6000806000600190505b600c5481116113a357826007600083815260200190815260200160002060040154111561139057600760008281526020019081526020016000206004015492508091505b808061139b9061246b565b91505061134c565b5060076000828152602001908152602001600020600101600760008381526020019081526020016000206004015460076000848152602001908152602001600020600201548280546113f49061264d565b80601f01602080910402602001604051908101604052809291908181526020018280546114209061264d565b801561146d5780601f106114425761010080835404028352916020019161146d565b820191906000526020600020905b81548152906001019060200180831161145057829003601f168201915b505050505092509450945094505050909192565b600c5481565b60076020528060005260406000206000915090508060000154908060010180546114b09061264d565b80601f01602080910402602001604051908101604052809291908181526020018280546114dc9061264d565b80156115295780601f106114fe57610100808354040283529160200191611529565b820191906000526020600020905b81548152906001019060200180831161150c57829003601f168201915b5050505050908060020154908060030160009054906101000a900473ffffffffffffffffffffffffffffffffffffffff16908060040154908060050154908060060160009054906101000a900460ff16908060070180546115899061264d565b80601f01602080910402602001604051908101604052809291908181526020018280546115b59061264d565b80156116025780601f106115d757610100808354040283529160200191611602565b820191906000526020600020905b8154815290600101906020018083116115e557829003601f168201915b5050505050905088565b600a5481565b600560205280600052604060002060009150905080600001549080600101805461163b9061264d565b80601f01602080910402602001604051908101604052809291908181526020018280546116679061264d565b80156116b45780601f10611689576101008083540402835291602001916116b4565b820191906000526020600020905b81548152906001019060200180831161169757829003601f168201915b5050505050908060020154908060030160009054906101000a900473ffffffffffffffffffffffffffffffffffffffff16908060040154908060050160009054906101000a900460ff16905086565b6000600190505b600b5481116117cb573373ffffffffffffffffffffffffffffffffffffffff166005600083815260200190815260200160002060030160009054906101000a900473ffffffffffffffffffffffffffffffffffffffff1673ffffffffffffffffffffffffffffffffffffffff1614156117b8576040517f08c379a00000000000000000000000000000000000000000000000000000000081526004016117af906127a3565b60405180910390fd5b80806117c39061246b565b91505061170a565b50600b60008154809291906117df9061246b565b91905055506040518060c00160405280600b5481526020018381526020018281526020013373ffffffffffffffffffffffffffffffffffffffff168152602001600181526020016000151581525060056000600b548152602001908152602001600020600082015181600001556020820151816001019080519060200190611868929190611cdd565b506040820151816002015560608201518160030160006101000a81548173ffffffffffffffffffffffffffffffffffffffff021916908373ffffffffffffffffffffffffffffffffffffffff1602179055506080820151816004015560a08201518160050160006101000a81548160ff021916908315150217905550905050600b54600860003373ffffffffffffffffffffffffffffffffffffffff1673ffffffffffffffffffffffffffffffffffffffff168152602001908152602001600020819055505050565b600660205280600052604060002060009150905080600001549080600101805461195a9061264d565b80601f01602080910402602001604051908101604052809291908181526020018280546119869061264d565b80156119d35780601f106119a8576101008083540402835291602001916119d3565b820191906000526020600020905b8154815290600101906020018083116119b657829003601f168201915b5050505050908060020154908060030160009054906101000a900473ffffffffffffffffffffffffffffffffffffffff16908060040154908060050154908060060160009054906101000a900460ff1690806007018054611a339061264d565b80601f0160208091040260200160405190810160405280929190818152602001828054611a5f9061264d565b8015611aac5780601f10611a8157610100808354040283529160200191611aac565b820191906000526020600020905b815481529060010190602001808311611a8f57829003601f168201915b5050505050905088565b60008054906101000a900473ffffffffffffffffffffffffffffffffffffffff1681565b60046020528060005260406000206000915054906101000a900460ff1681565b60025481565b60015481565b60096020528060005260406000206000915090505481565b60008054906101000a900473ffffffffffffffffffffffffffffffffffffffff1673ffffffffffffffffffffffffffffffffffffffff163373ffffffffffffffffffffffffffffffffffffffff1614611bac576040517f08c379a0000000000000000000000000000000000000000000000000000000008152600401611ba390612592565b60405180910390fd5b600115156005600083815260200190815260200160002060050160009054906101000a900460ff1615151415611c17576040517f08c379a0000000000000000000000000000000000000000000000000000000008152600401611c0e9061280f565b60405180910390fd5b600160056000838152602001908152602001600020600401541415611c9f57600d6000815480929190611c499061246b565b9190505550600d54600560008381526020019081526020016000206004018190555060016005600083815260200190815260200160002060050160006101000a81548160ff021916908315150217905550611cda565b6040517f08c379a0000000000000000000000000000000000000000000000000000000008152600401611cd19061287b565b60405180910390fd5b50565b828054611ce99061264d565b90600052602060002090601f016020900481019282611d0b5760008555611d52565b82601f10611d2457805160ff1916838001178555611d52565b82800160010185558215611d52579182015b82811115611d51578251825591602001919060010190611d36565b5b509050611d5f9190611d63565b5090565b5b80821115611d7c576000816000905550600101611d64565b5090565b6000604051905090565b600080fd5b600080fd5b600080fd5b600080fd5b6000601f19601f8301169050919050565b7f4e487b7100000000000000000000000000000000000000000000000000000000600052604160045260246000fd5b611de782611d9e565b810181811067ffffffffffffffff82111715611e0657611e05611daf565b5b80604052505050565b6000611e19611d80565b9050611e258282611dde565b919050565b600067ffffffffffffffff821115611e4557611e44611daf565b5b611e4e82611d9e565b9050602081019050919050565b82818337600083830152505050565b6000611e7d611e7884611e2a565b611e0f565b905082815260208101848484011115611e9957611e98611d99565b5b611ea4848285611e5b565b509392505050565b600082601f830112611ec157611ec0611d94565b5b8135611ed1848260208601611e6a565b91505092915050565b6000819050919050565b611eed81611eda565b8114611ef857600080fd5b50565b600081359050611f0a81611ee4565b92915050565b600080600060608486031215611f2957611f28611d8a565b5b600084013567ffffffffffffffff811115611f4757611f46611d8f565b5b611f5386828701611eac565b9350506020611f6486828701611efb565b9250506040611f7586828701611efb565b9150509250925092565b600073ffffffffffffffffffffffffffffffffffffffff82169050919050565b6000611faa82611f7f565b9050919050565b611fba81611f9f565b8114611fc557600080fd5b50565b600081359050611fd781611fb1565b92915050565b60008060408385031215611ff457611ff3611d8a565b5b600061200285828601611fc8565b925050602083013567ffffffffffffffff81111561202357612022611d8f565b5b61202f85828601611eac565b9150509250929050565b61204281611eda565b82525050565b600060208201905061205d6000830184612039565b92915050565b60006020828403121561207957612078611d8a565b5b600061208784828501611fc8565b91505092915050565b600081519050919050565b600082825260208201905092915050565b60005b838110156120ca5780820151818401526020810190506120af565b838111156120d9576000848401525b50505050565b60006120ea82612090565b6120f4818561209b565b93506121048185602086016120ac565b61210d81611d9e565b840191505092915050565b6000606082019050818103600083015261213281866120df565b90506121416020830185612039565b61214e6040830184612039565b949350505050565b60006020828403121561216c5761216b611d8a565b5b600061217a84828501611efb565b91505092915050565b61218c81611f9f565b82525050565b7f4e487b7100000000000000000000000000000000000000000000000000000000600052602160045260246000fd5b600381106121d2576121d1612192565b5b50565b60008190506121e3826121c1565b919050565b60006121f3826121d5565b9050919050565b612203816121e8565b82525050565b60006101008201905061221f600083018b612039565b8181036020830152612231818a6120df565b90506122406040830189612039565b61224d6060830188612183565b61225a6080830187612039565b61226760a0830186612039565b61227460c08301856121fa565b81810360e083015261228681846120df565b90509998505050505050505050565b60008115159050919050565b6122aa81612295565b82525050565b600060c0820190506122c56000830189612039565b81810360208301526122d781886120df565b90506122e66040830187612039565b6122f36060830186612183565b6123006080830185612039565b61230d60a08301846122a1565b979650505050505050565b6000806040838503121561232f5761232e611d8a565b5b600083013567ffffffffffffffff81111561234d5761234c611d8f565b5b61235985828601611eac565b925050602061236a85828601611efb565b9150509250929050565b60006020820190506123896000830184612183565b92915050565b60006020820190506123a460008301846122a1565b92915050565b7f73616d652063616e6469646174652063616e277420626520726567697374657260008201527f20616761696e0000000000000000000000000000000000000000000000000000602082015250565b600061240660268361209b565b9150612411826123aa565b604082019050919050565b60006020820190508181036000830152612435816123f9565b9050919050565b7f4e487b7100000000000000000000000000000000000000000000000000000000600052601160045260246000fd5b600061247682611eda565b91507fffffffffffffffffffffffffffffffffffffffffffffffffffffffffffffffff8214156124a9576124a861243c565b5b600182019050919050565b7f566f746572206973206e6f742076657269666965640000000000000000000000600082015250565b60006124ea60158361209b565b91506124f5826124b4565b602082019050919050565b60006020820190508181036000830152612519816124dd565b9050919050565b7f617574686f726974792063616e206f6e6c792063616c6c20746869732066756e60008201527f6374696f6e000000000000000000000000000000000000000000000000000000602082015250565b600061257c60258361209b565b915061258782612520565b604082019050919050565b600060208201905081810360008301526125ab8161256f565b9050919050565b7f616c7265616479206170726f7665640000000000000000000000000000000000600082015250565b60006125e8600f8361209b565b91506125f3826125b2565b602082019050919050565b60006020820190508181036000830152612617816125db565b9050919050565b7f4e487b7100000000000000000000000000000000000000000000000000000000600052602260045260246000fd5b6000600282049050600182168061266557607f821691505b602082108114156126795761267861261e565b5b50919050565b7f74686572206973206e6f20737563682063616e64696461746500000000000000600082015250565b60006126b560198361209b565b91506126c08261267f565b602082019050919050565b600060208201905081810360008301526126e4816126a8565b9050919050565b7f7468657265206973206e6f2063616e6469646174650000000000000000000000600082015250565b600061272160158361209b565b915061272c826126eb565b602082019050919050565b6000602082019050818103600083015261275081612714565b9050919050565b7f616c726561647920637265617465640000000000000000000000000000000000600082015250565b600061278d600f8361209b565b915061279882612757565b602082019050919050565b600060208201905081810360008301526127bc81612780565b9050919050565b7f416c726561647920766f74657220494420416c6c6f6361746564200000000000600082015250565b60006127f9601b8361209b565b9150612804826127c3565b602082019050919050565b60006020820190508181036000830152612828816127ec565b9050919050565b7f4669737420796f75206e65656420746f20726567697374657200000000000000600082015250565b600061286560198361209b565b91506128708261282f565b602082019050919050565b6000602082019050818103600083015261289481612858565b905091905056fea26469706673582212200bafa07875a0e14a9d52e328aef9328002d102f9bca68a35af720534caa7d29c64736f6c634300080a0033",
  "immutableReferences": {},
  "source": "// SPDX-License-Identifier: GPL-3.0\npragma solidity ^0.8.7;\n\ncontract Election {\n    address public authority;\n    uint public voteStart;\n    uint public voteEnd ;\n    uint public time = block.timestamp;\n    constructor(){\n        authority = msg.sender;\n        voteStart = block.timestamp + (10* 1 minutes);\n        //  voteEnd = block.timestamp + (6 * 1 hours);\n        voteEnd = block.timestamp + (2 * 1 hours);\n    }\n     struct Voter{\n        uint RegId;\n        string voterName;\n        uint voterWard;\n        address voterAddress;\n        uint voterId;\n        bool status;\n        \n    }\n    struct  Candidate{\n        uint CandidateRegId;\n        string name;\n        uint ward;\n        address id;\n        uint vote;\n        uint VoterId;\n        candidateStatus  status;\n        string remark;   \n    } \n    enum candidateStatus {pending, approved, rejected}\n    mapping (address => bool) public votes;\n    mapping (uint => Voter) public voter;\n    mapping (uint  => Candidate) public candidateReg;\n    mapping (uint  => Candidate) public candidatelist;\n    mapping (address => uint ) public voterlogin;\n    mapping (address => uint) public candidatelogin;\n    uint public candidateCount;\n    uint public voterCount;\n    uint public approvedCandidateCount;\n \n    modifier authorization(){\n        require(msg.sender == authority,\"authority can only call this function\");\n        _;\n    }\n    \n    function voterRegistration(\n        string memory _name, \n        uint _ward \n    ) \n        public\n    {\n        for(uint i = 1; i <=  voterCount; i++ ){\n            if(voter[i].voterAddress == msg.sender){\n                revert(\"already created\");\n            }\n        }\n        voterCount++;\n        voter[voterCount] = Voter(\n            voterCount,\n            _name,\n            _ward,\n            msg.sender,\n            1,\n            false\n        );\n        voterlogin[msg.sender] = voterCount;\n    }\n    uint voterIdgenerator = 1000;\n\n    function allocateId(uint _voterRegId) public authorization {\n            if(voter[_voterRegId].status == true){\n                revert(\"Already voter ID Allocated \");\n            }\n            // else if(_voterRegId <= 0 || _voterRegId > count  ){\n            //     revert(\"voter not found\");\n            // }   \n        \n                else if(voter[_voterRegId].voterId == 1){\n                     voterIdgenerator++;\n                      voter[_voterRegId].voterId = voterIdgenerator;\n                  voter[_voterRegId].status = true;\n            } \n            else{\n                revert(\"Fist you need to register\");\n            }\n\n                         \n    }\n\n    function cantidateRegistration(string memory _name, uint _ward, uint _voterId)public{\n    // add conditon to valte\n           for(uint j=1 ; j<=candidateCount;j++){\n             if(candidateReg[j].id == msg.sender ){\n                 revert(\"same candidate can't be register again\");\n             }\n         }\n         for(uint j=1 ; j<=voterCount;j++){\n             if(voter[j].voterAddress == msg.sender && voter[j].status == false){\n                 revert(\"Voter is not verified\");\n             }\n         }\n\n         candidateCount++;\n                    candidateStatus _candidateStatus = candidateStatus.pending;\n                    candidateReg[candidateCount] = Candidate(\n                        candidateCount,\n                        _name,\n                        _ward,\n                        msg.sender, \n                        0,\n                        _voterId, \n                        _candidateStatus,\n                        \"\"\n                     \n                    );\n                    candidatelogin[msg.sender] = candidateCount;  \n    }\n\n    function approveCadidedress(address _voteraddress, string memory _remark) public authorization {\n         for(uint j=1 ; j<=approvedCandidateCount;j++){\n             if(candidatelist[j].id == _voteraddress){\n                 revert(\"already aproved\");\n             }\n         }\n         uint flag = 0;\n        for(uint i=1; i <= candidateCount; i++ ){\n            if(candidateReg[i].id == _voteraddress){\n                \n                        approvedCandidateCount++;\n                        candidateStatus _candidateStatus = candidateStatus.approved;\n                        candidateReg[i] = Candidate(candidateReg[i].CandidateRegId, candidateReg[i].name,candidateReg[i].ward,_voteraddress,0, candidateReg[i].VoterId, _candidateStatus,_remark);\n                        candidatelist[approvedCandidateCount] = Candidate(\n                            approvedCandidateCount, \n                            candidateReg[i].name,\n                            candidateReg[i].ward,\n                            _voteraddress, \n                            0,\n                            candidateReg[i].VoterId, \n                            _candidateStatus,\n                            _remark\n                        );  \n                          candidatelogin[_voteraddress] = i; \n                        \n\n                        flag =1;\n                      }\n\n        }\n        if(flag != 1){\n            revert(\"ther is no such candidate\");\n        }\n     }\n       function RejectedCadidedress(address _voteraddress, string memory _remark) public authorization {\n         for(uint j=1 ; j<=approvedCandidateCount;j++){\n             if(candidatelist[j].id == _voteraddress){\n                 revert(\"already aproved\");\n             }\n         }\n         uint flag = 0;\n        for(uint i=1; i<= candidateCount; i++ ){\n            if(candidateReg[i].id == _voteraddress){\n                \n                        approvedCandidateCount++;\n                        candidateStatus _candidateStatus = candidateStatus.rejected;\n                        candidateReg[i] = Candidate(candidateReg[i].CandidateRegId, candidateReg[i].name,candidateReg[i].ward,_voteraddress,0, candidateReg[i].VoterId, _candidateStatus,_remark);\n                       \n\n                        flag =1;\n                      }\n\n        }\n        if(flag != 1){\n            revert(\"ther is no such candidate\");\n        }\n     }\n\n     function result() public view returns(string memory, uint, uint){\n         require(approvedCandidateCount>=1, \"there is no candidate\");\n         uint votecount ;\n         uint index ;\n         for(uint i =1 ; i<=approvedCandidateCount; i++){\n             if(candidatelist[i].vote > votecount){\n                 votecount = candidatelist[i].vote;\n                 index = i ;\n                }\n          }\n         return(\n            candidatelist[index].name,\n            candidatelist[index].vote,\n            candidatelist[index].ward\n            );   \n     } \n}\n\n\n",
  "sourcePath": "/home/nisamudheen/Desktop/sps/voting_smartcontract/contracts/election.sol",
  "compiler": {
    "name": "solc",
    "version": "0.8.10+commit.fc410830.Emscripten.clang"
  },
  "schemaVersion": "3.4.3",
  "updatedAt": "2022-01-06T08:03:27.713Z",
  "devdoc": {
    "kind": "dev",
    "methods": {},
    "version": 1
  },
  "userdoc": {
    "kind": "user",
    "methods": {},
    "version": 1
  }
}