{
  "contractName": "Election",
  "abi": [
    {
      "inputs": [],
      "stateMutability": "nonpayable",
      "type": "constructor"
    },
    {
      "inputs": [],
      "name": "approvedCandidateCount",
      "outputs": [
        {
          "internalType": "uint256",
          "name": "",
          "type": "uint256"
        }
      ],
      "stateMutability": "view",
      "type": "function"
    },
    {
      "inputs": [],
      "name": "candedatesCount",
      "outputs": [
        {
          "internalType": "uint256",
          "name": "",
          "type": "uint256"
        }
      ],
      "stateMutability": "view",
      "type": "function"
    },
    {
      "inputs": [
        {
          "internalType": "uint256",
          "name": "",
          "type": "uint256"
        }
      ],
      "name": "candidateReg",
      "outputs": [
        {
          "internalType": "uint256",
          "name": "CandidateId",
          "type": "uint256"
        },
        {
          "internalType": "string",
          "name": "name",
          "type": "string"
        },
        {
          "internalType": "uint256",
          "name": "ward",
          "type": "uint256"
        },
        {
          "internalType": "uint256",
          "name": "voteCount",
          "type": "uint256"
        },
        {
          "internalType": "address",
          "name": "id",
          "type": "address"
        },
        {
          "internalType": "uint256",
          "name": "VoterId",
          "type": "uint256"
        },
        {
          "internalType": "enum Election.candidateStatus",
          "name": "status",
          "type": "uint8"
        }
      ],
      "stateMutability": "view",
      "type": "function"
    },
    {
      "inputs": [
        {
          "internalType": "uint256",
          "name": "",
          "type": "uint256"
        }
      ],
      "name": "candidateslist",
      "outputs": [
        {
          "internalType": "uint256",
          "name": "CandidateId",
          "type": "uint256"
        },
        {
          "internalType": "string",
          "name": "name",
          "type": "string"
        },
        {
          "internalType": "uint256",
          "name": "ward",
          "type": "uint256"
        },
        {
          "internalType": "uint256",
          "name": "voteCount",
          "type": "uint256"
        },
        {
          "internalType": "address",
          "name": "id",
          "type": "address"
        },
        {
          "internalType": "uint256",
          "name": "VoterId",
          "type": "uint256"
        },
        {
          "internalType": "enum Election.candidateStatus",
          "name": "status",
          "type": "uint8"
        }
      ],
      "stateMutability": "view",
      "type": "function"
    },
    {
      "inputs": [],
      "name": "count",
      "outputs": [
        {
          "internalType": "uint256",
          "name": "",
          "type": "uint256"
        }
      ],
      "stateMutability": "view",
      "type": "function"
    },
    {
      "inputs": [
        {
          "internalType": "uint256",
          "name": "",
          "type": "uint256"
        }
      ],
      "name": "voter",
      "outputs": [
        {
          "internalType": "uint256",
          "name": "index",
          "type": "uint256"
        },
        {
          "internalType": "string",
          "name": "voterName",
          "type": "string"
        },
        {
          "internalType": "uint256",
          "name": "voterWard",
          "type": "uint256"
        },
        {
          "internalType": "address",
          "name": "voterAddress",
          "type": "address"
        },
        {
          "internalType": "bool",
          "name": "verify",
          "type": "bool"
        },
        {
          "internalType": "uint256",
          "name": "voterId",
          "type": "uint256"
        }
      ],
      "stateMutability": "view",
      "type": "function"
    },
    {
      "inputs": [],
      "name": "voterCount",
      "outputs": [
        {
          "internalType": "uint256",
          "name": "",
          "type": "uint256"
        }
      ],
      "stateMutability": "view",
      "type": "function"
    },
    {
      "inputs": [
        {
          "internalType": "string",
          "name": "_name",
          "type": "string"
        },
        {
          "internalType": "uint256",
          "name": "_ward",
          "type": "uint256"
        },
        {
          "internalType": "uint256",
          "name": "_age",
          "type": "uint256"
        }
      ],
      "name": "voterIdReg",
      "outputs": [],
      "stateMutability": "nonpayable",
      "type": "function"
    },
    {
      "inputs": [
        {
          "internalType": "uint256",
          "name": "",
          "type": "uint256"
        }
      ],
      "name": "voteridcard",
      "outputs": [
        {
          "internalType": "string",
          "name": "voterName",
          "type": "string"
        },
        {
          "internalType": "uint256",
          "name": "voterWard",
          "type": "uint256"
        },
        {
          "internalType": "uint256",
          "name": "age",
          "type": "uint256"
        },
        {
          "internalType": "uint256",
          "name": "voterIds",
          "type": "uint256"
        }
      ],
      "stateMutability": "view",
      "type": "function"
    },
    {
      "inputs": [
        {
          "internalType": "address",
          "name": "",
          "type": "address"
        }
      ],
      "name": "votes",
      "outputs": [
        {
          "internalType": "bool",
          "name": "",
          "type": "bool"
        }
      ],
      "stateMutability": "view",
      "type": "function"
    },
    {
      "inputs": [
        {
          "internalType": "string",
          "name": "_name",
          "type": "string"
        },
        {
          "internalType": "uint256",
          "name": "_ward",
          "type": "uint256"
        },
        {
          "internalType": "uint256",
          "name": "_voterId",
          "type": "uint256"
        }
      ],
      "name": "voterRegistration",
      "outputs": [],
      "stateMutability": "nonpayable",
      "type": "function"
    },
    {
      "inputs": [
        {
          "internalType": "uint256",
          "name": "_voterId",
          "type": "uint256"
        }
      ],
      "name": "voterVerify",
      "outputs": [],
      "stateMutability": "nonpayable",
      "type": "function"
    },
    {
      "inputs": [],
      "name": "applyForCantidate",
      "outputs": [],
      "stateMutability": "nonpayable",
      "type": "function"
    },
    {
      "inputs": [
        {
          "internalType": "address",
          "name": "_voteraddress",
          "type": "address"
        }
      ],
      "name": "approveCadidedress",
      "outputs": [],
      "stateMutability": "nonpayable",
      "type": "function"
    },
    {
      "inputs": [],
      "name": "result",
      "outputs": [
        {
          "internalType": "string",
          "name": "",
          "type": "string"
        },
        {
          "internalType": "uint256",
          "name": "",
          "type": "uint256"
        }
      ],
      "stateMutability": "view",
      "type": "function"
    }
  ],
  "bytecode": "0x60806040526103e860005534801561001657600080fd5b5033600360006101000a81548173ffffffffffffffffffffffffffffffffffffffff021916908373ffffffffffffffffffffffffffffffffffffffff1602179055506122fd806100676000396000f3fe608060405234801561001057600080fd5b50600436106100f55760003560e01c8063905d04c211610097578063c9680e1f11610066578063c9680e1f1461026f578063ca6ea96d1461028d578063d8bff5a5146102a9578063d8d4c926146102d9576100f5565b8063905d04c2146101cc57806395cf0509146101e8578063ab8ed1ba14610204578063bcaf189b14610239576100f5565b806365372147116100d35780636537214714610140578063656ee5cc1461015f5780637400df711461017b5780637bd0192514610199576100f5565b806306661abd146100fa57806342169e4814610118578063542ac40d14610136575b600080fd5b61010261030f565b60405161010f919061181a565b60405180910390f35b610120610315565b60405161012d919061181a565b60405180910390f35b61013e61031b565b005b6101486106e3565b6040516101569291906118ce565b60405180910390f35b61017960048036038101906101749190611a73565b610852565b005b610183610a3a565b604051610190919061181a565b60405180910390f35b6101b360048036038101906101ae9190611ae2565b610a40565b6040516101c39493929190611b0f565b60405180910390f35b6101e660048036038101906101e19190611ae2565b610af8565b005b61020260048036038101906101fd9190611bb9565b610ce9565b005b61021e60048036038101906102199190611ae2565b611375565b60405161023096959493929190611c10565b60405180910390f35b610253600480360381019061024e9190611ae2565b611466565b6040516102669796959493929190611cef565b60405180910390f35b61027761155d565b604051610284919061181a565b60405180910390f35b6102a760048036038101906102a29190611a73565b611563565b005b6102c360048036038101906102be9190611bb9565b611647565b6040516102d09190611d65565b60405180910390f35b6102f360048036038101906102ee9190611ae2565b611667565b6040516103069796959493929190611cef565b60405180910390f35b60015481565b60095481565b6000600190505b60095481116106e0573373ffffffffffffffffffffffffffffffffffffffff166005600083815260200190815260200160002060030160009054906101000a900473ffffffffffffffffffffffffffffffffffffffff1673ffffffffffffffffffffffffffffffffffffffff161480156103c35750600115156005600083815260200190815260200160002060030160149054906101000a900460ff161515145b1561061a57600860008154809291906103db90611daf565b919050555060006040518060e00160405280600854815260200160056000858152602001908152602001600020600101805461041690611e27565b80601f016020809104026020016040519081016040528092919081815260200182805461044290611e27565b801561048f5780601f106104645761010080835404028352916020019161048f565b820191906000526020600020905b81548152906001019060200180831161047257829003601f168201915b5050505050815260200160056000858152602001908152602001600020600201548152602001600081526020016005600085815260200190815260200160002060030160009054906101000a900473ffffffffffffffffffffffffffffffffffffffff1673ffffffffffffffffffffffffffffffffffffffff1681526020016005600085815260200190815260200160002060040154815260200182600281111561053d5761053c611c78565b5b81525060066000600854815260200190815260200160002060008201518160000155602082015181600101908051906020019061057b92919061175e565b50604082015181600201556060820151816003015560808201518160040160006101000a81548173ffffffffffffffffffffffffffffffffffffffff021916908373ffffffffffffffffffffffffffffffffffffffff16021790555060a0820151816005015560c08201518160060160006101000a81548160ff0219169083600281111561060c5761060b611c78565b5b0217905550905050506106cd565b3373ffffffffffffffffffffffffffffffffffffffff166006600083815260200190815260200160002060040160009054906101000a900473ffffffffffffffffffffffffffffffffffffffff1673ffffffffffffffffffffffffffffffffffffffff16148061068c57506000600954145b156106cc576040517f08c379a00000000000000000000000000000000000000000000000000000000081526004016106c390611ea5565b60405180910390fd5b5b80806106d890611daf565b915050610322565b50565b606060006001600a54101561072d576040517f08c379a000000000000000000000000000000000000000000000000000000000815260040161072490611f11565b60405180910390fd5b6000806000600190505b600a54811161078e57826007600083815260200190815260200160002060030154111561077b57600760008281526020019081526020016000206003015492508091505b808061078690611daf565b915050610737565b506007600082815260200190815260200160002060010160076000838152602001908152602001600020600301548180546107c890611e27565b80601f01602080910402602001604051908101604052809291908181526020018280546107f490611e27565b80156108415780601f1061081657610100808354040283529160200191610841565b820191906000526020600020905b81548152906001019060200180831161082457829003601f168201915b505050505091509350935050509091565b6000600190505b600954811161091a573373ffffffffffffffffffffffffffffffffffffffff166005600083815260200190815260200160002060030160009054906101000a900473ffffffffffffffffffffffffffffffffffffffff1673ffffffffffffffffffffffffffffffffffffffff161415610907576040517f08c379a00000000000000000000000000000000000000000000000000000000081526004016108fe90611f7d565b60405180910390fd5b808061091290611daf565b915050610859565b506009600081548092919061092e90611daf565b91905055506040518060c0016040528060095481526020018481526020018381526020013373ffffffffffffffffffffffffffffffffffffffff168152602001600015158152602001828152506005600060095481526020019081526020016000206000820151816000015560208201518160010190805190602001906109b692919061175e565b506040820151816002015560608201518160030160006101000a81548173ffffffffffffffffffffffffffffffffffffffff021916908373ffffffffffffffffffffffffffffffffffffffff16021790555060808201518160030160146101000a81548160ff02191690831515021790555060a08201518160040155905050505050565b600a5481565b6002602052806000526040600020600091509050806000018054610a6390611e27565b80601f0160208091040260200160405190810160405280929190818152602001828054610a8f90611e27565b8015610adc5780601f10610ab157610100808354040283529160200191610adc565b820191906000526020600020905b815481529060010190602001808311610abf57829003601f168201915b5050505050908060010154908060020154908060030154905084565b600360009054906101000a900473ffffffffffffffffffffffffffffffffffffffff1673ffffffffffffffffffffffffffffffffffffffff163373ffffffffffffffffffffffffffffffffffffffff1614610b88576040517f08c379a0000000000000000000000000000000000000000000000000000000008152600401610b7f9061200f565b60405180910390fd5b600115156005600083815260200190815260200160002060030160149054906101000a900460ff1615151415610bf3576040517f08c379a0000000000000000000000000000000000000000000000000000000008152600401610bea9061207b565b60405180910390fd5b6000811080610c03575060015481115b15610c43576040517f08c379a0000000000000000000000000000000000000000000000000000000008152600401610c3a906120e7565b60405180910390fd5b600260008281526020019081526020016000206003015460056000838152602001908152602001600020600401541415610cab5760016005600083815260200190815260200160002060030160146101000a81548160ff021916908315150217905550610ce6565b6040517f08c379a0000000000000000000000000000000000000000000000000000000008152600401610cdd90612153565b60405180910390fd5b50565b600360009054906101000a900473ffffffffffffffffffffffffffffffffffffffff1673ffffffffffffffffffffffffffffffffffffffff163373ffffffffffffffffffffffffffffffffffffffff1614610d79576040517f08c379a0000000000000000000000000000000000000000000000000000000008152600401610d709061200f565b60405180910390fd5b60005b600a548111610e3d578173ffffffffffffffffffffffffffffffffffffffff166007600083815260200190815260200160002060040160009054906101000a900473ffffffffffffffffffffffffffffffffffffffff1673ffffffffffffffffffffffffffffffffffffffff161415610e2a576040517f08c379a0000000000000000000000000000000000000000000000000000000008152600401610e21906121bf565b60405180910390fd5b8080610e3590611daf565b915050610d7c565b506000600190505b6008548111611371578173ffffffffffffffffffffffffffffffffffffffff166006600083815260200190815260200160002060040160009054906101000a900473ffffffffffffffffffffffffffffffffffffffff1673ffffffffffffffffffffffffffffffffffffffff16141561135e576000600190505b600154811161135c5760026000828152602001908152602001600020600101546006600084815260200190815260200160002060020154148015610f2e575060026000828152602001908152602001600020600301546006600084815260200190815260200160002060050154145b1561134957600a6000815480929190610f4690611daf565b91905055506000600190506040518060e001604052806008548152602001600660008681526020019081526020016000206001018054610f8590611e27565b80601f0160208091040260200160405190810160405280929190818152602001828054610fb190611e27565b8015610ffe5780601f10610fd357610100808354040283529160200191610ffe565b820191906000526020600020905b815481529060010190602001808311610fe157829003601f168201915b5050505050815260200160066000868152602001908152602001600020600201548152602001600081526020013373ffffffffffffffffffffffffffffffffffffffff1681526020016006600086815260200190815260200160002060050154815260200182600281111561107657611075611c78565b5b815250600660008581526020019081526020016000206000820151816000015560208201518160010190805190602001906110b292919061175e565b50604082015181600201556060820151816003015560808201518160040160006101000a81548173ffffffffffffffffffffffffffffffffffffffff021916908373ffffffffffffffffffffffffffffffffffffffff16021790555060a0820151816005015560c08201518160060160006101000a81548160ff0219169083600281111561114357611142611c78565b5b02179055509050506040518060e00160405280600a54815260200160066000868152602001908152602001600020600101805461117f90611e27565b80601f01602080910402602001604051908101604052809291908181526020018280546111ab90611e27565b80156111f85780601f106111cd576101008083540402835291602001916111f8565b820191906000526020600020905b8154815290600101906020018083116111db57829003601f168201915b5050505050815260200160066000868152602001908152602001600020600201548152602001600081526020018573ffffffffffffffffffffffffffffffffffffffff168152602001600660008681526020019081526020016000206005015481526020018260028111156112705761126f611c78565b5b81525060076000600a5481526020019081526020016000206000820151816000015560208201518160010190805190602001906112ae92919061175e565b50604082015181600201556060820151816003015560808201518160040160006101000a81548173ffffffffffffffffffffffffffffffffffffffff021916908373ffffffffffffffffffffffffffffffffffffffff16021790555060a0820151816005015560c08201518160060160006101000a81548160ff0219169083600281111561133f5761133e611c78565b5b0217905550905050505b808061135490611daf565b915050610ebf565b505b808061136990611daf565b915050610e45565b5050565b600560205280600052604060002060009150905080600001549080600101805461139e90611e27565b80601f01602080910402602001604051908101604052809291908181526020018280546113ca90611e27565b80156114175780601f106113ec57610100808354040283529160200191611417565b820191906000526020600020905b8154815290600101906020018083116113fa57829003601f168201915b5050505050908060020154908060030160009054906101000a900473ffffffffffffffffffffffffffffffffffffffff16908060030160149054906101000a900460ff16908060040154905086565b600660205280600052604060002060009150905080600001549080600101805461148f90611e27565b80601f01602080910402602001604051908101604052809291908181526020018280546114bb90611e27565b80156115085780601f106114dd57610100808354040283529160200191611508565b820191906000526020600020905b8154815290600101906020018083116114eb57829003601f168201915b5050505050908060020154908060030154908060040160009054906101000a900473ffffffffffffffffffffffffffffffffffffffff16908060050154908060060160009054906101000a900460ff16905087565b60085481565b60128110156115a7576040517f08c379a000000000000000000000000000000000000000000000000000000000815260040161159e90612251565b60405180910390fd5b600160008154809291906115ba90611daf565b919050555060405180608001604052808481526020018381526020018281526020016001546000546115ec9190612271565b815250600260006001548152602001908152602001600020600082015181600001908051906020019061162092919061175e565b50602082015181600101556040820151816002015560608201518160030155905050505050565b60046020528060005260406000206000915054906101000a900460ff1681565b600760205280600052604060002060009150905080600001549080600101805461169090611e27565b80601f01602080910402602001604051908101604052809291908181526020018280546116bc90611e27565b80156117095780601f106116de57610100808354040283529160200191611709565b820191906000526020600020905b8154815290600101906020018083116116ec57829003601f168201915b5050505050908060020154908060030154908060040160009054906101000a900473ffffffffffffffffffffffffffffffffffffffff16908060050154908060060160009054906101000a900460ff16905087565b82805461176a90611e27565b90600052602060002090601f01602090048101928261178c57600085556117d3565b82601f106117a557805160ff19168380011785556117d3565b828001600101855582156117d3579182015b828111156117d25782518255916020019190600101906117b7565b5b5090506117e091906117e4565b5090565b5b808211156117fd5760008160009055506001016117e5565b5090565b6000819050919050565b61181481611801565b82525050565b600060208201905061182f600083018461180b565b92915050565b600081519050919050565b600082825260208201905092915050565b60005b8381101561186f578082015181840152602081019050611854565b8381111561187e576000848401525b50505050565b6000601f19601f8301169050919050565b60006118a082611835565b6118aa8185611840565b93506118ba818560208601611851565b6118c381611884565b840191505092915050565b600060408201905081810360008301526118e88185611895565b90506118f7602083018461180b565b9392505050565b6000604051905090565b600080fd5b600080fd5b600080fd5b600080fd5b7f4e487b7100000000000000000000000000000000000000000000000000000000600052604160045260246000fd5b61195482611884565b810181811067ffffffffffffffff821117156119735761197261191c565b5b80604052505050565b60006119866118fe565b9050611992828261194b565b919050565b600067ffffffffffffffff8211156119b2576119b161191c565b5b6119bb82611884565b9050602081019050919050565b82818337600083830152505050565b60006119ea6119e584611997565b61197c565b905082815260208101848484011115611a0657611a05611917565b5b611a118482856119c8565b509392505050565b600082601f830112611a2e57611a2d611912565b5b8135611a3e8482602086016119d7565b91505092915050565b611a5081611801565b8114611a5b57600080fd5b50565b600081359050611a6d81611a47565b92915050565b600080600060608486031215611a8c57611a8b611908565b5b600084013567ffffffffffffffff811115611aaa57611aa961190d565b5b611ab686828701611a19565b9350506020611ac786828701611a5e565b9250506040611ad886828701611a5e565b9150509250925092565b600060208284031215611af857611af7611908565b5b6000611b0684828501611a5e565b91505092915050565b60006080820190508181036000830152611b298187611895565b9050611b38602083018661180b565b611b45604083018561180b565b611b52606083018461180b565b95945050505050565b600073ffffffffffffffffffffffffffffffffffffffff82169050919050565b6000611b8682611b5b565b9050919050565b611b9681611b7b565b8114611ba157600080fd5b50565b600081359050611bb381611b8d565b92915050565b600060208284031215611bcf57611bce611908565b5b6000611bdd84828501611ba4565b91505092915050565b611bef81611b7b565b82525050565b60008115159050919050565b611c0a81611bf5565b82525050565b600060c082019050611c25600083018961180b565b8181036020830152611c378188611895565b9050611c46604083018761180b565b611c536060830186611be6565b611c606080830185611c01565b611c6d60a083018461180b565b979650505050505050565b7f4e487b7100000000000000000000000000000000000000000000000000000000600052602160045260246000fd5b60038110611cb857611cb7611c78565b5b50565b6000819050611cc982611ca7565b919050565b6000611cd982611cbb565b9050919050565b611ce981611cce565b82525050565b600060e082019050611d04600083018a61180b565b8181036020830152611d168189611895565b9050611d25604083018861180b565b611d32606083018761180b565b611d3f6080830186611be6565b611d4c60a083018561180b565b611d5960c0830184611ce0565b98975050505050505050565b6000602082019050611d7a6000830184611c01565b92915050565b7f4e487b7100000000000000000000000000000000000000000000000000000000600052601160045260246000fd5b6000611dba82611801565b91507fffffffffffffffffffffffffffffffffffffffffffffffffffffffffffffffff821415611ded57611dec611d80565b5b600182019050919050565b7f4e487b7100000000000000000000000000000000000000000000000000000000600052602260045260246000fd5b60006002820490506001821680611e3f57607f821691505b60208210811415611e5357611e52611df8565b5b50919050565b7f73616d652063616e6469646174652063616e2774206265206164646400000000600082015250565b6000611e8f601c83611840565b9150611e9a82611e59565b602082019050919050565b60006020820190508181036000830152611ebe81611e82565b9050919050565b7f7468657265206973206e6f2063616e6469646174650000000000000000000000600082015250565b6000611efb601583611840565b9150611f0682611ec5565b602082019050919050565b60006020820190508181036000830152611f2a81611eee565b9050919050565b7f616c726561647920637265617465640000000000000000000000000000000000600082015250565b6000611f67600f83611840565b9150611f7282611f31565b602082019050919050565b60006020820190508181036000830152611f9681611f5a565b9050919050565b7f617574686f726974792063616e206f6e6c792063616c6c20746869732066756e60008201527f6374696f6e000000000000000000000000000000000000000000000000000000602082015250565b6000611ff9602583611840565b915061200482611f9d565b604082019050919050565b6000602082019050818103600083015261202881611fec565b9050919050565b7f616c726561647920766572696679000000000000000000000000000000000000600082015250565b6000612065600e83611840565b91506120708261202f565b602082019050919050565b6000602082019050818103600083015261209481612058565b9050919050565b7f766f746572206e6f7420666f756e640000000000000000000000000000000000600082015250565b60006120d1600f83611840565b91506120dc8261209b565b602082019050919050565b60006020820190508181036000830152612100816120c4565b9050919050565b7f766f746572206964206e6f20666f756e64000000000000000000000000000000600082015250565b600061213d601183611840565b915061214882612107565b602082019050919050565b6000602082019050818103600083015261216c81612130565b9050919050565b7f616c7265616479206170726f7665640000000000000000000000000000000000600082015250565b60006121a9600f83611840565b91506121b482612173565b602082019050919050565b600060208201905081810360008301526121d88161219c565b9050919050565b7f5468697320706572736f6e206973206e6f7420656c696769626c6520666f722060008201527f766f746572732049640000000000000000000000000000000000000000000000602082015250565b600061223b602983611840565b9150612246826121df565b604082019050919050565b6000602082019050818103600083015261226a8161222e565b9050919050565b600061227c82611801565b915061228783611801565b9250827fffffffffffffffffffffffffffffffffffffffffffffffffffffffffffffffff038211156122bc576122bb611d80565b5b82820190509291505056fea26469706673582212205bf63c2554581f2e094fc0bb08b22a62678ea3f3f52e5ad6785438c1929b7cf764736f6c634300080a0033",
  "immutableReferences": {},
  "source": "// SPDX-License-Identifier: GPL-3.0\npragma solidity ^0.8.7;\n\ncontract VoterId{\n struct voterIdcard{\n        string voterName;\n        uint voterWard;\n        uint age;\n        uint voterIds;\n    }\n    uint num = 1000;\n    uint public count ;\n    mapping (uint => voterIdcard) public voteridcard;\n\n    function voterIdReg(\n        string memory _name,\n        uint _ward,\n        uint _age \n    ) \n        public\n    {\n        require(\n            _age >= 18,\n            \"This person is not eligible for voters Id\"\n        );\n        count++;\n        voteridcard[count] = voterIdcard(\n            _name,\n            _ward,\n            _age,\n            num+count\n        );\n    }\n}\n\ncontract Election is VoterId{\n    address authority;\n    constructor(){\n        authority = msg.sender;\n    }\n     struct Voter{\n        uint index;\n        string voterName;\n        uint voterWard;\n        address voterAddress;\n        bool verify;\n        uint voterId;\n    }\n    struct  Candidates{\n        uint CandidateId;\n        string name;\n        uint ward;\n        uint voteCount;\n        address id;\n        uint VoterId;\n        candidateStatus  status;   \n    } \n    enum candidateStatus {pending, approved, rejected}\n    mapping(address => bool) public votes;\n    mapping (uint => Voter) public voter;\n    mapping (uint  => Candidates) public candidateReg;\n    mapping (uint  => Candidates) public candidateslist;\n    uint public candedatesCount;\n    uint public voterCount;\n    uint public approvedCandidateCount;\n \n    modifier authorization(){\n        require(msg.sender == authority,\"authority can only call this function\");\n        _;\n    }\n    \n    function voterRegistration(\n        string memory _name, \n        uint _ward, \n        uint _voterId \n    ) \n        public\n    {\n        for(uint i = 1; i <= voterCount; i++ ){\n            if(voter[i].voterAddress == msg.sender){\n                revert(\"already created\");\n            }\n        }\n        voterCount++;\n        voter[voterCount] = Voter(\n            voterCount,\n            _name,\n            _ward,\n            msg.sender,\n            false,\n            _voterId\n        );\n    }\n\n    function voterVerify(uint _voterId) public authorization {\n            if(voter[_voterId].verify == true){\n                revert(\"already verify\");\n            }\n            else if(_voterId < 0 || _voterId > count  ){\n                revert(\"voter not found\");\n            }   \n            else if(voter[_voterId].voterId == voteridcard[_voterId].voterIds){\n                  voter[_voterId].verify = true;\n            }else{\n                 revert(\"voter id no found\");\n            }       \n    }\n\n    function applyForCantidate()public{\n         for(uint i=1; i<= voterCount; i++ ){           \n                if(voter[i].voterAddress == msg.sender && voter[i].verify == true){\n                    candedatesCount++;\n                    candidateStatus _candidateStatus = candidateStatus.pending;\n                    candidateReg[candedatesCount] = Candidates(\n                        candedatesCount,\n                        voter[i].voterName,\n                        voter[i].voterWard,\n                        0,\n                        voter[i].voterAddress, \n                        voter[i].voterId, \n                        _candidateStatus\n                    );\n\n                }\n                else if(candidateReg[i].id == msg.sender || voterCount == 0){\n                    revert(\"same candidate can't be addd\");\n                }          \n        } \n    }\n\n    function approveCadidedress(address _voteraddress) public authorization {\n         for(uint j ; j<=approvedCandidateCount;j++){\n             if(candidateslist[j].id == _voteraddress){\n                 revert(\"already aproved\");\n             }\n         }\n        for(uint i=1; i<= candedatesCount; i++ ){\n            if(candidateReg[i].id == _voteraddress){\n                for(uint j =1; j<= count; j++){\n                    if( candidateReg[i].ward == voteridcard[j].voterWard && candidateReg[i].VoterId == voteridcard[j].voterIds){\n                        approvedCandidateCount++;\n                        candidateStatus _candidateStatus = candidateStatus.approved;\n                        candidateReg[i] = Candidates(candedatesCount, candidateReg[i].name,candidateReg[i].ward,0,msg.sender, candidateReg[i].VoterId, _candidateStatus);\n                        candidateslist[approvedCandidateCount] = Candidates(\n                            approvedCandidateCount, \n                            candidateReg[i].name,\n                            candidateReg[i].ward,\n                            0,\n                            _voteraddress, \n                            candidateReg[i].VoterId, \n                            _candidateStatus\n                        );    \n                    }\n                }\n            }\n        }\n     }\n\n     function result() public view returns(string memory , uint ){\n         require(approvedCandidateCount>=1, \"there is no candidate\");\n         uint votecont ;\n         uint index ;\n         for(uint i =1 ; i<=approvedCandidateCount; i++){\n             if(candidateslist[i].voteCount > votecont){\n                 votecont = candidateslist[i].voteCount;\n                 index = i;\n             }\n         }\n        return(\n            candidateslist[index].name,\n            candidateslist[index].voteCount\n        );   \n     } \n}\n\n\n",
  "sourcePath": "/home/nisamudheen/Desktop/sps/voting_smartcontract/contracts/election.sol",
  "compiler": {
    "name": "solc",
    "version": "0.8.10+commit.fc410830.Emscripten.clang"
  },
  "schemaVersion": "3.4.3",
  "updatedAt": "2021-12-15T08:54:22.092Z",
  "devdoc": {
    "kind": "dev",
    "methods": {},
    "version": 1
  },
  "userdoc": {
    "kind": "user",
    "methods": {},
    "version": 1
  }
}