{
  "contractName": "Election",
  "abi": [
    {
      "inputs": [],
      "stateMutability": "nonpayable",
      "type": "constructor"
    },
    {
      "inputs": [],
      "name": "approvedCandidateCount",
      "outputs": [
        {
          "internalType": "uint256",
          "name": "",
          "type": "uint256"
        }
      ],
      "stateMutability": "view",
      "type": "function"
    },
    {
      "inputs": [],
      "name": "candedatesCount",
      "outputs": [
        {
          "internalType": "uint256",
          "name": "",
          "type": "uint256"
        }
      ],
      "stateMutability": "view",
      "type": "function"
    },
    {
      "inputs": [
        {
          "internalType": "uint256",
          "name": "",
          "type": "uint256"
        }
      ],
      "name": "candidateReg",
      "outputs": [
        {
          "internalType": "uint256",
          "name": "CandidateId",
          "type": "uint256"
        },
        {
          "internalType": "string",
          "name": "name",
          "type": "string"
        },
        {
          "internalType": "uint256",
          "name": "ward",
          "type": "uint256"
        },
        {
          "internalType": "uint256",
          "name": "voteCount",
          "type": "uint256"
        },
        {
          "internalType": "address",
          "name": "id",
          "type": "address"
        },
        {
          "internalType": "uint256",
          "name": "VoterId",
          "type": "uint256"
        },
        {
          "internalType": "enum Election.candidateStatus",
          "name": "status",
          "type": "uint8"
        }
      ],
      "stateMutability": "view",
      "type": "function"
    },
    {
      "inputs": [
        {
          "internalType": "uint256",
          "name": "",
          "type": "uint256"
        }
      ],
      "name": "candidateslist",
      "outputs": [
        {
          "internalType": "uint256",
          "name": "CandidateId",
          "type": "uint256"
        },
        {
          "internalType": "string",
          "name": "name",
          "type": "string"
        },
        {
          "internalType": "uint256",
          "name": "ward",
          "type": "uint256"
        },
        {
          "internalType": "uint256",
          "name": "voteCount",
          "type": "uint256"
        },
        {
          "internalType": "address",
          "name": "id",
          "type": "address"
        },
        {
          "internalType": "uint256",
          "name": "VoterId",
          "type": "uint256"
        },
        {
          "internalType": "enum Election.candidateStatus",
          "name": "status",
          "type": "uint8"
        }
      ],
      "stateMutability": "view",
      "type": "function"
    },
    {
      "inputs": [],
      "name": "count",
      "outputs": [
        {
          "internalType": "uint256",
          "name": "",
          "type": "uint256"
        }
      ],
      "stateMutability": "view",
      "type": "function"
    },
    {
      "inputs": [
        {
          "internalType": "uint256",
          "name": "",
          "type": "uint256"
        }
      ],
      "name": "voter",
      "outputs": [
        {
          "internalType": "uint256",
          "name": "index",
          "type": "uint256"
        },
        {
          "internalType": "string",
          "name": "voterName",
          "type": "string"
        },
        {
          "internalType": "uint256",
          "name": "voterWard",
          "type": "uint256"
        },
        {
          "internalType": "address",
          "name": "voterAddress",
          "type": "address"
        },
        {
          "internalType": "bool",
          "name": "verify",
          "type": "bool"
        },
        {
          "internalType": "uint256",
          "name": "voterId",
          "type": "uint256"
        }
      ],
      "stateMutability": "view",
      "type": "function"
    },
    {
      "inputs": [],
      "name": "voterCount",
      "outputs": [
        {
          "internalType": "uint256",
          "name": "",
          "type": "uint256"
        }
      ],
      "stateMutability": "view",
      "type": "function"
    },
    {
      "inputs": [
        {
          "internalType": "string",
          "name": "_name",
          "type": "string"
        },
        {
          "internalType": "uint256",
          "name": "_ward",
          "type": "uint256"
        },
        {
          "internalType": "uint256",
          "name": "_age",
          "type": "uint256"
        }
      ],
      "name": "voterIdReg",
      "outputs": [],
      "stateMutability": "nonpayable",
      "type": "function"
    },
    {
      "inputs": [
        {
          "internalType": "uint256",
          "name": "",
          "type": "uint256"
        }
      ],
      "name": "voteridcard",
      "outputs": [
        {
          "internalType": "string",
          "name": "voterName",
          "type": "string"
        },
        {
          "internalType": "uint256",
          "name": "voterWard",
          "type": "uint256"
        },
        {
          "internalType": "uint256",
          "name": "age",
          "type": "uint256"
        },
        {
          "internalType": "uint256",
          "name": "voterIds",
          "type": "uint256"
        }
      ],
      "stateMutability": "view",
      "type": "function"
    },
    {
      "inputs": [
        {
          "internalType": "address",
          "name": "",
          "type": "address"
        }
      ],
      "name": "votes",
      "outputs": [
        {
          "internalType": "bool",
          "name": "",
          "type": "bool"
        }
      ],
      "stateMutability": "view",
      "type": "function"
    },
    {
      "inputs": [
        {
          "internalType": "string",
          "name": "_name",
          "type": "string"
        },
        {
          "internalType": "uint256",
          "name": "_ward",
          "type": "uint256"
        },
        {
          "internalType": "uint256",
          "name": "_voterId",
          "type": "uint256"
        }
      ],
      "name": "voterRegistration",
      "outputs": [],
      "stateMutability": "nonpayable",
      "type": "function"
    },
    {
      "inputs": [
        {
          "internalType": "uint256",
          "name": "_voterId",
          "type": "uint256"
        }
      ],
      "name": "voterVerify",
      "outputs": [],
      "stateMutability": "nonpayable",
      "type": "function"
    },
    {
      "inputs": [],
      "name": "applyForCantidate",
      "outputs": [],
      "stateMutability": "nonpayable",
      "type": "function"
    },
    {
      "inputs": [
        {
          "internalType": "address",
          "name": "_voteraddress",
          "type": "address"
        }
      ],
      "name": "approveCadidedress",
      "outputs": [],
      "stateMutability": "nonpayable",
      "type": "function"
    },
    {
      "inputs": [],
      "name": "result",
      "outputs": [
        {
          "internalType": "string",
          "name": "",
          "type": "string"
        },
        {
          "internalType": "uint256",
          "name": "",
          "type": "uint256"
        }
      ],
      "stateMutability": "view",
      "type": "function"
    }
  ],
  "bytecode": "0x60806040526103e860005534801561001657600080fd5b5033600360006101000a81548173ffffffffffffffffffffffffffffffffffffffff021916908373ffffffffffffffffffffffffffffffffffffffff160217905550612314806100676000396000f3fe608060405234801561001057600080fd5b50600436106100f55760003560e01c8063905d04c211610097578063c9680e1f11610066578063c9680e1f1461026f578063ca6ea96d1461028d578063d8bff5a5146102a9578063d8d4c926146102d9576100f5565b8063905d04c2146101cc57806395cf0509146101e8578063ab8ed1ba14610204578063bcaf189b14610239576100f5565b806365372147116100d35780636537214714610140578063656ee5cc1461015f5780637400df711461017b5780637bd0192514610199576100f5565b806306661abd146100fa57806342169e4814610118578063542ac40d14610136575b600080fd5b61010261030f565b60405161010f9190611831565b60405180910390f35b610120610315565b60405161012d9190611831565b60405180910390f35b61013e61031b565b005b6101486106f5565b6040516101569291906118e5565b60405180910390f35b61017960048036038101906101749190611a8a565b610864565b005b610183610a4c565b6040516101909190611831565b60405180910390f35b6101b360048036038101906101ae9190611af9565b610a52565b6040516101c39493929190611b26565b60405180910390f35b6101e660048036038101906101e19190611af9565b610b0a565b005b61020260048036038101906101fd9190611bd0565b610cfc565b005b61021e60048036038101906102199190611af9565b61138c565b60405161023096959493929190611c27565b60405180910390f35b610253600480360381019061024e9190611af9565b61147d565b6040516102669796959493929190611d06565b60405180910390f35b610277611574565b6040516102849190611831565b60405180910390f35b6102a760048036038101906102a29190611a8a565b61157a565b005b6102c360048036038101906102be9190611bd0565b61165e565b6040516102d09190611d7c565b60405180910390f35b6102f360048036038101906102ee9190611af9565b61167e565b6040516103069796959493929190611d06565b60405180910390f35b60015481565b60095481565b6000600190505b60085481116103e3573373ffffffffffffffffffffffffffffffffffffffff166006600083815260200190815260200160002060040160009054906101000a900473ffffffffffffffffffffffffffffffffffffffff1673ffffffffffffffffffffffffffffffffffffffff1614156103d0576040517f08c379a00000000000000000000000000000000000000000000000000000000081526004016103c790611de3565b60405180910390fd5b80806103db90611e32565b915050610322565b506000600190505b60095481116106f2573373ffffffffffffffffffffffffffffffffffffffff166005600083815260200190815260200160002060030160009054906101000a900473ffffffffffffffffffffffffffffffffffffffff1673ffffffffffffffffffffffffffffffffffffffff1614801561048c5750600115156005600083815260200190815260200160002060030160149054906101000a900460ff161515145b156106df57600860008154809291906104a490611e32565b919050555060006040518060e0016040528060085481526020016005600085815260200190815260200160002060010180546104df90611eaa565b80601f016020809104026020016040519081016040528092919081815260200182805461050b90611eaa565b80156105585780601f1061052d57610100808354040283529160200191610558565b820191906000526020600020905b81548152906001019060200180831161053b57829003601f168201915b5050505050815260200160056000858152602001908152602001600020600201548152602001600081526020016005600085815260200190815260200160002060030160009054906101000a900473ffffffffffffffffffffffffffffffffffffffff1673ffffffffffffffffffffffffffffffffffffffff1681526020016005600085815260200190815260200160002060040154815260200182600281111561060657610605611c8f565b5b815250600660006008548152602001908152602001600020600082015181600001556020820151816001019080519060200190610644929190611775565b50604082015181600201556060820151816003015560808201518160040160006101000a81548173ffffffffffffffffffffffffffffffffffffffff021916908373ffffffffffffffffffffffffffffffffffffffff16021790555060a0820151816005015560c08201518160060160006101000a81548160ff021916908360028111156106d5576106d4611c8f565b5b0217905550905050505b80806106ea90611e32565b9150506103eb565b50565b606060006001600a54101561073f576040517f08c379a000000000000000000000000000000000000000000000000000000000815260040161073690611f28565b60405180910390fd5b6000806000600190505b600a5481116107a057826007600083815260200190815260200160002060030154111561078d57600760008281526020019081526020016000206003015492508091505b808061079890611e32565b915050610749565b506007600082815260200190815260200160002060010160076000838152602001908152602001600020600301548180546107da90611eaa565b80601f016020809104026020016040519081016040528092919081815260200182805461080690611eaa565b80156108535780601f1061082857610100808354040283529160200191610853565b820191906000526020600020905b81548152906001019060200180831161083657829003601f168201915b505050505091509350935050509091565b6000600190505b600954811161092c573373ffffffffffffffffffffffffffffffffffffffff166005600083815260200190815260200160002060030160009054906101000a900473ffffffffffffffffffffffffffffffffffffffff1673ffffffffffffffffffffffffffffffffffffffff161415610919576040517f08c379a000000000000000000000000000000000000000000000000000000000815260040161091090611f94565b60405180910390fd5b808061092490611e32565b91505061086b565b506009600081548092919061094090611e32565b91905055506040518060c0016040528060095481526020018481526020018381526020013373ffffffffffffffffffffffffffffffffffffffff168152602001600015158152602001828152506005600060095481526020019081526020016000206000820151816000015560208201518160010190805190602001906109c8929190611775565b506040820151816002015560608201518160030160006101000a81548173ffffffffffffffffffffffffffffffffffffffff021916908373ffffffffffffffffffffffffffffffffffffffff16021790555060808201518160030160146101000a81548160ff02191690831515021790555060a08201518160040155905050505050565b600a5481565b6002602052806000526040600020600091509050806000018054610a7590611eaa565b80601f0160208091040260200160405190810160405280929190818152602001828054610aa190611eaa565b8015610aee5780601f10610ac357610100808354040283529160200191610aee565b820191906000526020600020905b815481529060010190602001808311610ad157829003601f168201915b5050505050908060010154908060020154908060030154905084565b600360009054906101000a900473ffffffffffffffffffffffffffffffffffffffff1673ffffffffffffffffffffffffffffffffffffffff163373ffffffffffffffffffffffffffffffffffffffff1614610b9a576040517f08c379a0000000000000000000000000000000000000000000000000000000008152600401610b9190612026565b60405180910390fd5b600115156005600083815260200190815260200160002060030160149054906101000a900460ff1615151415610c05576040517f08c379a0000000000000000000000000000000000000000000000000000000008152600401610bfc90612092565b60405180910390fd5b600081111580610c16575060015481115b15610c56576040517f08c379a0000000000000000000000000000000000000000000000000000000008152600401610c4d906120fe565b60405180910390fd5b600260008281526020019081526020016000206003015460056000838152602001908152602001600020600401541415610cbe5760016005600083815260200190815260200160002060030160146101000a81548160ff021916908315150217905550610cf9565b6040517f08c379a0000000000000000000000000000000000000000000000000000000008152600401610cf09061216a565b60405180910390fd5b50565b600360009054906101000a900473ffffffffffffffffffffffffffffffffffffffff1673ffffffffffffffffffffffffffffffffffffffff163373ffffffffffffffffffffffffffffffffffffffff1614610d8c576040517f08c379a0000000000000000000000000000000000000000000000000000000008152600401610d8390612026565b60405180910390fd5b6000600190505b600a548111610e54578173ffffffffffffffffffffffffffffffffffffffff166007600083815260200190815260200160002060040160009054906101000a900473ffffffffffffffffffffffffffffffffffffffff1673ffffffffffffffffffffffffffffffffffffffff161415610e41576040517f08c379a0000000000000000000000000000000000000000000000000000000008152600401610e38906121d6565b60405180910390fd5b8080610e4c90611e32565b915050610d93565b506000600190505b6008548111611388578173ffffffffffffffffffffffffffffffffffffffff166006600083815260200190815260200160002060040160009054906101000a900473ffffffffffffffffffffffffffffffffffffffff1673ffffffffffffffffffffffffffffffffffffffff161415611375576000600190505b60015481116113735760026000828152602001908152602001600020600101546006600084815260200190815260200160002060020154148015610f45575060026000828152602001908152602001600020600301546006600084815260200190815260200160002060050154145b1561136057600a6000815480929190610f5d90611e32565b91905055506000600190506040518060e001604052806008548152602001600660008681526020019081526020016000206001018054610f9c90611eaa565b80601f0160208091040260200160405190810160405280929190818152602001828054610fc890611eaa565b80156110155780601f10610fea57610100808354040283529160200191611015565b820191906000526020600020905b815481529060010190602001808311610ff857829003601f168201915b5050505050815260200160066000868152602001908152602001600020600201548152602001600081526020013373ffffffffffffffffffffffffffffffffffffffff1681526020016006600086815260200190815260200160002060050154815260200182600281111561108d5761108c611c8f565b5b815250600660008581526020019081526020016000206000820151816000015560208201518160010190805190602001906110c9929190611775565b50604082015181600201556060820151816003015560808201518160040160006101000a81548173ffffffffffffffffffffffffffffffffffffffff021916908373ffffffffffffffffffffffffffffffffffffffff16021790555060a0820151816005015560c08201518160060160006101000a81548160ff0219169083600281111561115a57611159611c8f565b5b02179055509050506040518060e00160405280600a54815260200160066000868152602001908152602001600020600101805461119690611eaa565b80601f01602080910402602001604051908101604052809291908181526020018280546111c290611eaa565b801561120f5780601f106111e45761010080835404028352916020019161120f565b820191906000526020600020905b8154815290600101906020018083116111f257829003601f168201915b5050505050815260200160066000868152602001908152602001600020600201548152602001600081526020018573ffffffffffffffffffffffffffffffffffffffff1681526020016006600086815260200190815260200160002060050154815260200182600281111561128757611286611c8f565b5b81525060076000600a5481526020019081526020016000206000820151816000015560208201518160010190805190602001906112c5929190611775565b50604082015181600201556060820151816003015560808201518160040160006101000a81548173ffffffffffffffffffffffffffffffffffffffff021916908373ffffffffffffffffffffffffffffffffffffffff16021790555060a0820151816005015560c08201518160060160006101000a81548160ff0219169083600281111561135657611355611c8f565b5b0217905550905050505b808061136b90611e32565b915050610ed6565b505b808061138090611e32565b915050610e5c565b5050565b60056020528060005260406000206000915090508060000154908060010180546113b590611eaa565b80601f01602080910402602001604051908101604052809291908181526020018280546113e190611eaa565b801561142e5780601f106114035761010080835404028352916020019161142e565b820191906000526020600020905b81548152906001019060200180831161141157829003601f168201915b5050505050908060020154908060030160009054906101000a900473ffffffffffffffffffffffffffffffffffffffff16908060030160149054906101000a900460ff16908060040154905086565b60066020528060005260406000206000915090508060000154908060010180546114a690611eaa565b80601f01602080910402602001604051908101604052809291908181526020018280546114d290611eaa565b801561151f5780601f106114f45761010080835404028352916020019161151f565b820191906000526020600020905b81548152906001019060200180831161150257829003601f168201915b5050505050908060020154908060030154908060040160009054906101000a900473ffffffffffffffffffffffffffffffffffffffff16908060050154908060060160009054906101000a900460ff16905087565b60085481565b60128110156115be576040517f08c379a00000000000000000000000000000000000000000000000000000000081526004016115b590612268565b60405180910390fd5b600160008154809291906115d190611e32565b919050555060405180608001604052808481526020018381526020018281526020016001546000546116039190612288565b8152506002600060015481526020019081526020016000206000820151816000019080519060200190611637929190611775565b50602082015181600101556040820151816002015560608201518160030155905050505050565b60046020528060005260406000206000915054906101000a900460ff1681565b60076020528060005260406000206000915090508060000154908060010180546116a790611eaa565b80601f01602080910402602001604051908101604052809291908181526020018280546116d390611eaa565b80156117205780601f106116f557610100808354040283529160200191611720565b820191906000526020600020905b81548152906001019060200180831161170357829003601f168201915b5050505050908060020154908060030154908060040160009054906101000a900473ffffffffffffffffffffffffffffffffffffffff16908060050154908060060160009054906101000a900460ff16905087565b82805461178190611eaa565b90600052602060002090601f0160209004810192826117a357600085556117ea565b82601f106117bc57805160ff19168380011785556117ea565b828001600101855582156117ea579182015b828111156117e95782518255916020019190600101906117ce565b5b5090506117f791906117fb565b5090565b5b808211156118145760008160009055506001016117fc565b5090565b6000819050919050565b61182b81611818565b82525050565b60006020820190506118466000830184611822565b92915050565b600081519050919050565b600082825260208201905092915050565b60005b8381101561188657808201518184015260208101905061186b565b83811115611895576000848401525b50505050565b6000601f19601f8301169050919050565b60006118b78261184c565b6118c18185611857565b93506118d1818560208601611868565b6118da8161189b565b840191505092915050565b600060408201905081810360008301526118ff81856118ac565b905061190e6020830184611822565b9392505050565b6000604051905090565b600080fd5b600080fd5b600080fd5b600080fd5b7f4e487b7100000000000000000000000000000000000000000000000000000000600052604160045260246000fd5b61196b8261189b565b810181811067ffffffffffffffff8211171561198a57611989611933565b5b80604052505050565b600061199d611915565b90506119a98282611962565b919050565b600067ffffffffffffffff8211156119c9576119c8611933565b5b6119d28261189b565b9050602081019050919050565b82818337600083830152505050565b6000611a016119fc846119ae565b611993565b905082815260208101848484011115611a1d57611a1c61192e565b5b611a288482856119df565b509392505050565b600082601f830112611a4557611a44611929565b5b8135611a558482602086016119ee565b91505092915050565b611a6781611818565b8114611a7257600080fd5b50565b600081359050611a8481611a5e565b92915050565b600080600060608486031215611aa357611aa261191f565b5b600084013567ffffffffffffffff811115611ac157611ac0611924565b5b611acd86828701611a30565b9350506020611ade86828701611a75565b9250506040611aef86828701611a75565b9150509250925092565b600060208284031215611b0f57611b0e61191f565b5b6000611b1d84828501611a75565b91505092915050565b60006080820190508181036000830152611b4081876118ac565b9050611b4f6020830186611822565b611b5c6040830185611822565b611b696060830184611822565b95945050505050565b600073ffffffffffffffffffffffffffffffffffffffff82169050919050565b6000611b9d82611b72565b9050919050565b611bad81611b92565b8114611bb857600080fd5b50565b600081359050611bca81611ba4565b92915050565b600060208284031215611be657611be561191f565b5b6000611bf484828501611bbb565b91505092915050565b611c0681611b92565b82525050565b60008115159050919050565b611c2181611c0c565b82525050565b600060c082019050611c3c6000830189611822565b8181036020830152611c4e81886118ac565b9050611c5d6040830187611822565b611c6a6060830186611bfd565b611c776080830185611c18565b611c8460a0830184611822565b979650505050505050565b7f4e487b7100000000000000000000000000000000000000000000000000000000600052602160045260246000fd5b60038110611ccf57611cce611c8f565b5b50565b6000819050611ce082611cbe565b919050565b6000611cf082611cd2565b9050919050565b611d0081611ce5565b82525050565b600060e082019050611d1b600083018a611822565b8181036020830152611d2d81896118ac565b9050611d3c6040830188611822565b611d496060830187611822565b611d566080830186611bfd565b611d6360a0830185611822565b611d7060c0830184611cf7565b98975050505050505050565b6000602082019050611d916000830184611c18565b92915050565b7f73616d652063616e6469646174652063616e2774206265206164646400000000600082015250565b6000611dcd601c83611857565b9150611dd882611d97565b602082019050919050565b60006020820190508181036000830152611dfc81611dc0565b9050919050565b7f4e487b7100000000000000000000000000000000000000000000000000000000600052601160045260246000fd5b6000611e3d82611818565b91507fffffffffffffffffffffffffffffffffffffffffffffffffffffffffffffffff821415611e7057611e6f611e03565b5b600182019050919050565b7f4e487b7100000000000000000000000000000000000000000000000000000000600052602260045260246000fd5b60006002820490506001821680611ec257607f821691505b60208210811415611ed657611ed5611e7b565b5b50919050565b7f7468657265206973206e6f2063616e6469646174650000000000000000000000600082015250565b6000611f12601583611857565b9150611f1d82611edc565b602082019050919050565b60006020820190508181036000830152611f4181611f05565b9050919050565b7f616c726561647920637265617465640000000000000000000000000000000000600082015250565b6000611f7e600f83611857565b9150611f8982611f48565b602082019050919050565b60006020820190508181036000830152611fad81611f71565b9050919050565b7f617574686f726974792063616e206f6e6c792063616c6c20746869732066756e60008201527f6374696f6e000000000000000000000000000000000000000000000000000000602082015250565b6000612010602583611857565b915061201b82611fb4565b604082019050919050565b6000602082019050818103600083015261203f81612003565b9050919050565b7f616c726561647920766572696679000000000000000000000000000000000000600082015250565b600061207c600e83611857565b915061208782612046565b602082019050919050565b600060208201905081810360008301526120ab8161206f565b9050919050565b7f766f746572206e6f7420666f756e640000000000000000000000000000000000600082015250565b60006120e8600f83611857565b91506120f3826120b2565b602082019050919050565b60006020820190508181036000830152612117816120db565b9050919050565b7f766f746572206964206e6f20666f756e64000000000000000000000000000000600082015250565b6000612154601183611857565b915061215f8261211e565b602082019050919050565b6000602082019050818103600083015261218381612147565b9050919050565b7f616c7265616479206170726f7665640000000000000000000000000000000000600082015250565b60006121c0600f83611857565b91506121cb8261218a565b602082019050919050565b600060208201905081810360008301526121ef816121b3565b9050919050565b7f5468697320706572736f6e206973206e6f7420656c696769626c6520666f722060008201527f766f746572732049640000000000000000000000000000000000000000000000602082015250565b6000612252602983611857565b915061225d826121f6565b604082019050919050565b6000602082019050818103600083015261228181612245565b9050919050565b600061229382611818565b915061229e83611818565b9250827fffffffffffffffffffffffffffffffffffffffffffffffffffffffffffffffff038211156122d3576122d2611e03565b5b82820190509291505056fea264697066735822122006ab5dd8cbb01fdde797a29f74abc1fd19eff80ce9e250e6bb6a41183bd2a17664736f6c634300080a0033",
  "immutableReferences": {},
  "source": "// SPDX-License-Identifier: GPL-3.0\npragma solidity ^0.8.7;\n\ncontract VoterId{\n struct voterIdcard{\n        string voterName;\n        uint voterWard;\n        uint age;\n        uint voterIds;\n    }\n    uint num = 1000;\n    uint public count ;\n    mapping (uint => voterIdcard) public voteridcard;\n\n    function voterIdReg(\n        string memory _name,\n        uint _ward,\n        uint _age \n    ) \n        public\n    {\n        require(\n            _age >= 18,\n            \"This person is not eligible for voters Id\"\n        );\n        count++;\n        voteridcard[count] = voterIdcard(\n            _name,\n            _ward,\n            _age,\n            num+count\n        );\n    }\n}\n\ncontract Election is VoterId{\n    address authority;\n    constructor(){\n        authority = msg.sender;\n    }\n     struct Voter{\n        uint index;\n        string voterName;\n        uint voterWard;\n        address voterAddress;\n        bool verify;\n        uint voterId;\n    }\n    struct  Candidates{\n        uint CandidateId;\n        string name;\n        uint ward;\n        uint voteCount;\n        address id;\n        uint VoterId;\n        candidateStatus  status;   \n    } \n    enum candidateStatus {pending, approved, rejected}\n    mapping(address => bool) public votes;\n    mapping (uint => Voter) public voter;\n    mapping (uint  => Candidates) public candidateReg;\n    mapping (uint  => Candidates) public candidateslist;\n    uint public candedatesCount;\n    uint public voterCount;\n    uint public approvedCandidateCount;\n \n    modifier authorization(){\n        require(msg.sender == authority,\"authority can only call this function\");\n        _;\n    }\n    \n    function voterRegistration(\n        string memory _name, \n        uint _ward, \n        uint _voterId \n    ) \n        public\n    {\n        for(uint i = 1; i <= voterCount; i++ ){\n            if(voter[i].voterAddress == msg.sender){\n                revert(\"already created\");\n            }\n        }\n        voterCount++;\n        voter[voterCount] = Voter(\n            voterCount,\n            _name,\n            _ward,\n            msg.sender,\n            false,\n            _voterId\n        );\n    }\n\n    function voterVerify(uint _voterId) public authorization {\n            if(voter[_voterId].verify == true){\n                revert(\"already verify\");\n            }\n            else if(_voterId <= 0 || _voterId > count  ){\n                revert(\"voter not found\");\n            }   \n            else if(voter[_voterId].voterId == voteridcard[_voterId].voterIds){\n                  voter[_voterId].verify = true;\n            }else{\n                 revert(\"voter id no found\");\n            }       \n    }\n\n    function applyForCantidate()public{\n           for(uint j=1 ; j<=candedatesCount;j++){\n             if(candidateReg[j].id == msg.sender ){\n                 revert(\"same candidate can't be addd\");\n             }\n         }\n         for(uint i=1; i<= voterCount; i++ ){           \n                if(voter[i].voterAddress == msg.sender && voter[i].verify == true){\n                    candedatesCount++;\n                    candidateStatus _candidateStatus = candidateStatus.pending;\n                    candidateReg[candedatesCount] = Candidates(\n                        candedatesCount,\n                        voter[i].voterName,\n                        voter[i].voterWard,\n                        0,\n                        voter[i].voterAddress, \n                        voter[i].voterId, \n                        _candidateStatus\n                    );\n\n                }          \n        } \n    }\n\n    function approveCadidedress(address _voteraddress) public authorization {\n         for(uint j=1 ; j<=approvedCandidateCount;j++){\n             if(candidateslist[j].id == _voteraddress){\n                 revert(\"already aproved\");\n             }\n         }\n        for(uint i=1; i<= candedatesCount; i++ ){\n            if(candidateReg[i].id == _voteraddress){\n                for(uint j =1; j<= count; j++){\n                    if( candidateReg[i].ward == voteridcard[j].voterWard && candidateReg[i].VoterId == voteridcard[j].voterIds){\n                        approvedCandidateCount++;\n                        candidateStatus _candidateStatus = candidateStatus.approved;\n                        candidateReg[i] = Candidates(candedatesCount, candidateReg[i].name,candidateReg[i].ward,0,msg.sender, candidateReg[i].VoterId, _candidateStatus);\n                        candidateslist[approvedCandidateCount] = Candidates(\n                            approvedCandidateCount, \n                            candidateReg[i].name,\n                            candidateReg[i].ward,\n                            0,\n                            _voteraddress, \n                            candidateReg[i].VoterId, \n                            _candidateStatus\n                        );    \n                    }\n                }\n            }\n        }\n     }\n\n     function result() public view returns(string memory , uint ){\n         require(approvedCandidateCount>=1, \"there is no candidate\");\n         uint votecont ;\n         uint index ;\n         for(uint i =1 ; i<=approvedCandidateCount; i++){\n             if(candidateslist[i].voteCount > votecont){\n                 votecont = candidateslist[i].voteCount;\n                 index = i;\n             }\n         }\n        return(\n            candidateslist[index].name,\n            candidateslist[index].voteCount\n        );   \n     } \n}\n\n\n",
  "sourcePath": "/home/nisamudheen/Desktop/sps/voting_smartcontract/contracts/election.sol",
  "compiler": {
    "name": "solc",
    "version": "0.8.10+commit.fc410830.Emscripten.clang"
  },
  "schemaVersion": "3.4.3",
  "updatedAt": "2021-12-19T14:55:40.490Z",
  "devdoc": {
    "kind": "dev",
    "methods": {},
    "version": 1
  },
  "userdoc": {
    "kind": "user",
    "methods": {},
    "version": 1
  }
}