{
  "contractName": "Election",
  "abi": [
    {
      "inputs": [],
      "stateMutability": "nonpayable",
      "type": "constructor"
    },
    {
      "inputs": [],
      "name": "approvedCandidateCount",
      "outputs": [
        {
          "internalType": "uint256",
          "name": "",
          "type": "uint256"
        }
      ],
      "stateMutability": "view",
      "type": "function"
    },
    {
      "inputs": [],
      "name": "authority",
      "outputs": [
        {
          "internalType": "address",
          "name": "",
          "type": "address"
        }
      ],
      "stateMutability": "view",
      "type": "function"
    },
    {
      "inputs": [],
      "name": "candidateCount",
      "outputs": [
        {
          "internalType": "uint256",
          "name": "",
          "type": "uint256"
        }
      ],
      "stateMutability": "view",
      "type": "function"
    },
    {
      "inputs": [
        {
          "internalType": "uint256",
          "name": "",
          "type": "uint256"
        }
      ],
      "name": "candidateReg",
      "outputs": [
        {
          "internalType": "uint256",
          "name": "CandidateId",
          "type": "uint256"
        },
        {
          "internalType": "string",
          "name": "name",
          "type": "string"
        },
        {
          "internalType": "uint256",
          "name": "ward",
          "type": "uint256"
        },
        {
          "internalType": "uint256",
          "name": "voteCount",
          "type": "uint256"
        },
        {
          "internalType": "address",
          "name": "id",
          "type": "address"
        },
        {
          "internalType": "uint256",
          "name": "VoterId",
          "type": "uint256"
        },
        {
          "internalType": "enum Election.candidateStatus",
          "name": "status",
          "type": "uint8"
        }
      ],
      "stateMutability": "view",
      "type": "function"
    },
    {
      "inputs": [
        {
          "internalType": "uint256",
          "name": "",
          "type": "uint256"
        }
      ],
      "name": "candidatelist",
      "outputs": [
        {
          "internalType": "uint256",
          "name": "CandidateId",
          "type": "uint256"
        },
        {
          "internalType": "string",
          "name": "name",
          "type": "string"
        },
        {
          "internalType": "uint256",
          "name": "ward",
          "type": "uint256"
        },
        {
          "internalType": "uint256",
          "name": "voteCount",
          "type": "uint256"
        },
        {
          "internalType": "address",
          "name": "id",
          "type": "address"
        },
        {
          "internalType": "uint256",
          "name": "VoterId",
          "type": "uint256"
        },
        {
          "internalType": "enum Election.candidateStatus",
          "name": "status",
          "type": "uint8"
        }
      ],
      "stateMutability": "view",
      "type": "function"
    },
    {
      "inputs": [
        {
          "internalType": "address",
          "name": "",
          "type": "address"
        }
      ],
      "name": "candidatelogin",
      "outputs": [
        {
          "internalType": "uint256",
          "name": "",
          "type": "uint256"
        }
      ],
      "stateMutability": "view",
      "type": "function"
    },
    {
      "inputs": [],
      "name": "count",
      "outputs": [
        {
          "internalType": "uint256",
          "name": "",
          "type": "uint256"
        }
      ],
      "stateMutability": "view",
      "type": "function"
    },
    {
      "inputs": [
        {
          "internalType": "uint256",
          "name": "",
          "type": "uint256"
        }
      ],
      "name": "voter",
      "outputs": [
        {
          "internalType": "uint256",
          "name": "index",
          "type": "uint256"
        },
        {
          "internalType": "string",
          "name": "voterName",
          "type": "string"
        },
        {
          "internalType": "uint256",
          "name": "voterWard",
          "type": "uint256"
        },
        {
          "internalType": "address",
          "name": "voterAddress",
          "type": "address"
        },
        {
          "internalType": "bool",
          "name": "verify",
          "type": "bool"
        },
        {
          "internalType": "uint256",
          "name": "voterId",
          "type": "uint256"
        }
      ],
      "stateMutability": "view",
      "type": "function"
    },
    {
      "inputs": [],
      "name": "voterCount",
      "outputs": [
        {
          "internalType": "uint256",
          "name": "",
          "type": "uint256"
        }
      ],
      "stateMutability": "view",
      "type": "function"
    },
    {
      "inputs": [
        {
          "internalType": "string",
          "name": "_name",
          "type": "string"
        },
        {
          "internalType": "uint256",
          "name": "_ward",
          "type": "uint256"
        },
        {
          "internalType": "uint256",
          "name": "_age",
          "type": "uint256"
        }
      ],
      "name": "voterIdReg",
      "outputs": [],
      "stateMutability": "nonpayable",
      "type": "function"
    },
    {
      "inputs": [
        {
          "internalType": "uint256",
          "name": "",
          "type": "uint256"
        }
      ],
      "name": "voteridcard",
      "outputs": [
        {
          "internalType": "string",
          "name": "voterName",
          "type": "string"
        },
        {
          "internalType": "uint256",
          "name": "voterWard",
          "type": "uint256"
        },
        {
          "internalType": "uint256",
          "name": "age",
          "type": "uint256"
        },
        {
          "internalType": "uint256",
          "name": "voterIds",
          "type": "uint256"
        }
      ],
      "stateMutability": "view",
      "type": "function"
    },
    {
      "inputs": [
        {
          "internalType": "address",
          "name": "",
          "type": "address"
        }
      ],
      "name": "voterlogin",
      "outputs": [
        {
          "internalType": "uint256",
          "name": "",
          "type": "uint256"
        }
      ],
      "stateMutability": "view",
      "type": "function"
    },
    {
      "inputs": [
        {
          "internalType": "address",
          "name": "",
          "type": "address"
        }
      ],
      "name": "votes",
      "outputs": [
        {
          "internalType": "bool",
          "name": "",
          "type": "bool"
        }
      ],
      "stateMutability": "view",
      "type": "function"
    },
    {
      "inputs": [
        {
          "internalType": "string",
          "name": "_name",
          "type": "string"
        },
        {
          "internalType": "uint256",
          "name": "_ward",
          "type": "uint256"
        },
        {
          "internalType": "uint256",
          "name": "_voterId",
          "type": "uint256"
        }
      ],
      "name": "voterRegistration",
      "outputs": [],
      "stateMutability": "nonpayable",
      "type": "function"
    },
    {
      "inputs": [
        {
          "internalType": "uint256",
          "name": "_voterId",
          "type": "uint256"
        }
      ],
      "name": "voterVerify",
      "outputs": [],
      "stateMutability": "nonpayable",
      "type": "function"
    },
    {
      "inputs": [],
      "name": "applyForCantidate",
      "outputs": [],
      "stateMutability": "nonpayable",
      "type": "function"
    },
    {
      "inputs": [
        {
          "internalType": "address",
          "name": "_voteraddress",
          "type": "address"
        }
      ],
      "name": "approveCadidedress",
      "outputs": [],
      "stateMutability": "nonpayable",
      "type": "function"
    },
    {
      "inputs": [],
      "name": "result",
      "outputs": [
        {
          "internalType": "string",
          "name": "",
          "type": "string"
        },
        {
          "internalType": "uint256",
          "name": "",
          "type": "uint256"
        }
      ],
      "stateMutability": "view",
      "type": "function"
    }
  ],
  "bytecode": "0x60806040526103e860005534801561001657600080fd5b5033600360006101000a81548173ffffffffffffffffffffffffffffffffffffffff021916908373ffffffffffffffffffffffffffffffffffffffff16021790555061244d806100676000396000f3fe608060405234801561001057600080fd5b50600436106101165760003560e01c8063911eb81d116100a2578063bcaf189b11610071578063bcaf189b146102de578063bf7e214f14610314578063ca6ea96d14610332578063d8bff5a51461034e578063e749ee481461037e57610116565b8063911eb81d1461023957806395cf05091461026f578063a9a981a31461028b578063ab8ed1ba146102a957610116565b806365372147116100e95780636537214714610191578063656ee5cc146101b05780637400df71146101cc5780637bd01925146101ea578063905d04c21461021d57610116565b806306661abd1461011b57806342169e48146101395780634bc8194614610157578063542ac40d14610187575b600080fd5b6101236103ae565b60405161013091906119bb565b60405180910390f35b6101416103b4565b60405161014e91906119bb565b60405180910390f35b610171600480360381019061016c9190611a48565b6103ba565b60405161017e91906119bb565b60405180910390f35b61018f6103d2565b005b6101996107ba565b6040516101a7929190611b0e565b60405180910390f35b6101ca60048036038101906101c59190611c9f565b610929565b005b6101d4610b61565b6040516101e191906119bb565b60405180910390f35b61020460048036038101906101ff9190611d0e565b610b67565b6040516102149493929190611d3b565b60405180910390f35b61023760048036038101906102329190611d0e565b610c1f565b005b610253600480360381019061024e9190611d0e565b610e04565b6040516102669796959493929190611e0d565b60405180910390f35b61028960048036038101906102849190611a48565b610efb565b005b6102936115cf565b6040516102a091906119bb565b60405180910390f35b6102c360048036038101906102be9190611d0e565b6115d5565b6040516102d596959493929190611e9e565b60405180910390f35b6102f860048036038101906102f39190611d0e565b6116c6565b60405161030b9796959493929190611e0d565b60405180910390f35b61031c6117bd565b6040516103299190611f06565b60405180910390f35b61034c60048036038101906103479190611c9f565b6117e3565b005b61036860048036038101906103639190611a48565b6118c7565b6040516103759190611f21565b60405180910390f35b61039860048036038101906103939190611a48565b6118e7565b6040516103a591906119bb565b60405180910390f35b60015481565b600b5481565b60086020528060005260406000206000915090505481565b6000600190505b600a54811161049a573373ffffffffffffffffffffffffffffffffffffffff166006600083815260200190815260200160002060040160009054906101000a900473ffffffffffffffffffffffffffffffffffffffff1673ffffffffffffffffffffffffffffffffffffffff161415610487576040517f08c379a000000000000000000000000000000000000000000000000000000000815260040161047e90611f88565b60405180910390fd5b808061049290611fd7565b9150506103d9565b5060006103e990505b600b546103e86104b39190612020565b81116107b7573373ffffffffffffffffffffffffffffffffffffffff166005600083815260200190815260200160002060030160009054906101000a900473ffffffffffffffffffffffffffffffffffffffff1673ffffffffffffffffffffffffffffffffffffffff161480156105515750600115156005600083815260200190815260200160002060030160149054906101000a900460ff161515145b156107a457600a600081548092919061056990611fd7565b919050555060006040518060e00160405280600a5481526020016005600085815260200190815260200160002060010180546105a4906120a5565b80601f01602080910402602001604051908101604052809291908181526020018280546105d0906120a5565b801561061d5780601f106105f25761010080835404028352916020019161061d565b820191906000526020600020905b81548152906001019060200180831161060057829003601f168201915b5050505050815260200160056000858152602001908152602001600020600201548152602001600081526020016005600085815260200190815260200160002060030160009054906101000a900473ffffffffffffffffffffffffffffffffffffffff1673ffffffffffffffffffffffffffffffffffffffff168152602001600560008581526020019081526020016000206004015481526020018260028111156106cb576106ca611d96565b5b81525060066000600a5481526020019081526020016000206000820151816000015560208201518160010190805190602001906107099291906118ff565b50604082015181600201556060820151816003015560808201518160040160006101000a81548173ffffffffffffffffffffffffffffffffffffffff021916908373ffffffffffffffffffffffffffffffffffffffff16021790555060a0820151816005015560c08201518160060160006101000a81548160ff0219169083600281111561079a57610799611d96565b5b0217905550905050505b80806107af90611fd7565b9150506104a3565b50565b606060006001600c541015610804576040517f08c379a00000000000000000000000000000000000000000000000000000000081526004016107fb90612123565b60405180910390fd5b6000806000600190505b600c54811161086557826007600083815260200190815260200160002060030154111561085257600760008281526020019081526020016000206003015492508091505b808061085d90611fd7565b91505061080e565b5060076000828152602001908152602001600020600101600760008381526020019081526020016000206003015481805461089f906120a5565b80601f01602080910402602001604051908101604052809291908181526020018280546108cb906120a5565b80156109185780601f106108ed57610100808354040283529160200191610918565b820191906000526020600020905b8154815290600101906020018083116108fb57829003601f168201915b505050505091509350935050509091565b60006103e990505b600b546103e86109419190612020565b81116109ff573373ffffffffffffffffffffffffffffffffffffffff166005600083815260200190815260200160002060030160009054906101000a900473ffffffffffffffffffffffffffffffffffffffff1673ffffffffffffffffffffffffffffffffffffffff1614156109ec576040517f08c379a00000000000000000000000000000000000000000000000000000000081526004016109e39061218f565b60405180910390fd5b80806109f790611fd7565b915050610931565b50600b6000815480929190610a1390611fd7565b91905055506040518060c00160405280600b5481526020018481526020018381526020013373ffffffffffffffffffffffffffffffffffffffff1681526020016000151581526020018281525060056000838152602001908152602001600020600082015181600001556020820151816001019080519060200190610a999291906118ff565b506040820151816002015560608201518160030160006101000a81548173ffffffffffffffffffffffffffffffffffffffff021916908373ffffffffffffffffffffffffffffffffffffffff16021790555060808201518160030160146101000a81548160ff02191690831515021790555060a0820151816004015590505080600860003373ffffffffffffffffffffffffffffffffffffffff1673ffffffffffffffffffffffffffffffffffffffff16815260200190815260200160002081905550505050565b600c5481565b6002602052806000526040600020600091509050806000018054610b8a906120a5565b80601f0160208091040260200160405190810160405280929190818152602001828054610bb6906120a5565b8015610c035780601f10610bd857610100808354040283529160200191610c03565b820191906000526020600020905b815481529060010190602001808311610be657829003601f168201915b5050505050908060010154908060020154908060030154905084565b600360009054906101000a900473ffffffffffffffffffffffffffffffffffffffff1673ffffffffffffffffffffffffffffffffffffffff163373ffffffffffffffffffffffffffffffffffffffff1614610caf576040517f08c379a0000000000000000000000000000000000000000000000000000000008152600401610ca690612221565b60405180910390fd5b600115156005600083815260200190815260200160002060030160149054906101000a900460ff1615151415610d1a576040517f08c379a0000000000000000000000000000000000000000000000000000000008152600401610d119061228d565b60405180910390fd5b6103e881111580610d3957506001546103e8610d369190612020565b81115b15610d79576040517f08c379a0000000000000000000000000000000000000000000000000000000008152600401610d70906122f9565b60405180910390fd5b6000600190505b6001548111610e0057600260008281526020019081526020016000206003015460056000848152602001908152602001600020600401541415610ded5760016005600084815260200190815260200160002060030160146101000a81548160ff0219169083151502179055505b8080610df890611fd7565b915050610d80565b5050565b6007602052806000526040600020600091509050806000015490806001018054610e2d906120a5565b80601f0160208091040260200160405190810160405280929190818152602001828054610e59906120a5565b8015610ea65780601f10610e7b57610100808354040283529160200191610ea6565b820191906000526020600020905b815481529060010190602001808311610e8957829003601f168201915b5050505050908060020154908060030154908060040160009054906101000a900473ffffffffffffffffffffffffffffffffffffffff16908060050154908060060160009054906101000a900460ff16905087565b600360009054906101000a900473ffffffffffffffffffffffffffffffffffffffff1673ffffffffffffffffffffffffffffffffffffffff163373ffffffffffffffffffffffffffffffffffffffff1614610f8b576040517f08c379a0000000000000000000000000000000000000000000000000000000008152600401610f8290612221565b60405180910390fd5b6000600190505b600c548111611053578173ffffffffffffffffffffffffffffffffffffffff166007600083815260200190815260200160002060040160009054906101000a900473ffffffffffffffffffffffffffffffffffffffff1673ffffffffffffffffffffffffffffffffffffffff161415611040576040517f08c379a000000000000000000000000000000000000000000000000000000000815260040161103790612365565b60405180910390fd5b808061104b90611fd7565b915050610f92565b506000600190505b600a5481116115cb578173ffffffffffffffffffffffffffffffffffffffff166006600083815260200190815260200160002060040160009054906101000a900473ffffffffffffffffffffffffffffffffffffffff1673ffffffffffffffffffffffffffffffffffffffff1614156115b8576000600190505b60015481116115b65760026000828152602001908152602001600020600101546006600084815260200190815260200160002060020154148015611144575060026000828152602001908152602001600020600301546006600084815260200190815260200160002060050154145b156115a357600c600081548092919061115c90611fd7565b91905055506000600190506040518060e00160405280600a54815260200160066000868152602001908152602001600020600101805461119b906120a5565b80601f01602080910402602001604051908101604052809291908181526020018280546111c7906120a5565b80156112145780601f106111e957610100808354040283529160200191611214565b820191906000526020600020905b8154815290600101906020018083116111f757829003601f168201915b5050505050815260200160066000868152602001908152602001600020600201548152602001600081526020013373ffffffffffffffffffffffffffffffffffffffff1681526020016006600086815260200190815260200160002060050154815260200182600281111561128c5761128b611d96565b5b815250600660008581526020019081526020016000206000820151816000015560208201518160010190805190602001906112c89291906118ff565b50604082015181600201556060820151816003015560808201518160040160006101000a81548173ffffffffffffffffffffffffffffffffffffffff021916908373ffffffffffffffffffffffffffffffffffffffff16021790555060a0820151816005015560c08201518160060160006101000a81548160ff0219169083600281111561135957611358611d96565b5b02179055509050506040518060e00160405280600c548152602001600660008681526020019081526020016000206001018054611395906120a5565b80601f01602080910402602001604051908101604052809291908181526020018280546113c1906120a5565b801561140e5780601f106113e35761010080835404028352916020019161140e565b820191906000526020600020905b8154815290600101906020018083116113f157829003601f168201915b5050505050815260200160066000868152602001908152602001600020600201548152602001600081526020018573ffffffffffffffffffffffffffffffffffffffff1681526020016006600086815260200190815260200160002060050154815260200182600281111561148657611485611d96565b5b81525060076000600c5481526020019081526020016000206000820151816000015560208201518160010190805190602001906114c49291906118ff565b50604082015181600201556060820151816003015560808201518160040160006101000a81548173ffffffffffffffffffffffffffffffffffffffff021916908373ffffffffffffffffffffffffffffffffffffffff16021790555060a0820151816005015560c08201518160060160006101000a81548160ff0219169083600281111561155557611554611d96565b5b021790555090505082600960003373ffffffffffffffffffffffffffffffffffffffff1673ffffffffffffffffffffffffffffffffffffffff16815260200190815260200160002081905550505b80806115ae90611fd7565b9150506110d5565b505b80806115c390611fd7565b91505061105b565b5050565b600a5481565b60056020528060005260406000206000915090508060000154908060010180546115fe906120a5565b80601f016020809104026020016040519081016040528092919081815260200182805461162a906120a5565b80156116775780601f1061164c57610100808354040283529160200191611677565b820191906000526020600020905b81548152906001019060200180831161165a57829003601f168201915b5050505050908060020154908060030160009054906101000a900473ffffffffffffffffffffffffffffffffffffffff16908060030160149054906101000a900460ff16908060040154905086565b60066020528060005260406000206000915090508060000154908060010180546116ef906120a5565b80601f016020809104026020016040519081016040528092919081815260200182805461171b906120a5565b80156117685780601f1061173d57610100808354040283529160200191611768565b820191906000526020600020905b81548152906001019060200180831161174b57829003601f168201915b5050505050908060020154908060030154908060040160009054906101000a900473ffffffffffffffffffffffffffffffffffffffff16908060050154908060060160009054906101000a900460ff16905087565b600360009054906101000a900473ffffffffffffffffffffffffffffffffffffffff1681565b6012811015611827576040517f08c379a000000000000000000000000000000000000000000000000000000000815260040161181e906123f7565b60405180910390fd5b6001600081548092919061183a90611fd7565b9190505550604051806080016040528084815260200183815260200182815260200160015460005461186c9190612020565b81525060026000600154815260200190815260200160002060008201518160000190805190602001906118a09291906118ff565b50602082015181600101556040820151816002015560608201518160030155905050505050565b60046020528060005260406000206000915054906101000a900460ff1681565b60096020528060005260406000206000915090505481565b82805461190b906120a5565b90600052602060002090601f01602090048101928261192d5760008555611974565b82601f1061194657805160ff1916838001178555611974565b82800160010185558215611974579182015b82811115611973578251825591602001919060010190611958565b5b5090506119819190611985565b5090565b5b8082111561199e576000816000905550600101611986565b5090565b6000819050919050565b6119b5816119a2565b82525050565b60006020820190506119d060008301846119ac565b92915050565b6000604051905090565b600080fd5b600080fd5b600073ffffffffffffffffffffffffffffffffffffffff82169050919050565b6000611a15826119ea565b9050919050565b611a2581611a0a565b8114611a3057600080fd5b50565b600081359050611a4281611a1c565b92915050565b600060208284031215611a5e57611a5d6119e0565b5b6000611a6c84828501611a33565b91505092915050565b600081519050919050565b600082825260208201905092915050565b60005b83811015611aaf578082015181840152602081019050611a94565b83811115611abe576000848401525b50505050565b6000601f19601f8301169050919050565b6000611ae082611a75565b611aea8185611a80565b9350611afa818560208601611a91565b611b0381611ac4565b840191505092915050565b60006040820190508181036000830152611b288185611ad5565b9050611b3760208301846119ac565b9392505050565b600080fd5b600080fd5b7f4e487b7100000000000000000000000000000000000000000000000000000000600052604160045260246000fd5b611b8082611ac4565b810181811067ffffffffffffffff82111715611b9f57611b9e611b48565b5b80604052505050565b6000611bb26119d6565b9050611bbe8282611b77565b919050565b600067ffffffffffffffff821115611bde57611bdd611b48565b5b611be782611ac4565b9050602081019050919050565b82818337600083830152505050565b6000611c16611c1184611bc3565b611ba8565b905082815260208101848484011115611c3257611c31611b43565b5b611c3d848285611bf4565b509392505050565b600082601f830112611c5a57611c59611b3e565b5b8135611c6a848260208601611c03565b91505092915050565b611c7c816119a2565b8114611c8757600080fd5b50565b600081359050611c9981611c73565b92915050565b600080600060608486031215611cb857611cb76119e0565b5b600084013567ffffffffffffffff811115611cd657611cd56119e5565b5b611ce286828701611c45565b9350506020611cf386828701611c8a565b9250506040611d0486828701611c8a565b9150509250925092565b600060208284031215611d2457611d236119e0565b5b6000611d3284828501611c8a565b91505092915050565b60006080820190508181036000830152611d558187611ad5565b9050611d6460208301866119ac565b611d7160408301856119ac565b611d7e60608301846119ac565b95945050505050565b611d9081611a0a565b82525050565b7f4e487b7100000000000000000000000000000000000000000000000000000000600052602160045260246000fd5b60038110611dd657611dd5611d96565b5b50565b6000819050611de782611dc5565b919050565b6000611df782611dd9565b9050919050565b611e0781611dec565b82525050565b600060e082019050611e22600083018a6119ac565b8181036020830152611e348189611ad5565b9050611e4360408301886119ac565b611e5060608301876119ac565b611e5d6080830186611d87565b611e6a60a08301856119ac565b611e7760c0830184611dfe565b98975050505050505050565b60008115159050919050565b611e9881611e83565b82525050565b600060c082019050611eb360008301896119ac565b8181036020830152611ec58188611ad5565b9050611ed460408301876119ac565b611ee16060830186611d87565b611eee6080830185611e8f565b611efb60a08301846119ac565b979650505050505050565b6000602082019050611f1b6000830184611d87565b92915050565b6000602082019050611f366000830184611e8f565b92915050565b7f73616d652063616e6469646174652063616e2774206265206164646400000000600082015250565b6000611f72601c83611a80565b9150611f7d82611f3c565b602082019050919050565b60006020820190508181036000830152611fa181611f65565b9050919050565b7f4e487b7100000000000000000000000000000000000000000000000000000000600052601160045260246000fd5b6000611fe2826119a2565b91507fffffffffffffffffffffffffffffffffffffffffffffffffffffffffffffffff82141561201557612014611fa8565b5b600182019050919050565b600061202b826119a2565b9150612036836119a2565b9250827fffffffffffffffffffffffffffffffffffffffffffffffffffffffffffffffff0382111561206b5761206a611fa8565b5b828201905092915050565b7f4e487b7100000000000000000000000000000000000000000000000000000000600052602260045260246000fd5b600060028204905060018216806120bd57607f821691505b602082108114156120d1576120d0612076565b5b50919050565b7f7468657265206973206e6f2063616e6469646174650000000000000000000000600082015250565b600061210d601583611a80565b9150612118826120d7565b602082019050919050565b6000602082019050818103600083015261213c81612100565b9050919050565b7f616c726561647920637265617465640000000000000000000000000000000000600082015250565b6000612179600f83611a80565b915061218482612143565b602082019050919050565b600060208201905081810360008301526121a88161216c565b9050919050565b7f617574686f726974792063616e206f6e6c792063616c6c20746869732066756e60008201527f6374696f6e000000000000000000000000000000000000000000000000000000602082015250565b600061220b602583611a80565b9150612216826121af565b604082019050919050565b6000602082019050818103600083015261223a816121fe565b9050919050565b7f616c726561647920766572696679000000000000000000000000000000000000600082015250565b6000612277600e83611a80565b915061228282612241565b602082019050919050565b600060208201905081810360008301526122a68161226a565b9050919050565b7f766f746572206e6f7420666f756e640000000000000000000000000000000000600082015250565b60006122e3600f83611a80565b91506122ee826122ad565b602082019050919050565b60006020820190508181036000830152612312816122d6565b9050919050565b7f616c7265616479206170726f7665640000000000000000000000000000000000600082015250565b600061234f600f83611a80565b915061235a82612319565b602082019050919050565b6000602082019050818103600083015261237e81612342565b9050919050565b7f5468697320706572736f6e206973206e6f7420656c696769626c6520666f722060008201527f766f746572732049640000000000000000000000000000000000000000000000602082015250565b60006123e1602983611a80565b91506123ec82612385565b604082019050919050565b60006020820190508181036000830152612410816123d4565b905091905056fea2646970667358221220749224fb053db2ad0b0cc34c9723e397a16fe96f71d27402e6a2094f6351a76664736f6c634300080a0033",
  "immutableReferences": {},
  "source": "// SPDX-License-Identifier: GPL-3.0\npragma solidity ^0.8.7;\n\ncontract VoterId{\n struct voterIdcard{\n        string voterName;\n        uint voterWard;\n        uint age;\n        uint voterIds;\n    }\n    uint num = 1000;\n    uint public count ;\n    mapping (uint => voterIdcard) public voteridcard;\n\n    function voterIdReg(\n        string memory _name,\n        uint _ward,\n        uint _age \n    ) \n        public\n    {\n        require(\n            _age >= 18,\n            \"This person is not eligible for voters Id\"\n        );\n        count++;\n        voteridcard[count] = voterIdcard(\n            _name,\n            _ward,\n            _age,\n            num+count\n        );\n    }\n}\n\ncontract Election is VoterId{\n    address public authority;\n    constructor(){\n        authority = msg.sender;\n    }\n     struct Voter{\n        uint index;\n        string voterName;\n        uint voterWard;\n        address voterAddress;\n        bool verify;\n        uint voterId;\n    }\n    struct  Candidate{\n        uint CandidateId;\n        string name;\n        uint ward;\n        uint voteCount;\n        address id;\n        uint VoterId;\n        candidateStatus  status;   \n    } \n    enum candidateStatus {pending, approved, rejected}\n    mapping(address => bool) public votes;\n    mapping (uint => Voter) public voter;\n    mapping (uint  => Candidate) public candidateReg;\n    mapping (uint  => Candidate) public candidatelist;\n    mapping (address => uint ) public voterlogin;\n    mapping (address => uint) public candidatelogin;\n    uint public candidateCount;\n    uint public voterCount;\n    uint public approvedCandidateCount;\n \n    modifier authorization(){\n        require(msg.sender == authority,\"authority can only call this function\");\n        _;\n    }\n    \n    function voterRegistration(\n        string memory _name, \n        uint _ward, \n        uint _voterId \n    ) \n        public\n    {\n        for(uint i = 1001; i <= 1000+ voterCount; i++ ){\n            if(voter[i].voterAddress == msg.sender){\n                revert(\"already created\");\n            }\n        }\n        voterCount++;\n        voter[_voterId] = Voter(\n            voterCount,\n            _name,\n            _ward,\n            msg.sender,\n            false,\n            _voterId\n        );\n        voterlogin[msg.sender] = _voterId;\n    }\n\n    function voterVerify(uint _voterId) public authorization {\n            if(voter[_voterId].verify == true){\n                revert(\"already verify\");\n            }\n            else if(_voterId <= 1000 || _voterId > 1000+count  ){\n                revert(\"voter not found\");\n            }   \n            for(uint i =1; i<= count ; i++){\n                 if(voter[_voterId].voterId == voteridcard[i].voterIds){\n                  voter[_voterId].verify = true;\n            } \n\n            }\n           \n                  \n    }\n\n    function applyForCantidate()public{\n           for(uint j=1 ; j<=candidateCount;j++){\n             if(candidateReg[j].id == msg.sender ){\n                 revert(\"same candidate can't be addd\");\n             }\n         }\n         for(uint i=1001; i<= 1000+voterCount; i++ ){           \n                if(voter[i].voterAddress == msg.sender && voter[i].verify == true){\n                    candidateCount++;\n                    candidateStatus _candidateStatus = candidateStatus.pending;\n                    candidateReg[candidateCount] = Candidate(\n                        candidateCount,\n                        voter[i].voterName,\n                        voter[i].voterWard,\n                        0,\n                        voter[i].voterAddress, \n                        voter[i].voterId, \n                        _candidateStatus\n                    );\n\n                }          \n        } \n    }\n\n    function approveCadidedress(address _voteraddress) public authorization {\n         for(uint j=1 ; j<=approvedCandidateCount;j++){\n             if(candidatelist[j].id == _voteraddress){\n                 revert(\"already aproved\");\n             }\n         }\n        for(uint i=1; i<= candidateCount; i++ ){\n            if(candidateReg[i].id == _voteraddress){\n                for(uint j =1; j<= count; j++){\n                    if( candidateReg[i].ward == voteridcard[j].voterWard && candidateReg[i].VoterId == voteridcard[j].voterIds){\n                        approvedCandidateCount++;\n                        candidateStatus _candidateStatus = candidateStatus.approved;\n                        candidateReg[i] = Candidate(candidateCount, candidateReg[i].name,candidateReg[i].ward,0,msg.sender, candidateReg[i].VoterId, _candidateStatus);\n                        candidatelist[approvedCandidateCount] = Candidate(\n                            approvedCandidateCount, \n                            candidateReg[i].name,\n                            candidateReg[i].ward,\n                            0,\n                            _voteraddress, \n                            candidateReg[i].VoterId, \n                            _candidateStatus\n                        );  \n                        candidatelogin[msg.sender] = i;  \n                    }\n                }\n            }\n        }\n     }\n\n     function result() public view returns(string memory , uint ){\n         require(approvedCandidateCount>=1, \"there is no candidate\");\n         uint votecont ;\n         uint index ;\n         for(uint i =1 ; i<=approvedCandidateCount; i++){\n             if(candidatelist[i].voteCount > votecont){\n                 votecont = candidatelist[i].voteCount;\n                 index = i ;\n             }\n         }\n        return(\n            candidatelist[index].name,\n            candidatelist[index].voteCount\n        );   \n     } \n}\n\n\n",
  "sourcePath": "/home/nisamudheen/Desktop/sps/voting_smartcontract/contracts/election.sol",
  "compiler": {
    "name": "solc",
    "version": "0.8.10+commit.fc410830.Emscripten.clang"
  },
  "schemaVersion": "3.4.3",
  "updatedAt": "2021-12-25T04:29:03.269Z",
  "devdoc": {
    "kind": "dev",
    "methods": {},
    "version": 1
  },
  "userdoc": {
    "kind": "user",
    "methods": {},
    "version": 1
  }
}