{
  "contractName": "Election",
  "abi": [
    {
      "inputs": [],
      "stateMutability": "nonpayable",
      "type": "constructor"
    },
    {
      "inputs": [],
      "name": "approvedCandidateCount",
      "outputs": [
        {
          "internalType": "uint256",
          "name": "",
          "type": "uint256"
        }
      ],
      "stateMutability": "view",
      "type": "function"
    },
    {
      "inputs": [],
      "name": "authority",
      "outputs": [
        {
          "internalType": "address",
          "name": "",
          "type": "address"
        }
      ],
      "stateMutability": "view",
      "type": "function"
    },
    {
      "inputs": [],
      "name": "candidateCount",
      "outputs": [
        {
          "internalType": "uint256",
          "name": "",
          "type": "uint256"
        }
      ],
      "stateMutability": "view",
      "type": "function"
    },
    {
      "inputs": [
        {
          "internalType": "uint256",
          "name": "",
          "type": "uint256"
        }
      ],
      "name": "candidateReg",
      "outputs": [
        {
          "internalType": "uint256",
          "name": "CandidateId",
          "type": "uint256"
        },
        {
          "internalType": "string",
          "name": "name",
          "type": "string"
        },
        {
          "internalType": "uint256",
          "name": "ward",
          "type": "uint256"
        },
        {
          "internalType": "uint256",
          "name": "voteCount",
          "type": "uint256"
        },
        {
          "internalType": "address",
          "name": "id",
          "type": "address"
        },
        {
          "internalType": "uint256",
          "name": "VoterId",
          "type": "uint256"
        },
        {
          "internalType": "enum Election.candidateStatus",
          "name": "status",
          "type": "uint8"
        }
      ],
      "stateMutability": "view",
      "type": "function"
    },
    {
      "inputs": [
        {
          "internalType": "uint256",
          "name": "",
          "type": "uint256"
        }
      ],
      "name": "candidatelist",
      "outputs": [
        {
          "internalType": "uint256",
          "name": "CandidateId",
          "type": "uint256"
        },
        {
          "internalType": "string",
          "name": "name",
          "type": "string"
        },
        {
          "internalType": "uint256",
          "name": "ward",
          "type": "uint256"
        },
        {
          "internalType": "uint256",
          "name": "voteCount",
          "type": "uint256"
        },
        {
          "internalType": "address",
          "name": "id",
          "type": "address"
        },
        {
          "internalType": "uint256",
          "name": "VoterId",
          "type": "uint256"
        },
        {
          "internalType": "enum Election.candidateStatus",
          "name": "status",
          "type": "uint8"
        }
      ],
      "stateMutability": "view",
      "type": "function"
    },
    {
      "inputs": [],
      "name": "count",
      "outputs": [
        {
          "internalType": "uint256",
          "name": "",
          "type": "uint256"
        }
      ],
      "stateMutability": "view",
      "type": "function"
    },
    {
      "inputs": [
        {
          "internalType": "uint256",
          "name": "",
          "type": "uint256"
        }
      ],
      "name": "voter",
      "outputs": [
        {
          "internalType": "uint256",
          "name": "index",
          "type": "uint256"
        },
        {
          "internalType": "string",
          "name": "voterName",
          "type": "string"
        },
        {
          "internalType": "uint256",
          "name": "voterWard",
          "type": "uint256"
        },
        {
          "internalType": "address",
          "name": "voterAddress",
          "type": "address"
        },
        {
          "internalType": "bool",
          "name": "verify",
          "type": "bool"
        },
        {
          "internalType": "uint256",
          "name": "voterId",
          "type": "uint256"
        }
      ],
      "stateMutability": "view",
      "type": "function"
    },
    {
      "inputs": [],
      "name": "voterCount",
      "outputs": [
        {
          "internalType": "uint256",
          "name": "",
          "type": "uint256"
        }
      ],
      "stateMutability": "view",
      "type": "function"
    },
    {
      "inputs": [
        {
          "internalType": "string",
          "name": "_name",
          "type": "string"
        },
        {
          "internalType": "uint256",
          "name": "_ward",
          "type": "uint256"
        },
        {
          "internalType": "uint256",
          "name": "_age",
          "type": "uint256"
        }
      ],
      "name": "voterIdReg",
      "outputs": [],
      "stateMutability": "nonpayable",
      "type": "function"
    },
    {
      "inputs": [
        {
          "internalType": "uint256",
          "name": "",
          "type": "uint256"
        }
      ],
      "name": "voteridcard",
      "outputs": [
        {
          "internalType": "string",
          "name": "voterName",
          "type": "string"
        },
        {
          "internalType": "uint256",
          "name": "voterWard",
          "type": "uint256"
        },
        {
          "internalType": "uint256",
          "name": "age",
          "type": "uint256"
        },
        {
          "internalType": "uint256",
          "name": "voterIds",
          "type": "uint256"
        }
      ],
      "stateMutability": "view",
      "type": "function"
    },
    {
      "inputs": [
        {
          "internalType": "address",
          "name": "",
          "type": "address"
        }
      ],
      "name": "votes",
      "outputs": [
        {
          "internalType": "bool",
          "name": "",
          "type": "bool"
        }
      ],
      "stateMutability": "view",
      "type": "function"
    },
    {
      "inputs": [
        {
          "internalType": "string",
          "name": "_name",
          "type": "string"
        },
        {
          "internalType": "uint256",
          "name": "_ward",
          "type": "uint256"
        },
        {
          "internalType": "uint256",
          "name": "_voterId",
          "type": "uint256"
        }
      ],
      "name": "voterRegistration",
      "outputs": [],
      "stateMutability": "nonpayable",
      "type": "function"
    },
    {
      "inputs": [
        {
          "internalType": "uint256",
          "name": "_voterId",
          "type": "uint256"
        }
      ],
      "name": "voterVerify",
      "outputs": [],
      "stateMutability": "nonpayable",
      "type": "function"
    },
    {
      "inputs": [],
      "name": "applyForCantidate",
      "outputs": [],
      "stateMutability": "nonpayable",
      "type": "function"
    },
    {
      "inputs": [
        {
          "internalType": "address",
          "name": "_voteraddress",
          "type": "address"
        }
      ],
      "name": "approveCadidedress",
      "outputs": [],
      "stateMutability": "nonpayable",
      "type": "function"
    },
    {
      "inputs": [],
      "name": "result",
      "outputs": [
        {
          "internalType": "string",
          "name": "",
          "type": "string"
        },
        {
          "internalType": "uint256",
          "name": "",
          "type": "uint256"
        }
      ],
      "stateMutability": "view",
      "type": "function"
    }
  ],
  "bytecode": "0x60806040526103e860005534801561001657600080fd5b5033600360006101000a81548173ffffffffffffffffffffffffffffffffffffffff021916908373ffffffffffffffffffffffffffffffffffffffff16021790555061231f806100676000396000f3fe608060405234801561001057600080fd5b50600436106101005760003560e01c8063911eb81d11610097578063bcaf189b11610066578063bcaf189b14610298578063bf7e214f146102ce578063ca6ea96d146102ec578063d8bff5a51461030857610100565b8063911eb81d146101f357806395cf050914610229578063a9a981a314610245578063ab8ed1ba1461026357610100565b8063656ee5cc116100d3578063656ee5cc1461016a5780637400df71146101865780637bd01925146101a4578063905d04c2146101d757610100565b806306661abd1461010557806342169e4814610123578063542ac40d14610141578063653721471461014b575b600080fd5b61010d610338565b60405161011a919061188d565b60405180910390f35b61012b61033e565b604051610138919061188d565b60405180910390f35b610149610344565b005b61015361072c565b604051610161929190611941565b60405180910390f35b610184600480360381019061017f9190611ae6565b61089b565b005b61018e610a8f565b60405161019b919061188d565b60405180910390f35b6101be60048036038101906101b99190611b55565b610a95565b6040516101ce9493929190611b82565b60405180910390f35b6101f160048036038101906101ec9190611b55565b610b4d565b005b61020d60048036038101906102089190611b55565b610d32565b6040516102209796959493929190611c86565b60405180910390f35b610243600480360381019061023e9190611d28565b610e29565b005b61024d6114b9565b60405161025a919061188d565b60405180910390f35b61027d60048036038101906102789190611b55565b6114bf565b60405161028f96959493929190611d70565b60405180910390f35b6102b260048036038101906102ad9190611b55565b6115b0565b6040516102c59796959493929190611c86565b60405180910390f35b6102d66116a7565b6040516102e39190611dd8565b60405180910390f35b61030660048036038101906103019190611ae6565b6116cd565b005b610322600480360381019061031d9190611d28565b6117b1565b60405161032f9190611df3565b60405180910390f35b60015481565b60095481565b6000600190505b600854811161040c573373ffffffffffffffffffffffffffffffffffffffff166006600083815260200190815260200160002060040160009054906101000a900473ffffffffffffffffffffffffffffffffffffffff1673ffffffffffffffffffffffffffffffffffffffff1614156103f9576040517f08c379a00000000000000000000000000000000000000000000000000000000081526004016103f090611e5a565b60405180910390fd5b808061040490611ea9565b91505061034b565b5060006103e990505b6009546103e86104259190611ef2565b8111610729573373ffffffffffffffffffffffffffffffffffffffff166005600083815260200190815260200160002060030160009054906101000a900473ffffffffffffffffffffffffffffffffffffffff1673ffffffffffffffffffffffffffffffffffffffff161480156104c35750600115156005600083815260200190815260200160002060030160149054906101000a900460ff161515145b1561071657600860008154809291906104db90611ea9565b919050555060006040518060e00160405280600854815260200160056000858152602001908152602001600020600101805461051690611f77565b80601f016020809104026020016040519081016040528092919081815260200182805461054290611f77565b801561058f5780601f106105645761010080835404028352916020019161058f565b820191906000526020600020905b81548152906001019060200180831161057257829003601f168201915b5050505050815260200160056000858152602001908152602001600020600201548152602001600081526020016005600085815260200190815260200160002060030160009054906101000a900473ffffffffffffffffffffffffffffffffffffffff1673ffffffffffffffffffffffffffffffffffffffff1681526020016005600085815260200190815260200160002060040154815260200182600281111561063d5761063c611c0f565b5b81525060066000600854815260200190815260200160002060008201518160000155602082015181600101908051906020019061067b9291906117d1565b50604082015181600201556060820151816003015560808201518160040160006101000a81548173ffffffffffffffffffffffffffffffffffffffff021916908373ffffffffffffffffffffffffffffffffffffffff16021790555060a0820151816005015560c08201518160060160006101000a81548160ff0219169083600281111561070c5761070b611c0f565b5b0217905550905050505b808061072190611ea9565b915050610415565b50565b606060006001600a541015610776576040517f08c379a000000000000000000000000000000000000000000000000000000000815260040161076d90611ff5565b60405180910390fd5b6000806000600190505b600a5481116107d75782600760008381526020019081526020016000206003015411156107c457600760008281526020019081526020016000206003015492508091505b80806107cf90611ea9565b915050610780565b5060076000828152602001908152602001600020600101600760008381526020019081526020016000206003015481805461081190611f77565b80601f016020809104026020016040519081016040528092919081815260200182805461083d90611f77565b801561088a5780601f1061085f5761010080835404028352916020019161088a565b820191906000526020600020905b81548152906001019060200180831161086d57829003601f168201915b505050505091509350935050509091565b60006103e890505b6009546103e86108b39190611ef2565b8111610971573373ffffffffffffffffffffffffffffffffffffffff166005600083815260200190815260200160002060030160009054906101000a900473ffffffffffffffffffffffffffffffffffffffff1673ffffffffffffffffffffffffffffffffffffffff16141561095e576040517f08c379a000000000000000000000000000000000000000000000000000000000815260040161095590612061565b60405180910390fd5b808061096990611ea9565b9150506108a3565b506009600081548092919061098590611ea9565b91905055506040518060c0016040528060095481526020018481526020018381526020013373ffffffffffffffffffffffffffffffffffffffff1681526020016000151581526020018281525060056000838152602001908152602001600020600082015181600001556020820151816001019080519060200190610a0b9291906117d1565b506040820151816002015560608201518160030160006101000a81548173ffffffffffffffffffffffffffffffffffffffff021916908373ffffffffffffffffffffffffffffffffffffffff16021790555060808201518160030160146101000a81548160ff02191690831515021790555060a08201518160040155905050505050565b600a5481565b6002602052806000526040600020600091509050806000018054610ab890611f77565b80601f0160208091040260200160405190810160405280929190818152602001828054610ae490611f77565b8015610b315780601f10610b0657610100808354040283529160200191610b31565b820191906000526020600020905b815481529060010190602001808311610b1457829003601f168201915b5050505050908060010154908060020154908060030154905084565b600360009054906101000a900473ffffffffffffffffffffffffffffffffffffffff1673ffffffffffffffffffffffffffffffffffffffff163373ffffffffffffffffffffffffffffffffffffffff1614610bdd576040517f08c379a0000000000000000000000000000000000000000000000000000000008152600401610bd4906120f3565b60405180910390fd5b600115156005600083815260200190815260200160002060030160149054906101000a900460ff1615151415610c48576040517f08c379a0000000000000000000000000000000000000000000000000000000008152600401610c3f9061215f565b60405180910390fd5b6103e881111580610c6757506001546103e8610c649190611ef2565b81115b15610ca7576040517f08c379a0000000000000000000000000000000000000000000000000000000008152600401610c9e906121cb565b60405180910390fd5b6000600190505b6001548111610d2e57600260008281526020019081526020016000206003015460056000848152602001908152602001600020600401541415610d1b5760016005600084815260200190815260200160002060030160146101000a81548160ff0219169083151502179055505b8080610d2690611ea9565b915050610cae565b5050565b6007602052806000526040600020600091509050806000015490806001018054610d5b90611f77565b80601f0160208091040260200160405190810160405280929190818152602001828054610d8790611f77565b8015610dd45780601f10610da957610100808354040283529160200191610dd4565b820191906000526020600020905b815481529060010190602001808311610db757829003601f168201915b5050505050908060020154908060030154908060040160009054906101000a900473ffffffffffffffffffffffffffffffffffffffff16908060050154908060060160009054906101000a900460ff16905087565b600360009054906101000a900473ffffffffffffffffffffffffffffffffffffffff1673ffffffffffffffffffffffffffffffffffffffff163373ffffffffffffffffffffffffffffffffffffffff1614610eb9576040517f08c379a0000000000000000000000000000000000000000000000000000000008152600401610eb0906120f3565b60405180910390fd5b6000600190505b600a548111610f81578173ffffffffffffffffffffffffffffffffffffffff166007600083815260200190815260200160002060040160009054906101000a900473ffffffffffffffffffffffffffffffffffffffff1673ffffffffffffffffffffffffffffffffffffffff161415610f6e576040517f08c379a0000000000000000000000000000000000000000000000000000000008152600401610f6590612237565b60405180910390fd5b8080610f7990611ea9565b915050610ec0565b506000600190505b60085481116114b5578173ffffffffffffffffffffffffffffffffffffffff166006600083815260200190815260200160002060040160009054906101000a900473ffffffffffffffffffffffffffffffffffffffff1673ffffffffffffffffffffffffffffffffffffffff1614156114a2576000600190505b60015481116114a05760026000828152602001908152602001600020600101546006600084815260200190815260200160002060020154148015611072575060026000828152602001908152602001600020600301546006600084815260200190815260200160002060050154145b1561148d57600a600081548092919061108a90611ea9565b91905055506000600190506040518060e0016040528060085481526020016006600086815260200190815260200160002060010180546110c990611f77565b80601f01602080910402602001604051908101604052809291908181526020018280546110f590611f77565b80156111425780601f1061111757610100808354040283529160200191611142565b820191906000526020600020905b81548152906001019060200180831161112557829003601f168201915b5050505050815260200160066000868152602001908152602001600020600201548152602001600081526020013373ffffffffffffffffffffffffffffffffffffffff168152602001600660008681526020019081526020016000206005015481526020018260028111156111ba576111b9611c0f565b5b815250600660008581526020019081526020016000206000820151816000015560208201518160010190805190602001906111f69291906117d1565b50604082015181600201556060820151816003015560808201518160040160006101000a81548173ffffffffffffffffffffffffffffffffffffffff021916908373ffffffffffffffffffffffffffffffffffffffff16021790555060a0820151816005015560c08201518160060160006101000a81548160ff0219169083600281111561128757611286611c0f565b5b02179055509050506040518060e00160405280600a5481526020016006600086815260200190815260200160002060010180546112c390611f77565b80601f01602080910402602001604051908101604052809291908181526020018280546112ef90611f77565b801561133c5780601f106113115761010080835404028352916020019161133c565b820191906000526020600020905b81548152906001019060200180831161131f57829003601f168201915b5050505050815260200160066000868152602001908152602001600020600201548152602001600081526020018573ffffffffffffffffffffffffffffffffffffffff168152602001600660008681526020019081526020016000206005015481526020018260028111156113b4576113b3611c0f565b5b81525060076000600a5481526020019081526020016000206000820151816000015560208201518160010190805190602001906113f29291906117d1565b50604082015181600201556060820151816003015560808201518160040160006101000a81548173ffffffffffffffffffffffffffffffffffffffff021916908373ffffffffffffffffffffffffffffffffffffffff16021790555060a0820151816005015560c08201518160060160006101000a81548160ff0219169083600281111561148357611482611c0f565b5b0217905550905050505b808061149890611ea9565b915050611003565b505b80806114ad90611ea9565b915050610f89565b5050565b60085481565b60056020528060005260406000206000915090508060000154908060010180546114e890611f77565b80601f016020809104026020016040519081016040528092919081815260200182805461151490611f77565b80156115615780601f1061153657610100808354040283529160200191611561565b820191906000526020600020905b81548152906001019060200180831161154457829003601f168201915b5050505050908060020154908060030160009054906101000a900473ffffffffffffffffffffffffffffffffffffffff16908060030160149054906101000a900460ff16908060040154905086565b60066020528060005260406000206000915090508060000154908060010180546115d990611f77565b80601f016020809104026020016040519081016040528092919081815260200182805461160590611f77565b80156116525780601f1061162757610100808354040283529160200191611652565b820191906000526020600020905b81548152906001019060200180831161163557829003601f168201915b5050505050908060020154908060030154908060040160009054906101000a900473ffffffffffffffffffffffffffffffffffffffff16908060050154908060060160009054906101000a900460ff16905087565b600360009054906101000a900473ffffffffffffffffffffffffffffffffffffffff1681565b6012811015611711576040517f08c379a0000000000000000000000000000000000000000000000000000000008152600401611708906122c9565b60405180910390fd5b6001600081548092919061172490611ea9565b919050555060405180608001604052808481526020018381526020018281526020016001546000546117569190611ef2565b815250600260006001548152602001908152602001600020600082015181600001908051906020019061178a9291906117d1565b50602082015181600101556040820151816002015560608201518160030155905050505050565b60046020528060005260406000206000915054906101000a900460ff1681565b8280546117dd90611f77565b90600052602060002090601f0160209004810192826117ff5760008555611846565b82601f1061181857805160ff1916838001178555611846565b82800160010185558215611846579182015b8281111561184557825182559160200191906001019061182a565b5b5090506118539190611857565b5090565b5b80821115611870576000816000905550600101611858565b5090565b6000819050919050565b61188781611874565b82525050565b60006020820190506118a2600083018461187e565b92915050565b600081519050919050565b600082825260208201905092915050565b60005b838110156118e25780820151818401526020810190506118c7565b838111156118f1576000848401525b50505050565b6000601f19601f8301169050919050565b6000611913826118a8565b61191d81856118b3565b935061192d8185602086016118c4565b611936816118f7565b840191505092915050565b6000604082019050818103600083015261195b8185611908565b905061196a602083018461187e565b9392505050565b6000604051905090565b600080fd5b600080fd5b600080fd5b600080fd5b7f4e487b7100000000000000000000000000000000000000000000000000000000600052604160045260246000fd5b6119c7826118f7565b810181811067ffffffffffffffff821117156119e6576119e561198f565b5b80604052505050565b60006119f9611971565b9050611a0582826119be565b919050565b600067ffffffffffffffff821115611a2557611a2461198f565b5b611a2e826118f7565b9050602081019050919050565b82818337600083830152505050565b6000611a5d611a5884611a0a565b6119ef565b905082815260208101848484011115611a7957611a7861198a565b5b611a84848285611a3b565b509392505050565b600082601f830112611aa157611aa0611985565b5b8135611ab1848260208601611a4a565b91505092915050565b611ac381611874565b8114611ace57600080fd5b50565b600081359050611ae081611aba565b92915050565b600080600060608486031215611aff57611afe61197b565b5b600084013567ffffffffffffffff811115611b1d57611b1c611980565b5b611b2986828701611a8c565b9350506020611b3a86828701611ad1565b9250506040611b4b86828701611ad1565b9150509250925092565b600060208284031215611b6b57611b6a61197b565b5b6000611b7984828501611ad1565b91505092915050565b60006080820190508181036000830152611b9c8187611908565b9050611bab602083018661187e565b611bb8604083018561187e565b611bc5606083018461187e565b95945050505050565b600073ffffffffffffffffffffffffffffffffffffffff82169050919050565b6000611bf982611bce565b9050919050565b611c0981611bee565b82525050565b7f4e487b7100000000000000000000000000000000000000000000000000000000600052602160045260246000fd5b60038110611c4f57611c4e611c0f565b5b50565b6000819050611c6082611c3e565b919050565b6000611c7082611c52565b9050919050565b611c8081611c65565b82525050565b600060e082019050611c9b600083018a61187e565b8181036020830152611cad8189611908565b9050611cbc604083018861187e565b611cc9606083018761187e565b611cd66080830186611c00565b611ce360a083018561187e565b611cf060c0830184611c77565b98975050505050505050565b611d0581611bee565b8114611d1057600080fd5b50565b600081359050611d2281611cfc565b92915050565b600060208284031215611d3e57611d3d61197b565b5b6000611d4c84828501611d13565b91505092915050565b60008115159050919050565b611d6a81611d55565b82525050565b600060c082019050611d85600083018961187e565b8181036020830152611d978188611908565b9050611da6604083018761187e565b611db36060830186611c00565b611dc06080830185611d61565b611dcd60a083018461187e565b979650505050505050565b6000602082019050611ded6000830184611c00565b92915050565b6000602082019050611e086000830184611d61565b92915050565b7f73616d652063616e6469646174652063616e2774206265206164646400000000600082015250565b6000611e44601c836118b3565b9150611e4f82611e0e565b602082019050919050565b60006020820190508181036000830152611e7381611e37565b9050919050565b7f4e487b7100000000000000000000000000000000000000000000000000000000600052601160045260246000fd5b6000611eb482611874565b91507fffffffffffffffffffffffffffffffffffffffffffffffffffffffffffffffff821415611ee757611ee6611e7a565b5b600182019050919050565b6000611efd82611874565b9150611f0883611874565b9250827fffffffffffffffffffffffffffffffffffffffffffffffffffffffffffffffff03821115611f3d57611f3c611e7a565b5b828201905092915050565b7f4e487b7100000000000000000000000000000000000000000000000000000000600052602260045260246000fd5b60006002820490506001821680611f8f57607f821691505b60208210811415611fa357611fa2611f48565b5b50919050565b7f7468657265206973206e6f2063616e6469646174650000000000000000000000600082015250565b6000611fdf6015836118b3565b9150611fea82611fa9565b602082019050919050565b6000602082019050818103600083015261200e81611fd2565b9050919050565b7f616c726561647920637265617465640000000000000000000000000000000000600082015250565b600061204b600f836118b3565b915061205682612015565b602082019050919050565b6000602082019050818103600083015261207a8161203e565b9050919050565b7f617574686f726974792063616e206f6e6c792063616c6c20746869732066756e60008201527f6374696f6e000000000000000000000000000000000000000000000000000000602082015250565b60006120dd6025836118b3565b91506120e882612081565b604082019050919050565b6000602082019050818103600083015261210c816120d0565b9050919050565b7f616c726561647920766572696679000000000000000000000000000000000000600082015250565b6000612149600e836118b3565b915061215482612113565b602082019050919050565b600060208201905081810360008301526121788161213c565b9050919050565b7f766f746572206e6f7420666f756e640000000000000000000000000000000000600082015250565b60006121b5600f836118b3565b91506121c08261217f565b602082019050919050565b600060208201905081810360008301526121e4816121a8565b9050919050565b7f616c7265616479206170726f7665640000000000000000000000000000000000600082015250565b6000612221600f836118b3565b915061222c826121eb565b602082019050919050565b6000602082019050818103600083015261225081612214565b9050919050565b7f5468697320706572736f6e206973206e6f7420656c696769626c6520666f722060008201527f766f746572732049640000000000000000000000000000000000000000000000602082015250565b60006122b36029836118b3565b91506122be82612257565b604082019050919050565b600060208201905081810360008301526122e2816122a6565b905091905056fea2646970667358221220706d86e3753fb882b011183e6a05eab7c53371a847b112dc130c6f3711a6271b64736f6c634300080a0033",
  "immutableReferences": {},
  "source": "// SPDX-License-Identifier: GPL-3.0\npragma solidity ^0.8.7;\n\ncontract VoterId{\n struct voterIdcard{\n        string voterName;\n        uint voterWard;\n        uint age;\n        uint voterIds;\n    }\n    uint num = 1000;\n    uint public count ;\n    mapping (uint => voterIdcard) public voteridcard;\n\n    function voterIdReg(\n        string memory _name,\n        uint _ward,\n        uint _age \n    ) \n        public\n    {\n        require(\n            _age >= 18,\n            \"This person is not eligible for voters Id\"\n        );\n        count++;\n        voteridcard[count] = voterIdcard(\n            _name,\n            _ward,\n            _age,\n            num+count\n        );\n    }\n}\n\ncontract Election is VoterId{\n    address public authority;\n    constructor(){\n        authority = msg.sender;\n    }\n     struct Voter{\n        uint index;\n        string voterName;\n        uint voterWard;\n        address voterAddress;\n        bool verify;\n        uint voterId;\n    }\n    struct  Candidate{\n        uint CandidateId;\n        string name;\n        uint ward;\n        uint voteCount;\n        address id;\n        uint VoterId;\n        candidateStatus  status;   \n    } \n    enum candidateStatus {pending, approved, rejected}\n    mapping(address => bool) public votes;\n    mapping (uint => Voter) public voter;\n    mapping (uint  => Candidate) public candidateReg;\n    mapping (uint  => Candidate) public candidatelist;\n    uint public candidateCount;\n    uint public voterCount;\n    uint public approvedCandidateCount;\n \n    modifier authorization(){\n        require(msg.sender == authority,\"authority can only call this function\");\n        _;\n    }\n    \n    function voterRegistration(\n        string memory _name, \n        uint _ward, \n        uint _voterId \n    ) \n        public\n    {\n        for(uint i = 1000; i <= 1000+ voterCount; i++ ){\n            if(voter[i].voterAddress == msg.sender){\n                revert(\"already created\");\n            }\n        }\n        voterCount++;\n        voter[_voterId] = Voter(\n            voterCount,\n            _name,\n            _ward,\n            msg.sender,\n            false,\n            _voterId\n        );\n    }\n\n    function voterVerify(uint _voterId) public authorization {\n            if(voter[_voterId].verify == true){\n                revert(\"already verify\");\n            }\n            else if(_voterId <= 1000 || _voterId > 1000+count  ){\n                revert(\"voter not found\");\n            }   \n            for(uint i =1; i<= count ; i++){\n                 if(voter[_voterId].voterId == voteridcard[i].voterIds){\n                  voter[_voterId].verify = true;\n            } \n\n            }                  \n    }\n\n    function applyForCantidate()public{\n           for(uint j=1 ; j<=candidateCount;j++){\n             if(candidateReg[j].id == msg.sender ){\n                 revert(\"same candidate can't be addd\");\n             }\n         }\n         for(uint i=1001; i<=1000+ voterCount; i++ ){           \n                if(voter[i].voterAddress == msg.sender && voter[i].verify == true){\n                    candidateCount++;\n                    candidateStatus _candidateStatus = candidateStatus.pending;\n                    candidateReg[candidateCount] = Candidate(\n                        candidateCount,\n                        voter[i].voterName,\n                        voter[i].voterWard,\n                        0,\n                        voter[i].voterAddress, \n                        voter[i].voterId, \n                        _candidateStatus\n                    );\n\n                }          \n        } \n    }\n\n    function approveCadidedress(address _voteraddress) public authorization {\n         for(uint j=1 ; j<=approvedCandidateCount;j++){\n             if(candidatelist[j].id == _voteraddress){\n                 revert(\"already aproved\");\n             }\n         }\n        for(uint i=1; i<= candidateCount; i++ ){\n            if(candidateReg[i].id == _voteraddress){\n                for(uint j =1; j<= count; j++){\n                    if( candidateReg[i].ward == voteridcard[j].voterWard && candidateReg[i].VoterId == voteridcard[j].voterIds){\n                        approvedCandidateCount++;\n                        candidateStatus _candidateStatus = candidateStatus.approved;\n                        candidateReg[i] = Candidate(candidateCount, candidateReg[i].name,candidateReg[i].ward,0,msg.sender, candidateReg[i].VoterId, _candidateStatus);\n                        candidatelist[approvedCandidateCount] = Candidate(\n                            approvedCandidateCount, \n                            candidateReg[i].name,\n                            candidateReg[i].ward,\n                            0,\n                            _voteraddress, \n                            candidateReg[i].VoterId, \n                            _candidateStatus\n                        );    \n                    }\n                }\n            }\n        }\n     }\n\n     function result() public view returns(string memory , uint ){\n         require(approvedCandidateCount>=1, \"there is no candidate\");\n         uint votecont ;\n         uint index ;\n         for(uint i =1 ; i<=approvedCandidateCount; i++){\n             if(candidatelist[i].voteCount > votecont){\n                 votecont = candidatelist[i].voteCount;\n                 index = i;\n             }\n         }\n        return(\n            candidatelist[index].name,\n            candidatelist[index].voteCount\n        );   \n     } \n}\n\n\n",
  "sourcePath": "/home/nisamudheen/Desktop/sps/voting_smartcontract/contracts/election.sol",
  "compiler": {
    "name": "solc",
    "version": "0.8.10+commit.fc410830.Emscripten.clang"
  },
  "schemaVersion": "3.4.3",
  "updatedAt": "2021-12-21T11:14:41.709Z",
  "devdoc": {
    "kind": "dev",
    "methods": {},
    "version": 1
  },
  "userdoc": {
    "kind": "user",
    "methods": {},
    "version": 1
  }
}