{
  "contractName": "VoterId",
  "abi": [
    {
      "inputs": [
        {
          "internalType": "uint256",
          "name": "",
          "type": "uint256"
        }
      ],
      "name": "voteridcard",
      "outputs": [
        {
          "internalType": "string",
          "name": "voterName",
          "type": "string"
        },
        {
          "internalType": "uint256",
          "name": "voterWard",
          "type": "uint256"
        },
        {
          "internalType": "uint256",
          "name": "age",
          "type": "uint256"
        },
        {
          "internalType": "uint256",
          "name": "voterIds",
          "type": "uint256"
        }
      ],
      "stateMutability": "view",
      "type": "function"
    },
    {
      "inputs": [
        {
          "internalType": "string",
          "name": "_name",
          "type": "string"
        },
        {
          "internalType": "uint256",
          "name": "_ward",
          "type": "uint256"
        },
        {
          "internalType": "uint256",
          "name": "_age",
          "type": "uint256"
        }
      ],
      "name": "voterIdReg",
      "outputs": [],
      "stateMutability": "nonpayable",
      "type": "function"
    }
  ],
  "bytecode": "0x60806040526103e860005534801561001657600080fd5b506107cf806100266000396000f3fe608060405234801561001057600080fd5b50600436106100365760003560e01c80637bd019251461003b578063ca6ea96d1461006e575b600080fd5b61005560048036038101906100509190610313565b61008a565b60405161006594939291906103e8565b60405180910390f35b61008860048036038101906100839190610569565b610142565b005b60026020528060005260406000206000915090508060000180546100ad90610607565b80601f01602080910402602001604051908101604052809291908181526020018280546100d990610607565b80156101265780601f106100fb57610100808354040283529160200191610126565b820191906000526020600020905b81548152906001019060200180831161010957829003601f168201915b5050505050908060010154908060020154908060030154905084565b6012811015610186576040517f08c379a000000000000000000000000000000000000000000000000000000000815260040161017d906106ab565b60405180910390fd5b60016000815480929190610199906106fa565b919050555060405180608001604052808481526020018381526020018281526020016001546000546101cb9190610743565b81525060026000600154815260200190815260200160002060008201518160000190805190602001906101ff929190610226565b50602082015181600101556040820151816002015560608201518160030155905050505050565b82805461023290610607565b90600052602060002090601f016020900481019282610254576000855561029b565b82601f1061026d57805160ff191683800117855561029b565b8280016001018555821561029b579182015b8281111561029a57825182559160200191906001019061027f565b5b5090506102a891906102ac565b5090565b5b808211156102c55760008160009055506001016102ad565b5090565b6000604051905090565b600080fd5b600080fd5b6000819050919050565b6102f0816102dd565b81146102fb57600080fd5b50565b60008135905061030d816102e7565b92915050565b600060208284031215610329576103286102d3565b5b6000610337848285016102fe565b91505092915050565b600081519050919050565b600082825260208201905092915050565b60005b8381101561037a57808201518184015260208101905061035f565b83811115610389576000848401525b50505050565b6000601f19601f8301169050919050565b60006103ab82610340565b6103b5818561034b565b93506103c581856020860161035c565b6103ce8161038f565b840191505092915050565b6103e2816102dd565b82525050565b6000608082019050818103600083015261040281876103a0565b905061041160208301866103d9565b61041e60408301856103d9565b61042b60608301846103d9565b95945050505050565b600080fd5b600080fd5b7f4e487b7100000000000000000000000000000000000000000000000000000000600052604160045260246000fd5b6104768261038f565b810181811067ffffffffffffffff821117156104955761049461043e565b5b80604052505050565b60006104a86102c9565b90506104b4828261046d565b919050565b600067ffffffffffffffff8211156104d4576104d361043e565b5b6104dd8261038f565b9050602081019050919050565b82818337600083830152505050565b600061050c610507846104b9565b61049e565b90508281526020810184848401111561052857610527610439565b5b6105338482856104ea565b509392505050565b600082601f8301126105505761054f610434565b5b81356105608482602086016104f9565b91505092915050565b600080600060608486031215610582576105816102d3565b5b600084013567ffffffffffffffff8111156105a05761059f6102d8565b5b6105ac8682870161053b565b93505060206105bd868287016102fe565b92505060406105ce868287016102fe565b9150509250925092565b7f4e487b7100000000000000000000000000000000000000000000000000000000600052602260045260246000fd5b6000600282049050600182168061061f57607f821691505b60208210811415610633576106326105d8565b5b50919050565b7f5468697320706572736f6e206973206e6f7420656c696769626c6520666f722060008201527f766f746572732049640000000000000000000000000000000000000000000000602082015250565b600061069560298361034b565b91506106a082610639565b604082019050919050565b600060208201905081810360008301526106c481610688565b9050919050565b7f4e487b7100000000000000000000000000000000000000000000000000000000600052601160045260246000fd5b6000610705826102dd565b91507fffffffffffffffffffffffffffffffffffffffffffffffffffffffffffffffff821415610738576107376106cb565b5b600182019050919050565b600061074e826102dd565b9150610759836102dd565b9250827fffffffffffffffffffffffffffffffffffffffffffffffffffffffffffffffff0382111561078e5761078d6106cb565b5b82820190509291505056fea26469706673582212205489feea026f8352685c97a2d12a0e7434825e4cc5a6fac112285b1cc3b60e3064736f6c634300080a0033",
  "immutableReferences": {},
  "source": "// SPDX-License-Identifier: GPL-3.0\npragma solidity ^0.8.7;\n\ncontract VoterId{\n struct voterIdcard{\n        string voterName;\n        uint voterWard;\n        uint age;\n        uint voterIds;\n    }\n    uint num = 1000;\n    uint count;\n    mapping (uint => voterIdcard) public voteridcard;\n\n    function voterIdReg(\n        string memory _name,\n        uint _ward,\n        uint _age \n    ) \n        public\n    {\n        require(\n            _age >= 18,\n            \"This person is not eligible for voters Id\"\n        );\n        count++;\n        voteridcard[count] = voterIdcard(\n            _name,\n            _ward,\n            _age,\n            num+count\n        );\n    }\n}\n\ncontract Election is VoterId{\n    address authority;\n    constructor(){\n        authority = msg.sender;\n    }\n     struct Voter{\n        uint index;\n        string voterName;\n        uint voterWard;\n        address voterAddress;\n        bool verify;\n        uint voterId;\n    }\n    struct  Candidates{\n        uint CandidateId;\n        string name;\n        uint ward;\n        uint voteCount;\n        address id;\n        uint VoterId;\n        candidateStatus  status;   \n    } \n    enum candidateStatus {pending, approved, rejected}\n    mapping(address => bool) public votes;\n    mapping (uint => Voter) public voter;\n    mapping (uint  => Candidates) public candidateReg;\n    mapping (uint  => Candidates) public candidateslist;\n    uint candedatesCount;\n    uint voterCount;\n    uint approvedCandidateCount;\n \n    modifier authorization(){\n        require(msg.sender == authority,\"authority can only call this function\");\n        _;\n    }\n    \n    function voterRegistration(\n        string memory _name, \n        uint _ward, \n        uint _voterId \n    ) \n        public\n    {\n        for(uint i = 1; i <= voterCount; i++ ){\n            if(voter[i].voterAddress == msg.sender){\n                revert(\"already created\");\n            }\n        }\n        voterCount++;\n        voter[voterCount] = Voter(\n            voterCount,\n            _name,\n            _ward,\n            msg.sender,\n            false,\n            _voterId\n        );\n    }\n\n    function voterVerify(uint _voterId) public authorization {\n            if(voter[_voterId].verify == true){\n                revert(\"already verify\");\n            }\n            else if(_voterId < 0 || _voterId > count  ){\n                revert(\"voter not found\");\n            }   \n            else if(voter[_voterId].voterId == voteridcard[_voterId].voterIds){\n                  voter[_voterId].verify = true;\n            }else{\n                 revert(\"voter id no found\");\n            }       \n    }\n\n    function applyForCantidate()public{\n         for(uint i=1; i<= voterCount; i++ ){           \n                if(voter[i].voterAddress == msg.sender && voter[i].verify == true){\n                    candedatesCount++;\n                    candidateStatus _candidateStatus = candidateStatus.pending;\n                    candidateReg[candedatesCount] = Candidates(\n                        candedatesCount,\n                        voter[i].voterName,\n                        voter[i].voterWard,\n                        0,\n                        voter[i].voterAddress, \n                        voter[i].voterId, \n                        _candidateStatus\n                    );\n\n                }\n                else if(candidateReg[i].id == msg.sender || voterCount == 0){\n                    revert(\"same candidate can't be addd\");\n                }          \n        } \n    }\n\n    function approveCadidedress(address _voteraddress) public authorization {\n         for(uint j ; j<=approvedCandidateCount;j++){\n             if(candidateslist[j].id == _voteraddress){\n                 revert(\"already aproved\");\n             }\n         }\n        for(uint i=1; i<= candedatesCount; i++ ){\n            if(candidateReg[i].id == _voteraddress){\n                for(uint j =1; j<= count; j++){\n                    if( candidateReg[i].ward == voteridcard[j].voterWard && candidateReg[i].VoterId == voteridcard[j].voterIds){\n                        approvedCandidateCount++;\n                        candidateStatus _candidateStatus = candidateStatus.approved;\n                        candidateReg[i] = Candidates(candedatesCount, candidateReg[i].name,candidateReg[i].ward,0,msg.sender, candidateReg[i].VoterId, _candidateStatus);\n                        candidateslist[approvedCandidateCount] = Candidates(\n                            approvedCandidateCount, \n                            candidateReg[i].name,\n                            candidateReg[i].ward,\n                            0,\n                            _voteraddress, \n                            candidateReg[i].VoterId, \n                            _candidateStatus\n                        );    \n                    }\n                }\n            }\n        }\n     }\n\n     function result() public view returns(string memory , uint ){\n         require(approvedCandidateCount>=1, \"there is no candidate\");\n         uint votecont ;\n         uint index ;\n         for(uint i =1 ; i<=approvedCandidateCount; i++){\n             if(candidateslist[i].voteCount > votecont){\n                 votecont = candidateslist[i].voteCount;\n                 index = i;\n             }\n         }\n        return(\n            candidateslist[index].name,\n            candidateslist[index].voteCount\n        );   \n     } \n}\n\n\n",
  "sourcePath": "/home/nisamudheen/Desktop/sps/voting_smartcontract/contracts/election.sol",
  "compiler": {
    "name": "solc",
    "version": "0.8.10+commit.fc410830.Emscripten.clang"
  },
  "schemaVersion": "3.4.3",
  "updatedAt": "2021-12-13T04:43:15.983Z",
  "devdoc": {
    "kind": "dev",
    "methods": {},
    "version": 1
  },
  "userdoc": {
    "kind": "user",
    "methods": {},
    "version": 1
  }
}