{
  "contractName": "VoterId",
  "abi": [
    {
      "inputs": [],
      "name": "count",
      "outputs": [
        {
          "internalType": "uint256",
          "name": "",
          "type": "uint256"
        }
      ],
      "stateMutability": "view",
      "type": "function"
    },
    {
      "inputs": [
        {
          "internalType": "uint256",
          "name": "",
          "type": "uint256"
        }
      ],
      "name": "voteridcard",
      "outputs": [
        {
          "internalType": "string",
          "name": "voterName",
          "type": "string"
        },
        {
          "internalType": "uint256",
          "name": "voterWard",
          "type": "uint256"
        },
        {
          "internalType": "uint256",
          "name": "age",
          "type": "uint256"
        },
        {
          "internalType": "uint256",
          "name": "voterIds",
          "type": "uint256"
        }
      ],
      "stateMutability": "view",
      "type": "function"
    },
    {
      "inputs": [
        {
          "internalType": "string",
          "name": "_name",
          "type": "string"
        },
        {
          "internalType": "uint256",
          "name": "_ward",
          "type": "uint256"
        },
        {
          "internalType": "uint256",
          "name": "_age",
          "type": "uint256"
        }
      ],
      "name": "voterIdReg",
      "outputs": [],
      "stateMutability": "nonpayable",
      "type": "function"
    }
  ],
  "bytecode": "0x60806040526103e860005534801561001657600080fd5b50610819806100266000396000f3fe608060405234801561001057600080fd5b50600436106100415760003560e01c806306661abd146100465780637bd0192514610064578063ca6ea96d14610097575b600080fd5b61004e6100b3565b60405161005b9190610311565b60405180910390f35b61007e6004803603810190610079919061036c565b6100b9565b60405161008e9493929190610432565b60405180910390f35b6100b160048036038101906100ac91906105b3565b610171565b005b60015481565b60026020528060005260406000206000915090508060000180546100dc90610651565b80601f016020809104026020016040519081016040528092919081815260200182805461010890610651565b80156101555780601f1061012a57610100808354040283529160200191610155565b820191906000526020600020905b81548152906001019060200180831161013857829003601f168201915b5050505050908060010154908060020154908060030154905084565b60128110156101b5576040517f08c379a00000000000000000000000000000000000000000000000000000000081526004016101ac906106f5565b60405180910390fd5b600160008154809291906101c890610744565b919050555060405180608001604052808481526020018381526020018281526020016001546000546101fa919061078d565b815250600260006001548152602001908152602001600020600082015181600001908051906020019061022e929190610255565b50602082015181600101556040820151816002015560608201518160030155905050505050565b82805461026190610651565b90600052602060002090601f01602090048101928261028357600085556102ca565b82601f1061029c57805160ff19168380011785556102ca565b828001600101855582156102ca579182015b828111156102c95782518255916020019190600101906102ae565b5b5090506102d791906102db565b5090565b5b808211156102f45760008160009055506001016102dc565b5090565b6000819050919050565b61030b816102f8565b82525050565b60006020820190506103266000830184610302565b92915050565b6000604051905090565b600080fd5b600080fd5b610349816102f8565b811461035457600080fd5b50565b60008135905061036681610340565b92915050565b60006020828403121561038257610381610336565b5b600061039084828501610357565b91505092915050565b600081519050919050565b600082825260208201905092915050565b60005b838110156103d35780820151818401526020810190506103b8565b838111156103e2576000848401525b50505050565b6000601f19601f8301169050919050565b600061040482610399565b61040e81856103a4565b935061041e8185602086016103b5565b610427816103e8565b840191505092915050565b6000608082019050818103600083015261044c81876103f9565b905061045b6020830186610302565b6104686040830185610302565b6104756060830184610302565b95945050505050565b600080fd5b600080fd5b7f4e487b7100000000000000000000000000000000000000000000000000000000600052604160045260246000fd5b6104c0826103e8565b810181811067ffffffffffffffff821117156104df576104de610488565b5b80604052505050565b60006104f261032c565b90506104fe82826104b7565b919050565b600067ffffffffffffffff82111561051e5761051d610488565b5b610527826103e8565b9050602081019050919050565b82818337600083830152505050565b600061055661055184610503565b6104e8565b90508281526020810184848401111561057257610571610483565b5b61057d848285610534565b509392505050565b600082601f83011261059a5761059961047e565b5b81356105aa848260208601610543565b91505092915050565b6000806000606084860312156105cc576105cb610336565b5b600084013567ffffffffffffffff8111156105ea576105e961033b565b5b6105f686828701610585565b935050602061060786828701610357565b925050604061061886828701610357565b9150509250925092565b7f4e487b7100000000000000000000000000000000000000000000000000000000600052602260045260246000fd5b6000600282049050600182168061066957607f821691505b6020821081141561067d5761067c610622565b5b50919050565b7f5468697320706572736f6e206973206e6f7420656c696769626c6520666f722060008201527f766f746572732049640000000000000000000000000000000000000000000000602082015250565b60006106df6029836103a4565b91506106ea82610683565b604082019050919050565b6000602082019050818103600083015261070e816106d2565b9050919050565b7f4e487b7100000000000000000000000000000000000000000000000000000000600052601160045260246000fd5b600061074f826102f8565b91507fffffffffffffffffffffffffffffffffffffffffffffffffffffffffffffffff82141561078257610781610715565b5b600182019050919050565b6000610798826102f8565b91506107a3836102f8565b9250827fffffffffffffffffffffffffffffffffffffffffffffffffffffffffffffffff038211156107d8576107d7610715565b5b82820190509291505056fea2646970667358221220777e0c138c560aa5009b2b6a87621ff410e0a229bd9385989470a6458c244a1764736f6c634300080a0033",
  "immutableReferences": {},
  "source": "// SPDX-License-Identifier: GPL-3.0\npragma solidity ^0.8.7;\n\ncontract VoterId{\n struct voterIdcard{\n        string voterName;\n        uint voterWard;\n        uint age;\n        uint voterIds;\n    }\n    uint num = 1000;\n    uint public count ;\n    mapping (uint => voterIdcard) public voteridcard;\n\n    function voterIdReg(\n        string memory _name,\n        uint _ward,\n        uint _age \n    ) \n        public\n    {\n        require(\n            _age >= 18,\n            \"This person is not eligible for voters Id\"\n        );\n        count++;\n        voteridcard[count] = voterIdcard(\n            _name,\n            _ward,\n            _age,\n            num+count\n        );\n    }\n}\n\ncontract Election is VoterId{\n    address public authority;\n    constructor(){\n        authority = msg.sender;\n    }\n     struct Voter{\n        uint index;\n        string voterName;\n        uint voterWard;\n        address voterAddress;\n        bool verify;\n        uint voterId;\n    }\n    struct  Candidate{\n        uint CandidateId;\n        string name;\n        uint ward;\n        uint voteCount;\n        address id;\n        uint VoterId;\n        candidateStatus  status;   \n    } \n    enum candidateStatus {pending, approved, rejected}\n    mapping(address => bool) public votes;\n    mapping (uint => Voter) public voter;\n    mapping (uint  => Candidate) public candidateReg;\n    mapping (uint  => Candidate) public candidatelist;\n    mapping (address => uint ) public voterlogin;\n    mapping (address => uint) public candidatelogin;\n    uint public candidateCount;\n    uint public voterCount;\n    uint public approvedCandidateCount;\n \n    modifier authorization(){\n        require(msg.sender == authority,\"authority can only call this function\");\n        _;\n    }\n    \n    function voterRegistration(\n        string memory _name, \n        uint _ward, \n        uint _voterId \n    ) \n        public\n    {\n        for(uint i = 1001; i <= 1000+ voterCount; i++ ){\n            if(voter[i].voterAddress == msg.sender){\n                revert(\"already created\");\n            }\n        }\n        voterCount++;\n        voter[_voterId] = Voter(\n            voterCount,\n            _name,\n            _ward,\n            msg.sender,\n            false,\n            _voterId\n        );\n        voterlogin[msg.sender] = _voterId;\n    }\n\n    function voterVerify(uint _voterId) public authorization {\n            if(voter[_voterId].verify == true){\n                revert(\"already verify\");\n            }\n            else if(_voterId <= 1000 || _voterId > 1000+count  ){\n                revert(\"voter not found\");\n            }   \n            for(uint i =1; i<= count ; i++){\n                 if(voter[_voterId].voterId == voteridcard[i].voterIds){\n                  voter[_voterId].verify = true;\n            } \n\n            }\n           \n                  \n    }\n\n    function applyForCantidate()public{\n           for(uint j=1 ; j<=candidateCount;j++){\n             if(candidateReg[j].id == msg.sender ){\n                 revert(\"same candidate can't be addd\");\n             }\n         }\n         for(uint i=1001; i<= 1000+voterCount; i++ ){           \n                if(voter[i].voterAddress == msg.sender && voter[i].verify == true){\n                    candidateCount++;\n                    candidateStatus _candidateStatus = candidateStatus.pending;\n                    candidateReg[candidateCount] = Candidate(\n                        candidateCount,\n                        voter[i].voterName,\n                        voter[i].voterWard,\n                        0,\n                        voter[i].voterAddress, \n                        voter[i].voterId, \n                        _candidateStatus\n                    );\n\n                }          \n        } \n    }\n\n    function approveCadidedress(address _voteraddress) public authorization {\n         for(uint j=1 ; j<=approvedCandidateCount;j++){\n             if(candidatelist[j].id == _voteraddress){\n                 revert(\"already aproved\");\n             }\n         }\n        for(uint i=1; i<= candidateCount; i++ ){\n            if(candidateReg[i].id == _voteraddress){\n                for(uint j =1; j<= count; j++){\n                    if( candidateReg[i].ward == voteridcard[j].voterWard && candidateReg[i].VoterId == voteridcard[j].voterIds){\n                        approvedCandidateCount++;\n                        candidateStatus _candidateStatus = candidateStatus.approved;\n                        candidateReg[i] = Candidate(candidateCount, candidateReg[i].name,candidateReg[i].ward,0,msg.sender, candidateReg[i].VoterId, _candidateStatus);\n                        candidatelist[approvedCandidateCount] = Candidate(\n                            approvedCandidateCount, \n                            candidateReg[i].name,\n                            candidateReg[i].ward,\n                            0,\n                            _voteraddress, \n                            candidateReg[i].VoterId, \n                            _candidateStatus\n                        );  \n                        candidatelogin[msg.sender] = i;  \n                    }\n                }\n            }\n        }\n     }\n\n     function result() public view returns(string memory , uint ){\n         require(approvedCandidateCount>=1, \"there is no candidate\");\n         uint votecont ;\n         uint index ;\n         for(uint i =1 ; i<=approvedCandidateCount; i++){\n             if(candidatelist[i].voteCount > votecont){\n                 votecont = candidatelist[i].voteCount;\n                 index = i ;\n             }\n         }\n        return(\n            candidatelist[index].name,\n            candidatelist[index].voteCount\n        );   \n     } \n}\n\n\n",
  "sourcePath": "/home/nisamudheen/Desktop/sps/voting_smartcontract/contracts/election.sol",
  "compiler": {
    "name": "solc",
    "version": "0.8.10+commit.fc410830.Emscripten.clang"
  },
  "schemaVersion": "3.4.3",
  "updatedAt": "2021-12-25T04:29:03.406Z",
  "devdoc": {
    "kind": "dev",
    "methods": {},
    "version": 1
  },
  "userdoc": {
    "kind": "user",
    "methods": {},
    "version": 1
  }
}