{
  "contractName": "Voteing",
  "abi": [
    {
      "inputs": [
        {
          "internalType": "address",
          "name": "_voteraddress",
          "type": "address"
        },
        {
          "internalType": "string",
          "name": "_remark",
          "type": "string"
        }
      ],
      "name": "RejectedCadidedress",
      "outputs": [],
      "stateMutability": "nonpayable",
      "type": "function"
    },
    {
      "inputs": [
        {
          "internalType": "uint256",
          "name": "_voterRegId",
          "type": "uint256"
        }
      ],
      "name": "allocateId",
      "outputs": [],
      "stateMutability": "nonpayable",
      "type": "function"
    },
    {
      "inputs": [
        {
          "internalType": "address",
          "name": "_voteraddress",
          "type": "address"
        },
        {
          "internalType": "string",
          "name": "_remark",
          "type": "string"
        }
      ],
      "name": "approveCadidedress",
      "outputs": [],
      "stateMutability": "nonpayable",
      "type": "function"
    },
    {
      "inputs": [],
      "name": "approvedCandidateCount",
      "outputs": [
        {
          "internalType": "uint256",
          "name": "",
          "type": "uint256"
        }
      ],
      "stateMutability": "view",
      "type": "function",
      "constant": true
    },
    {
      "inputs": [],
      "name": "authority",
      "outputs": [
        {
          "internalType": "address",
          "name": "",
          "type": "address"
        }
      ],
      "stateMutability": "view",
      "type": "function",
      "constant": true
    },
    {
      "inputs": [],
      "name": "candidateCount",
      "outputs": [
        {
          "internalType": "uint256",
          "name": "",
          "type": "uint256"
        }
      ],
      "stateMutability": "view",
      "type": "function",
      "constant": true
    },
    {
      "inputs": [
        {
          "internalType": "uint256",
          "name": "",
          "type": "uint256"
        }
      ],
      "name": "candidateReg",
      "outputs": [
        {
          "internalType": "uint256",
          "name": "CandidateRegId",
          "type": "uint256"
        },
        {
          "internalType": "string",
          "name": "name",
          "type": "string"
        },
        {
          "internalType": "uint256",
          "name": "ward",
          "type": "uint256"
        },
        {
          "internalType": "address",
          "name": "id",
          "type": "address"
        },
        {
          "internalType": "uint256",
          "name": "vote",
          "type": "uint256"
        },
        {
          "internalType": "uint256",
          "name": "VoterId",
          "type": "uint256"
        },
        {
          "internalType": "enum Election.candidateStatus",
          "name": "status",
          "type": "uint8"
        },
        {
          "internalType": "string",
          "name": "remark",
          "type": "string"
        }
      ],
      "stateMutability": "view",
      "type": "function",
      "constant": true
    },
    {
      "inputs": [
        {
          "internalType": "uint256",
          "name": "",
          "type": "uint256"
        }
      ],
      "name": "candidatelist",
      "outputs": [
        {
          "internalType": "uint256",
          "name": "CandidateRegId",
          "type": "uint256"
        },
        {
          "internalType": "string",
          "name": "name",
          "type": "string"
        },
        {
          "internalType": "uint256",
          "name": "ward",
          "type": "uint256"
        },
        {
          "internalType": "address",
          "name": "id",
          "type": "address"
        },
        {
          "internalType": "uint256",
          "name": "vote",
          "type": "uint256"
        },
        {
          "internalType": "uint256",
          "name": "VoterId",
          "type": "uint256"
        },
        {
          "internalType": "enum Election.candidateStatus",
          "name": "status",
          "type": "uint8"
        },
        {
          "internalType": "string",
          "name": "remark",
          "type": "string"
        }
      ],
      "stateMutability": "view",
      "type": "function",
      "constant": true
    },
    {
      "inputs": [
        {
          "internalType": "address",
          "name": "",
          "type": "address"
        }
      ],
      "name": "candidatelogin",
      "outputs": [
        {
          "internalType": "uint256",
          "name": "",
          "type": "uint256"
        }
      ],
      "stateMutability": "view",
      "type": "function",
      "constant": true
    },
    {
      "inputs": [
        {
          "internalType": "string",
          "name": "_name",
          "type": "string"
        },
        {
          "internalType": "uint256",
          "name": "_ward",
          "type": "uint256"
        },
        {
          "internalType": "uint256",
          "name": "_voterId",
          "type": "uint256"
        }
      ],
      "name": "cantidateRegistration",
      "outputs": [],
      "stateMutability": "nonpayable",
      "type": "function"
    },
    {
      "inputs": [],
      "name": "result",
      "outputs": [
        {
          "internalType": "string",
          "name": "",
          "type": "string"
        },
        {
          "internalType": "uint256",
          "name": "",
          "type": "uint256"
        },
        {
          "internalType": "uint256",
          "name": "",
          "type": "uint256"
        }
      ],
      "stateMutability": "view",
      "type": "function",
      "constant": true
    },
    {
      "inputs": [
        {
          "internalType": "uint256",
          "name": "",
          "type": "uint256"
        }
      ],
      "name": "voter",
      "outputs": [
        {
          "internalType": "uint256",
          "name": "RegId",
          "type": "uint256"
        },
        {
          "internalType": "string",
          "name": "voterName",
          "type": "string"
        },
        {
          "internalType": "uint256",
          "name": "voterWard",
          "type": "uint256"
        },
        {
          "internalType": "address",
          "name": "voterAddress",
          "type": "address"
        },
        {
          "internalType": "uint256",
          "name": "voterId",
          "type": "uint256"
        },
        {
          "internalType": "bool",
          "name": "status",
          "type": "bool"
        }
      ],
      "stateMutability": "view",
      "type": "function",
      "constant": true
    },
    {
      "inputs": [],
      "name": "voterCount",
      "outputs": [
        {
          "internalType": "uint256",
          "name": "",
          "type": "uint256"
        }
      ],
      "stateMutability": "view",
      "type": "function",
      "constant": true
    },
    {
      "inputs": [
        {
          "internalType": "string",
          "name": "_name",
          "type": "string"
        },
        {
          "internalType": "uint256",
          "name": "_ward",
          "type": "uint256"
        }
      ],
      "name": "voterRegistration",
      "outputs": [],
      "stateMutability": "nonpayable",
      "type": "function"
    },
    {
      "inputs": [
        {
          "internalType": "address",
          "name": "",
          "type": "address"
        }
      ],
      "name": "voterlogin",
      "outputs": [
        {
          "internalType": "uint256",
          "name": "",
          "type": "uint256"
        }
      ],
      "stateMutability": "view",
      "type": "function",
      "constant": true
    },
    {
      "inputs": [
        {
          "internalType": "address",
          "name": "",
          "type": "address"
        }
      ],
      "name": "votes",
      "outputs": [
        {
          "internalType": "bool",
          "name": "",
          "type": "bool"
        }
      ],
      "stateMutability": "view",
      "type": "function",
      "constant": true
    },
    {
      "inputs": [
        {
          "internalType": "uint256",
          "name": "candidateId",
          "type": "uint256"
        }
      ],
      "name": "vote",
      "outputs": [],
      "stateMutability": "nonpayable",
      "type": "function"
    }
  ],
  "bytecode": "0x60806040526103e8600a5534801561001657600080fd5b50336000806101000a81548173ffffffffffffffffffffffffffffffffffffffff021916908373ffffffffffffffffffffffffffffffffffffffff160217905550612c6f806100666000396000f3fe608060405234801561001057600080fd5b506004361061010b5760003560e01c8063911eb81d116100a2578063bcaf189b11610071578063bcaf189b146102b2578063bf7e214f146102e9578063d8bff5a514610307578063e749ee4814610337578063f22e9d0b146103675761010b565b8063911eb81d1461020c578063a9a981a314610243578063ab8ed1ba14610261578063b1c63ed0146102965761010b565b80634bc81946116100de5780634bc81946146101825780635f4e5628146101b257806365372147146101ce5780637400df71146101ee5761010b565b80630121b93f14610110578063032071f41461012c5780630ceab5a91461014857806342169e4814610164575b600080fd5b61012a60048036038101906101259190611ffe565b610383565b005b61014660048036038101906101419190612171565b61061d565b005b610162600480360381019061015d919061223e565b6109ad565b005b61016c610e31565b60405161017991906122a9565b60405180910390f35b61019c600480360381019061019791906122c4565b610e37565b6040516101a991906122a9565b60405180910390f35b6101cc60048036038101906101c7919061223e565b610e4f565b005b6101d6611537565b6040516101e593929190612379565b60405180910390f35b6101f66116c1565b60405161020391906122a9565b60405180910390f35b61022660048036038101906102219190611ffe565b6116c7565b60405161023a98979695949392919061243d565b60405180910390f35b61024b61184c565b60405161025891906122a9565b60405180910390f35b61027b60048036038101906102769190611ffe565b611852565b60405161028d969594939291906124e4565b60405180910390f35b6102b060048036038101906102ab919061254c565b611943565b005b6102cc60048036038101906102c79190611ffe565b611b71565b6040516102e098979695949392919061243d565b60405180910390f35b6102f1611cf6565b6040516102fe91906125a8565b60405180910390f35b610321600480360381019061031c91906122c4565b611d1a565b60405161032e91906125c3565b60405180910390f35b610351600480360381019061034c91906122c4565b611d3a565b60405161035e91906122a9565b60405180910390f35b610381600480360381019061037c9190611ffe565b611d52565b005b60008111801561039557506009548111155b6103d4576040517f08c379a00000000000000000000000000000000000000000000000000000000081526004016103cb9061262a565b60405180910390fd5b600160003373ffffffffffffffffffffffffffffffffffffffff1673ffffffffffffffffffffffffffffffffffffffff16815260200190815260200160002060009054906101000a900460ff1615610461576040517f08c379a000000000000000000000000000000000000000000000000000000000815260040161045890612696565b60405180910390fd5b6000600190505b6008548111610619573373ffffffffffffffffffffffffffffffffffffffff166002600083815260200190815260200160002060030160009054906101000a900473ffffffffffffffffffffffffffffffffffffffff1673ffffffffffffffffffffffffffffffffffffffff161415610606576004600083815260200190815260200160002060020154600260008381526020019081526020016000206002015414801561053d5750600115156002600083815260200190815260200160002060050160009054906101000a900460ff161515145b156105ca5760018060003373ffffffffffffffffffffffffffffffffffffffff1673ffffffffffffffffffffffffffffffffffffffff16815260200190815260200160002060006101000a81548160ff0219169083151502179055506004600083815260200190815260200160002060040160008154809291906105c0906126e5565b9190505550610605565b6040517f08c379a00000000000000000000000000000000000000000000000000000000081526004016105fc906127a0565b60405180910390fd5b5b8080610611906126e5565b915050610468565b5050565b6000600190505b60075481116106e5573373ffffffffffffffffffffffffffffffffffffffff166003600083815260200190815260200160002060030160009054906101000a900473ffffffffffffffffffffffffffffffffffffffff1673ffffffffffffffffffffffffffffffffffffffff1614156106d2576040517f08c379a00000000000000000000000000000000000000000000000000000000081526004016106c990612832565b60405180910390fd5b80806106dd906126e5565b915050610624565b506000600190505b60085481116107e1573373ffffffffffffffffffffffffffffffffffffffff166002600083815260200190815260200160002060030160009054906101000a900473ffffffffffffffffffffffffffffffffffffffff1673ffffffffffffffffffffffffffffffffffffffff1614801561078e5750600015156002600083815260200190815260200160002060050160009054906101000a900460ff161515145b156107ce576040517f08c379a00000000000000000000000000000000000000000000000000000000081526004016107c59061289e565b60405180910390fd5b80806107d9906126e5565b9150506106ed565b50600760008154809291906107f5906126e5565b9190505550600060405180610100016040528060075481526020018581526020018481526020013373ffffffffffffffffffffffffffffffffffffffff16815260200160008152602001838152602001826002811115610858576108576123c6565b5b8152602001604051806020016040528060008152508152506003600060075481526020019081526020016000206000820151816000015560208201518160010190805190602001906108ab929190611f11565b506040820151816002015560608201518160030160006101000a81548173ffffffffffffffffffffffffffffffffffffffff021916908373ffffffffffffffffffffffffffffffffffffffff1602179055506080820151816004015560a0820151816005015560c08201518160060160006101000a81548160ff0219169083600281111561093c5761093b6123c6565b5b021790555060e082015181600701908051906020019061095d929190611f11565b50905050600754600660003373ffffffffffffffffffffffffffffffffffffffff1673ffffffffffffffffffffffffffffffffffffffff1681526020019081526020016000208190555050505050565b60008054906101000a900473ffffffffffffffffffffffffffffffffffffffff1673ffffffffffffffffffffffffffffffffffffffff163373ffffffffffffffffffffffffffffffffffffffff1614610a3b576040517f08c379a0000000000000000000000000000000000000000000000000000000008152600401610a3290612930565b60405180910390fd5b6000600190505b6009548111610b03578273ffffffffffffffffffffffffffffffffffffffff166004600083815260200190815260200160002060030160009054906101000a900473ffffffffffffffffffffffffffffffffffffffff1673ffffffffffffffffffffffffffffffffffffffff161415610af0576040517f08c379a0000000000000000000000000000000000000000000000000000000008152600401610ae79061299c565b60405180910390fd5b8080610afb906126e5565b915050610a42565b50600080600190505b6007548111610de8578373ffffffffffffffffffffffffffffffffffffffff166003600083815260200190815260200160002060030160009054906101000a900473ffffffffffffffffffffffffffffffffffffffff1673ffffffffffffffffffffffffffffffffffffffff161415610dd55760096000815480929190610b92906126e5565b919050555060006002905060405180610100016040528060036000858152602001908152602001600020600001548152602001600360008581526020019081526020016000206001018054610be6906129eb565b80601f0160208091040260200160405190810160405280929190818152602001828054610c12906129eb565b8015610c5f5780601f10610c3457610100808354040283529160200191610c5f565b820191906000526020600020905b815481529060010190602001808311610c4257829003601f168201915b50505050508152602001600360008581526020019081526020016000206002015481526020018673ffffffffffffffffffffffffffffffffffffffff1681526020016000815260200160036000858152602001908152602001600020600501548152602001826002811115610cd757610cd66123c6565b5b81526020018581525060036000848152602001908152602001600020600082015181600001556020820151816001019080519060200190610d19929190611f11565b506040820151816002015560608201518160030160006101000a81548173ffffffffffffffffffffffffffffffffffffffff021916908373ffffffffffffffffffffffffffffffffffffffff1602179055506080820151816004015560a0820151816005015560c08201518160060160006101000a81548160ff02191690836002811115610daa57610da96123c6565b5b021790555060e0820151816007019080519060200190610dcb929190611f11565b5090505060019250505b8080610de0906126e5565b915050610b0c565b5060018114610e2c576040517f08c379a0000000000000000000000000000000000000000000000000000000008152600401610e2390612a69565b60405180910390fd5b505050565b60085481565b60056020528060005260406000206000915090505481565b60008054906101000a900473ffffffffffffffffffffffffffffffffffffffff1673ffffffffffffffffffffffffffffffffffffffff163373ffffffffffffffffffffffffffffffffffffffff1614610edd576040517f08c379a0000000000000000000000000000000000000000000000000000000008152600401610ed490612930565b60405180910390fd5b6000600190505b6009548111610fa5578273ffffffffffffffffffffffffffffffffffffffff166004600083815260200190815260200160002060030160009054906101000a900473ffffffffffffffffffffffffffffffffffffffff1673ffffffffffffffffffffffffffffffffffffffff161415610f92576040517f08c379a0000000000000000000000000000000000000000000000000000000008152600401610f899061299c565b60405180910390fd5b8080610f9d906126e5565b915050610ee4565b50600080600190505b60075481116114ee578373ffffffffffffffffffffffffffffffffffffffff166003600083815260200190815260200160002060030160009054906101000a900473ffffffffffffffffffffffffffffffffffffffff1673ffffffffffffffffffffffffffffffffffffffff1614156114db5760096000815480929190611034906126e5565b919050555060006001905060405180610100016040528060036000858152602001908152602001600020600001548152602001600360008581526020019081526020016000206001018054611088906129eb565b80601f01602080910402602001604051908101604052809291908181526020018280546110b4906129eb565b80156111015780601f106110d657610100808354040283529160200191611101565b820191906000526020600020905b8154815290600101906020018083116110e457829003601f168201915b50505050508152602001600360008581526020019081526020016000206002015481526020018673ffffffffffffffffffffffffffffffffffffffff1681526020016000815260200160036000858152602001908152602001600020600501548152602001826002811115611179576111786123c6565b5b815260200185815250600360008481526020019081526020016000206000820151816000015560208201518160010190805190602001906111bb929190611f11565b506040820151816002015560608201518160030160006101000a81548173ffffffffffffffffffffffffffffffffffffffff021916908373ffffffffffffffffffffffffffffffffffffffff1602179055506080820151816004015560a0820151816005015560c08201518160060160006101000a81548160ff0219169083600281111561124c5761124b6123c6565b5b021790555060e082015181600701908051906020019061126d929190611f11565b5090505060405180610100016040528060095481526020016003600085815260200190815260200160002060010180546112a6906129eb565b80601f01602080910402602001604051908101604052809291908181526020018280546112d2906129eb565b801561131f5780601f106112f45761010080835404028352916020019161131f565b820191906000526020600020905b81548152906001019060200180831161130257829003601f168201915b50505050508152602001600360008581526020019081526020016000206002015481526020018673ffffffffffffffffffffffffffffffffffffffff1681526020016000815260200160036000858152602001908152602001600020600501548152602001826002811115611397576113966123c6565b5b8152602001858152506004600060095481526020019081526020016000206000820151816000015560208201518160010190805190602001906113db929190611f11565b506040820151816002015560608201518160030160006101000a81548173ffffffffffffffffffffffffffffffffffffffff021916908373ffffffffffffffffffffffffffffffffffffffff1602179055506080820151816004015560a0820151816005015560c08201518160060160006101000a81548160ff0219169083600281111561146c5761146b6123c6565b5b021790555060e082015181600701908051906020019061148d929190611f11565b5090505081600660008773ffffffffffffffffffffffffffffffffffffffff1673ffffffffffffffffffffffffffffffffffffffff1681526020019081526020016000208190555060019250505b80806114e6906126e5565b915050610fae565b5060018114611532576040517f08c379a000000000000000000000000000000000000000000000000000000000815260040161152990612a69565b60405180910390fd5b505050565b606060008060016009541015611582576040517f08c379a000000000000000000000000000000000000000000000000000000000815260040161157990612ad5565b60405180910390fd5b6000806000600190505b60095481116115e35782600460008381526020019081526020016000206004015411156115d057600460008281526020019081526020016000206004015492508091505b80806115db906126e5565b91505061158c565b506004600082815260200190815260200160002060010160046000838152602001908152602001600020600401546004600084815260200190815260200160002060020154828054611634906129eb565b80601f0160208091040260200160405190810160405280929190818152602001828054611660906129eb565b80156116ad5780601f10611682576101008083540402835291602001916116ad565b820191906000526020600020905b81548152906001019060200180831161169057829003601f168201915b505050505092509450945094505050909192565b60095481565b60046020528060005260406000206000915090508060000154908060010180546116f0906129eb565b80601f016020809104026020016040519081016040528092919081815260200182805461171c906129eb565b80156117695780601f1061173e57610100808354040283529160200191611769565b820191906000526020600020905b81548152906001019060200180831161174c57829003601f168201915b5050505050908060020154908060030160009054906101000a900473ffffffffffffffffffffffffffffffffffffffff16908060040154908060050154908060060160009054906101000a900460ff16908060070180546117c9906129eb565b80601f01602080910402602001604051908101604052809291908181526020018280546117f5906129eb565b80156118425780601f1061181757610100808354040283529160200191611842565b820191906000526020600020905b81548152906001019060200180831161182557829003601f168201915b5050505050905088565b60075481565b600260205280600052604060002060009150905080600001549080600101805461187b906129eb565b80601f01602080910402602001604051908101604052809291908181526020018280546118a7906129eb565b80156118f45780601f106118c9576101008083540402835291602001916118f4565b820191906000526020600020905b8154815290600101906020018083116118d757829003601f168201915b5050505050908060020154908060030160009054906101000a900473ffffffffffffffffffffffffffffffffffffffff16908060040154908060050160009054906101000a900460ff16905086565b6000600190505b6008548111611a0b573373ffffffffffffffffffffffffffffffffffffffff166002600083815260200190815260200160002060030160009054906101000a900473ffffffffffffffffffffffffffffffffffffffff1673ffffffffffffffffffffffffffffffffffffffff1614156119f8576040517f08c379a00000000000000000000000000000000000000000000000000000000081526004016119ef90612b41565b60405180910390fd5b8080611a03906126e5565b91505061194a565b5060086000815480929190611a1f906126e5565b91905055506040518060c0016040528060085481526020018381526020018281526020013373ffffffffffffffffffffffffffffffffffffffff1681526020016001815260200160001515815250600260006008548152602001908152602001600020600082015181600001556020820151816001019080519060200190611aa8929190611f11565b506040820151816002015560608201518160030160006101000a81548173ffffffffffffffffffffffffffffffffffffffff021916908373ffffffffffffffffffffffffffffffffffffffff1602179055506080820151816004015560a08201518160050160006101000a81548160ff021916908315150217905550905050600854600560003373ffffffffffffffffffffffffffffffffffffffff1673ffffffffffffffffffffffffffffffffffffffff168152602001908152602001600020819055505050565b6003602052806000526040600020600091509050806000015490806001018054611b9a906129eb565b80601f0160208091040260200160405190810160405280929190818152602001828054611bc6906129eb565b8015611c135780601f10611be857610100808354040283529160200191611c13565b820191906000526020600020905b815481529060010190602001808311611bf657829003601f168201915b5050505050908060020154908060030160009054906101000a900473ffffffffffffffffffffffffffffffffffffffff16908060040154908060050154908060060160009054906101000a900460ff1690806007018054611c73906129eb565b80601f0160208091040260200160405190810160405280929190818152602001828054611c9f906129eb565b8015611cec5780601f10611cc157610100808354040283529160200191611cec565b820191906000526020600020905b815481529060010190602001808311611ccf57829003601f168201915b5050505050905088565b60008054906101000a900473ffffffffffffffffffffffffffffffffffffffff1681565b60016020528060005260406000206000915054906101000a900460ff1681565b60066020528060005260406000206000915090505481565b60008054906101000a900473ffffffffffffffffffffffffffffffffffffffff1673ffffffffffffffffffffffffffffffffffffffff163373ffffffffffffffffffffffffffffffffffffffff1614611de0576040517f08c379a0000000000000000000000000000000000000000000000000000000008152600401611dd790612930565b60405180910390fd5b600115156002600083815260200190815260200160002060050160009054906101000a900460ff1615151415611e4b576040517f08c379a0000000000000000000000000000000000000000000000000000000008152600401611e4290612bad565b60405180910390fd5b600160026000838152602001908152602001600020600401541415611ed357600a6000815480929190611e7d906126e5565b9190505550600a54600260008381526020019081526020016000206004018190555060016002600083815260200190815260200160002060050160006101000a81548160ff021916908315150217905550611f0e565b6040517f08c379a0000000000000000000000000000000000000000000000000000000008152600401611f0590612c19565b60405180910390fd5b50565b828054611f1d906129eb565b90600052602060002090601f016020900481019282611f3f5760008555611f86565b82601f10611f5857805160ff1916838001178555611f86565b82800160010185558215611f86579182015b82811115611f85578251825591602001919060010190611f6a565b5b509050611f939190611f97565b5090565b5b80821115611fb0576000816000905550600101611f98565b5090565b6000604051905090565b600080fd5b600080fd5b6000819050919050565b611fdb81611fc8565b8114611fe657600080fd5b50565b600081359050611ff881611fd2565b92915050565b60006020828403121561201457612013611fbe565b5b600061202284828501611fe9565b91505092915050565b600080fd5b600080fd5b6000601f19601f8301169050919050565b7f4e487b7100000000000000000000000000000000000000000000000000000000600052604160045260246000fd5b61207e82612035565b810181811067ffffffffffffffff8211171561209d5761209c612046565b5b80604052505050565b60006120b0611fb4565b90506120bc8282612075565b919050565b600067ffffffffffffffff8211156120dc576120db612046565b5b6120e582612035565b9050602081019050919050565b82818337600083830152505050565b600061211461210f846120c1565b6120a6565b9050828152602081018484840111156121305761212f612030565b5b61213b8482856120f2565b509392505050565b600082601f8301126121585761215761202b565b5b8135612168848260208601612101565b91505092915050565b60008060006060848603121561218a57612189611fbe565b5b600084013567ffffffffffffffff8111156121a8576121a7611fc3565b5b6121b486828701612143565b93505060206121c586828701611fe9565b92505060406121d686828701611fe9565b9150509250925092565b600073ffffffffffffffffffffffffffffffffffffffff82169050919050565b600061220b826121e0565b9050919050565b61221b81612200565b811461222657600080fd5b50565b60008135905061223881612212565b92915050565b6000806040838503121561225557612254611fbe565b5b600061226385828601612229565b925050602083013567ffffffffffffffff81111561228457612283611fc3565b5b61229085828601612143565b9150509250929050565b6122a381611fc8565b82525050565b60006020820190506122be600083018461229a565b92915050565b6000602082840312156122da576122d9611fbe565b5b60006122e884828501612229565b91505092915050565b600081519050919050565b600082825260208201905092915050565b60005b8381101561232b578082015181840152602081019050612310565b8381111561233a576000848401525b50505050565b600061234b826122f1565b61235581856122fc565b935061236581856020860161230d565b61236e81612035565b840191505092915050565b600060608201905081810360008301526123938186612340565b90506123a2602083018561229a565b6123af604083018461229a565b949350505050565b6123c081612200565b82525050565b7f4e487b7100000000000000000000000000000000000000000000000000000000600052602160045260246000fd5b60038110612406576124056123c6565b5b50565b6000819050612417826123f5565b919050565b600061242782612409565b9050919050565b6124378161241c565b82525050565b600061010082019050612453600083018b61229a565b8181036020830152612465818a612340565b9050612474604083018961229a565b61248160608301886123b7565b61248e608083018761229a565b61249b60a083018661229a565b6124a860c083018561242e565b81810360e08301526124ba8184612340565b90509998505050505050505050565b60008115159050919050565b6124de816124c9565b82525050565b600060c0820190506124f9600083018961229a565b818103602083015261250b8188612340565b905061251a604083018761229a565b61252760608301866123b7565b612534608083018561229a565b61254160a08301846124d5565b979650505050505050565b6000806040838503121561256357612562611fbe565b5b600083013567ffffffffffffffff81111561258157612580611fc3565b5b61258d85828601612143565b925050602061259e85828601611fe9565b9150509250929050565b60006020820190506125bd60008301846123b7565b92915050565b60006020820190506125d860008301846124d5565b92915050565b7f696e76616c696465207573657200000000000000000000000000000000000000600082015250565b6000612614600d836122fc565b915061261f826125de565b602082019050919050565b6000602082019050818103600083015261264381612607565b9050919050565b7f796f752061726520616c726561647920766f7465640000000000000000000000600082015250565b60006126806015836122fc565b915061268b8261264a565b602082019050919050565b600060208201905081810360008301526126af81612673565b9050919050565b7f4e487b7100000000000000000000000000000000000000000000000000000000600052601160045260246000fd5b60006126f082611fc8565b91507fffffffffffffffffffffffffffffffffffffffffffffffffffffffffffffffff821415612723576127226126b6565b5b600182019050919050565b7f796f752063616e277420766f746520616e6f7468657220776172642063616e6460008201527f6964617465000000000000000000000000000000000000000000000000000000602082015250565b600061278a6025836122fc565b91506127958261272e565b604082019050919050565b600060208201905081810360008301526127b98161277d565b9050919050565b7f73616d652063616e6469646174652063616e277420626520726567697374657260008201527f20616761696e0000000000000000000000000000000000000000000000000000602082015250565b600061281c6026836122fc565b9150612827826127c0565b604082019050919050565b6000602082019050818103600083015261284b8161280f565b9050919050565b7f566f746572206973206e6f742076657269666965640000000000000000000000600082015250565b60006128886015836122fc565b915061289382612852565b602082019050919050565b600060208201905081810360008301526128b78161287b565b9050919050565b7f617574686f726974792063616e206f6e6c792063616c6c20746869732066756e60008201527f6374696f6e000000000000000000000000000000000000000000000000000000602082015250565b600061291a6025836122fc565b9150612925826128be565b604082019050919050565b600060208201905081810360008301526129498161290d565b9050919050565b7f616c7265616479206170726f7665640000000000000000000000000000000000600082015250565b6000612986600f836122fc565b915061299182612950565b602082019050919050565b600060208201905081810360008301526129b581612979565b9050919050565b7f4e487b7100000000000000000000000000000000000000000000000000000000600052602260045260246000fd5b60006002820490506001821680612a0357607f821691505b60208210811415612a1757612a166129bc565b5b50919050565b7f74686572206973206e6f20737563682063616e64696461746500000000000000600082015250565b6000612a536019836122fc565b9150612a5e82612a1d565b602082019050919050565b60006020820190508181036000830152612a8281612a46565b9050919050565b7f7468657265206973206e6f2063616e6469646174650000000000000000000000600082015250565b6000612abf6015836122fc565b9150612aca82612a89565b602082019050919050565b60006020820190508181036000830152612aee81612ab2565b9050919050565b7f616c726561647920637265617465640000000000000000000000000000000000600082015250565b6000612b2b600f836122fc565b9150612b3682612af5565b602082019050919050565b60006020820190508181036000830152612b5a81612b1e565b9050919050565b7f416c726561647920766f74657220494420416c6c6f6361746564200000000000600082015250565b6000612b97601b836122fc565b9150612ba282612b61565b602082019050919050565b60006020820190508181036000830152612bc681612b8a565b9050919050565b7f4669737420796f75206e65656420746f20726567697374657200000000000000600082015250565b6000612c036019836122fc565b9150612c0e82612bcd565b602082019050919050565b60006020820190508181036000830152612c3281612bf6565b905091905056fea26469706673582212209aef26896584309be5b8b5a6e128f79b848a05992b9524d6befb5976e8e12ae264736f6c634300080a0033",
  "immutableReferences": {},
  "source": "// SPDX-License-Identifier: GPL-3.0\npragma solidity ^0.8.7;\n\nimport \"./election.sol\";\n\ncontract Voteing is Election{\n     function vote(uint candidateId) public {\n        require(candidateId > 0 && candidateId <=  approvedCandidateCount, \"invalide user\");\n        require(!votes[msg.sender], \"you are already voted\");\n        \n        for(uint i=1; i<=voterCount; i++ ){\n            if(voter[i].voterAddress == msg.sender){\n                if(voter[i].voterWard == candidatelist[candidateId].ward && voter[i].status == true){\n                     votes[msg.sender] = true;\n                      candidatelist[candidateId].vote++;\n                }else{\n                    revert(\"you can't vote another ward candidate\");\n                }       \n            }\n        }\n    }\n}",
  "sourcePath": "/home/nisamudheen/Desktop/sps/voting_smartcontract/contracts/Voting.sol",
  "compiler": {
    "name": "solc",
    "version": "0.8.10+commit.fc410830.Emscripten.clang"
  },
  "schemaVersion": "3.4.3",
  "updatedAt": "2021-12-31T03:14:07.058Z",
  "networkType": "ethereum",
  "devdoc": {
    "kind": "dev",
    "methods": {},
    "version": 1
  },
  "userdoc": {
    "kind": "user",
    "methods": {},
    "version": 1
  }
}