{
  "contractName": "Voteing",
  "abi": [
    {
      "inputs": [],
      "name": "applyForCantidate",
      "outputs": [],
      "stateMutability": "nonpayable",
      "type": "function"
    },
    {
      "inputs": [
        {
          "internalType": "address",
          "name": "_voteraddress",
          "type": "address"
        }
      ],
      "name": "approveCadidedress",
      "outputs": [],
      "stateMutability": "nonpayable",
      "type": "function"
    },
    {
      "inputs": [],
      "name": "approvedCandidateCount",
      "outputs": [
        {
          "internalType": "uint256",
          "name": "",
          "type": "uint256"
        }
      ],
      "stateMutability": "view",
      "type": "function",
      "constant": true
    },
    {
      "inputs": [],
      "name": "candedatesCount",
      "outputs": [
        {
          "internalType": "uint256",
          "name": "",
          "type": "uint256"
        }
      ],
      "stateMutability": "view",
      "type": "function",
      "constant": true
    },
    {
      "inputs": [
        {
          "internalType": "uint256",
          "name": "",
          "type": "uint256"
        }
      ],
      "name": "candidateReg",
      "outputs": [
        {
          "internalType": "uint256",
          "name": "CandidateId",
          "type": "uint256"
        },
        {
          "internalType": "string",
          "name": "name",
          "type": "string"
        },
        {
          "internalType": "uint256",
          "name": "ward",
          "type": "uint256"
        },
        {
          "internalType": "uint256",
          "name": "voteCount",
          "type": "uint256"
        },
        {
          "internalType": "address",
          "name": "id",
          "type": "address"
        },
        {
          "internalType": "uint256",
          "name": "VoterId",
          "type": "uint256"
        },
        {
          "internalType": "enum Election.candidateStatus",
          "name": "status",
          "type": "uint8"
        }
      ],
      "stateMutability": "view",
      "type": "function",
      "constant": true
    },
    {
      "inputs": [
        {
          "internalType": "uint256",
          "name": "",
          "type": "uint256"
        }
      ],
      "name": "candidateslist",
      "outputs": [
        {
          "internalType": "uint256",
          "name": "CandidateId",
          "type": "uint256"
        },
        {
          "internalType": "string",
          "name": "name",
          "type": "string"
        },
        {
          "internalType": "uint256",
          "name": "ward",
          "type": "uint256"
        },
        {
          "internalType": "uint256",
          "name": "voteCount",
          "type": "uint256"
        },
        {
          "internalType": "address",
          "name": "id",
          "type": "address"
        },
        {
          "internalType": "uint256",
          "name": "VoterId",
          "type": "uint256"
        },
        {
          "internalType": "enum Election.candidateStatus",
          "name": "status",
          "type": "uint8"
        }
      ],
      "stateMutability": "view",
      "type": "function",
      "constant": true
    },
    {
      "inputs": [],
      "name": "count",
      "outputs": [
        {
          "internalType": "uint256",
          "name": "",
          "type": "uint256"
        }
      ],
      "stateMutability": "view",
      "type": "function",
      "constant": true
    },
    {
      "inputs": [],
      "name": "result",
      "outputs": [
        {
          "internalType": "string",
          "name": "",
          "type": "string"
        },
        {
          "internalType": "uint256",
          "name": "",
          "type": "uint256"
        }
      ],
      "stateMutability": "view",
      "type": "function",
      "constant": true
    },
    {
      "inputs": [
        {
          "internalType": "uint256",
          "name": "",
          "type": "uint256"
        }
      ],
      "name": "voter",
      "outputs": [
        {
          "internalType": "uint256",
          "name": "index",
          "type": "uint256"
        },
        {
          "internalType": "string",
          "name": "voterName",
          "type": "string"
        },
        {
          "internalType": "uint256",
          "name": "voterWard",
          "type": "uint256"
        },
        {
          "internalType": "address",
          "name": "voterAddress",
          "type": "address"
        },
        {
          "internalType": "bool",
          "name": "verify",
          "type": "bool"
        },
        {
          "internalType": "uint256",
          "name": "voterId",
          "type": "uint256"
        }
      ],
      "stateMutability": "view",
      "type": "function",
      "constant": true
    },
    {
      "inputs": [],
      "name": "voterCount",
      "outputs": [
        {
          "internalType": "uint256",
          "name": "",
          "type": "uint256"
        }
      ],
      "stateMutability": "view",
      "type": "function",
      "constant": true
    },
    {
      "inputs": [
        {
          "internalType": "string",
          "name": "_name",
          "type": "string"
        },
        {
          "internalType": "uint256",
          "name": "_ward",
          "type": "uint256"
        },
        {
          "internalType": "uint256",
          "name": "_age",
          "type": "uint256"
        }
      ],
      "name": "voterIdReg",
      "outputs": [],
      "stateMutability": "nonpayable",
      "type": "function"
    },
    {
      "inputs": [
        {
          "internalType": "string",
          "name": "_name",
          "type": "string"
        },
        {
          "internalType": "uint256",
          "name": "_ward",
          "type": "uint256"
        },
        {
          "internalType": "uint256",
          "name": "_voterId",
          "type": "uint256"
        }
      ],
      "name": "voterRegistration",
      "outputs": [],
      "stateMutability": "nonpayable",
      "type": "function"
    },
    {
      "inputs": [
        {
          "internalType": "uint256",
          "name": "_voterId",
          "type": "uint256"
        }
      ],
      "name": "voterVerify",
      "outputs": [],
      "stateMutability": "nonpayable",
      "type": "function"
    },
    {
      "inputs": [
        {
          "internalType": "uint256",
          "name": "",
          "type": "uint256"
        }
      ],
      "name": "voteridcard",
      "outputs": [
        {
          "internalType": "string",
          "name": "voterName",
          "type": "string"
        },
        {
          "internalType": "uint256",
          "name": "voterWard",
          "type": "uint256"
        },
        {
          "internalType": "uint256",
          "name": "age",
          "type": "uint256"
        },
        {
          "internalType": "uint256",
          "name": "voterIds",
          "type": "uint256"
        }
      ],
      "stateMutability": "view",
      "type": "function",
      "constant": true
    },
    {
      "inputs": [
        {
          "internalType": "address",
          "name": "",
          "type": "address"
        }
      ],
      "name": "votes",
      "outputs": [
        {
          "internalType": "bool",
          "name": "",
          "type": "bool"
        }
      ],
      "stateMutability": "view",
      "type": "function",
      "constant": true
    },
    {
      "inputs": [
        {
          "internalType": "uint256",
          "name": "candidatesId",
          "type": "uint256"
        }
      ],
      "name": "vote",
      "outputs": [],
      "stateMutability": "nonpayable",
      "type": "function"
    }
  ],
  "bytecode": "0x60806040526103e860005534801561001657600080fd5b5033600360006101000a81548173ffffffffffffffffffffffffffffffffffffffff021916908373ffffffffffffffffffffffffffffffffffffffff160217905550612740806100676000396000f3fe608060405234801561001057600080fd5b50600436106101005760003560e01c8063905d04c211610097578063c9680e1f11610066578063c9680e1f14610296578063ca6ea96d146102b4578063d8bff5a5146102d0578063d8d4c9261461030057610100565b8063905d04c2146101f357806395cf05091461020f578063ab8ed1ba1461022b578063bcaf189b1461026057610100565b806365372147116100d35780636537214714610167578063656ee5cc146101865780637400df71146101a25780637bd01925146101c057610100565b80630121b93f1461010557806306661abd1461012157806342169e481461013f578063542ac40d1461015d575b600080fd5b61011f600480360381019061011a9190611b24565b610336565b005b6101296105d1565b6040516101369190611b60565b60405180910390f35b6101476105d7565b6040516101549190611b60565b60405180910390f35b6101656105dd565b005b61016f6109b7565b60405161017d929190611c14565b60405180910390f35b6101a0600480360381019061019b9190611d79565b610b26565b005b6101aa610d0e565b6040516101b79190611b60565b60405180910390f35b6101da60048036038101906101d59190611b24565b610d14565b6040516101ea9493929190611de8565b60405180910390f35b61020d60048036038101906102089190611b24565b610dcc565b005b61022960048036038101906102249190611e92565b610fbe565b005b61024560048036038101906102409190611b24565b61164e565b60405161025796959493929190611ee9565b60405180910390f35b61027a60048036038101906102759190611b24565b61173f565b60405161028d9796959493929190611fc8565b60405180910390f35b61029e611836565b6040516102ab9190611b60565b60405180910390f35b6102ce60048036038101906102c99190611d79565b61183c565b005b6102ea60048036038101906102e59190611e92565b611920565b6040516102f7919061203e565b60405180910390f35b61031a60048036038101906103159190611b24565b611940565b60405161032d9796959493929190611fc8565b60405180910390f35b60008111801561034857506008548111155b610387576040517f08c379a000000000000000000000000000000000000000000000000000000000815260040161037e906120a5565b60405180910390fd5b600460003373ffffffffffffffffffffffffffffffffffffffff1673ffffffffffffffffffffffffffffffffffffffff16815260200190815260200160002060009054906101000a900460ff1615610414576040517f08c379a000000000000000000000000000000000000000000000000000000000815260040161040b90612111565b60405180910390fd5b6000600190505b60095481116105cd573373ffffffffffffffffffffffffffffffffffffffff166005600083815260200190815260200160002060030160009054906101000a900473ffffffffffffffffffffffffffffffffffffffff1673ffffffffffffffffffffffffffffffffffffffff1614156105ba57600760008381526020019081526020016000206002015460056000838152602001908152602001600020600201541480156104f05750600115156005600083815260200190815260200160002060030160149054906101000a900460ff161515145b1561057e576001600460003373ffffffffffffffffffffffffffffffffffffffff1673ffffffffffffffffffffffffffffffffffffffff16815260200190815260200160002060006101000a81548160ff02191690831515021790555060076000838152602001908152602001600020600301600081548092919061057490612160565b91905055506105b9565b6040517f08c379a00000000000000000000000000000000000000000000000000000000081526004016105b09061221b565b60405180910390fd5b5b80806105c590612160565b91505061041b565b5050565b60015481565b60095481565b6000600190505b60085481116106a5573373ffffffffffffffffffffffffffffffffffffffff166006600083815260200190815260200160002060040160009054906101000a900473ffffffffffffffffffffffffffffffffffffffff1673ffffffffffffffffffffffffffffffffffffffff161415610692576040517f08c379a000000000000000000000000000000000000000000000000000000000815260040161068990612287565b60405180910390fd5b808061069d90612160565b9150506105e4565b506000600190505b60095481116109b4573373ffffffffffffffffffffffffffffffffffffffff166005600083815260200190815260200160002060030160009054906101000a900473ffffffffffffffffffffffffffffffffffffffff1673ffffffffffffffffffffffffffffffffffffffff1614801561074e5750600115156005600083815260200190815260200160002060030160149054906101000a900460ff161515145b156109a1576008600081548092919061076690612160565b919050555060006040518060e0016040528060085481526020016005600085815260200190815260200160002060010180546107a1906122d6565b80601f01602080910402602001604051908101604052809291908181526020018280546107cd906122d6565b801561081a5780601f106107ef5761010080835404028352916020019161081a565b820191906000526020600020905b8154815290600101906020018083116107fd57829003601f168201915b5050505050815260200160056000858152602001908152602001600020600201548152602001600081526020016005600085815260200190815260200160002060030160009054906101000a900473ffffffffffffffffffffffffffffffffffffffff1673ffffffffffffffffffffffffffffffffffffffff168152602001600560008581526020019081526020016000206004015481526020018260028111156108c8576108c7611f51565b5b815250600660006008548152602001908152602001600020600082015181600001556020820151816001019080519060200190610906929190611a37565b50604082015181600201556060820151816003015560808201518160040160006101000a81548173ffffffffffffffffffffffffffffffffffffffff021916908373ffffffffffffffffffffffffffffffffffffffff16021790555060a0820151816005015560c08201518160060160006101000a81548160ff0219169083600281111561099757610996611f51565b5b0217905550905050505b80806109ac90612160565b9150506106ad565b50565b606060006001600a541015610a01576040517f08c379a00000000000000000000000000000000000000000000000000000000081526004016109f890612354565b60405180910390fd5b6000806000600190505b600a548111610a62578260076000838152602001908152602001600020600301541115610a4f57600760008281526020019081526020016000206003015492508091505b8080610a5a90612160565b915050610a0b565b50600760008281526020019081526020016000206001016007600083815260200190815260200160002060030154818054610a9c906122d6565b80601f0160208091040260200160405190810160405280929190818152602001828054610ac8906122d6565b8015610b155780601f10610aea57610100808354040283529160200191610b15565b820191906000526020600020905b815481529060010190602001808311610af857829003601f168201915b505050505091509350935050509091565b6000600190505b6009548111610bee573373ffffffffffffffffffffffffffffffffffffffff166005600083815260200190815260200160002060030160009054906101000a900473ffffffffffffffffffffffffffffffffffffffff1673ffffffffffffffffffffffffffffffffffffffff161415610bdb576040517f08c379a0000000000000000000000000000000000000000000000000000000008152600401610bd2906123c0565b60405180910390fd5b8080610be690612160565b915050610b2d565b5060096000815480929190610c0290612160565b91905055506040518060c0016040528060095481526020018481526020018381526020013373ffffffffffffffffffffffffffffffffffffffff16815260200160001515815260200182815250600560006009548152602001908152602001600020600082015181600001556020820151816001019080519060200190610c8a929190611a37565b506040820151816002015560608201518160030160006101000a81548173ffffffffffffffffffffffffffffffffffffffff021916908373ffffffffffffffffffffffffffffffffffffffff16021790555060808201518160030160146101000a81548160ff02191690831515021790555060a08201518160040155905050505050565b600a5481565b6002602052806000526040600020600091509050806000018054610d37906122d6565b80601f0160208091040260200160405190810160405280929190818152602001828054610d63906122d6565b8015610db05780601f10610d8557610100808354040283529160200191610db0565b820191906000526020600020905b815481529060010190602001808311610d9357829003601f168201915b5050505050908060010154908060020154908060030154905084565b600360009054906101000a900473ffffffffffffffffffffffffffffffffffffffff1673ffffffffffffffffffffffffffffffffffffffff163373ffffffffffffffffffffffffffffffffffffffff1614610e5c576040517f08c379a0000000000000000000000000000000000000000000000000000000008152600401610e5390612452565b60405180910390fd5b600115156005600083815260200190815260200160002060030160149054906101000a900460ff1615151415610ec7576040517f08c379a0000000000000000000000000000000000000000000000000000000008152600401610ebe906124be565b60405180910390fd5b600081111580610ed8575060015481115b15610f18576040517f08c379a0000000000000000000000000000000000000000000000000000000008152600401610f0f9061252a565b60405180910390fd5b600260008281526020019081526020016000206003015460056000838152602001908152602001600020600401541415610f805760016005600083815260200190815260200160002060030160146101000a81548160ff021916908315150217905550610fbb565b6040517f08c379a0000000000000000000000000000000000000000000000000000000008152600401610fb290612596565b60405180910390fd5b50565b600360009054906101000a900473ffffffffffffffffffffffffffffffffffffffff1673ffffffffffffffffffffffffffffffffffffffff163373ffffffffffffffffffffffffffffffffffffffff161461104e576040517f08c379a000000000000000000000000000000000000000000000000000000000815260040161104590612452565b60405180910390fd5b6000600190505b600a548111611116578173ffffffffffffffffffffffffffffffffffffffff166007600083815260200190815260200160002060040160009054906101000a900473ffffffffffffffffffffffffffffffffffffffff1673ffffffffffffffffffffffffffffffffffffffff161415611103576040517f08c379a00000000000000000000000000000000000000000000000000000000081526004016110fa90612602565b60405180910390fd5b808061110e90612160565b915050611055565b506000600190505b600854811161164a578173ffffffffffffffffffffffffffffffffffffffff166006600083815260200190815260200160002060040160009054906101000a900473ffffffffffffffffffffffffffffffffffffffff1673ffffffffffffffffffffffffffffffffffffffff161415611637576000600190505b60015481116116355760026000828152602001908152602001600020600101546006600084815260200190815260200160002060020154148015611207575060026000828152602001908152602001600020600301546006600084815260200190815260200160002060050154145b1561162257600a600081548092919061121f90612160565b91905055506000600190506040518060e00160405280600854815260200160066000868152602001908152602001600020600101805461125e906122d6565b80601f016020809104026020016040519081016040528092919081815260200182805461128a906122d6565b80156112d75780601f106112ac576101008083540402835291602001916112d7565b820191906000526020600020905b8154815290600101906020018083116112ba57829003601f168201915b5050505050815260200160066000868152602001908152602001600020600201548152602001600081526020013373ffffffffffffffffffffffffffffffffffffffff1681526020016006600086815260200190815260200160002060050154815260200182600281111561134f5761134e611f51565b5b8152506006600085815260200190815260200160002060008201518160000155602082015181600101908051906020019061138b929190611a37565b50604082015181600201556060820151816003015560808201518160040160006101000a81548173ffffffffffffffffffffffffffffffffffffffff021916908373ffffffffffffffffffffffffffffffffffffffff16021790555060a0820151816005015560c08201518160060160006101000a81548160ff0219169083600281111561141c5761141b611f51565b5b02179055509050506040518060e00160405280600a548152602001600660008681526020019081526020016000206001018054611458906122d6565b80601f0160208091040260200160405190810160405280929190818152602001828054611484906122d6565b80156114d15780601f106114a6576101008083540402835291602001916114d1565b820191906000526020600020905b8154815290600101906020018083116114b457829003601f168201915b5050505050815260200160066000868152602001908152602001600020600201548152602001600081526020018573ffffffffffffffffffffffffffffffffffffffff1681526020016006600086815260200190815260200160002060050154815260200182600281111561154957611548611f51565b5b81525060076000600a548152602001908152602001600020600082015181600001556020820151816001019080519060200190611587929190611a37565b50604082015181600201556060820151816003015560808201518160040160006101000a81548173ffffffffffffffffffffffffffffffffffffffff021916908373ffffffffffffffffffffffffffffffffffffffff16021790555060a0820151816005015560c08201518160060160006101000a81548160ff0219169083600281111561161857611617611f51565b5b0217905550905050505b808061162d90612160565b915050611198565b505b808061164290612160565b91505061111e565b5050565b6005602052806000526040600020600091509050806000015490806001018054611677906122d6565b80601f01602080910402602001604051908101604052809291908181526020018280546116a3906122d6565b80156116f05780601f106116c5576101008083540402835291602001916116f0565b820191906000526020600020905b8154815290600101906020018083116116d357829003601f168201915b5050505050908060020154908060030160009054906101000a900473ffffffffffffffffffffffffffffffffffffffff16908060030160149054906101000a900460ff16908060040154905086565b6006602052806000526040600020600091509050806000015490806001018054611768906122d6565b80601f0160208091040260200160405190810160405280929190818152602001828054611794906122d6565b80156117e15780601f106117b6576101008083540402835291602001916117e1565b820191906000526020600020905b8154815290600101906020018083116117c457829003601f168201915b5050505050908060020154908060030154908060040160009054906101000a900473ffffffffffffffffffffffffffffffffffffffff16908060050154908060060160009054906101000a900460ff16905087565b60085481565b6012811015611880576040517f08c379a000000000000000000000000000000000000000000000000000000000815260040161187790612694565b60405180910390fd5b6001600081548092919061189390612160565b919050555060405180608001604052808481526020018381526020018281526020016001546000546118c591906126b4565b81525060026000600154815260200190815260200160002060008201518160000190805190602001906118f9929190611a37565b50602082015181600101556040820151816002015560608201518160030155905050505050565b60046020528060005260406000206000915054906101000a900460ff1681565b6007602052806000526040600020600091509050806000015490806001018054611969906122d6565b80601f0160208091040260200160405190810160405280929190818152602001828054611995906122d6565b80156119e25780601f106119b7576101008083540402835291602001916119e2565b820191906000526020600020905b8154815290600101906020018083116119c557829003601f168201915b5050505050908060020154908060030154908060040160009054906101000a900473ffffffffffffffffffffffffffffffffffffffff16908060050154908060060160009054906101000a900460ff16905087565b828054611a43906122d6565b90600052602060002090601f016020900481019282611a655760008555611aac565b82601f10611a7e57805160ff1916838001178555611aac565b82800160010185558215611aac579182015b82811115611aab578251825591602001919060010190611a90565b5b509050611ab99190611abd565b5090565b5b80821115611ad6576000816000905550600101611abe565b5090565b6000604051905090565b600080fd5b600080fd5b6000819050919050565b611b0181611aee565b8114611b0c57600080fd5b50565b600081359050611b1e81611af8565b92915050565b600060208284031215611b3a57611b39611ae4565b5b6000611b4884828501611b0f565b91505092915050565b611b5a81611aee565b82525050565b6000602082019050611b756000830184611b51565b92915050565b600081519050919050565b600082825260208201905092915050565b60005b83811015611bb5578082015181840152602081019050611b9a565b83811115611bc4576000848401525b50505050565b6000601f19601f8301169050919050565b6000611be682611b7b565b611bf08185611b86565b9350611c00818560208601611b97565b611c0981611bca565b840191505092915050565b60006040820190508181036000830152611c2e8185611bdb565b9050611c3d6020830184611b51565b9392505050565b600080fd5b600080fd5b7f4e487b7100000000000000000000000000000000000000000000000000000000600052604160045260246000fd5b611c8682611bca565b810181811067ffffffffffffffff82111715611ca557611ca4611c4e565b5b80604052505050565b6000611cb8611ada565b9050611cc48282611c7d565b919050565b600067ffffffffffffffff821115611ce457611ce3611c4e565b5b611ced82611bca565b9050602081019050919050565b82818337600083830152505050565b6000611d1c611d1784611cc9565b611cae565b905082815260208101848484011115611d3857611d37611c49565b5b611d43848285611cfa565b509392505050565b600082601f830112611d6057611d5f611c44565b5b8135611d70848260208601611d09565b91505092915050565b600080600060608486031215611d9257611d91611ae4565b5b600084013567ffffffffffffffff811115611db057611daf611ae9565b5b611dbc86828701611d4b565b9350506020611dcd86828701611b0f565b9250506040611dde86828701611b0f565b9150509250925092565b60006080820190508181036000830152611e028187611bdb565b9050611e116020830186611b51565b611e1e6040830185611b51565b611e2b6060830184611b51565b95945050505050565b600073ffffffffffffffffffffffffffffffffffffffff82169050919050565b6000611e5f82611e34565b9050919050565b611e6f81611e54565b8114611e7a57600080fd5b50565b600081359050611e8c81611e66565b92915050565b600060208284031215611ea857611ea7611ae4565b5b6000611eb684828501611e7d565b91505092915050565b611ec881611e54565b82525050565b60008115159050919050565b611ee381611ece565b82525050565b600060c082019050611efe6000830189611b51565b8181036020830152611f108188611bdb565b9050611f1f6040830187611b51565b611f2c6060830186611ebf565b611f396080830185611eda565b611f4660a0830184611b51565b979650505050505050565b7f4e487b7100000000000000000000000000000000000000000000000000000000600052602160045260246000fd5b60038110611f9157611f90611f51565b5b50565b6000819050611fa282611f80565b919050565b6000611fb282611f94565b9050919050565b611fc281611fa7565b82525050565b600060e082019050611fdd600083018a611b51565b8181036020830152611fef8189611bdb565b9050611ffe6040830188611b51565b61200b6060830187611b51565b6120186080830186611ebf565b61202560a0830185611b51565b61203260c0830184611fb9565b98975050505050505050565b60006020820190506120536000830184611eda565b92915050565b7f696e76616c696465207573657200000000000000000000000000000000000000600082015250565b600061208f600d83611b86565b915061209a82612059565b602082019050919050565b600060208201905081810360008301526120be81612082565b9050919050565b7f796f752061726520616c726561647920766f7465640000000000000000000000600082015250565b60006120fb601583611b86565b9150612106826120c5565b602082019050919050565b6000602082019050818103600083015261212a816120ee565b9050919050565b7f4e487b7100000000000000000000000000000000000000000000000000000000600052601160045260246000fd5b600061216b82611aee565b91507fffffffffffffffffffffffffffffffffffffffffffffffffffffffffffffffff82141561219e5761219d612131565b5b600182019050919050565b7f796f752063616e277420766f746520616e6f7468657220776172642063616e6460008201527f6964617465000000000000000000000000000000000000000000000000000000602082015250565b6000612205602583611b86565b9150612210826121a9565b604082019050919050565b60006020820190508181036000830152612234816121f8565b9050919050565b7f73616d652063616e6469646174652063616e2774206265206164646400000000600082015250565b6000612271601c83611b86565b915061227c8261223b565b602082019050919050565b600060208201905081810360008301526122a081612264565b9050919050565b7f4e487b7100000000000000000000000000000000000000000000000000000000600052602260045260246000fd5b600060028204905060018216806122ee57607f821691505b60208210811415612302576123016122a7565b5b50919050565b7f7468657265206973206e6f2063616e6469646174650000000000000000000000600082015250565b600061233e601583611b86565b915061234982612308565b602082019050919050565b6000602082019050818103600083015261236d81612331565b9050919050565b7f616c726561647920637265617465640000000000000000000000000000000000600082015250565b60006123aa600f83611b86565b91506123b582612374565b602082019050919050565b600060208201905081810360008301526123d98161239d565b9050919050565b7f617574686f726974792063616e206f6e6c792063616c6c20746869732066756e60008201527f6374696f6e000000000000000000000000000000000000000000000000000000602082015250565b600061243c602583611b86565b9150612447826123e0565b604082019050919050565b6000602082019050818103600083015261246b8161242f565b9050919050565b7f616c726561647920766572696679000000000000000000000000000000000000600082015250565b60006124a8600e83611b86565b91506124b382612472565b602082019050919050565b600060208201905081810360008301526124d78161249b565b9050919050565b7f766f746572206e6f7420666f756e640000000000000000000000000000000000600082015250565b6000612514600f83611b86565b915061251f826124de565b602082019050919050565b6000602082019050818103600083015261254381612507565b9050919050565b7f766f746572206964206e6f20666f756e64000000000000000000000000000000600082015250565b6000612580601183611b86565b915061258b8261254a565b602082019050919050565b600060208201905081810360008301526125af81612573565b9050919050565b7f616c7265616479206170726f7665640000000000000000000000000000000000600082015250565b60006125ec600f83611b86565b91506125f7826125b6565b602082019050919050565b6000602082019050818103600083015261261b816125df565b9050919050565b7f5468697320706572736f6e206973206e6f7420656c696769626c6520666f722060008201527f766f746572732049640000000000000000000000000000000000000000000000602082015250565b600061267e602983611b86565b915061268982612622565b604082019050919050565b600060208201905081810360008301526126ad81612671565b9050919050565b60006126bf82611aee565b91506126ca83611aee565b9250827fffffffffffffffffffffffffffffffffffffffffffffffffffffffffffffffff038211156126ff576126fe612131565b5b82820190509291505056fea26469706673582212208d0f408d6e5b74c397c94ae673ae855c0f86ecb0645de3e6f2301ab6435c21da64736f6c634300080a0033",
  "immutableReferences": {},
  "source": "// SPDX-License-Identifier: GPL-3.0\npragma solidity ^0.8.7;\n\nimport \"./election.sol\";\n\ncontract Voteing is Election{\n     function vote(uint candidatesId) public {\n        require(candidatesId > 0 && candidatesId <=  candedatesCount, \"invalide user\");\n        require(!votes[msg.sender], \"you are already voted\");\n        \n        for(uint i=1; i<=voterCount; i++ ){\n            if(voter[i].voterAddress == msg.sender){\n                if(voter[i].voterWard == candidateslist[candidatesId].ward && voter[i].verify == true){\n                     votes[msg.sender] = true;\n                      candidateslist[candidatesId].voteCount++;\n                }else{\n                    revert(\"you can't vote another ward candidate\");\n                }       \n            }\n        }\n    }\n}",
  "sourcePath": "/home/nisamudheen/Desktop/sps/voting_smartcontract/contracts/Voting.sol",
  "compiler": {
    "name": "solc",
    "version": "0.8.10+commit.fc410830.Emscripten.clang"
  },
  "schemaVersion": "3.4.3",
  "updatedAt": "2021-12-19T15:18:04.051Z",
  "networkType": "ethereum",
  "devdoc": {
    "kind": "dev",
    "methods": {},
    "version": 1
  },
  "userdoc": {
    "kind": "user",
    "methods": {},
    "version": 1
  }
}