{
  "contractName": "Voteing",
  "abi": [
    {
      "inputs": [],
      "name": "applyForCantidate",
      "outputs": [],
      "stateMutability": "nonpayable",
      "type": "function"
    },
    {
      "inputs": [
        {
          "internalType": "address",
          "name": "_voteraddress",
          "type": "address"
        }
      ],
      "name": "approveCadidedress",
      "outputs": [],
      "stateMutability": "nonpayable",
      "type": "function"
    },
    {
      "inputs": [],
      "name": "approvedCandidateCount",
      "outputs": [
        {
          "internalType": "uint256",
          "name": "",
          "type": "uint256"
        }
      ],
      "stateMutability": "view",
      "type": "function",
      "constant": true
    },
    {
      "inputs": [],
      "name": "authority",
      "outputs": [
        {
          "internalType": "address",
          "name": "",
          "type": "address"
        }
      ],
      "stateMutability": "view",
      "type": "function",
      "constant": true
    },
    {
      "inputs": [],
      "name": "candidateCount",
      "outputs": [
        {
          "internalType": "uint256",
          "name": "",
          "type": "uint256"
        }
      ],
      "stateMutability": "view",
      "type": "function",
      "constant": true
    },
    {
      "inputs": [
        {
          "internalType": "uint256",
          "name": "",
          "type": "uint256"
        }
      ],
      "name": "candidateReg",
      "outputs": [
        {
          "internalType": "uint256",
          "name": "CandidateId",
          "type": "uint256"
        },
        {
          "internalType": "string",
          "name": "name",
          "type": "string"
        },
        {
          "internalType": "uint256",
          "name": "ward",
          "type": "uint256"
        },
        {
          "internalType": "uint256",
          "name": "voteCount",
          "type": "uint256"
        },
        {
          "internalType": "address",
          "name": "id",
          "type": "address"
        },
        {
          "internalType": "uint256",
          "name": "VoterId",
          "type": "uint256"
        },
        {
          "internalType": "enum Election.candidateStatus",
          "name": "status",
          "type": "uint8"
        }
      ],
      "stateMutability": "view",
      "type": "function",
      "constant": true
    },
    {
      "inputs": [
        {
          "internalType": "uint256",
          "name": "",
          "type": "uint256"
        }
      ],
      "name": "candidatelist",
      "outputs": [
        {
          "internalType": "uint256",
          "name": "CandidateId",
          "type": "uint256"
        },
        {
          "internalType": "string",
          "name": "name",
          "type": "string"
        },
        {
          "internalType": "uint256",
          "name": "ward",
          "type": "uint256"
        },
        {
          "internalType": "uint256",
          "name": "voteCount",
          "type": "uint256"
        },
        {
          "internalType": "address",
          "name": "id",
          "type": "address"
        },
        {
          "internalType": "uint256",
          "name": "VoterId",
          "type": "uint256"
        },
        {
          "internalType": "enum Election.candidateStatus",
          "name": "status",
          "type": "uint8"
        }
      ],
      "stateMutability": "view",
      "type": "function",
      "constant": true
    },
    {
      "inputs": [
        {
          "internalType": "address",
          "name": "",
          "type": "address"
        }
      ],
      "name": "candidatelogin",
      "outputs": [
        {
          "internalType": "uint256",
          "name": "",
          "type": "uint256"
        }
      ],
      "stateMutability": "view",
      "type": "function",
      "constant": true
    },
    {
      "inputs": [],
      "name": "count",
      "outputs": [
        {
          "internalType": "uint256",
          "name": "",
          "type": "uint256"
        }
      ],
      "stateMutability": "view",
      "type": "function",
      "constant": true
    },
    {
      "inputs": [],
      "name": "result",
      "outputs": [
        {
          "internalType": "string",
          "name": "",
          "type": "string"
        },
        {
          "internalType": "uint256",
          "name": "",
          "type": "uint256"
        }
      ],
      "stateMutability": "view",
      "type": "function",
      "constant": true
    },
    {
      "inputs": [
        {
          "internalType": "uint256",
          "name": "",
          "type": "uint256"
        }
      ],
      "name": "voter",
      "outputs": [
        {
          "internalType": "uint256",
          "name": "index",
          "type": "uint256"
        },
        {
          "internalType": "string",
          "name": "voterName",
          "type": "string"
        },
        {
          "internalType": "uint256",
          "name": "voterWard",
          "type": "uint256"
        },
        {
          "internalType": "address",
          "name": "voterAddress",
          "type": "address"
        },
        {
          "internalType": "bool",
          "name": "verify",
          "type": "bool"
        },
        {
          "internalType": "uint256",
          "name": "voterId",
          "type": "uint256"
        }
      ],
      "stateMutability": "view",
      "type": "function",
      "constant": true
    },
    {
      "inputs": [],
      "name": "voterCount",
      "outputs": [
        {
          "internalType": "uint256",
          "name": "",
          "type": "uint256"
        }
      ],
      "stateMutability": "view",
      "type": "function",
      "constant": true
    },
    {
      "inputs": [
        {
          "internalType": "string",
          "name": "_name",
          "type": "string"
        },
        {
          "internalType": "uint256",
          "name": "_ward",
          "type": "uint256"
        },
        {
          "internalType": "uint256",
          "name": "_age",
          "type": "uint256"
        }
      ],
      "name": "voterIdReg",
      "outputs": [],
      "stateMutability": "nonpayable",
      "type": "function"
    },
    {
      "inputs": [
        {
          "internalType": "string",
          "name": "_name",
          "type": "string"
        },
        {
          "internalType": "uint256",
          "name": "_ward",
          "type": "uint256"
        },
        {
          "internalType": "uint256",
          "name": "_voterId",
          "type": "uint256"
        }
      ],
      "name": "voterRegistration",
      "outputs": [],
      "stateMutability": "nonpayable",
      "type": "function"
    },
    {
      "inputs": [
        {
          "internalType": "uint256",
          "name": "_voterId",
          "type": "uint256"
        }
      ],
      "name": "voterVerify",
      "outputs": [],
      "stateMutability": "nonpayable",
      "type": "function"
    },
    {
      "inputs": [
        {
          "internalType": "uint256",
          "name": "",
          "type": "uint256"
        }
      ],
      "name": "voteridcard",
      "outputs": [
        {
          "internalType": "string",
          "name": "voterName",
          "type": "string"
        },
        {
          "internalType": "uint256",
          "name": "voterWard",
          "type": "uint256"
        },
        {
          "internalType": "uint256",
          "name": "age",
          "type": "uint256"
        },
        {
          "internalType": "uint256",
          "name": "voterIds",
          "type": "uint256"
        }
      ],
      "stateMutability": "view",
      "type": "function",
      "constant": true
    },
    {
      "inputs": [
        {
          "internalType": "address",
          "name": "",
          "type": "address"
        }
      ],
      "name": "voterlogin",
      "outputs": [
        {
          "internalType": "uint256",
          "name": "",
          "type": "uint256"
        }
      ],
      "stateMutability": "view",
      "type": "function",
      "constant": true
    },
    {
      "inputs": [
        {
          "internalType": "address",
          "name": "",
          "type": "address"
        }
      ],
      "name": "votes",
      "outputs": [
        {
          "internalType": "bool",
          "name": "",
          "type": "bool"
        }
      ],
      "stateMutability": "view",
      "type": "function",
      "constant": true
    },
    {
      "inputs": [
        {
          "internalType": "uint256",
          "name": "candidatesId",
          "type": "uint256"
        }
      ],
      "name": "vote",
      "outputs": [],
      "stateMutability": "nonpayable",
      "type": "function"
    }
  ],
  "bytecode": "0x60806040526103e860005534801561001657600080fd5b5033600360006101000a81548173ffffffffffffffffffffffffffffffffffffffff021916908373ffffffffffffffffffffffffffffffffffffffff160217905550612887806100676000396000f3fe608060405234801561001057600080fd5b50600436106101215760003560e01c8063905d04c2116100ad578063bcaf189b11610071578063bcaf189b14610305578063bf7e214f1461033b578063ca6ea96d14610359578063d8bff5a514610375578063e749ee48146103a557610121565b8063905d04c214610244578063911eb81d1461026057806395cf050914610296578063a9a981a3146102b2578063ab8ed1ba146102d057610121565b8063542ac40d116100f4578063542ac40d146101ae57806365372147146101b8578063656ee5cc146101d75780637400df71146101f35780637bd019251461021157610121565b80630121b93f1461012657806306661abd1461014257806342169e48146101605780634bc819461461017e575b600080fd5b610140600480360381019061013b9190611cbc565b6103d5565b005b61014a61067e565b6040516101579190611cf8565b60405180910390f35b610168610684565b6040516101759190611cf8565b60405180910390f35b61019860048036038101906101939190611d71565b61068a565b6040516101a59190611cf8565b60405180910390f35b6101b66106a2565b005b6101c0610a8a565b6040516101ce929190611e37565b60405180910390f35b6101f160048036038101906101ec9190611f9c565b610bf9565b005b6101fb610e31565b6040516102089190611cf8565b60405180910390f35b61022b60048036038101906102269190611cbc565b610e37565b60405161023b949392919061200b565b60405180910390f35b61025e60048036038101906102599190611cbc565b610eef565b005b61027a60048036038101906102759190611cbc565b6110d4565b60405161028d97969594939291906120dd565b60405180910390f35b6102b060048036038101906102ab9190611d71565b6111cb565b005b6102ba61189f565b6040516102c79190611cf8565b60405180910390f35b6102ea60048036038101906102e59190611cbc565b6118a5565b6040516102fc9695949392919061216e565b60405180910390f35b61031f600480360381019061031a9190611cbc565b611996565b60405161033297969594939291906120dd565b60405180910390f35b610343611a8d565b60405161035091906121d6565b60405180910390f35b610373600480360381019061036e9190611f9c565b611ab3565b005b61038f600480360381019061038a9190611d71565b611b97565b60405161039c91906121f1565b60405180910390f35b6103bf60048036038101906103ba9190611d71565b611bb7565b6040516103cc9190611cf8565b60405180910390f35b6000811180156103e75750600a548111155b610426576040517f08c379a000000000000000000000000000000000000000000000000000000000815260040161041d90612258565b60405180910390fd5b600460003373ffffffffffffffffffffffffffffffffffffffff1673ffffffffffffffffffffffffffffffffffffffff16815260200190815260200160002060009054906101000a900460ff16156104b3576040517f08c379a00000000000000000000000000000000000000000000000000000000081526004016104aa906122c4565b60405180910390fd5b60006103e990505b600b546103e86104cb9190612313565b811161067a573373ffffffffffffffffffffffffffffffffffffffff166005600083815260200190815260200160002060030160009054906101000a900473ffffffffffffffffffffffffffffffffffffffff1673ffffffffffffffffffffffffffffffffffffffff161415610667576007600083815260200190815260200160002060020154600560008381526020019081526020016000206002015414801561059d5750600115156005600083815260200190815260200160002060030160149054906101000a900460ff161515145b1561062b576001600460003373ffffffffffffffffffffffffffffffffffffffff1673ffffffffffffffffffffffffffffffffffffffff16815260200190815260200160002060006101000a81548160ff02191690831515021790555060076000838152602001908152602001600020600301600081548092919061062190612369565b9190505550610666565b6040517f08c379a000000000000000000000000000000000000000000000000000000000815260040161065d90612424565b60405180910390fd5b5b808061067290612369565b9150506104bb565b5050565b60015481565b600b5481565b60086020528060005260406000206000915090505481565b6000600190505b600a54811161076a573373ffffffffffffffffffffffffffffffffffffffff166006600083815260200190815260200160002060040160009054906101000a900473ffffffffffffffffffffffffffffffffffffffff1673ffffffffffffffffffffffffffffffffffffffff161415610757576040517f08c379a000000000000000000000000000000000000000000000000000000000815260040161074e90612490565b60405180910390fd5b808061076290612369565b9150506106a9565b5060006103e990505b600b546103e86107839190612313565b8111610a87573373ffffffffffffffffffffffffffffffffffffffff166005600083815260200190815260200160002060030160009054906101000a900473ffffffffffffffffffffffffffffffffffffffff1673ffffffffffffffffffffffffffffffffffffffff161480156108215750600115156005600083815260200190815260200160002060030160149054906101000a900460ff161515145b15610a7457600a600081548092919061083990612369565b919050555060006040518060e00160405280600a548152602001600560008581526020019081526020016000206001018054610874906124df565b80601f01602080910402602001604051908101604052809291908181526020018280546108a0906124df565b80156108ed5780601f106108c2576101008083540402835291602001916108ed565b820191906000526020600020905b8154815290600101906020018083116108d057829003601f168201915b5050505050815260200160056000858152602001908152602001600020600201548152602001600081526020016005600085815260200190815260200160002060030160009054906101000a900473ffffffffffffffffffffffffffffffffffffffff1673ffffffffffffffffffffffffffffffffffffffff1681526020016005600085815260200190815260200160002060040154815260200182600281111561099b5761099a612066565b5b81525060066000600a5481526020019081526020016000206000820151816000015560208201518160010190805190602001906109d9929190611bcf565b50604082015181600201556060820151816003015560808201518160040160006101000a81548173ffffffffffffffffffffffffffffffffffffffff021916908373ffffffffffffffffffffffffffffffffffffffff16021790555060a0820151816005015560c08201518160060160006101000a81548160ff02191690836002811115610a6a57610a69612066565b5b0217905550905050505b8080610a7f90612369565b915050610773565b50565b606060006001600c541015610ad4576040517f08c379a0000000000000000000000000000000000000000000000000000000008152600401610acb9061255d565b60405180910390fd5b6000806000600190505b600c548111610b35578260076000838152602001908152602001600020600301541115610b2257600760008281526020019081526020016000206003015492508091505b8080610b2d90612369565b915050610ade565b50600760008281526020019081526020016000206001016007600083815260200190815260200160002060030154818054610b6f906124df565b80601f0160208091040260200160405190810160405280929190818152602001828054610b9b906124df565b8015610be85780601f10610bbd57610100808354040283529160200191610be8565b820191906000526020600020905b815481529060010190602001808311610bcb57829003601f168201915b505050505091509350935050509091565b60006103e990505b600b546103e8610c119190612313565b8111610ccf573373ffffffffffffffffffffffffffffffffffffffff166005600083815260200190815260200160002060030160009054906101000a900473ffffffffffffffffffffffffffffffffffffffff1673ffffffffffffffffffffffffffffffffffffffff161415610cbc576040517f08c379a0000000000000000000000000000000000000000000000000000000008152600401610cb3906125c9565b60405180910390fd5b8080610cc790612369565b915050610c01565b50600b6000815480929190610ce390612369565b91905055506040518060c00160405280600b5481526020018481526020018381526020013373ffffffffffffffffffffffffffffffffffffffff1681526020016000151581526020018281525060056000838152602001908152602001600020600082015181600001556020820151816001019080519060200190610d69929190611bcf565b506040820151816002015560608201518160030160006101000a81548173ffffffffffffffffffffffffffffffffffffffff021916908373ffffffffffffffffffffffffffffffffffffffff16021790555060808201518160030160146101000a81548160ff02191690831515021790555060a0820151816004015590505080600860003373ffffffffffffffffffffffffffffffffffffffff1673ffffffffffffffffffffffffffffffffffffffff16815260200190815260200160002081905550505050565b600c5481565b6002602052806000526040600020600091509050806000018054610e5a906124df565b80601f0160208091040260200160405190810160405280929190818152602001828054610e86906124df565b8015610ed35780601f10610ea857610100808354040283529160200191610ed3565b820191906000526020600020905b815481529060010190602001808311610eb657829003601f168201915b5050505050908060010154908060020154908060030154905084565b600360009054906101000a900473ffffffffffffffffffffffffffffffffffffffff1673ffffffffffffffffffffffffffffffffffffffff163373ffffffffffffffffffffffffffffffffffffffff1614610f7f576040517f08c379a0000000000000000000000000000000000000000000000000000000008152600401610f769061265b565b60405180910390fd5b600115156005600083815260200190815260200160002060030160149054906101000a900460ff1615151415610fea576040517f08c379a0000000000000000000000000000000000000000000000000000000008152600401610fe1906126c7565b60405180910390fd5b6103e88111158061100957506001546103e86110069190612313565b81115b15611049576040517f08c379a000000000000000000000000000000000000000000000000000000000815260040161104090612733565b60405180910390fd5b6000600190505b60015481116110d0576002600082815260200190815260200160002060030154600560008481526020019081526020016000206004015414156110bd5760016005600084815260200190815260200160002060030160146101000a81548160ff0219169083151502179055505b80806110c890612369565b915050611050565b5050565b60076020528060005260406000206000915090508060000154908060010180546110fd906124df565b80601f0160208091040260200160405190810160405280929190818152602001828054611129906124df565b80156111765780601f1061114b57610100808354040283529160200191611176565b820191906000526020600020905b81548152906001019060200180831161115957829003601f168201915b5050505050908060020154908060030154908060040160009054906101000a900473ffffffffffffffffffffffffffffffffffffffff16908060050154908060060160009054906101000a900460ff16905087565b600360009054906101000a900473ffffffffffffffffffffffffffffffffffffffff1673ffffffffffffffffffffffffffffffffffffffff163373ffffffffffffffffffffffffffffffffffffffff161461125b576040517f08c379a00000000000000000000000000000000000000000000000000000000081526004016112529061265b565b60405180910390fd5b6000600190505b600c548111611323578173ffffffffffffffffffffffffffffffffffffffff166007600083815260200190815260200160002060040160009054906101000a900473ffffffffffffffffffffffffffffffffffffffff1673ffffffffffffffffffffffffffffffffffffffff161415611310576040517f08c379a00000000000000000000000000000000000000000000000000000000081526004016113079061279f565b60405180910390fd5b808061131b90612369565b915050611262565b506000600190505b600a54811161189b578173ffffffffffffffffffffffffffffffffffffffff166006600083815260200190815260200160002060040160009054906101000a900473ffffffffffffffffffffffffffffffffffffffff1673ffffffffffffffffffffffffffffffffffffffff161415611888576000600190505b60015481116118865760026000828152602001908152602001600020600101546006600084815260200190815260200160002060020154148015611414575060026000828152602001908152602001600020600301546006600084815260200190815260200160002060050154145b1561187357600c600081548092919061142c90612369565b91905055506000600190506040518060e00160405280600a54815260200160066000868152602001908152602001600020600101805461146b906124df565b80601f0160208091040260200160405190810160405280929190818152602001828054611497906124df565b80156114e45780601f106114b9576101008083540402835291602001916114e4565b820191906000526020600020905b8154815290600101906020018083116114c757829003601f168201915b5050505050815260200160066000868152602001908152602001600020600201548152602001600081526020013373ffffffffffffffffffffffffffffffffffffffff1681526020016006600086815260200190815260200160002060050154815260200182600281111561155c5761155b612066565b5b81525060066000858152602001908152602001600020600082015181600001556020820151816001019080519060200190611598929190611bcf565b50604082015181600201556060820151816003015560808201518160040160006101000a81548173ffffffffffffffffffffffffffffffffffffffff021916908373ffffffffffffffffffffffffffffffffffffffff16021790555060a0820151816005015560c08201518160060160006101000a81548160ff0219169083600281111561162957611628612066565b5b02179055509050506040518060e00160405280600c548152602001600660008681526020019081526020016000206001018054611665906124df565b80601f0160208091040260200160405190810160405280929190818152602001828054611691906124df565b80156116de5780601f106116b3576101008083540402835291602001916116de565b820191906000526020600020905b8154815290600101906020018083116116c157829003601f168201915b5050505050815260200160066000868152602001908152602001600020600201548152602001600081526020018573ffffffffffffffffffffffffffffffffffffffff1681526020016006600086815260200190815260200160002060050154815260200182600281111561175657611755612066565b5b81525060076000600c548152602001908152602001600020600082015181600001556020820151816001019080519060200190611794929190611bcf565b50604082015181600201556060820151816003015560808201518160040160006101000a81548173ffffffffffffffffffffffffffffffffffffffff021916908373ffffffffffffffffffffffffffffffffffffffff16021790555060a0820151816005015560c08201518160060160006101000a81548160ff0219169083600281111561182557611824612066565b5b021790555090505082600960003373ffffffffffffffffffffffffffffffffffffffff1673ffffffffffffffffffffffffffffffffffffffff16815260200190815260200160002081905550505b808061187e90612369565b9150506113a5565b505b808061189390612369565b91505061132b565b5050565b600a5481565b60056020528060005260406000206000915090508060000154908060010180546118ce906124df565b80601f01602080910402602001604051908101604052809291908181526020018280546118fa906124df565b80156119475780601f1061191c57610100808354040283529160200191611947565b820191906000526020600020905b81548152906001019060200180831161192a57829003601f168201915b5050505050908060020154908060030160009054906101000a900473ffffffffffffffffffffffffffffffffffffffff16908060030160149054906101000a900460ff16908060040154905086565b60066020528060005260406000206000915090508060000154908060010180546119bf906124df565b80601f01602080910402602001604051908101604052809291908181526020018280546119eb906124df565b8015611a385780601f10611a0d57610100808354040283529160200191611a38565b820191906000526020600020905b815481529060010190602001808311611a1b57829003601f168201915b5050505050908060020154908060030154908060040160009054906101000a900473ffffffffffffffffffffffffffffffffffffffff16908060050154908060060160009054906101000a900460ff16905087565b600360009054906101000a900473ffffffffffffffffffffffffffffffffffffffff1681565b6012811015611af7576040517f08c379a0000000000000000000000000000000000000000000000000000000008152600401611aee90612831565b60405180910390fd5b60016000815480929190611b0a90612369565b91905055506040518060800160405280848152602001838152602001828152602001600154600054611b3c9190612313565b8152506002600060015481526020019081526020016000206000820151816000019080519060200190611b70929190611bcf565b50602082015181600101556040820151816002015560608201518160030155905050505050565b60046020528060005260406000206000915054906101000a900460ff1681565b60096020528060005260406000206000915090505481565b828054611bdb906124df565b90600052602060002090601f016020900481019282611bfd5760008555611c44565b82601f10611c1657805160ff1916838001178555611c44565b82800160010185558215611c44579182015b82811115611c43578251825591602001919060010190611c28565b5b509050611c519190611c55565b5090565b5b80821115611c6e576000816000905550600101611c56565b5090565b6000604051905090565b600080fd5b600080fd5b6000819050919050565b611c9981611c86565b8114611ca457600080fd5b50565b600081359050611cb681611c90565b92915050565b600060208284031215611cd257611cd1611c7c565b5b6000611ce084828501611ca7565b91505092915050565b611cf281611c86565b82525050565b6000602082019050611d0d6000830184611ce9565b92915050565b600073ffffffffffffffffffffffffffffffffffffffff82169050919050565b6000611d3e82611d13565b9050919050565b611d4e81611d33565b8114611d5957600080fd5b50565b600081359050611d6b81611d45565b92915050565b600060208284031215611d8757611d86611c7c565b5b6000611d9584828501611d5c565b91505092915050565b600081519050919050565b600082825260208201905092915050565b60005b83811015611dd8578082015181840152602081019050611dbd565b83811115611de7576000848401525b50505050565b6000601f19601f8301169050919050565b6000611e0982611d9e565b611e138185611da9565b9350611e23818560208601611dba565b611e2c81611ded565b840191505092915050565b60006040820190508181036000830152611e518185611dfe565b9050611e606020830184611ce9565b9392505050565b600080fd5b600080fd5b7f4e487b7100000000000000000000000000000000000000000000000000000000600052604160045260246000fd5b611ea982611ded565b810181811067ffffffffffffffff82111715611ec857611ec7611e71565b5b80604052505050565b6000611edb611c72565b9050611ee78282611ea0565b919050565b600067ffffffffffffffff821115611f0757611f06611e71565b5b611f1082611ded565b9050602081019050919050565b82818337600083830152505050565b6000611f3f611f3a84611eec565b611ed1565b905082815260208101848484011115611f5b57611f5a611e6c565b5b611f66848285611f1d565b509392505050565b600082601f830112611f8357611f82611e67565b5b8135611f93848260208601611f2c565b91505092915050565b600080600060608486031215611fb557611fb4611c7c565b5b600084013567ffffffffffffffff811115611fd357611fd2611c81565b5b611fdf86828701611f6e565b9350506020611ff086828701611ca7565b925050604061200186828701611ca7565b9150509250925092565b600060808201905081810360008301526120258187611dfe565b90506120346020830186611ce9565b6120416040830185611ce9565b61204e6060830184611ce9565b95945050505050565b61206081611d33565b82525050565b7f4e487b7100000000000000000000000000000000000000000000000000000000600052602160045260246000fd5b600381106120a6576120a5612066565b5b50565b60008190506120b782612095565b919050565b60006120c7826120a9565b9050919050565b6120d7816120bc565b82525050565b600060e0820190506120f2600083018a611ce9565b81810360208301526121048189611dfe565b90506121136040830188611ce9565b6121206060830187611ce9565b61212d6080830186612057565b61213a60a0830185611ce9565b61214760c08301846120ce565b98975050505050505050565b60008115159050919050565b61216881612153565b82525050565b600060c0820190506121836000830189611ce9565b81810360208301526121958188611dfe565b90506121a46040830187611ce9565b6121b16060830186612057565b6121be608083018561215f565b6121cb60a0830184611ce9565b979650505050505050565b60006020820190506121eb6000830184612057565b92915050565b6000602082019050612206600083018461215f565b92915050565b7f696e76616c696465207573657200000000000000000000000000000000000000600082015250565b6000612242600d83611da9565b915061224d8261220c565b602082019050919050565b6000602082019050818103600083015261227181612235565b9050919050565b7f796f752061726520616c726561647920766f7465640000000000000000000000600082015250565b60006122ae601583611da9565b91506122b982612278565b602082019050919050565b600060208201905081810360008301526122dd816122a1565b9050919050565b7f4e487b7100000000000000000000000000000000000000000000000000000000600052601160045260246000fd5b600061231e82611c86565b915061232983611c86565b9250827fffffffffffffffffffffffffffffffffffffffffffffffffffffffffffffffff0382111561235e5761235d6122e4565b5b828201905092915050565b600061237482611c86565b91507fffffffffffffffffffffffffffffffffffffffffffffffffffffffffffffffff8214156123a7576123a66122e4565b5b600182019050919050565b7f796f752063616e277420766f746520616e6f7468657220776172642063616e6460008201527f6964617465000000000000000000000000000000000000000000000000000000602082015250565b600061240e602583611da9565b9150612419826123b2565b604082019050919050565b6000602082019050818103600083015261243d81612401565b9050919050565b7f73616d652063616e6469646174652063616e2774206265206164646400000000600082015250565b600061247a601c83611da9565b915061248582612444565b602082019050919050565b600060208201905081810360008301526124a98161246d565b9050919050565b7f4e487b7100000000000000000000000000000000000000000000000000000000600052602260045260246000fd5b600060028204905060018216806124f757607f821691505b6020821081141561250b5761250a6124b0565b5b50919050565b7f7468657265206973206e6f2063616e6469646174650000000000000000000000600082015250565b6000612547601583611da9565b915061255282612511565b602082019050919050565b600060208201905081810360008301526125768161253a565b9050919050565b7f616c726561647920637265617465640000000000000000000000000000000000600082015250565b60006125b3600f83611da9565b91506125be8261257d565b602082019050919050565b600060208201905081810360008301526125e2816125a6565b9050919050565b7f617574686f726974792063616e206f6e6c792063616c6c20746869732066756e60008201527f6374696f6e000000000000000000000000000000000000000000000000000000602082015250565b6000612645602583611da9565b9150612650826125e9565b604082019050919050565b6000602082019050818103600083015261267481612638565b9050919050565b7f616c726561647920766572696679000000000000000000000000000000000000600082015250565b60006126b1600e83611da9565b91506126bc8261267b565b602082019050919050565b600060208201905081810360008301526126e0816126a4565b9050919050565b7f766f746572206e6f7420666f756e640000000000000000000000000000000000600082015250565b600061271d600f83611da9565b9150612728826126e7565b602082019050919050565b6000602082019050818103600083015261274c81612710565b9050919050565b7f616c7265616479206170726f7665640000000000000000000000000000000000600082015250565b6000612789600f83611da9565b915061279482612753565b602082019050919050565b600060208201905081810360008301526127b88161277c565b9050919050565b7f5468697320706572736f6e206973206e6f7420656c696769626c6520666f722060008201527f766f746572732049640000000000000000000000000000000000000000000000602082015250565b600061281b602983611da9565b9150612826826127bf565b604082019050919050565b6000602082019050818103600083015261284a8161280e565b905091905056fea2646970667358221220c094d3189801094ea5280b79cb9b99b1f22996e63b5737069bf3f3bfd593665364736f6c634300080a0033",
  "immutableReferences": {},
  "source": "// SPDX-License-Identifier: GPL-3.0\npragma solidity ^0.8.7;\n\nimport \"./election.sol\";\n\ncontract Voteing is Election{\n     function vote(uint candidatesId) public {\n        require(candidatesId > 0 && candidatesId <=  candidateCount, \"invalide user\");\n        require(!votes[msg.sender], \"you are already voted\");\n        \n        for(uint i=1001; i<=1000+voterCount; i++ ){\n            if(voter[i].voterAddress == msg.sender){\n                if(voter[i].voterWard == candidatelist[candidatesId].ward && voter[i].verify == true){\n                     votes[msg.sender] = true;\n                      candidatelist[candidatesId].voteCount++;\n                }else{\n                    revert(\"you can't vote another ward candidate\");\n                }       \n            }\n        }\n    }\n}",
  "sourcePath": "/home/nisamudheen/Desktop/sps/voting_smartcontract/contracts/Voting.sol",
  "compiler": {
    "name": "solc",
    "version": "0.8.10+commit.fc410830.Emscripten.clang"
  },
  "schemaVersion": "3.4.3",
  "updatedAt": "2021-12-25T04:29:50.661Z",
  "networkType": "ethereum",
  "devdoc": {
    "kind": "dev",
    "methods": {},
    "version": 1
  },
  "userdoc": {
    "kind": "user",
    "methods": {},
    "version": 1
  }
}