{
  "contractName": "Voteing",
  "abi": [
    {
      "inputs": [
        {
          "internalType": "address",
          "name": "_voteraddress",
          "type": "address"
        },
        {
          "internalType": "string",
          "name": "_remark",
          "type": "string"
        }
      ],
      "name": "RejectedCadidedress",
      "outputs": [],
      "stateMutability": "nonpayable",
      "type": "function"
    },
    {
      "inputs": [
        {
          "internalType": "uint256",
          "name": "_voterRegId",
          "type": "uint256"
        }
      ],
      "name": "allocateId",
      "outputs": [],
      "stateMutability": "nonpayable",
      "type": "function"
    },
    {
      "inputs": [
        {
          "internalType": "address",
          "name": "_voteraddress",
          "type": "address"
        },
        {
          "internalType": "string",
          "name": "_remark",
          "type": "string"
        }
      ],
      "name": "approveCadidedress",
      "outputs": [],
      "stateMutability": "nonpayable",
      "type": "function"
    },
    {
      "inputs": [],
      "name": "approvedCandidateCount",
      "outputs": [
        {
          "internalType": "uint256",
          "name": "",
          "type": "uint256"
        }
      ],
      "stateMutability": "view",
      "type": "function",
      "constant": true
    },
    {
      "inputs": [],
      "name": "authority",
      "outputs": [
        {
          "internalType": "address",
          "name": "",
          "type": "address"
        }
      ],
      "stateMutability": "view",
      "type": "function",
      "constant": true
    },
    {
      "inputs": [],
      "name": "candidateCount",
      "outputs": [
        {
          "internalType": "uint256",
          "name": "",
          "type": "uint256"
        }
      ],
      "stateMutability": "view",
      "type": "function",
      "constant": true
    },
    {
      "inputs": [
        {
          "internalType": "uint256",
          "name": "",
          "type": "uint256"
        }
      ],
      "name": "candidateReg",
      "outputs": [
        {
          "internalType": "uint256",
          "name": "CandidateRegId",
          "type": "uint256"
        },
        {
          "internalType": "string",
          "name": "name",
          "type": "string"
        },
        {
          "internalType": "uint256",
          "name": "ward",
          "type": "uint256"
        },
        {
          "internalType": "address",
          "name": "id",
          "type": "address"
        },
        {
          "internalType": "uint256",
          "name": "vote",
          "type": "uint256"
        },
        {
          "internalType": "uint256",
          "name": "VoterId",
          "type": "uint256"
        },
        {
          "internalType": "enum Election.candidateStatus",
          "name": "status",
          "type": "uint8"
        },
        {
          "internalType": "string",
          "name": "remark",
          "type": "string"
        }
      ],
      "stateMutability": "view",
      "type": "function",
      "constant": true
    },
    {
      "inputs": [
        {
          "internalType": "uint256",
          "name": "",
          "type": "uint256"
        }
      ],
      "name": "candidatelist",
      "outputs": [
        {
          "internalType": "uint256",
          "name": "CandidateRegId",
          "type": "uint256"
        },
        {
          "internalType": "string",
          "name": "name",
          "type": "string"
        },
        {
          "internalType": "uint256",
          "name": "ward",
          "type": "uint256"
        },
        {
          "internalType": "address",
          "name": "id",
          "type": "address"
        },
        {
          "internalType": "uint256",
          "name": "vote",
          "type": "uint256"
        },
        {
          "internalType": "uint256",
          "name": "VoterId",
          "type": "uint256"
        },
        {
          "internalType": "enum Election.candidateStatus",
          "name": "status",
          "type": "uint8"
        },
        {
          "internalType": "string",
          "name": "remark",
          "type": "string"
        }
      ],
      "stateMutability": "view",
      "type": "function",
      "constant": true
    },
    {
      "inputs": [
        {
          "internalType": "address",
          "name": "",
          "type": "address"
        }
      ],
      "name": "candidatelogin",
      "outputs": [
        {
          "internalType": "uint256",
          "name": "",
          "type": "uint256"
        }
      ],
      "stateMutability": "view",
      "type": "function",
      "constant": true
    },
    {
      "inputs": [
        {
          "internalType": "string",
          "name": "_name",
          "type": "string"
        },
        {
          "internalType": "uint256",
          "name": "_ward",
          "type": "uint256"
        },
        {
          "internalType": "uint256",
          "name": "_voterId",
          "type": "uint256"
        }
      ],
      "name": "cantidateRegistration",
      "outputs": [],
      "stateMutability": "nonpayable",
      "type": "function"
    },
    {
      "inputs": [],
      "name": "result",
      "outputs": [
        {
          "internalType": "string",
          "name": "",
          "type": "string"
        },
        {
          "internalType": "uint256",
          "name": "",
          "type": "uint256"
        },
        {
          "internalType": "uint256",
          "name": "",
          "type": "uint256"
        }
      ],
      "stateMutability": "view",
      "type": "function",
      "constant": true
    },
    {
      "inputs": [],
      "name": "time",
      "outputs": [
        {
          "internalType": "uint256",
          "name": "",
          "type": "uint256"
        }
      ],
      "stateMutability": "view",
      "type": "function",
      "constant": true
    },
    {
      "inputs": [],
      "name": "voteEnd",
      "outputs": [
        {
          "internalType": "uint256",
          "name": "",
          "type": "uint256"
        }
      ],
      "stateMutability": "view",
      "type": "function",
      "constant": true
    },
    {
      "inputs": [],
      "name": "voteStart",
      "outputs": [
        {
          "internalType": "uint256",
          "name": "",
          "type": "uint256"
        }
      ],
      "stateMutability": "view",
      "type": "function",
      "constant": true
    },
    {
      "inputs": [
        {
          "internalType": "uint256",
          "name": "",
          "type": "uint256"
        }
      ],
      "name": "voter",
      "outputs": [
        {
          "internalType": "uint256",
          "name": "RegId",
          "type": "uint256"
        },
        {
          "internalType": "string",
          "name": "voterName",
          "type": "string"
        },
        {
          "internalType": "uint256",
          "name": "voterWard",
          "type": "uint256"
        },
        {
          "internalType": "address",
          "name": "voterAddress",
          "type": "address"
        },
        {
          "internalType": "uint256",
          "name": "voterId",
          "type": "uint256"
        },
        {
          "internalType": "bool",
          "name": "status",
          "type": "bool"
        }
      ],
      "stateMutability": "view",
      "type": "function",
      "constant": true
    },
    {
      "inputs": [],
      "name": "voterCount",
      "outputs": [
        {
          "internalType": "uint256",
          "name": "",
          "type": "uint256"
        }
      ],
      "stateMutability": "view",
      "type": "function",
      "constant": true
    },
    {
      "inputs": [
        {
          "internalType": "string",
          "name": "_name",
          "type": "string"
        },
        {
          "internalType": "uint256",
          "name": "_ward",
          "type": "uint256"
        }
      ],
      "name": "voterRegistration",
      "outputs": [],
      "stateMutability": "nonpayable",
      "type": "function"
    },
    {
      "inputs": [
        {
          "internalType": "address",
          "name": "",
          "type": "address"
        }
      ],
      "name": "voterlogin",
      "outputs": [
        {
          "internalType": "uint256",
          "name": "",
          "type": "uint256"
        }
      ],
      "stateMutability": "view",
      "type": "function",
      "constant": true
    },
    {
      "inputs": [
        {
          "internalType": "address",
          "name": "",
          "type": "address"
        }
      ],
      "name": "votes",
      "outputs": [
        {
          "internalType": "bool",
          "name": "",
          "type": "bool"
        }
      ],
      "stateMutability": "view",
      "type": "function",
      "constant": true
    },
    {
      "inputs": [
        {
          "internalType": "uint256",
          "name": "candidateId",
          "type": "uint256"
        }
      ],
      "name": "vote",
      "outputs": [],
      "stateMutability": "nonpayable",
      "type": "function"
    }
  ],
  "bytecode": "0x6080604052426003556103e8600d553480156200001b57600080fd5b50336000806101000a81548173ffffffffffffffffffffffffffffffffffffffff021916908373ffffffffffffffffffffffffffffffffffffffff160217905550610258426200006c9190620000c7565b600181905550611c2042620000829190620000c7565b60028190555062000124565b6000819050919050565b7f4e487b7100000000000000000000000000000000000000000000000000000000600052601160045260246000fd5b6000620000d4826200008e565b9150620000e1836200008e565b9250827fffffffffffffffffffffffffffffffffffffffffffffffffffffffffffffffff0382111562000119576200011862000098565b5b828201905092915050565b612e5f80620001346000396000f3fe608060405234801561001057600080fd5b506004361061012c5760003560e01c8063a9a981a3116100ad578063d8bff5a511610071578063d8bff5a514610346578063ddbe8f0914610376578063e031535b14610394578063e749ee48146103b2578063f22e9d0b146103e25761012c565b8063a9a981a314610282578063ab8ed1ba146102a0578063b1c63ed0146102d5578063bcaf189b146102f1578063bf7e214f146103285761012c565b80634bc81946116100f45780634bc81946146101c15780635f4e5628146101f1578063653721471461020d5780637400df711461022d578063911eb81d1461024b5761012c565b80630121b93f14610131578063032071f41461014d5780630ceab5a91461016957806316ada5471461018557806342169e48146101a3575b600080fd5b61014b60048036038101906101469190612116565b6103fe565b005b61016760048036038101906101629190612289565b610723565b005b610183600480360381019061017e9190612356565b610ab3565b005b61018d610f37565b60405161019a91906123c1565b60405180910390f35b6101ab610f3d565b6040516101b891906123c1565b60405180910390f35b6101db60048036038101906101d691906123dc565b610f43565b6040516101e891906123c1565b60405180910390f35b61020b60048036038101906102069190612356565b610f5b565b005b610215611643565b60405161022493929190612491565b60405180910390f35b6102356117cd565b60405161024291906123c1565b60405180910390f35b61026560048036038101906102609190612116565b6117d3565b604051610279989796959493929190612555565b60405180910390f35b61028a611958565b60405161029791906123c1565b60405180910390f35b6102ba60048036038101906102b59190612116565b61195e565b6040516102cc969594939291906125fc565b60405180910390f35b6102ef60048036038101906102ea9190612664565b611a4f565b005b61030b60048036038101906103069190612116565b611c7d565b60405161031f989796959493929190612555565b60405180910390f35b610330611e02565b60405161033d91906126c0565b60405180910390f35b610360600480360381019061035b91906123dc565b611e26565b60405161036d91906126db565b60405180910390f35b61037e611e46565b60405161038b91906123c1565b60405180910390f35b61039c611e4c565b6040516103a991906123c1565b60405180910390f35b6103cc60048036038101906103c791906123dc565b611e52565b6040516103d991906123c1565b60405180910390f35b6103fc60048036038101906103f79190612116565b611e6a565b005b6000811180156104105750600c548111155b61044f576040517f08c379a000000000000000000000000000000000000000000000000000000000815260040161044690612742565b60405180910390fd5b600460003373ffffffffffffffffffffffffffffffffffffffff1673ffffffffffffffffffffffffffffffffffffffff16815260200190815260200160002060009054906101000a900460ff16156104dc576040517f08c379a00000000000000000000000000000000000000000000000000000000081526004016104d3906127ae565b60405180910390fd5b600154421015610521576040517f08c379a00000000000000000000000000000000000000000000000000000000081526004016105189061281a565b60405180910390fd5b600254421115610566576040517f08c379a000000000000000000000000000000000000000000000000000000000815260040161055d90612886565b60405180910390fd5b6000600190505b600b54811161071f573373ffffffffffffffffffffffffffffffffffffffff166005600083815260200190815260200160002060030160009054906101000a900473ffffffffffffffffffffffffffffffffffffffff1673ffffffffffffffffffffffffffffffffffffffff16141561070c57600760008381526020019081526020016000206002015460056000838152602001908152602001600020600201541480156106425750600115156005600083815260200190815260200160002060050160009054906101000a900460ff161515145b156106d0576001600460003373ffffffffffffffffffffffffffffffffffffffff1673ffffffffffffffffffffffffffffffffffffffff16815260200190815260200160002060006101000a81548160ff0219169083151502179055506007600083815260200190815260200160002060040160008154809291906106c6906128d5565b919050555061070b565b6040517f08c379a000000000000000000000000000000000000000000000000000000000815260040161070290612990565b60405180910390fd5b5b8080610717906128d5565b91505061056d565b5050565b6000600190505b600a5481116107eb573373ffffffffffffffffffffffffffffffffffffffff166006600083815260200190815260200160002060030160009054906101000a900473ffffffffffffffffffffffffffffffffffffffff1673ffffffffffffffffffffffffffffffffffffffff1614156107d8576040517f08c379a00000000000000000000000000000000000000000000000000000000081526004016107cf90612a22565b60405180910390fd5b80806107e3906128d5565b91505061072a565b506000600190505b600b5481116108e7573373ffffffffffffffffffffffffffffffffffffffff166005600083815260200190815260200160002060030160009054906101000a900473ffffffffffffffffffffffffffffffffffffffff1673ffffffffffffffffffffffffffffffffffffffff161480156108945750600015156005600083815260200190815260200160002060050160009054906101000a900460ff161515145b156108d4576040517f08c379a00000000000000000000000000000000000000000000000000000000081526004016108cb90612a8e565b60405180910390fd5b80806108df906128d5565b9150506107f3565b50600a60008154809291906108fb906128d5565b91905055506000604051806101000160405280600a5481526020018581526020018481526020013373ffffffffffffffffffffffffffffffffffffffff1681526020016000815260200183815260200182600281111561095e5761095d6124de565b5b81526020016040518060200160405280600081525081525060066000600a5481526020019081526020016000206000820151816000015560208201518160010190805190602001906109b1929190612029565b506040820151816002015560608201518160030160006101000a81548173ffffffffffffffffffffffffffffffffffffffff021916908373ffffffffffffffffffffffffffffffffffffffff1602179055506080820151816004015560a0820151816005015560c08201518160060160006101000a81548160ff02191690836002811115610a4257610a416124de565b5b021790555060e0820151816007019080519060200190610a63929190612029565b50905050600a54600960003373ffffffffffffffffffffffffffffffffffffffff1673ffffffffffffffffffffffffffffffffffffffff1681526020019081526020016000208190555050505050565b60008054906101000a900473ffffffffffffffffffffffffffffffffffffffff1673ffffffffffffffffffffffffffffffffffffffff163373ffffffffffffffffffffffffffffffffffffffff1614610b41576040517f08c379a0000000000000000000000000000000000000000000000000000000008152600401610b3890612b20565b60405180910390fd5b6000600190505b600c548111610c09578273ffffffffffffffffffffffffffffffffffffffff166007600083815260200190815260200160002060030160009054906101000a900473ffffffffffffffffffffffffffffffffffffffff1673ffffffffffffffffffffffffffffffffffffffff161415610bf6576040517f08c379a0000000000000000000000000000000000000000000000000000000008152600401610bed90612b8c565b60405180910390fd5b8080610c01906128d5565b915050610b48565b50600080600190505b600a548111610eee578373ffffffffffffffffffffffffffffffffffffffff166006600083815260200190815260200160002060030160009054906101000a900473ffffffffffffffffffffffffffffffffffffffff1673ffffffffffffffffffffffffffffffffffffffff161415610edb57600c6000815480929190610c98906128d5565b919050555060006002905060405180610100016040528060066000858152602001908152602001600020600001548152602001600660008581526020019081526020016000206001018054610cec90612bdb565b80601f0160208091040260200160405190810160405280929190818152602001828054610d1890612bdb565b8015610d655780601f10610d3a57610100808354040283529160200191610d65565b820191906000526020600020905b815481529060010190602001808311610d4857829003601f168201915b50505050508152602001600660008581526020019081526020016000206002015481526020018673ffffffffffffffffffffffffffffffffffffffff1681526020016000815260200160066000858152602001908152602001600020600501548152602001826002811115610ddd57610ddc6124de565b5b81526020018581525060066000848152602001908152602001600020600082015181600001556020820151816001019080519060200190610e1f929190612029565b506040820151816002015560608201518160030160006101000a81548173ffffffffffffffffffffffffffffffffffffffff021916908373ffffffffffffffffffffffffffffffffffffffff1602179055506080820151816004015560a0820151816005015560c08201518160060160006101000a81548160ff02191690836002811115610eb057610eaf6124de565b5b021790555060e0820151816007019080519060200190610ed1929190612029565b5090505060019250505b8080610ee6906128d5565b915050610c12565b5060018114610f32576040517f08c379a0000000000000000000000000000000000000000000000000000000008152600401610f2990612c59565b60405180910390fd5b505050565b60035481565b600b5481565b60086020528060005260406000206000915090505481565b60008054906101000a900473ffffffffffffffffffffffffffffffffffffffff1673ffffffffffffffffffffffffffffffffffffffff163373ffffffffffffffffffffffffffffffffffffffff1614610fe9576040517f08c379a0000000000000000000000000000000000000000000000000000000008152600401610fe090612b20565b60405180910390fd5b6000600190505b600c5481116110b1578273ffffffffffffffffffffffffffffffffffffffff166007600083815260200190815260200160002060030160009054906101000a900473ffffffffffffffffffffffffffffffffffffffff1673ffffffffffffffffffffffffffffffffffffffff16141561109e576040517f08c379a000000000000000000000000000000000000000000000000000000000815260040161109590612b8c565b60405180910390fd5b80806110a9906128d5565b915050610ff0565b50600080600190505b600a5481116115fa578373ffffffffffffffffffffffffffffffffffffffff166006600083815260200190815260200160002060030160009054906101000a900473ffffffffffffffffffffffffffffffffffffffff1673ffffffffffffffffffffffffffffffffffffffff1614156115e757600c6000815480929190611140906128d5565b91905055506000600190506040518061010001604052806006600085815260200190815260200160002060000154815260200160066000858152602001908152602001600020600101805461119490612bdb565b80601f01602080910402602001604051908101604052809291908181526020018280546111c090612bdb565b801561120d5780601f106111e25761010080835404028352916020019161120d565b820191906000526020600020905b8154815290600101906020018083116111f057829003601f168201915b50505050508152602001600660008581526020019081526020016000206002015481526020018673ffffffffffffffffffffffffffffffffffffffff1681526020016000815260200160066000858152602001908152602001600020600501548152602001826002811115611285576112846124de565b5b815260200185815250600660008481526020019081526020016000206000820151816000015560208201518160010190805190602001906112c7929190612029565b506040820151816002015560608201518160030160006101000a81548173ffffffffffffffffffffffffffffffffffffffff021916908373ffffffffffffffffffffffffffffffffffffffff1602179055506080820151816004015560a0820151816005015560c08201518160060160006101000a81548160ff02191690836002811115611358576113576124de565b5b021790555060e0820151816007019080519060200190611379929190612029565b50905050604051806101000160405280600c5481526020016006600085815260200190815260200160002060010180546113b290612bdb565b80601f01602080910402602001604051908101604052809291908181526020018280546113de90612bdb565b801561142b5780601f106114005761010080835404028352916020019161142b565b820191906000526020600020905b81548152906001019060200180831161140e57829003601f168201915b50505050508152602001600660008581526020019081526020016000206002015481526020018673ffffffffffffffffffffffffffffffffffffffff16815260200160008152602001600660008581526020019081526020016000206005015481526020018260028111156114a3576114a26124de565b5b81526020018581525060076000600c5481526020019081526020016000206000820151816000015560208201518160010190805190602001906114e7929190612029565b506040820151816002015560608201518160030160006101000a81548173ffffffffffffffffffffffffffffffffffffffff021916908373ffffffffffffffffffffffffffffffffffffffff1602179055506080820151816004015560a0820151816005015560c08201518160060160006101000a81548160ff02191690836002811115611578576115776124de565b5b021790555060e0820151816007019080519060200190611599929190612029565b5090505081600960008773ffffffffffffffffffffffffffffffffffffffff1673ffffffffffffffffffffffffffffffffffffffff1681526020019081526020016000208190555060019250505b80806115f2906128d5565b9150506110ba565b506001811461163e576040517f08c379a000000000000000000000000000000000000000000000000000000000815260040161163590612c59565b60405180910390fd5b505050565b60606000806001600c54101561168e576040517f08c379a000000000000000000000000000000000000000000000000000000000815260040161168590612cc5565b60405180910390fd5b6000806000600190505b600c5481116116ef5782600760008381526020019081526020016000206004015411156116dc57600760008281526020019081526020016000206004015492508091505b80806116e7906128d5565b915050611698565b50600760008281526020019081526020016000206001016007600083815260200190815260200160002060040154600760008481526020019081526020016000206002015482805461174090612bdb565b80601f016020809104026020016040519081016040528092919081815260200182805461176c90612bdb565b80156117b95780601f1061178e576101008083540402835291602001916117b9565b820191906000526020600020905b81548152906001019060200180831161179c57829003601f168201915b505050505092509450945094505050909192565b600c5481565b60076020528060005260406000206000915090508060000154908060010180546117fc90612bdb565b80601f016020809104026020016040519081016040528092919081815260200182805461182890612bdb565b80156118755780601f1061184a57610100808354040283529160200191611875565b820191906000526020600020905b81548152906001019060200180831161185857829003601f168201915b5050505050908060020154908060030160009054906101000a900473ffffffffffffffffffffffffffffffffffffffff16908060040154908060050154908060060160009054906101000a900460ff16908060070180546118d590612bdb565b80601f016020809104026020016040519081016040528092919081815260200182805461190190612bdb565b801561194e5780601f106119235761010080835404028352916020019161194e565b820191906000526020600020905b81548152906001019060200180831161193157829003601f168201915b5050505050905088565b600a5481565b600560205280600052604060002060009150905080600001549080600101805461198790612bdb565b80601f01602080910402602001604051908101604052809291908181526020018280546119b390612bdb565b8015611a005780601f106119d557610100808354040283529160200191611a00565b820191906000526020600020905b8154815290600101906020018083116119e357829003601f168201915b5050505050908060020154908060030160009054906101000a900473ffffffffffffffffffffffffffffffffffffffff16908060040154908060050160009054906101000a900460ff16905086565b6000600190505b600b548111611b17573373ffffffffffffffffffffffffffffffffffffffff166005600083815260200190815260200160002060030160009054906101000a900473ffffffffffffffffffffffffffffffffffffffff1673ffffffffffffffffffffffffffffffffffffffff161415611b04576040517f08c379a0000000000000000000000000000000000000000000000000000000008152600401611afb90612d31565b60405180910390fd5b8080611b0f906128d5565b915050611a56565b50600b6000815480929190611b2b906128d5565b91905055506040518060c00160405280600b5481526020018381526020018281526020013373ffffffffffffffffffffffffffffffffffffffff168152602001600181526020016000151581525060056000600b548152602001908152602001600020600082015181600001556020820151816001019080519060200190611bb4929190612029565b506040820151816002015560608201518160030160006101000a81548173ffffffffffffffffffffffffffffffffffffffff021916908373ffffffffffffffffffffffffffffffffffffffff1602179055506080820151816004015560a08201518160050160006101000a81548160ff021916908315150217905550905050600b54600860003373ffffffffffffffffffffffffffffffffffffffff1673ffffffffffffffffffffffffffffffffffffffff168152602001908152602001600020819055505050565b6006602052806000526040600020600091509050806000015490806001018054611ca690612bdb565b80601f0160208091040260200160405190810160405280929190818152602001828054611cd290612bdb565b8015611d1f5780601f10611cf457610100808354040283529160200191611d1f565b820191906000526020600020905b815481529060010190602001808311611d0257829003601f168201915b5050505050908060020154908060030160009054906101000a900473ffffffffffffffffffffffffffffffffffffffff16908060040154908060050154908060060160009054906101000a900460ff1690806007018054611d7f90612bdb565b80601f0160208091040260200160405190810160405280929190818152602001828054611dab90612bdb565b8015611df85780601f10611dcd57610100808354040283529160200191611df8565b820191906000526020600020905b815481529060010190602001808311611ddb57829003601f168201915b5050505050905088565b60008054906101000a900473ffffffffffffffffffffffffffffffffffffffff1681565b60046020528060005260406000206000915054906101000a900460ff1681565b60025481565b60015481565b60096020528060005260406000206000915090505481565b60008054906101000a900473ffffffffffffffffffffffffffffffffffffffff1673ffffffffffffffffffffffffffffffffffffffff163373ffffffffffffffffffffffffffffffffffffffff1614611ef8576040517f08c379a0000000000000000000000000000000000000000000000000000000008152600401611eef90612b20565b60405180910390fd5b600115156005600083815260200190815260200160002060050160009054906101000a900460ff1615151415611f63576040517f08c379a0000000000000000000000000000000000000000000000000000000008152600401611f5a90612d9d565b60405180910390fd5b600160056000838152602001908152602001600020600401541415611feb57600d6000815480929190611f95906128d5565b9190505550600d54600560008381526020019081526020016000206004018190555060016005600083815260200190815260200160002060050160006101000a81548160ff021916908315150217905550612026565b6040517f08c379a000000000000000000000000000000000000000000000000000000000815260040161201d90612e09565b60405180910390fd5b50565b82805461203590612bdb565b90600052602060002090601f016020900481019282612057576000855561209e565b82601f1061207057805160ff191683800117855561209e565b8280016001018555821561209e579182015b8281111561209d578251825591602001919060010190612082565b5b5090506120ab91906120af565b5090565b5b808211156120c85760008160009055506001016120b0565b5090565b6000604051905090565b600080fd5b600080fd5b6000819050919050565b6120f3816120e0565b81146120fe57600080fd5b50565b600081359050612110816120ea565b92915050565b60006020828403121561212c5761212b6120d6565b5b600061213a84828501612101565b91505092915050565b600080fd5b600080fd5b6000601f19601f8301169050919050565b7f4e487b7100000000000000000000000000000000000000000000000000000000600052604160045260246000fd5b6121968261214d565b810181811067ffffffffffffffff821117156121b5576121b461215e565b5b80604052505050565b60006121c86120cc565b90506121d4828261218d565b919050565b600067ffffffffffffffff8211156121f4576121f361215e565b5b6121fd8261214d565b9050602081019050919050565b82818337600083830152505050565b600061222c612227846121d9565b6121be565b90508281526020810184848401111561224857612247612148565b5b61225384828561220a565b509392505050565b600082601f8301126122705761226f612143565b5b8135612280848260208601612219565b91505092915050565b6000806000606084860312156122a2576122a16120d6565b5b600084013567ffffffffffffffff8111156122c0576122bf6120db565b5b6122cc8682870161225b565b93505060206122dd86828701612101565b92505060406122ee86828701612101565b9150509250925092565b600073ffffffffffffffffffffffffffffffffffffffff82169050919050565b6000612323826122f8565b9050919050565b61233381612318565b811461233e57600080fd5b50565b6000813590506123508161232a565b92915050565b6000806040838503121561236d5761236c6120d6565b5b600061237b85828601612341565b925050602083013567ffffffffffffffff81111561239c5761239b6120db565b5b6123a88582860161225b565b9150509250929050565b6123bb816120e0565b82525050565b60006020820190506123d660008301846123b2565b92915050565b6000602082840312156123f2576123f16120d6565b5b600061240084828501612341565b91505092915050565b600081519050919050565b600082825260208201905092915050565b60005b83811015612443578082015181840152602081019050612428565b83811115612452576000848401525b50505050565b600061246382612409565b61246d8185612414565b935061247d818560208601612425565b6124868161214d565b840191505092915050565b600060608201905081810360008301526124ab8186612458565b90506124ba60208301856123b2565b6124c760408301846123b2565b949350505050565b6124d881612318565b82525050565b7f4e487b7100000000000000000000000000000000000000000000000000000000600052602160045260246000fd5b6003811061251e5761251d6124de565b5b50565b600081905061252f8261250d565b919050565b600061253f82612521565b9050919050565b61254f81612534565b82525050565b60006101008201905061256b600083018b6123b2565b818103602083015261257d818a612458565b905061258c60408301896123b2565b61259960608301886124cf565b6125a660808301876123b2565b6125b360a08301866123b2565b6125c060c0830185612546565b81810360e08301526125d28184612458565b90509998505050505050505050565b60008115159050919050565b6125f6816125e1565b82525050565b600060c08201905061261160008301896123b2565b81810360208301526126238188612458565b905061263260408301876123b2565b61263f60608301866124cf565b61264c60808301856123b2565b61265960a08301846125ed565b979650505050505050565b6000806040838503121561267b5761267a6120d6565b5b600083013567ffffffffffffffff811115612699576126986120db565b5b6126a58582860161225b565b92505060206126b685828601612101565b9150509250929050565b60006020820190506126d560008301846124cf565b92915050565b60006020820190506126f060008301846125ed565b92915050565b7f696e76616c696465207573657200000000000000000000000000000000000000600082015250565b600061272c600d83612414565b9150612737826126f6565b602082019050919050565b6000602082019050818103600083015261275b8161271f565b9050919050565b7f796f752061726520616c726561647920766f7465640000000000000000000000600082015250565b6000612798601583612414565b91506127a382612762565b602082019050919050565b600060208201905081810360008301526127c78161278b565b9050919050565b7f766f74696e67206e6f74207374617274656420617420746869732074696d6500600082015250565b6000612804601f83612414565b915061280f826127ce565b602082019050919050565b60006020820190508181036000830152612833816127f7565b9050919050565b7f766f74696e6720656e6465640000000000000000000000000000000000000000600082015250565b6000612870600c83612414565b915061287b8261283a565b602082019050919050565b6000602082019050818103600083015261289f81612863565b9050919050565b7f4e487b7100000000000000000000000000000000000000000000000000000000600052601160045260246000fd5b60006128e0826120e0565b91507fffffffffffffffffffffffffffffffffffffffffffffffffffffffffffffffff821415612913576129126128a6565b5b600182019050919050565b7f796f752063616e277420766f746520616e6f7468657220776172642063616e6460008201527f6964617465000000000000000000000000000000000000000000000000000000602082015250565b600061297a602583612414565b91506129858261291e565b604082019050919050565b600060208201905081810360008301526129a98161296d565b9050919050565b7f73616d652063616e6469646174652063616e277420626520726567697374657260008201527f20616761696e0000000000000000000000000000000000000000000000000000602082015250565b6000612a0c602683612414565b9150612a17826129b0565b604082019050919050565b60006020820190508181036000830152612a3b816129ff565b9050919050565b7f566f746572206973206e6f742076657269666965640000000000000000000000600082015250565b6000612a78601583612414565b9150612a8382612a42565b602082019050919050565b60006020820190508181036000830152612aa781612a6b565b9050919050565b7f617574686f726974792063616e206f6e6c792063616c6c20746869732066756e60008201527f6374696f6e000000000000000000000000000000000000000000000000000000602082015250565b6000612b0a602583612414565b9150612b1582612aae565b604082019050919050565b60006020820190508181036000830152612b3981612afd565b9050919050565b7f616c7265616479206170726f7665640000000000000000000000000000000000600082015250565b6000612b76600f83612414565b9150612b8182612b40565b602082019050919050565b60006020820190508181036000830152612ba581612b69565b9050919050565b7f4e487b7100000000000000000000000000000000000000000000000000000000600052602260045260246000fd5b60006002820490506001821680612bf357607f821691505b60208210811415612c0757612c06612bac565b5b50919050565b7f74686572206973206e6f20737563682063616e64696461746500000000000000600082015250565b6000612c43601983612414565b9150612c4e82612c0d565b602082019050919050565b60006020820190508181036000830152612c7281612c36565b9050919050565b7f7468657265206973206e6f2063616e6469646174650000000000000000000000600082015250565b6000612caf601583612414565b9150612cba82612c79565b602082019050919050565b60006020820190508181036000830152612cde81612ca2565b9050919050565b7f616c726561647920637265617465640000000000000000000000000000000000600082015250565b6000612d1b600f83612414565b9150612d2682612ce5565b602082019050919050565b60006020820190508181036000830152612d4a81612d0e565b9050919050565b7f416c726561647920766f74657220494420416c6c6f6361746564200000000000600082015250565b6000612d87601b83612414565b9150612d9282612d51565b602082019050919050565b60006020820190508181036000830152612db681612d7a565b9050919050565b7f4669737420796f75206e65656420746f20726567697374657200000000000000600082015250565b6000612df3601983612414565b9150612dfe82612dbd565b602082019050919050565b60006020820190508181036000830152612e2281612de6565b905091905056fea26469706673582212200ae7b5b8902197343980be4d1a7fe08bd36875e818060a2b5bbf77b79e91a3e564736f6c634300080a0033",
  "immutableReferences": {},
  "source": "// SPDX-License-Identifier: GPL-3.0\npragma solidity ^0.8.7;\n\nimport \"./election.sol\";\n\ncontract Voteing is Election{\n    \n\n    function vote(uint candidateId) public {\n        require(candidateId > 0 && candidateId <=  approvedCandidateCount, \"invalide user\");\n        require(!votes[msg.sender], \"you are already voted\");\n          require(block.timestamp >= voteStart,\"voting not started at this time\");\n        require(block.timestamp <= voteEnd , \"voting ended\");\n       \n\n        for(uint i=1; i<=voterCount; i++ ){\n            if(voter[i].voterAddress == msg.sender){\n                if(voter[i].voterWard == candidatelist[candidateId].ward && voter[i].status == true){\n                    votes[msg.sender] = true;\n                    candidatelist[candidateId].vote++;\n                }else{\n                    revert(\"you can't vote another ward candidate\");\n                }       \n            }\n        }\n    }\n}",
  "sourcePath": "/home/nisamudheen/Desktop/sps/voting_smartcontract/contracts/Voting.sol",
  "compiler": {
    "name": "solc",
    "version": "0.8.10+commit.fc410830.Emscripten.clang"
  },
  "schemaVersion": "3.4.3",
  "updatedAt": "2022-01-06T08:04:34.526Z",
  "networkType": "ethereum",
  "devdoc": {
    "kind": "dev",
    "methods": {},
    "version": 1
  },
  "userdoc": {
    "kind": "user",
    "methods": {},
    "version": 1
  }
}