{
  "contractName": "Voteing",
  "abi": [
    {
      "inputs": [],
      "name": "applyForCantidate",
      "outputs": [],
      "stateMutability": "nonpayable",
      "type": "function"
    },
    {
      "inputs": [
        {
          "internalType": "address",
          "name": "_voteraddress",
          "type": "address"
        }
      ],
      "name": "approveCadidedress",
      "outputs": [],
      "stateMutability": "nonpayable",
      "type": "function"
    },
    {
      "inputs": [],
      "name": "approvedCandidateCount",
      "outputs": [
        {
          "internalType": "uint256",
          "name": "",
          "type": "uint256"
        }
      ],
      "stateMutability": "view",
      "type": "function",
      "constant": true
    },
    {
      "inputs": [],
      "name": "authority",
      "outputs": [
        {
          "internalType": "address",
          "name": "",
          "type": "address"
        }
      ],
      "stateMutability": "view",
      "type": "function",
      "constant": true
    },
    {
      "inputs": [],
      "name": "candidateCount",
      "outputs": [
        {
          "internalType": "uint256",
          "name": "",
          "type": "uint256"
        }
      ],
      "stateMutability": "view",
      "type": "function",
      "constant": true
    },
    {
      "inputs": [
        {
          "internalType": "uint256",
          "name": "",
          "type": "uint256"
        }
      ],
      "name": "candidateReg",
      "outputs": [
        {
          "internalType": "uint256",
          "name": "CandidateId",
          "type": "uint256"
        },
        {
          "internalType": "string",
          "name": "name",
          "type": "string"
        },
        {
          "internalType": "uint256",
          "name": "ward",
          "type": "uint256"
        },
        {
          "internalType": "uint256",
          "name": "voteCount",
          "type": "uint256"
        },
        {
          "internalType": "address",
          "name": "id",
          "type": "address"
        },
        {
          "internalType": "uint256",
          "name": "VoterId",
          "type": "uint256"
        },
        {
          "internalType": "enum Election.candidateStatus",
          "name": "status",
          "type": "uint8"
        }
      ],
      "stateMutability": "view",
      "type": "function",
      "constant": true
    },
    {
      "inputs": [
        {
          "internalType": "uint256",
          "name": "",
          "type": "uint256"
        }
      ],
      "name": "candidatelist",
      "outputs": [
        {
          "internalType": "uint256",
          "name": "CandidateId",
          "type": "uint256"
        },
        {
          "internalType": "string",
          "name": "name",
          "type": "string"
        },
        {
          "internalType": "uint256",
          "name": "ward",
          "type": "uint256"
        },
        {
          "internalType": "uint256",
          "name": "voteCount",
          "type": "uint256"
        },
        {
          "internalType": "address",
          "name": "id",
          "type": "address"
        },
        {
          "internalType": "uint256",
          "name": "VoterId",
          "type": "uint256"
        },
        {
          "internalType": "enum Election.candidateStatus",
          "name": "status",
          "type": "uint8"
        }
      ],
      "stateMutability": "view",
      "type": "function",
      "constant": true
    },
    {
      "inputs": [],
      "name": "count",
      "outputs": [
        {
          "internalType": "uint256",
          "name": "",
          "type": "uint256"
        }
      ],
      "stateMutability": "view",
      "type": "function",
      "constant": true
    },
    {
      "inputs": [],
      "name": "result",
      "outputs": [
        {
          "internalType": "string",
          "name": "",
          "type": "string"
        },
        {
          "internalType": "uint256",
          "name": "",
          "type": "uint256"
        }
      ],
      "stateMutability": "view",
      "type": "function",
      "constant": true
    },
    {
      "inputs": [
        {
          "internalType": "uint256",
          "name": "",
          "type": "uint256"
        }
      ],
      "name": "voter",
      "outputs": [
        {
          "internalType": "uint256",
          "name": "index",
          "type": "uint256"
        },
        {
          "internalType": "string",
          "name": "voterName",
          "type": "string"
        },
        {
          "internalType": "uint256",
          "name": "voterWard",
          "type": "uint256"
        },
        {
          "internalType": "address",
          "name": "voterAddress",
          "type": "address"
        },
        {
          "internalType": "bool",
          "name": "verify",
          "type": "bool"
        },
        {
          "internalType": "uint256",
          "name": "voterId",
          "type": "uint256"
        }
      ],
      "stateMutability": "view",
      "type": "function",
      "constant": true
    },
    {
      "inputs": [],
      "name": "voterCount",
      "outputs": [
        {
          "internalType": "uint256",
          "name": "",
          "type": "uint256"
        }
      ],
      "stateMutability": "view",
      "type": "function",
      "constant": true
    },
    {
      "inputs": [
        {
          "internalType": "string",
          "name": "_name",
          "type": "string"
        },
        {
          "internalType": "uint256",
          "name": "_ward",
          "type": "uint256"
        },
        {
          "internalType": "uint256",
          "name": "_age",
          "type": "uint256"
        }
      ],
      "name": "voterIdReg",
      "outputs": [],
      "stateMutability": "nonpayable",
      "type": "function"
    },
    {
      "inputs": [
        {
          "internalType": "string",
          "name": "_name",
          "type": "string"
        },
        {
          "internalType": "uint256",
          "name": "_ward",
          "type": "uint256"
        },
        {
          "internalType": "uint256",
          "name": "_voterId",
          "type": "uint256"
        }
      ],
      "name": "voterRegistration",
      "outputs": [],
      "stateMutability": "nonpayable",
      "type": "function"
    },
    {
      "inputs": [
        {
          "internalType": "uint256",
          "name": "_voterId",
          "type": "uint256"
        }
      ],
      "name": "voterVerify",
      "outputs": [],
      "stateMutability": "nonpayable",
      "type": "function"
    },
    {
      "inputs": [
        {
          "internalType": "uint256",
          "name": "",
          "type": "uint256"
        }
      ],
      "name": "voteridcard",
      "outputs": [
        {
          "internalType": "string",
          "name": "voterName",
          "type": "string"
        },
        {
          "internalType": "uint256",
          "name": "voterWard",
          "type": "uint256"
        },
        {
          "internalType": "uint256",
          "name": "age",
          "type": "uint256"
        },
        {
          "internalType": "uint256",
          "name": "voterIds",
          "type": "uint256"
        }
      ],
      "stateMutability": "view",
      "type": "function",
      "constant": true
    },
    {
      "inputs": [
        {
          "internalType": "address",
          "name": "",
          "type": "address"
        }
      ],
      "name": "votes",
      "outputs": [
        {
          "internalType": "bool",
          "name": "",
          "type": "bool"
        }
      ],
      "stateMutability": "view",
      "type": "function",
      "constant": true
    },
    {
      "inputs": [
        {
          "internalType": "uint256",
          "name": "candidatesId",
          "type": "uint256"
        }
      ],
      "name": "vote",
      "outputs": [],
      "stateMutability": "nonpayable",
      "type": "function"
    }
  ],
  "bytecode": "0x60806040526103e860005534801561001657600080fd5b5033600360006101000a81548173ffffffffffffffffffffffffffffffffffffffff021916908373ffffffffffffffffffffffffffffffffffffffff160217905550612759806100676000396000f3fe608060405234801561001057600080fd5b506004361061010b5760003560e01c8063905d04c2116100a2578063ab8ed1ba11610071578063ab8ed1ba1461028a578063bcaf189b146102bf578063bf7e214f146102f5578063ca6ea96d14610313578063d8bff5a51461032f5761010b565b8063905d04c2146101fe578063911eb81d1461021a57806395cf050914610250578063a9a981a31461026c5761010b565b806365372147116100de5780636537214714610172578063656ee5cc146101915780637400df71146101ad5780637bd01925146101cb5761010b565b80630121b93f1461011057806306661abd1461012c57806342169e481461014a578063542ac40d14610168575b600080fd5b61012a60048036038101906101259190611b8e565b61035f565b005b610134610608565b6040516101419190611bca565b60405180910390f35b61015261060e565b60405161015f9190611bca565b60405180910390f35b610170610614565b005b61017a6109fc565b604051610188929190611c7e565b60405180910390f35b6101ab60048036038101906101a69190611de3565b610b6b565b005b6101b5610d5f565b6040516101c29190611bca565b60405180910390f35b6101e560048036038101906101e09190611b8e565b610d65565b6040516101f59493929190611e52565b60405180910390f35b61021860048036038101906102139190611b8e565b610e1d565b005b610234600480360381019061022f9190611b8e565b611002565b6040516102479796959493929190611f56565b60405180910390f35b61026a60048036038101906102659190611ff8565b6110f9565b005b610274611789565b6040516102819190611bca565b60405180910390f35b6102a4600480360381019061029f9190611b8e565b61178f565b6040516102b696959493929190612040565b60405180910390f35b6102d960048036038101906102d49190611b8e565b611880565b6040516102ec9796959493929190611f56565b60405180910390f35b6102fd611977565b60405161030a91906120a8565b60405180910390f35b61032d60048036038101906103289190611de3565b61199d565b005b61034960048036038101906103449190611ff8565b611a81565b60405161035691906120c3565b60405180910390f35b60008111801561037157506008548111155b6103b0576040517f08c379a00000000000000000000000000000000000000000000000000000000081526004016103a79061212a565b60405180910390fd5b600460003373ffffffffffffffffffffffffffffffffffffffff1673ffffffffffffffffffffffffffffffffffffffff16815260200190815260200160002060009054906101000a900460ff161561043d576040517f08c379a000000000000000000000000000000000000000000000000000000000815260040161043490612196565b60405180910390fd5b60006103e990505b6009546103e861045591906121e5565b8111610604573373ffffffffffffffffffffffffffffffffffffffff166005600083815260200190815260200160002060030160009054906101000a900473ffffffffffffffffffffffffffffffffffffffff1673ffffffffffffffffffffffffffffffffffffffff1614156105f157600760008381526020019081526020016000206002015460056000838152602001908152602001600020600201541480156105275750600115156005600083815260200190815260200160002060030160149054906101000a900460ff161515145b156105b5576001600460003373ffffffffffffffffffffffffffffffffffffffff1673ffffffffffffffffffffffffffffffffffffffff16815260200190815260200160002060006101000a81548160ff0219169083151502179055506007600083815260200190815260200160002060030160008154809291906105ab9061223b565b91905055506105f0565b6040517f08c379a00000000000000000000000000000000000000000000000000000000081526004016105e7906122f6565b60405180910390fd5b5b80806105fc9061223b565b915050610445565b5050565b60015481565b60095481565b6000600190505b60085481116106dc573373ffffffffffffffffffffffffffffffffffffffff166006600083815260200190815260200160002060040160009054906101000a900473ffffffffffffffffffffffffffffffffffffffff1673ffffffffffffffffffffffffffffffffffffffff1614156106c9576040517f08c379a00000000000000000000000000000000000000000000000000000000081526004016106c090612362565b60405180910390fd5b80806106d49061223b565b91505061061b565b5060006103e990505b6009546103e86106f591906121e5565b81116109f9573373ffffffffffffffffffffffffffffffffffffffff166005600083815260200190815260200160002060030160009054906101000a900473ffffffffffffffffffffffffffffffffffffffff1673ffffffffffffffffffffffffffffffffffffffff161480156107935750600115156005600083815260200190815260200160002060030160149054906101000a900460ff161515145b156109e657600860008154809291906107ab9061223b565b919050555060006040518060e0016040528060085481526020016005600085815260200190815260200160002060010180546107e6906123b1565b80601f0160208091040260200160405190810160405280929190818152602001828054610812906123b1565b801561085f5780601f106108345761010080835404028352916020019161085f565b820191906000526020600020905b81548152906001019060200180831161084257829003601f168201915b5050505050815260200160056000858152602001908152602001600020600201548152602001600081526020016005600085815260200190815260200160002060030160009054906101000a900473ffffffffffffffffffffffffffffffffffffffff1673ffffffffffffffffffffffffffffffffffffffff1681526020016005600085815260200190815260200160002060040154815260200182600281111561090d5761090c611edf565b5b81525060066000600854815260200190815260200160002060008201518160000155602082015181600101908051906020019061094b929190611aa1565b50604082015181600201556060820151816003015560808201518160040160006101000a81548173ffffffffffffffffffffffffffffffffffffffff021916908373ffffffffffffffffffffffffffffffffffffffff16021790555060a0820151816005015560c08201518160060160006101000a81548160ff021916908360028111156109dc576109db611edf565b5b0217905550905050505b80806109f19061223b565b9150506106e5565b50565b606060006001600a541015610a46576040517f08c379a0000000000000000000000000000000000000000000000000000000008152600401610a3d9061242f565b60405180910390fd5b6000806000600190505b600a548111610aa7578260076000838152602001908152602001600020600301541115610a9457600760008281526020019081526020016000206003015492508091505b8080610a9f9061223b565b915050610a50565b50600760008281526020019081526020016000206001016007600083815260200190815260200160002060030154818054610ae1906123b1565b80601f0160208091040260200160405190810160405280929190818152602001828054610b0d906123b1565b8015610b5a5780601f10610b2f57610100808354040283529160200191610b5a565b820191906000526020600020905b815481529060010190602001808311610b3d57829003601f168201915b505050505091509350935050509091565b60006103e890505b6009546103e8610b8391906121e5565b8111610c41573373ffffffffffffffffffffffffffffffffffffffff166005600083815260200190815260200160002060030160009054906101000a900473ffffffffffffffffffffffffffffffffffffffff1673ffffffffffffffffffffffffffffffffffffffff161415610c2e576040517f08c379a0000000000000000000000000000000000000000000000000000000008152600401610c259061249b565b60405180910390fd5b8080610c399061223b565b915050610b73565b5060096000815480929190610c559061223b565b91905055506040518060c0016040528060095481526020018481526020018381526020013373ffffffffffffffffffffffffffffffffffffffff1681526020016000151581526020018281525060056000838152602001908152602001600020600082015181600001556020820151816001019080519060200190610cdb929190611aa1565b506040820151816002015560608201518160030160006101000a81548173ffffffffffffffffffffffffffffffffffffffff021916908373ffffffffffffffffffffffffffffffffffffffff16021790555060808201518160030160146101000a81548160ff02191690831515021790555060a08201518160040155905050505050565b600a5481565b6002602052806000526040600020600091509050806000018054610d88906123b1565b80601f0160208091040260200160405190810160405280929190818152602001828054610db4906123b1565b8015610e015780601f10610dd657610100808354040283529160200191610e01565b820191906000526020600020905b815481529060010190602001808311610de457829003601f168201915b5050505050908060010154908060020154908060030154905084565b600360009054906101000a900473ffffffffffffffffffffffffffffffffffffffff1673ffffffffffffffffffffffffffffffffffffffff163373ffffffffffffffffffffffffffffffffffffffff1614610ead576040517f08c379a0000000000000000000000000000000000000000000000000000000008152600401610ea49061252d565b60405180910390fd5b600115156005600083815260200190815260200160002060030160149054906101000a900460ff1615151415610f18576040517f08c379a0000000000000000000000000000000000000000000000000000000008152600401610f0f90612599565b60405180910390fd5b6103e881111580610f3757506001546103e8610f3491906121e5565b81115b15610f77576040517f08c379a0000000000000000000000000000000000000000000000000000000008152600401610f6e90612605565b60405180910390fd5b6000600190505b6001548111610ffe57600260008281526020019081526020016000206003015460056000848152602001908152602001600020600401541415610feb5760016005600084815260200190815260200160002060030160146101000a81548160ff0219169083151502179055505b8080610ff69061223b565b915050610f7e565b5050565b600760205280600052604060002060009150905080600001549080600101805461102b906123b1565b80601f0160208091040260200160405190810160405280929190818152602001828054611057906123b1565b80156110a45780601f10611079576101008083540402835291602001916110a4565b820191906000526020600020905b81548152906001019060200180831161108757829003601f168201915b5050505050908060020154908060030154908060040160009054906101000a900473ffffffffffffffffffffffffffffffffffffffff16908060050154908060060160009054906101000a900460ff16905087565b600360009054906101000a900473ffffffffffffffffffffffffffffffffffffffff1673ffffffffffffffffffffffffffffffffffffffff163373ffffffffffffffffffffffffffffffffffffffff1614611189576040517f08c379a00000000000000000000000000000000000000000000000000000000081526004016111809061252d565b60405180910390fd5b6000600190505b600a548111611251578173ffffffffffffffffffffffffffffffffffffffff166007600083815260200190815260200160002060040160009054906101000a900473ffffffffffffffffffffffffffffffffffffffff1673ffffffffffffffffffffffffffffffffffffffff16141561123e576040517f08c379a000000000000000000000000000000000000000000000000000000000815260040161123590612671565b60405180910390fd5b80806112499061223b565b915050611190565b506000600190505b6008548111611785578173ffffffffffffffffffffffffffffffffffffffff166006600083815260200190815260200160002060040160009054906101000a900473ffffffffffffffffffffffffffffffffffffffff1673ffffffffffffffffffffffffffffffffffffffff161415611772576000600190505b60015481116117705760026000828152602001908152602001600020600101546006600084815260200190815260200160002060020154148015611342575060026000828152602001908152602001600020600301546006600084815260200190815260200160002060050154145b1561175d57600a600081548092919061135a9061223b565b91905055506000600190506040518060e001604052806008548152602001600660008681526020019081526020016000206001018054611399906123b1565b80601f01602080910402602001604051908101604052809291908181526020018280546113c5906123b1565b80156114125780601f106113e757610100808354040283529160200191611412565b820191906000526020600020905b8154815290600101906020018083116113f557829003601f168201915b5050505050815260200160066000868152602001908152602001600020600201548152602001600081526020013373ffffffffffffffffffffffffffffffffffffffff1681526020016006600086815260200190815260200160002060050154815260200182600281111561148a57611489611edf565b5b815250600660008581526020019081526020016000206000820151816000015560208201518160010190805190602001906114c6929190611aa1565b50604082015181600201556060820151816003015560808201518160040160006101000a81548173ffffffffffffffffffffffffffffffffffffffff021916908373ffffffffffffffffffffffffffffffffffffffff16021790555060a0820151816005015560c08201518160060160006101000a81548160ff0219169083600281111561155757611556611edf565b5b02179055509050506040518060e00160405280600a548152602001600660008681526020019081526020016000206001018054611593906123b1565b80601f01602080910402602001604051908101604052809291908181526020018280546115bf906123b1565b801561160c5780601f106115e15761010080835404028352916020019161160c565b820191906000526020600020905b8154815290600101906020018083116115ef57829003601f168201915b5050505050815260200160066000868152602001908152602001600020600201548152602001600081526020018573ffffffffffffffffffffffffffffffffffffffff1681526020016006600086815260200190815260200160002060050154815260200182600281111561168457611683611edf565b5b81525060076000600a5481526020019081526020016000206000820151816000015560208201518160010190805190602001906116c2929190611aa1565b50604082015181600201556060820151816003015560808201518160040160006101000a81548173ffffffffffffffffffffffffffffffffffffffff021916908373ffffffffffffffffffffffffffffffffffffffff16021790555060a0820151816005015560c08201518160060160006101000a81548160ff0219169083600281111561175357611752611edf565b5b0217905550905050505b80806117689061223b565b9150506112d3565b505b808061177d9061223b565b915050611259565b5050565b60085481565b60056020528060005260406000206000915090508060000154908060010180546117b8906123b1565b80601f01602080910402602001604051908101604052809291908181526020018280546117e4906123b1565b80156118315780601f1061180657610100808354040283529160200191611831565b820191906000526020600020905b81548152906001019060200180831161181457829003601f168201915b5050505050908060020154908060030160009054906101000a900473ffffffffffffffffffffffffffffffffffffffff16908060030160149054906101000a900460ff16908060040154905086565b60066020528060005260406000206000915090508060000154908060010180546118a9906123b1565b80601f01602080910402602001604051908101604052809291908181526020018280546118d5906123b1565b80156119225780601f106118f757610100808354040283529160200191611922565b820191906000526020600020905b81548152906001019060200180831161190557829003601f168201915b5050505050908060020154908060030154908060040160009054906101000a900473ffffffffffffffffffffffffffffffffffffffff16908060050154908060060160009054906101000a900460ff16905087565b600360009054906101000a900473ffffffffffffffffffffffffffffffffffffffff1681565b60128110156119e1576040517f08c379a00000000000000000000000000000000000000000000000000000000081526004016119d890612703565b60405180910390fd5b600160008154809291906119f49061223b565b91905055506040518060800160405280848152602001838152602001828152602001600154600054611a2691906121e5565b8152506002600060015481526020019081526020016000206000820151816000019080519060200190611a5a929190611aa1565b50602082015181600101556040820151816002015560608201518160030155905050505050565b60046020528060005260406000206000915054906101000a900460ff1681565b828054611aad906123b1565b90600052602060002090601f016020900481019282611acf5760008555611b16565b82601f10611ae857805160ff1916838001178555611b16565b82800160010185558215611b16579182015b82811115611b15578251825591602001919060010190611afa565b5b509050611b239190611b27565b5090565b5b80821115611b40576000816000905550600101611b28565b5090565b6000604051905090565b600080fd5b600080fd5b6000819050919050565b611b6b81611b58565b8114611b7657600080fd5b50565b600081359050611b8881611b62565b92915050565b600060208284031215611ba457611ba3611b4e565b5b6000611bb284828501611b79565b91505092915050565b611bc481611b58565b82525050565b6000602082019050611bdf6000830184611bbb565b92915050565b600081519050919050565b600082825260208201905092915050565b60005b83811015611c1f578082015181840152602081019050611c04565b83811115611c2e576000848401525b50505050565b6000601f19601f8301169050919050565b6000611c5082611be5565b611c5a8185611bf0565b9350611c6a818560208601611c01565b611c7381611c34565b840191505092915050565b60006040820190508181036000830152611c988185611c45565b9050611ca76020830184611bbb565b9392505050565b600080fd5b600080fd5b7f4e487b7100000000000000000000000000000000000000000000000000000000600052604160045260246000fd5b611cf082611c34565b810181811067ffffffffffffffff82111715611d0f57611d0e611cb8565b5b80604052505050565b6000611d22611b44565b9050611d2e8282611ce7565b919050565b600067ffffffffffffffff821115611d4e57611d4d611cb8565b5b611d5782611c34565b9050602081019050919050565b82818337600083830152505050565b6000611d86611d8184611d33565b611d18565b905082815260208101848484011115611da257611da1611cb3565b5b611dad848285611d64565b509392505050565b600082601f830112611dca57611dc9611cae565b5b8135611dda848260208601611d73565b91505092915050565b600080600060608486031215611dfc57611dfb611b4e565b5b600084013567ffffffffffffffff811115611e1a57611e19611b53565b5b611e2686828701611db5565b9350506020611e3786828701611b79565b9250506040611e4886828701611b79565b9150509250925092565b60006080820190508181036000830152611e6c8187611c45565b9050611e7b6020830186611bbb565b611e886040830185611bbb565b611e956060830184611bbb565b95945050505050565b600073ffffffffffffffffffffffffffffffffffffffff82169050919050565b6000611ec982611e9e565b9050919050565b611ed981611ebe565b82525050565b7f4e487b7100000000000000000000000000000000000000000000000000000000600052602160045260246000fd5b60038110611f1f57611f1e611edf565b5b50565b6000819050611f3082611f0e565b919050565b6000611f4082611f22565b9050919050565b611f5081611f35565b82525050565b600060e082019050611f6b600083018a611bbb565b8181036020830152611f7d8189611c45565b9050611f8c6040830188611bbb565b611f996060830187611bbb565b611fa66080830186611ed0565b611fb360a0830185611bbb565b611fc060c0830184611f47565b98975050505050505050565b611fd581611ebe565b8114611fe057600080fd5b50565b600081359050611ff281611fcc565b92915050565b60006020828403121561200e5761200d611b4e565b5b600061201c84828501611fe3565b91505092915050565b60008115159050919050565b61203a81612025565b82525050565b600060c0820190506120556000830189611bbb565b81810360208301526120678188611c45565b90506120766040830187611bbb565b6120836060830186611ed0565b6120906080830185612031565b61209d60a0830184611bbb565b979650505050505050565b60006020820190506120bd6000830184611ed0565b92915050565b60006020820190506120d86000830184612031565b92915050565b7f696e76616c696465207573657200000000000000000000000000000000000000600082015250565b6000612114600d83611bf0565b915061211f826120de565b602082019050919050565b6000602082019050818103600083015261214381612107565b9050919050565b7f796f752061726520616c726561647920766f7465640000000000000000000000600082015250565b6000612180601583611bf0565b915061218b8261214a565b602082019050919050565b600060208201905081810360008301526121af81612173565b9050919050565b7f4e487b7100000000000000000000000000000000000000000000000000000000600052601160045260246000fd5b60006121f082611b58565b91506121fb83611b58565b9250827fffffffffffffffffffffffffffffffffffffffffffffffffffffffffffffffff038211156122305761222f6121b6565b5b828201905092915050565b600061224682611b58565b91507fffffffffffffffffffffffffffffffffffffffffffffffffffffffffffffffff821415612279576122786121b6565b5b600182019050919050565b7f796f752063616e277420766f746520616e6f7468657220776172642063616e6460008201527f6964617465000000000000000000000000000000000000000000000000000000602082015250565b60006122e0602583611bf0565b91506122eb82612284565b604082019050919050565b6000602082019050818103600083015261230f816122d3565b9050919050565b7f73616d652063616e6469646174652063616e2774206265206164646400000000600082015250565b600061234c601c83611bf0565b915061235782612316565b602082019050919050565b6000602082019050818103600083015261237b8161233f565b9050919050565b7f4e487b7100000000000000000000000000000000000000000000000000000000600052602260045260246000fd5b600060028204905060018216806123c957607f821691505b602082108114156123dd576123dc612382565b5b50919050565b7f7468657265206973206e6f2063616e6469646174650000000000000000000000600082015250565b6000612419601583611bf0565b9150612424826123e3565b602082019050919050565b600060208201905081810360008301526124488161240c565b9050919050565b7f616c726561647920637265617465640000000000000000000000000000000000600082015250565b6000612485600f83611bf0565b91506124908261244f565b602082019050919050565b600060208201905081810360008301526124b481612478565b9050919050565b7f617574686f726974792063616e206f6e6c792063616c6c20746869732066756e60008201527f6374696f6e000000000000000000000000000000000000000000000000000000602082015250565b6000612517602583611bf0565b9150612522826124bb565b604082019050919050565b600060208201905081810360008301526125468161250a565b9050919050565b7f616c726561647920766572696679000000000000000000000000000000000000600082015250565b6000612583600e83611bf0565b915061258e8261254d565b602082019050919050565b600060208201905081810360008301526125b281612576565b9050919050565b7f766f746572206e6f7420666f756e640000000000000000000000000000000000600082015250565b60006125ef600f83611bf0565b91506125fa826125b9565b602082019050919050565b6000602082019050818103600083015261261e816125e2565b9050919050565b7f616c7265616479206170726f7665640000000000000000000000000000000000600082015250565b600061265b600f83611bf0565b915061266682612625565b602082019050919050565b6000602082019050818103600083015261268a8161264e565b9050919050565b7f5468697320706572736f6e206973206e6f7420656c696769626c6520666f722060008201527f766f746572732049640000000000000000000000000000000000000000000000602082015250565b60006126ed602983611bf0565b91506126f882612691565b604082019050919050565b6000602082019050818103600083015261271c816126e0565b905091905056fea26469706673582212201bc2d52488cd9b0d47b3306f7d374b5095238fafc994bf54049b4f20f4a982d864736f6c634300080a0033",
  "immutableReferences": {},
  "source": "// SPDX-License-Identifier: GPL-3.0\npragma solidity ^0.8.7;\n\nimport \"./election.sol\";\n\ncontract Voteing is Election{\n     function vote(uint candidatesId) public {\n        require(candidatesId > 0 && candidatesId <=  candidateCount, \"invalide user\");\n        require(!votes[msg.sender], \"you are already voted\");\n        \n        for(uint i=1001; i<=1000+voterCount; i++ ){\n            if(voter[i].voterAddress == msg.sender){\n                if(voter[i].voterWard == candidatelist[candidatesId].ward && voter[i].verify == true){\n                     votes[msg.sender] = true;\n                      candidatelist[candidatesId].voteCount++;\n                }else{\n                    revert(\"you can't vote another ward candidate\");\n                }       \n            }\n        }\n    }\n}",
  "sourcePath": "/home/nisamudheen/Desktop/sps/voting_smartcontract/contracts/Voting.sol",
  "compiler": {
    "name": "solc",
    "version": "0.8.10+commit.fc410830.Emscripten.clang"
  },
  "schemaVersion": "3.4.3",
  "updatedAt": "2021-12-22T06:36:23.662Z",
  "networkType": "ethereum",
  "devdoc": {
    "kind": "dev",
    "methods": {},
    "version": 1
  },
  "userdoc": {
    "kind": "user",
    "methods": {},
    "version": 1
  }
}