{
  "contractName": "Voteing",
  "abi": [
    {
      "inputs": [],
      "name": "applyForCantidate",
      "outputs": [],
      "stateMutability": "nonpayable",
      "type": "function"
    },
    {
      "inputs": [
        {
          "internalType": "address",
          "name": "_voteraddress",
          "type": "address"
        }
      ],
      "name": "approveCadidedress",
      "outputs": [],
      "stateMutability": "nonpayable",
      "type": "function"
    },
    {
      "inputs": [],
      "name": "approvedCandidateCount",
      "outputs": [
        {
          "internalType": "uint256",
          "name": "",
          "type": "uint256"
        }
      ],
      "stateMutability": "view",
      "type": "function",
      "constant": true
    },
    {
      "inputs": [],
      "name": "candedatesCount",
      "outputs": [
        {
          "internalType": "uint256",
          "name": "",
          "type": "uint256"
        }
      ],
      "stateMutability": "view",
      "type": "function",
      "constant": true
    },
    {
      "inputs": [
        {
          "internalType": "uint256",
          "name": "",
          "type": "uint256"
        }
      ],
      "name": "candidateReg",
      "outputs": [
        {
          "internalType": "uint256",
          "name": "CandidateId",
          "type": "uint256"
        },
        {
          "internalType": "string",
          "name": "name",
          "type": "string"
        },
        {
          "internalType": "uint256",
          "name": "ward",
          "type": "uint256"
        },
        {
          "internalType": "uint256",
          "name": "voteCount",
          "type": "uint256"
        },
        {
          "internalType": "address",
          "name": "id",
          "type": "address"
        },
        {
          "internalType": "uint256",
          "name": "VoterId",
          "type": "uint256"
        },
        {
          "internalType": "enum Election.candidateStatus",
          "name": "status",
          "type": "uint8"
        }
      ],
      "stateMutability": "view",
      "type": "function",
      "constant": true
    },
    {
      "inputs": [
        {
          "internalType": "uint256",
          "name": "",
          "type": "uint256"
        }
      ],
      "name": "candidateslist",
      "outputs": [
        {
          "internalType": "uint256",
          "name": "CandidateId",
          "type": "uint256"
        },
        {
          "internalType": "string",
          "name": "name",
          "type": "string"
        },
        {
          "internalType": "uint256",
          "name": "ward",
          "type": "uint256"
        },
        {
          "internalType": "uint256",
          "name": "voteCount",
          "type": "uint256"
        },
        {
          "internalType": "address",
          "name": "id",
          "type": "address"
        },
        {
          "internalType": "uint256",
          "name": "VoterId",
          "type": "uint256"
        },
        {
          "internalType": "enum Election.candidateStatus",
          "name": "status",
          "type": "uint8"
        }
      ],
      "stateMutability": "view",
      "type": "function",
      "constant": true
    },
    {
      "inputs": [],
      "name": "count",
      "outputs": [
        {
          "internalType": "uint256",
          "name": "",
          "type": "uint256"
        }
      ],
      "stateMutability": "view",
      "type": "function",
      "constant": true
    },
    {
      "inputs": [],
      "name": "result",
      "outputs": [
        {
          "internalType": "string",
          "name": "",
          "type": "string"
        },
        {
          "internalType": "uint256",
          "name": "",
          "type": "uint256"
        }
      ],
      "stateMutability": "view",
      "type": "function",
      "constant": true
    },
    {
      "inputs": [
        {
          "internalType": "uint256",
          "name": "",
          "type": "uint256"
        }
      ],
      "name": "voter",
      "outputs": [
        {
          "internalType": "uint256",
          "name": "index",
          "type": "uint256"
        },
        {
          "internalType": "string",
          "name": "voterName",
          "type": "string"
        },
        {
          "internalType": "uint256",
          "name": "voterWard",
          "type": "uint256"
        },
        {
          "internalType": "address",
          "name": "voterAddress",
          "type": "address"
        },
        {
          "internalType": "bool",
          "name": "verify",
          "type": "bool"
        },
        {
          "internalType": "uint256",
          "name": "voterId",
          "type": "uint256"
        }
      ],
      "stateMutability": "view",
      "type": "function",
      "constant": true
    },
    {
      "inputs": [],
      "name": "voterCount",
      "outputs": [
        {
          "internalType": "uint256",
          "name": "",
          "type": "uint256"
        }
      ],
      "stateMutability": "view",
      "type": "function",
      "constant": true
    },
    {
      "inputs": [
        {
          "internalType": "string",
          "name": "_name",
          "type": "string"
        },
        {
          "internalType": "uint256",
          "name": "_ward",
          "type": "uint256"
        },
        {
          "internalType": "uint256",
          "name": "_age",
          "type": "uint256"
        }
      ],
      "name": "voterIdReg",
      "outputs": [],
      "stateMutability": "nonpayable",
      "type": "function"
    },
    {
      "inputs": [
        {
          "internalType": "string",
          "name": "_name",
          "type": "string"
        },
        {
          "internalType": "uint256",
          "name": "_ward",
          "type": "uint256"
        },
        {
          "internalType": "uint256",
          "name": "_voterId",
          "type": "uint256"
        }
      ],
      "name": "voterRegistration",
      "outputs": [],
      "stateMutability": "nonpayable",
      "type": "function"
    },
    {
      "inputs": [
        {
          "internalType": "uint256",
          "name": "_voterId",
          "type": "uint256"
        }
      ],
      "name": "voterVerify",
      "outputs": [],
      "stateMutability": "nonpayable",
      "type": "function"
    },
    {
      "inputs": [
        {
          "internalType": "uint256",
          "name": "",
          "type": "uint256"
        }
      ],
      "name": "voteridcard",
      "outputs": [
        {
          "internalType": "string",
          "name": "voterName",
          "type": "string"
        },
        {
          "internalType": "uint256",
          "name": "voterWard",
          "type": "uint256"
        },
        {
          "internalType": "uint256",
          "name": "age",
          "type": "uint256"
        },
        {
          "internalType": "uint256",
          "name": "voterIds",
          "type": "uint256"
        }
      ],
      "stateMutability": "view",
      "type": "function",
      "constant": true
    },
    {
      "inputs": [
        {
          "internalType": "address",
          "name": "",
          "type": "address"
        }
      ],
      "name": "votes",
      "outputs": [
        {
          "internalType": "bool",
          "name": "",
          "type": "bool"
        }
      ],
      "stateMutability": "view",
      "type": "function",
      "constant": true
    },
    {
      "inputs": [
        {
          "internalType": "uint256",
          "name": "candidatesId",
          "type": "uint256"
        }
      ],
      "name": "vote",
      "outputs": [],
      "stateMutability": "nonpayable",
      "type": "function"
    }
  ],
  "bytecode": "0x60806040526103e860005534801561001657600080fd5b5033600360006101000a81548173ffffffffffffffffffffffffffffffffffffffff021916908373ffffffffffffffffffffffffffffffffffffffff160217905550612729806100676000396000f3fe608060405234801561001057600080fd5b50600436106101005760003560e01c8063905d04c211610097578063c9680e1f11610066578063c9680e1f14610296578063ca6ea96d146102b4578063d8bff5a5146102d0578063d8d4c9261461030057610100565b8063905d04c2146101f357806395cf05091461020f578063ab8ed1ba1461022b578063bcaf189b1461026057610100565b806365372147116100d35780636537214714610167578063656ee5cc146101865780637400df71146101a25780637bd01925146101c057610100565b80630121b93f1461010557806306661abd1461012157806342169e481461013f578063542ac40d1461015d575b600080fd5b61011f600480360381019061011a9190611b0d565b610336565b005b6101296105d1565b6040516101369190611b49565b60405180910390f35b6101476105d7565b6040516101549190611b49565b60405180910390f35b6101656105dd565b005b61016f6109a5565b60405161017d929190611bfd565b60405180910390f35b6101a0600480360381019061019b9190611d62565b610b14565b005b6101aa610cfc565b6040516101b79190611b49565b60405180910390f35b6101da60048036038101906101d59190611b0d565b610d02565b6040516101ea9493929190611dd1565b60405180910390f35b61020d60048036038101906102089190611b0d565b610dba565b005b61022960048036038101906102249190611e7b565b610fab565b005b61024560048036038101906102409190611b0d565b611637565b60405161025796959493929190611ed2565b60405180910390f35b61027a60048036038101906102759190611b0d565b611728565b60405161028d9796959493929190611fb1565b60405180910390f35b61029e61181f565b6040516102ab9190611b49565b60405180910390f35b6102ce60048036038101906102c99190611d62565b611825565b005b6102ea60048036038101906102e59190611e7b565b611909565b6040516102f79190612027565b60405180910390f35b61031a60048036038101906103159190611b0d565b611929565b60405161032d9796959493929190611fb1565b60405180910390f35b60008111801561034857506008548111155b610387576040517f08c379a000000000000000000000000000000000000000000000000000000000815260040161037e9061208e565b60405180910390fd5b600460003373ffffffffffffffffffffffffffffffffffffffff1673ffffffffffffffffffffffffffffffffffffffff16815260200190815260200160002060009054906101000a900460ff1615610414576040517f08c379a000000000000000000000000000000000000000000000000000000000815260040161040b906120fa565b60405180910390fd5b6000600190505b60095481116105cd573373ffffffffffffffffffffffffffffffffffffffff166005600083815260200190815260200160002060030160009054906101000a900473ffffffffffffffffffffffffffffffffffffffff1673ffffffffffffffffffffffffffffffffffffffff1614156105ba57600760008381526020019081526020016000206002015460056000838152602001908152602001600020600201541480156104f05750600115156005600083815260200190815260200160002060030160149054906101000a900460ff161515145b1561057e576001600460003373ffffffffffffffffffffffffffffffffffffffff1673ffffffffffffffffffffffffffffffffffffffff16815260200190815260200160002060006101000a81548160ff02191690831515021790555060076000838152602001908152602001600020600301600081548092919061057490612149565b91905055506105b9565b6040517f08c379a00000000000000000000000000000000000000000000000000000000081526004016105b090612204565b60405180910390fd5b5b80806105c590612149565b91505061041b565b5050565b60015481565b60095481565b6000600190505b60095481116109a2573373ffffffffffffffffffffffffffffffffffffffff166005600083815260200190815260200160002060030160009054906101000a900473ffffffffffffffffffffffffffffffffffffffff1673ffffffffffffffffffffffffffffffffffffffff161480156106855750600115156005600083815260200190815260200160002060030160149054906101000a900460ff161515145b156108dc576008600081548092919061069d90612149565b919050555060006040518060e0016040528060085481526020016005600085815260200190815260200160002060010180546106d890612253565b80601f016020809104026020016040519081016040528092919081815260200182805461070490612253565b80156107515780601f1061072657610100808354040283529160200191610751565b820191906000526020600020905b81548152906001019060200180831161073457829003601f168201915b5050505050815260200160056000858152602001908152602001600020600201548152602001600081526020016005600085815260200190815260200160002060030160009054906101000a900473ffffffffffffffffffffffffffffffffffffffff1673ffffffffffffffffffffffffffffffffffffffff168152602001600560008581526020019081526020016000206004015481526020018260028111156107ff576107fe611f3a565b5b81525060066000600854815260200190815260200160002060008201518160000155602082015181600101908051906020019061083d929190611a20565b50604082015181600201556060820151816003015560808201518160040160006101000a81548173ffffffffffffffffffffffffffffffffffffffff021916908373ffffffffffffffffffffffffffffffffffffffff16021790555060a0820151816005015560c08201518160060160006101000a81548160ff021916908360028111156108ce576108cd611f3a565b5b02179055509050505061098f565b3373ffffffffffffffffffffffffffffffffffffffff166006600083815260200190815260200160002060040160009054906101000a900473ffffffffffffffffffffffffffffffffffffffff1673ffffffffffffffffffffffffffffffffffffffff16148061094e57506000600954145b1561098e576040517f08c379a0000000000000000000000000000000000000000000000000000000008152600401610985906122d1565b60405180910390fd5b5b808061099a90612149565b9150506105e4565b50565b606060006001600a5410156109ef576040517f08c379a00000000000000000000000000000000000000000000000000000000081526004016109e69061233d565b60405180910390fd5b6000806000600190505b600a548111610a50578260076000838152602001908152602001600020600301541115610a3d57600760008281526020019081526020016000206003015492508091505b8080610a4890612149565b9150506109f9565b50600760008281526020019081526020016000206001016007600083815260200190815260200160002060030154818054610a8a90612253565b80601f0160208091040260200160405190810160405280929190818152602001828054610ab690612253565b8015610b035780601f10610ad857610100808354040283529160200191610b03565b820191906000526020600020905b815481529060010190602001808311610ae657829003601f168201915b505050505091509350935050509091565b6000600190505b6009548111610bdc573373ffffffffffffffffffffffffffffffffffffffff166005600083815260200190815260200160002060030160009054906101000a900473ffffffffffffffffffffffffffffffffffffffff1673ffffffffffffffffffffffffffffffffffffffff161415610bc9576040517f08c379a0000000000000000000000000000000000000000000000000000000008152600401610bc0906123a9565b60405180910390fd5b8080610bd490612149565b915050610b1b565b5060096000815480929190610bf090612149565b91905055506040518060c0016040528060095481526020018481526020018381526020013373ffffffffffffffffffffffffffffffffffffffff16815260200160001515815260200182815250600560006009548152602001908152602001600020600082015181600001556020820151816001019080519060200190610c78929190611a20565b506040820151816002015560608201518160030160006101000a81548173ffffffffffffffffffffffffffffffffffffffff021916908373ffffffffffffffffffffffffffffffffffffffff16021790555060808201518160030160146101000a81548160ff02191690831515021790555060a08201518160040155905050505050565b600a5481565b6002602052806000526040600020600091509050806000018054610d2590612253565b80601f0160208091040260200160405190810160405280929190818152602001828054610d5190612253565b8015610d9e5780601f10610d7357610100808354040283529160200191610d9e565b820191906000526020600020905b815481529060010190602001808311610d8157829003601f168201915b5050505050908060010154908060020154908060030154905084565b600360009054906101000a900473ffffffffffffffffffffffffffffffffffffffff1673ffffffffffffffffffffffffffffffffffffffff163373ffffffffffffffffffffffffffffffffffffffff1614610e4a576040517f08c379a0000000000000000000000000000000000000000000000000000000008152600401610e419061243b565b60405180910390fd5b600115156005600083815260200190815260200160002060030160149054906101000a900460ff1615151415610eb5576040517f08c379a0000000000000000000000000000000000000000000000000000000008152600401610eac906124a7565b60405180910390fd5b6000811080610ec5575060015481115b15610f05576040517f08c379a0000000000000000000000000000000000000000000000000000000008152600401610efc90612513565b60405180910390fd5b600260008281526020019081526020016000206003015460056000838152602001908152602001600020600401541415610f6d5760016005600083815260200190815260200160002060030160146101000a81548160ff021916908315150217905550610fa8565b6040517f08c379a0000000000000000000000000000000000000000000000000000000008152600401610f9f9061257f565b60405180910390fd5b50565b600360009054906101000a900473ffffffffffffffffffffffffffffffffffffffff1673ffffffffffffffffffffffffffffffffffffffff163373ffffffffffffffffffffffffffffffffffffffff161461103b576040517f08c379a00000000000000000000000000000000000000000000000000000000081526004016110329061243b565b60405180910390fd5b60005b600a5481116110ff578173ffffffffffffffffffffffffffffffffffffffff166007600083815260200190815260200160002060040160009054906101000a900473ffffffffffffffffffffffffffffffffffffffff1673ffffffffffffffffffffffffffffffffffffffff1614156110ec576040517f08c379a00000000000000000000000000000000000000000000000000000000081526004016110e3906125eb565b60405180910390fd5b80806110f790612149565b91505061103e565b506000600190505b6008548111611633578173ffffffffffffffffffffffffffffffffffffffff166006600083815260200190815260200160002060040160009054906101000a900473ffffffffffffffffffffffffffffffffffffffff1673ffffffffffffffffffffffffffffffffffffffff161415611620576000600190505b600154811161161e57600260008281526020019081526020016000206001015460066000848152602001908152602001600020600201541480156111f0575060026000828152602001908152602001600020600301546006600084815260200190815260200160002060050154145b1561160b57600a600081548092919061120890612149565b91905055506000600190506040518060e00160405280600854815260200160066000868152602001908152602001600020600101805461124790612253565b80601f016020809104026020016040519081016040528092919081815260200182805461127390612253565b80156112c05780601f10611295576101008083540402835291602001916112c0565b820191906000526020600020905b8154815290600101906020018083116112a357829003601f168201915b5050505050815260200160066000868152602001908152602001600020600201548152602001600081526020013373ffffffffffffffffffffffffffffffffffffffff1681526020016006600086815260200190815260200160002060050154815260200182600281111561133857611337611f3a565b5b81525060066000858152602001908152602001600020600082015181600001556020820151816001019080519060200190611374929190611a20565b50604082015181600201556060820151816003015560808201518160040160006101000a81548173ffffffffffffffffffffffffffffffffffffffff021916908373ffffffffffffffffffffffffffffffffffffffff16021790555060a0820151816005015560c08201518160060160006101000a81548160ff0219169083600281111561140557611404611f3a565b5b02179055509050506040518060e00160405280600a54815260200160066000868152602001908152602001600020600101805461144190612253565b80601f016020809104026020016040519081016040528092919081815260200182805461146d90612253565b80156114ba5780601f1061148f576101008083540402835291602001916114ba565b820191906000526020600020905b81548152906001019060200180831161149d57829003601f168201915b5050505050815260200160066000868152602001908152602001600020600201548152602001600081526020018573ffffffffffffffffffffffffffffffffffffffff1681526020016006600086815260200190815260200160002060050154815260200182600281111561153257611531611f3a565b5b81525060076000600a548152602001908152602001600020600082015181600001556020820151816001019080519060200190611570929190611a20565b50604082015181600201556060820151816003015560808201518160040160006101000a81548173ffffffffffffffffffffffffffffffffffffffff021916908373ffffffffffffffffffffffffffffffffffffffff16021790555060a0820151816005015560c08201518160060160006101000a81548160ff0219169083600281111561160157611600611f3a565b5b0217905550905050505b808061161690612149565b915050611181565b505b808061162b90612149565b915050611107565b5050565b600560205280600052604060002060009150905080600001549080600101805461166090612253565b80601f016020809104026020016040519081016040528092919081815260200182805461168c90612253565b80156116d95780601f106116ae576101008083540402835291602001916116d9565b820191906000526020600020905b8154815290600101906020018083116116bc57829003601f168201915b5050505050908060020154908060030160009054906101000a900473ffffffffffffffffffffffffffffffffffffffff16908060030160149054906101000a900460ff16908060040154905086565b600660205280600052604060002060009150905080600001549080600101805461175190612253565b80601f016020809104026020016040519081016040528092919081815260200182805461177d90612253565b80156117ca5780601f1061179f576101008083540402835291602001916117ca565b820191906000526020600020905b8154815290600101906020018083116117ad57829003601f168201915b5050505050908060020154908060030154908060040160009054906101000a900473ffffffffffffffffffffffffffffffffffffffff16908060050154908060060160009054906101000a900460ff16905087565b60085481565b6012811015611869576040517f08c379a00000000000000000000000000000000000000000000000000000000081526004016118609061267d565b60405180910390fd5b6001600081548092919061187c90612149565b919050555060405180608001604052808481526020018381526020018281526020016001546000546118ae919061269d565b81525060026000600154815260200190815260200160002060008201518160000190805190602001906118e2929190611a20565b50602082015181600101556040820151816002015560608201518160030155905050505050565b60046020528060005260406000206000915054906101000a900460ff1681565b600760205280600052604060002060009150905080600001549080600101805461195290612253565b80601f016020809104026020016040519081016040528092919081815260200182805461197e90612253565b80156119cb5780601f106119a0576101008083540402835291602001916119cb565b820191906000526020600020905b8154815290600101906020018083116119ae57829003601f168201915b5050505050908060020154908060030154908060040160009054906101000a900473ffffffffffffffffffffffffffffffffffffffff16908060050154908060060160009054906101000a900460ff16905087565b828054611a2c90612253565b90600052602060002090601f016020900481019282611a4e5760008555611a95565b82601f10611a6757805160ff1916838001178555611a95565b82800160010185558215611a95579182015b82811115611a94578251825591602001919060010190611a79565b5b509050611aa29190611aa6565b5090565b5b80821115611abf576000816000905550600101611aa7565b5090565b6000604051905090565b600080fd5b600080fd5b6000819050919050565b611aea81611ad7565b8114611af557600080fd5b50565b600081359050611b0781611ae1565b92915050565b600060208284031215611b2357611b22611acd565b5b6000611b3184828501611af8565b91505092915050565b611b4381611ad7565b82525050565b6000602082019050611b5e6000830184611b3a565b92915050565b600081519050919050565b600082825260208201905092915050565b60005b83811015611b9e578082015181840152602081019050611b83565b83811115611bad576000848401525b50505050565b6000601f19601f8301169050919050565b6000611bcf82611b64565b611bd98185611b6f565b9350611be9818560208601611b80565b611bf281611bb3565b840191505092915050565b60006040820190508181036000830152611c178185611bc4565b9050611c266020830184611b3a565b9392505050565b600080fd5b600080fd5b7f4e487b7100000000000000000000000000000000000000000000000000000000600052604160045260246000fd5b611c6f82611bb3565b810181811067ffffffffffffffff82111715611c8e57611c8d611c37565b5b80604052505050565b6000611ca1611ac3565b9050611cad8282611c66565b919050565b600067ffffffffffffffff821115611ccd57611ccc611c37565b5b611cd682611bb3565b9050602081019050919050565b82818337600083830152505050565b6000611d05611d0084611cb2565b611c97565b905082815260208101848484011115611d2157611d20611c32565b5b611d2c848285611ce3565b509392505050565b600082601f830112611d4957611d48611c2d565b5b8135611d59848260208601611cf2565b91505092915050565b600080600060608486031215611d7b57611d7a611acd565b5b600084013567ffffffffffffffff811115611d9957611d98611ad2565b5b611da586828701611d34565b9350506020611db686828701611af8565b9250506040611dc786828701611af8565b9150509250925092565b60006080820190508181036000830152611deb8187611bc4565b9050611dfa6020830186611b3a565b611e076040830185611b3a565b611e146060830184611b3a565b95945050505050565b600073ffffffffffffffffffffffffffffffffffffffff82169050919050565b6000611e4882611e1d565b9050919050565b611e5881611e3d565b8114611e6357600080fd5b50565b600081359050611e7581611e4f565b92915050565b600060208284031215611e9157611e90611acd565b5b6000611e9f84828501611e66565b91505092915050565b611eb181611e3d565b82525050565b60008115159050919050565b611ecc81611eb7565b82525050565b600060c082019050611ee76000830189611b3a565b8181036020830152611ef98188611bc4565b9050611f086040830187611b3a565b611f156060830186611ea8565b611f226080830185611ec3565b611f2f60a0830184611b3a565b979650505050505050565b7f4e487b7100000000000000000000000000000000000000000000000000000000600052602160045260246000fd5b60038110611f7a57611f79611f3a565b5b50565b6000819050611f8b82611f69565b919050565b6000611f9b82611f7d565b9050919050565b611fab81611f90565b82525050565b600060e082019050611fc6600083018a611b3a565b8181036020830152611fd88189611bc4565b9050611fe76040830188611b3a565b611ff46060830187611b3a565b6120016080830186611ea8565b61200e60a0830185611b3a565b61201b60c0830184611fa2565b98975050505050505050565b600060208201905061203c6000830184611ec3565b92915050565b7f696e76616c696465207573657200000000000000000000000000000000000000600082015250565b6000612078600d83611b6f565b915061208382612042565b602082019050919050565b600060208201905081810360008301526120a78161206b565b9050919050565b7f796f752061726520616c726561647920766f7465640000000000000000000000600082015250565b60006120e4601583611b6f565b91506120ef826120ae565b602082019050919050565b60006020820190508181036000830152612113816120d7565b9050919050565b7f4e487b7100000000000000000000000000000000000000000000000000000000600052601160045260246000fd5b600061215482611ad7565b91507fffffffffffffffffffffffffffffffffffffffffffffffffffffffffffffffff8214156121875761218661211a565b5b600182019050919050565b7f796f752063616e277420766f746520616e6f7468657220776172642063616e6460008201527f6964617465000000000000000000000000000000000000000000000000000000602082015250565b60006121ee602583611b6f565b91506121f982612192565b604082019050919050565b6000602082019050818103600083015261221d816121e1565b9050919050565b7f4e487b7100000000000000000000000000000000000000000000000000000000600052602260045260246000fd5b6000600282049050600182168061226b57607f821691505b6020821081141561227f5761227e612224565b5b50919050565b7f73616d652063616e6469646174652063616e2774206265206164646400000000600082015250565b60006122bb601c83611b6f565b91506122c682612285565b602082019050919050565b600060208201905081810360008301526122ea816122ae565b9050919050565b7f7468657265206973206e6f2063616e6469646174650000000000000000000000600082015250565b6000612327601583611b6f565b9150612332826122f1565b602082019050919050565b600060208201905081810360008301526123568161231a565b9050919050565b7f616c726561647920637265617465640000000000000000000000000000000000600082015250565b6000612393600f83611b6f565b915061239e8261235d565b602082019050919050565b600060208201905081810360008301526123c281612386565b9050919050565b7f617574686f726974792063616e206f6e6c792063616c6c20746869732066756e60008201527f6374696f6e000000000000000000000000000000000000000000000000000000602082015250565b6000612425602583611b6f565b9150612430826123c9565b604082019050919050565b6000602082019050818103600083015261245481612418565b9050919050565b7f616c726561647920766572696679000000000000000000000000000000000000600082015250565b6000612491600e83611b6f565b915061249c8261245b565b602082019050919050565b600060208201905081810360008301526124c081612484565b9050919050565b7f766f746572206e6f7420666f756e640000000000000000000000000000000000600082015250565b60006124fd600f83611b6f565b9150612508826124c7565b602082019050919050565b6000602082019050818103600083015261252c816124f0565b9050919050565b7f766f746572206964206e6f20666f756e64000000000000000000000000000000600082015250565b6000612569601183611b6f565b915061257482612533565b602082019050919050565b600060208201905081810360008301526125988161255c565b9050919050565b7f616c7265616479206170726f7665640000000000000000000000000000000000600082015250565b60006125d5600f83611b6f565b91506125e08261259f565b602082019050919050565b60006020820190508181036000830152612604816125c8565b9050919050565b7f5468697320706572736f6e206973206e6f7420656c696769626c6520666f722060008201527f766f746572732049640000000000000000000000000000000000000000000000602082015250565b6000612667602983611b6f565b91506126728261260b565b604082019050919050565b600060208201905081810360008301526126968161265a565b9050919050565b60006126a882611ad7565b91506126b383611ad7565b9250827fffffffffffffffffffffffffffffffffffffffffffffffffffffffffffffffff038211156126e8576126e761211a565b5b82820190509291505056fea264697066735822122070d2882ab39c90ef33bfba99d34a831172a24bdc7559313495b89d89d2eb9fc664736f6c634300080a0033",
  "immutableReferences": {},
  "source": "// SPDX-License-Identifier: GPL-3.0\npragma solidity ^0.8.7;\n\nimport \"./election.sol\";\n\ncontract Voteing is Election{\n     function vote(uint candidatesId) public {\n        require(candidatesId > 0 && candidatesId <=  candedatesCount, \"invalide user\");\n        require(!votes[msg.sender], \"you are already voted\");\n        \n        for(uint i=1; i<=voterCount; i++ ){\n            if(voter[i].voterAddress == msg.sender){\n                if(voter[i].voterWard == candidateslist[candidatesId].ward && voter[i].verify == true){\n                     votes[msg.sender] = true;\n                      candidateslist[candidatesId].voteCount++;\n                }else{\n                    revert(\"you can't vote another ward candidate\");\n                }       \n            }\n        }\n    }\n}",
  "sourcePath": "/home/nisamudheen/Desktop/sps/voting_smartcontract/contracts/Voting.sol",
  "compiler": {
    "name": "solc",
    "version": "0.8.10+commit.fc410830.Emscripten.clang"
  },
  "schemaVersion": "3.4.3",
  "updatedAt": "2021-12-15T08:54:46.719Z",
  "networkType": "ethereum",
  "devdoc": {
    "kind": "dev",
    "methods": {},
    "version": 1
  },
  "userdoc": {
    "kind": "user",
    "methods": {},
    "version": 1
  }
}