{
  "contractName": "Voteing",
  "abi": [
    {
      "inputs": [
        {
          "internalType": "address",
          "name": "_voteraddress",
          "type": "address"
        },
        {
          "internalType": "string",
          "name": "_remark",
          "type": "string"
        }
      ],
      "name": "RejectedCadidedress",
      "outputs": [],
      "stateMutability": "nonpayable",
      "type": "function"
    },
    {
      "inputs": [
        {
          "internalType": "uint256",
          "name": "_voterRegId",
          "type": "uint256"
        }
      ],
      "name": "allocateId",
      "outputs": [],
      "stateMutability": "nonpayable",
      "type": "function"
    },
    {
      "inputs": [
        {
          "internalType": "address",
          "name": "_voteraddress",
          "type": "address"
        },
        {
          "internalType": "string",
          "name": "_remark",
          "type": "string"
        }
      ],
      "name": "approveCadidedress",
      "outputs": [],
      "stateMutability": "nonpayable",
      "type": "function"
    },
    {
      "inputs": [],
      "name": "approvedCandidateCount",
      "outputs": [
        {
          "internalType": "uint256",
          "name": "",
          "type": "uint256"
        }
      ],
      "stateMutability": "view",
      "type": "function",
      "constant": true
    },
    {
      "inputs": [],
      "name": "authority",
      "outputs": [
        {
          "internalType": "address",
          "name": "",
          "type": "address"
        }
      ],
      "stateMutability": "view",
      "type": "function",
      "constant": true
    },
    {
      "inputs": [],
      "name": "candidateCount",
      "outputs": [
        {
          "internalType": "uint256",
          "name": "",
          "type": "uint256"
        }
      ],
      "stateMutability": "view",
      "type": "function",
      "constant": true
    },
    {
      "inputs": [
        {
          "internalType": "uint256",
          "name": "",
          "type": "uint256"
        }
      ],
      "name": "candidateReg",
      "outputs": [
        {
          "internalType": "uint256",
          "name": "CandidateRegId",
          "type": "uint256"
        },
        {
          "internalType": "string",
          "name": "name",
          "type": "string"
        },
        {
          "internalType": "uint256",
          "name": "ward",
          "type": "uint256"
        },
        {
          "internalType": "address",
          "name": "id",
          "type": "address"
        },
        {
          "internalType": "uint256",
          "name": "vote",
          "type": "uint256"
        },
        {
          "internalType": "uint256",
          "name": "VoterId",
          "type": "uint256"
        },
        {
          "internalType": "enum Election.candidateStatus",
          "name": "status",
          "type": "uint8"
        },
        {
          "internalType": "string",
          "name": "remark",
          "type": "string"
        }
      ],
      "stateMutability": "view",
      "type": "function",
      "constant": true
    },
    {
      "inputs": [
        {
          "internalType": "uint256",
          "name": "",
          "type": "uint256"
        }
      ],
      "name": "candidatelist",
      "outputs": [
        {
          "internalType": "uint256",
          "name": "CandidateRegId",
          "type": "uint256"
        },
        {
          "internalType": "string",
          "name": "name",
          "type": "string"
        },
        {
          "internalType": "uint256",
          "name": "ward",
          "type": "uint256"
        },
        {
          "internalType": "address",
          "name": "id",
          "type": "address"
        },
        {
          "internalType": "uint256",
          "name": "vote",
          "type": "uint256"
        },
        {
          "internalType": "uint256",
          "name": "VoterId",
          "type": "uint256"
        },
        {
          "internalType": "enum Election.candidateStatus",
          "name": "status",
          "type": "uint8"
        },
        {
          "internalType": "string",
          "name": "remark",
          "type": "string"
        }
      ],
      "stateMutability": "view",
      "type": "function",
      "constant": true
    },
    {
      "inputs": [
        {
          "internalType": "address",
          "name": "",
          "type": "address"
        }
      ],
      "name": "candidatelogin",
      "outputs": [
        {
          "internalType": "uint256",
          "name": "",
          "type": "uint256"
        }
      ],
      "stateMutability": "view",
      "type": "function",
      "constant": true
    },
    {
      "inputs": [
        {
          "internalType": "string",
          "name": "_name",
          "type": "string"
        },
        {
          "internalType": "uint256",
          "name": "_ward",
          "type": "uint256"
        },
        {
          "internalType": "uint256",
          "name": "_voterId",
          "type": "uint256"
        }
      ],
      "name": "cantidateRegistration",
      "outputs": [],
      "stateMutability": "nonpayable",
      "type": "function"
    },
    {
      "inputs": [],
      "name": "result",
      "outputs": [
        {
          "internalType": "string",
          "name": "",
          "type": "string"
        },
        {
          "internalType": "uint256",
          "name": "",
          "type": "uint256"
        },
        {
          "internalType": "uint256",
          "name": "",
          "type": "uint256"
        }
      ],
      "stateMutability": "view",
      "type": "function",
      "constant": true
    },
    {
      "inputs": [
        {
          "internalType": "uint256",
          "name": "",
          "type": "uint256"
        }
      ],
      "name": "voter",
      "outputs": [
        {
          "internalType": "uint256",
          "name": "RegId",
          "type": "uint256"
        },
        {
          "internalType": "string",
          "name": "voterName",
          "type": "string"
        },
        {
          "internalType": "uint256",
          "name": "voterWard",
          "type": "uint256"
        },
        {
          "internalType": "address",
          "name": "voterAddress",
          "type": "address"
        },
        {
          "internalType": "uint256",
          "name": "voterId",
          "type": "uint256"
        },
        {
          "internalType": "bool",
          "name": "status",
          "type": "bool"
        }
      ],
      "stateMutability": "view",
      "type": "function",
      "constant": true
    },
    {
      "inputs": [],
      "name": "voterCount",
      "outputs": [
        {
          "internalType": "uint256",
          "name": "",
          "type": "uint256"
        }
      ],
      "stateMutability": "view",
      "type": "function",
      "constant": true
    },
    {
      "inputs": [
        {
          "internalType": "string",
          "name": "_name",
          "type": "string"
        },
        {
          "internalType": "uint256",
          "name": "_ward",
          "type": "uint256"
        }
      ],
      "name": "voterRegistration",
      "outputs": [],
      "stateMutability": "nonpayable",
      "type": "function"
    },
    {
      "inputs": [
        {
          "internalType": "address",
          "name": "",
          "type": "address"
        }
      ],
      "name": "voterlogin",
      "outputs": [
        {
          "internalType": "uint256",
          "name": "",
          "type": "uint256"
        }
      ],
      "stateMutability": "view",
      "type": "function",
      "constant": true
    },
    {
      "inputs": [
        {
          "internalType": "address",
          "name": "",
          "type": "address"
        }
      ],
      "name": "votes",
      "outputs": [
        {
          "internalType": "bool",
          "name": "",
          "type": "bool"
        }
      ],
      "stateMutability": "view",
      "type": "function",
      "constant": true
    },
    {
      "inputs": [
        {
          "internalType": "uint256",
          "name": "candidateId",
          "type": "uint256"
        }
      ],
      "name": "vote",
      "outputs": [],
      "stateMutability": "nonpayable",
      "type": "function"
    }
  ],
  "bytecode": "0x60806040526103e8600a5534801561001657600080fd5b50336000806101000a81548173ffffffffffffffffffffffffffffffffffffffff021916908373ffffffffffffffffffffffffffffffffffffffff160217905550612d63806100666000396000f3fe608060405234801561001057600080fd5b506004361061010b5760003560e01c8063911eb81d116100a2578063bcaf189b11610071578063bcaf189b146102b2578063bf7e214f146102e9578063d8bff5a514610307578063e749ee4814610337578063f22e9d0b146103675761010b565b8063911eb81d1461020c578063a9a981a314610243578063ab8ed1ba14610261578063b1c63ed0146102965761010b565b80634bc81946116100de5780634bc81946146101825780635f4e5628146101b257806365372147146101ce5780637400df71146101ee5761010b565b80630121b93f14610110578063032071f41461012c5780630ceab5a91461014857806342169e4814610164575b600080fd5b61012a60048036038101906101259190612108565b610383565b005b6101466004803603810190610141919061227b565b61062b565b005b610162600480360381019061015d9190612348565b6108bf565b005b61016c610f93565b60405161017991906123b3565b60405180910390f35b61019c600480360381019061019791906123ce565b610f99565b6040516101a991906123b3565b60405180910390f35b6101cc60048036038101906101c79190612348565b610fb1565b005b6101d6611641565b6040516101e593929190612483565b60405180910390f35b6101f66117cb565b60405161020391906123b3565b60405180910390f35b61022660048036038101906102219190612108565b6117d1565b60405161023a989796959493929190612547565b60405180910390f35b61024b611956565b60405161025891906123b3565b60405180910390f35b61027b60048036038101906102769190612108565b61195c565b60405161028d969594939291906125ee565b60405180910390f35b6102b060048036038101906102ab9190612656565b611a4d565b005b6102cc60048036038101906102c79190612108565b611c7b565b6040516102e0989796959493929190612547565b60405180910390f35b6102f1611e00565b6040516102fe91906126b2565b60405180910390f35b610321600480360381019061031c91906123ce565b611e24565b60405161032e91906126cd565b60405180910390f35b610351600480360381019061034c91906123ce565b611e44565b60405161035e91906123b3565b60405180910390f35b610381600480360381019061037c9190612108565b611e5c565b005b60008111801561039557506007548111155b6103d4576040517f08c379a00000000000000000000000000000000000000000000000000000000081526004016103cb90612734565b60405180910390fd5b600160003373ffffffffffffffffffffffffffffffffffffffff1673ffffffffffffffffffffffffffffffffffffffff16815260200190815260200160002060009054906101000a900460ff1615610461576040517f08c379a0000000000000000000000000000000000000000000000000000000008152600401610458906127a0565b60405180910390fd5b60006103e990505b6008546103e861047991906127ef565b8111610627573373ffffffffffffffffffffffffffffffffffffffff166002600083815260200190815260200160002060030160009054906101000a900473ffffffffffffffffffffffffffffffffffffffff1673ffffffffffffffffffffffffffffffffffffffff161415610614576004600083815260200190815260200160002060020154600260008381526020019081526020016000206002015414801561054b5750600115156002600083815260200190815260200160002060050160009054906101000a900460ff161515145b156105d85760018060003373ffffffffffffffffffffffffffffffffffffffff1673ffffffffffffffffffffffffffffffffffffffff16815260200190815260200160002060006101000a81548160ff0219169083151502179055506004600083815260200190815260200160002060040160008154809291906105ce90612845565b9190505550610613565b6040517f08c379a000000000000000000000000000000000000000000000000000000000815260040161060a90612900565b60405180910390fd5b5b808061061f90612845565b915050610469565b5050565b6000600190505b60075481116106f3573373ffffffffffffffffffffffffffffffffffffffff166003600083815260200190815260200160002060030160009054906101000a900473ffffffffffffffffffffffffffffffffffffffff1673ffffffffffffffffffffffffffffffffffffffff1614156106e0576040517f08c379a00000000000000000000000000000000000000000000000000000000081526004016106d790612992565b60405180910390fd5b80806106eb90612845565b915050610632565b506007600081548092919061070790612845565b9190505550600060405180610100016040528060075481526020018581526020018481526020013373ffffffffffffffffffffffffffffffffffffffff1681526020016000815260200183815260200182600281111561076a576107696124d0565b5b8152602001604051806020016040528060008152508152506003600060075481526020019081526020016000206000820151816000015560208201518160010190805190602001906107bd92919061201b565b506040820151816002015560608201518160030160006101000a81548173ffffffffffffffffffffffffffffffffffffffff021916908373ffffffffffffffffffffffffffffffffffffffff1602179055506080820151816004015560a0820151816005015560c08201518160060160006101000a81548160ff0219169083600281111561084e5761084d6124d0565b5b021790555060e082015181600701908051906020019061086f92919061201b565b50905050600754600660003373ffffffffffffffffffffffffffffffffffffffff1673ffffffffffffffffffffffffffffffffffffffff1681526020019081526020016000208190555050505050565b60008054906101000a900473ffffffffffffffffffffffffffffffffffffffff1673ffffffffffffffffffffffffffffffffffffffff163373ffffffffffffffffffffffffffffffffffffffff161461094d576040517f08c379a000000000000000000000000000000000000000000000000000000000815260040161094490612a24565b60405180910390fd5b6000600190505b6009548111610a15578273ffffffffffffffffffffffffffffffffffffffff166004600083815260200190815260200160002060030160009054906101000a900473ffffffffffffffffffffffffffffffffffffffff1673ffffffffffffffffffffffffffffffffffffffff161415610a02576040517f08c379a00000000000000000000000000000000000000000000000000000000081526004016109f990612a90565b60405180910390fd5b8080610a0d90612845565b915050610954565b50600080600190505b6007548111610f4a578373ffffffffffffffffffffffffffffffffffffffff166003600083815260200190815260200160002060030160009054906101000a900473ffffffffffffffffffffffffffffffffffffffff1673ffffffffffffffffffffffffffffffffffffffff161415610f375760096000815480929190610aa490612845565b91905055506000600290506040518061010001604052806007548152602001600360008581526020019081526020016000206001018054610ae490612adf565b80601f0160208091040260200160405190810160405280929190818152602001828054610b1090612adf565b8015610b5d5780601f10610b3257610100808354040283529160200191610b5d565b820191906000526020600020905b815481529060010190602001808311610b4057829003601f168201915b50505050508152602001600360008581526020019081526020016000206002015481526020013373ffffffffffffffffffffffffffffffffffffffff1681526020016000815260200160036000858152602001908152602001600020600501548152602001826002811115610bd557610bd46124d0565b5b81526020018581525060036000848152602001908152602001600020600082015181600001556020820151816001019080519060200190610c1792919061201b565b506040820151816002015560608201518160030160006101000a81548173ffffffffffffffffffffffffffffffffffffffff021916908373ffffffffffffffffffffffffffffffffffffffff1602179055506080820151816004015560a0820151816005015560c08201518160060160006101000a81548160ff02191690836002811115610ca857610ca76124d0565b5b021790555060e0820151816007019080519060200190610cc992919061201b565b509050506040518061010001604052806009548152602001600360008581526020019081526020016000206001018054610d0290612adf565b80601f0160208091040260200160405190810160405280929190818152602001828054610d2e90612adf565b8015610d7b5780601f10610d5057610100808354040283529160200191610d7b565b820191906000526020600020905b815481529060010190602001808311610d5e57829003601f168201915b50505050508152602001600360008581526020019081526020016000206002015481526020018673ffffffffffffffffffffffffffffffffffffffff1681526020016000815260200160036000858152602001908152602001600020600501548152602001826002811115610df357610df26124d0565b5b815260200185815250600460006009548152602001908152602001600020600082015181600001556020820151816001019080519060200190610e3792919061201b565b506040820151816002015560608201518160030160006101000a81548173ffffffffffffffffffffffffffffffffffffffff021916908373ffffffffffffffffffffffffffffffffffffffff1602179055506080820151816004015560a0820151816005015560c08201518160060160006101000a81548160ff02191690836002811115610ec857610ec76124d0565b5b021790555060e0820151816007019080519060200190610ee992919061201b565b5090505081600660008773ffffffffffffffffffffffffffffffffffffffff1673ffffffffffffffffffffffffffffffffffffffff1681526020019081526020016000208190555060019250505b8080610f4290612845565b915050610a1e565b5060018114610f8e576040517f08c379a0000000000000000000000000000000000000000000000000000000008152600401610f8590612b5d565b60405180910390fd5b505050565b60085481565b60056020528060005260406000206000915090505481565b60008054906101000a900473ffffffffffffffffffffffffffffffffffffffff1673ffffffffffffffffffffffffffffffffffffffff163373ffffffffffffffffffffffffffffffffffffffff161461103f576040517f08c379a000000000000000000000000000000000000000000000000000000000815260040161103690612a24565b60405180910390fd5b6000600190505b6009548111611107578273ffffffffffffffffffffffffffffffffffffffff166004600083815260200190815260200160002060030160009054906101000a900473ffffffffffffffffffffffffffffffffffffffff1673ffffffffffffffffffffffffffffffffffffffff1614156110f4576040517f08c379a00000000000000000000000000000000000000000000000000000000081526004016110eb90612a90565b60405180910390fd5b80806110ff90612845565b915050611046565b50600080600190505b60075481116115f8578373ffffffffffffffffffffffffffffffffffffffff166003600083815260200190815260200160002060030160009054906101000a900473ffffffffffffffffffffffffffffffffffffffff1673ffffffffffffffffffffffffffffffffffffffff1614156115e5576009600081548092919061119690612845565b919050555060006001905060405180610100016040528060075481526020016003600085815260200190815260200160002060010180546111d690612adf565b80601f016020809104026020016040519081016040528092919081815260200182805461120290612adf565b801561124f5780601f106112245761010080835404028352916020019161124f565b820191906000526020600020905b81548152906001019060200180831161123257829003601f168201915b50505050508152602001600360008581526020019081526020016000206002015481526020013373ffffffffffffffffffffffffffffffffffffffff16815260200160008152602001600360008581526020019081526020016000206005015481526020018260028111156112c7576112c66124d0565b5b8152602001858152506003600084815260200190815260200160002060008201518160000155602082015181600101908051906020019061130992919061201b565b506040820151816002015560608201518160030160006101000a81548173ffffffffffffffffffffffffffffffffffffffff021916908373ffffffffffffffffffffffffffffffffffffffff1602179055506080820151816004015560a0820151816005015560c08201518160060160006101000a81548160ff0219169083600281111561139a576113996124d0565b5b021790555060e08201518160070190805190602001906113bb92919061201b565b5090505060405180610100016040528060095481526020016003600085815260200190815260200160002060010180546113f490612adf565b80601f016020809104026020016040519081016040528092919081815260200182805461142090612adf565b801561146d5780601f106114425761010080835404028352916020019161146d565b820191906000526020600020905b81548152906001019060200180831161145057829003601f168201915b50505050508152602001600360008581526020019081526020016000206002015481526020018673ffffffffffffffffffffffffffffffffffffffff16815260200160008152602001600360008581526020019081526020016000206005015481526020018260028111156114e5576114e46124d0565b5b81526020018581525060046000600954815260200190815260200160002060008201518160000155602082015181600101908051906020019061152992919061201b565b506040820151816002015560608201518160030160006101000a81548173ffffffffffffffffffffffffffffffffffffffff021916908373ffffffffffffffffffffffffffffffffffffffff1602179055506080820151816004015560a0820151816005015560c08201518160060160006101000a81548160ff021916908360028111156115ba576115b96124d0565b5b021790555060e08201518160070190805190602001906115db92919061201b565b5090505060019250505b80806115f090612845565b915050611110565b506001811461163c576040517f08c379a000000000000000000000000000000000000000000000000000000000815260040161163390612b5d565b60405180910390fd5b505050565b60606000806001600954101561168c576040517f08c379a000000000000000000000000000000000000000000000000000000000815260040161168390612bc9565b60405180910390fd5b6000806000600190505b60095481116116ed5782600460008381526020019081526020016000206004015411156116da57600460008281526020019081526020016000206004015492508091505b80806116e590612845565b915050611696565b50600460008281526020019081526020016000206001016004600083815260200190815260200160002060040154600460008481526020019081526020016000206002015482805461173e90612adf565b80601f016020809104026020016040519081016040528092919081815260200182805461176a90612adf565b80156117b75780601f1061178c576101008083540402835291602001916117b7565b820191906000526020600020905b81548152906001019060200180831161179a57829003601f168201915b505050505092509450945094505050909192565b60095481565b60046020528060005260406000206000915090508060000154908060010180546117fa90612adf565b80601f016020809104026020016040519081016040528092919081815260200182805461182690612adf565b80156118735780601f1061184857610100808354040283529160200191611873565b820191906000526020600020905b81548152906001019060200180831161185657829003601f168201915b5050505050908060020154908060030160009054906101000a900473ffffffffffffffffffffffffffffffffffffffff16908060040154908060050154908060060160009054906101000a900460ff16908060070180546118d390612adf565b80601f01602080910402602001604051908101604052809291908181526020018280546118ff90612adf565b801561194c5780601f106119215761010080835404028352916020019161194c565b820191906000526020600020905b81548152906001019060200180831161192f57829003601f168201915b5050505050905088565b60075481565b600260205280600052604060002060009150905080600001549080600101805461198590612adf565b80601f01602080910402602001604051908101604052809291908181526020018280546119b190612adf565b80156119fe5780601f106119d3576101008083540402835291602001916119fe565b820191906000526020600020905b8154815290600101906020018083116119e157829003601f168201915b5050505050908060020154908060030160009054906101000a900473ffffffffffffffffffffffffffffffffffffffff16908060040154908060050160009054906101000a900460ff16905086565b6000600190505b6008548111611b15573373ffffffffffffffffffffffffffffffffffffffff166002600083815260200190815260200160002060030160009054906101000a900473ffffffffffffffffffffffffffffffffffffffff1673ffffffffffffffffffffffffffffffffffffffff161415611b02576040517f08c379a0000000000000000000000000000000000000000000000000000000008152600401611af990612c35565b60405180910390fd5b8080611b0d90612845565b915050611a54565b5060086000815480929190611b2990612845565b91905055506040518060c0016040528060085481526020018381526020018281526020013373ffffffffffffffffffffffffffffffffffffffff1681526020016001815260200160001515815250600260006008548152602001908152602001600020600082015181600001556020820151816001019080519060200190611bb292919061201b565b506040820151816002015560608201518160030160006101000a81548173ffffffffffffffffffffffffffffffffffffffff021916908373ffffffffffffffffffffffffffffffffffffffff1602179055506080820151816004015560a08201518160050160006101000a81548160ff021916908315150217905550905050600854600560003373ffffffffffffffffffffffffffffffffffffffff1673ffffffffffffffffffffffffffffffffffffffff168152602001908152602001600020819055505050565b6003602052806000526040600020600091509050806000015490806001018054611ca490612adf565b80601f0160208091040260200160405190810160405280929190818152602001828054611cd090612adf565b8015611d1d5780601f10611cf257610100808354040283529160200191611d1d565b820191906000526020600020905b815481529060010190602001808311611d0057829003601f168201915b5050505050908060020154908060030160009054906101000a900473ffffffffffffffffffffffffffffffffffffffff16908060040154908060050154908060060160009054906101000a900460ff1690806007018054611d7d90612adf565b80601f0160208091040260200160405190810160405280929190818152602001828054611da990612adf565b8015611df65780601f10611dcb57610100808354040283529160200191611df6565b820191906000526020600020905b815481529060010190602001808311611dd957829003601f168201915b5050505050905088565b60008054906101000a900473ffffffffffffffffffffffffffffffffffffffff1681565b60016020528060005260406000206000915054906101000a900460ff1681565b60066020528060005260406000206000915090505481565b60008054906101000a900473ffffffffffffffffffffffffffffffffffffffff1673ffffffffffffffffffffffffffffffffffffffff163373ffffffffffffffffffffffffffffffffffffffff1614611eea576040517f08c379a0000000000000000000000000000000000000000000000000000000008152600401611ee190612a24565b60405180910390fd5b600115156002600083815260200190815260200160002060050160009054906101000a900460ff1615151415611f55576040517f08c379a0000000000000000000000000000000000000000000000000000000008152600401611f4c90612ca1565b60405180910390fd5b600160026000838152602001908152602001600020600401541415611fdd57600a6000815480929190611f8790612845565b9190505550600a54600260008381526020019081526020016000206004018190555060016002600083815260200190815260200160002060050160006101000a81548160ff021916908315150217905550612018565b6040517f08c379a000000000000000000000000000000000000000000000000000000000815260040161200f90612d0d565b60405180910390fd5b50565b82805461202790612adf565b90600052602060002090601f0160209004810192826120495760008555612090565b82601f1061206257805160ff1916838001178555612090565b82800160010185558215612090579182015b8281111561208f578251825591602001919060010190612074565b5b50905061209d91906120a1565b5090565b5b808211156120ba5760008160009055506001016120a2565b5090565b6000604051905090565b600080fd5b600080fd5b6000819050919050565b6120e5816120d2565b81146120f057600080fd5b50565b600081359050612102816120dc565b92915050565b60006020828403121561211e5761211d6120c8565b5b600061212c848285016120f3565b91505092915050565b600080fd5b600080fd5b6000601f19601f8301169050919050565b7f4e487b7100000000000000000000000000000000000000000000000000000000600052604160045260246000fd5b6121888261213f565b810181811067ffffffffffffffff821117156121a7576121a6612150565b5b80604052505050565b60006121ba6120be565b90506121c6828261217f565b919050565b600067ffffffffffffffff8211156121e6576121e5612150565b5b6121ef8261213f565b9050602081019050919050565b82818337600083830152505050565b600061221e612219846121cb565b6121b0565b90508281526020810184848401111561223a5761223961213a565b5b6122458482856121fc565b509392505050565b600082601f83011261226257612261612135565b5b813561227284826020860161220b565b91505092915050565b600080600060608486031215612294576122936120c8565b5b600084013567ffffffffffffffff8111156122b2576122b16120cd565b5b6122be8682870161224d565b93505060206122cf868287016120f3565b92505060406122e0868287016120f3565b9150509250925092565b600073ffffffffffffffffffffffffffffffffffffffff82169050919050565b6000612315826122ea565b9050919050565b6123258161230a565b811461233057600080fd5b50565b6000813590506123428161231c565b92915050565b6000806040838503121561235f5761235e6120c8565b5b600061236d85828601612333565b925050602083013567ffffffffffffffff81111561238e5761238d6120cd565b5b61239a8582860161224d565b9150509250929050565b6123ad816120d2565b82525050565b60006020820190506123c860008301846123a4565b92915050565b6000602082840312156123e4576123e36120c8565b5b60006123f284828501612333565b91505092915050565b600081519050919050565b600082825260208201905092915050565b60005b8381101561243557808201518184015260208101905061241a565b83811115612444576000848401525b50505050565b6000612455826123fb565b61245f8185612406565b935061246f818560208601612417565b6124788161213f565b840191505092915050565b6000606082019050818103600083015261249d818661244a565b90506124ac60208301856123a4565b6124b960408301846123a4565b949350505050565b6124ca8161230a565b82525050565b7f4e487b7100000000000000000000000000000000000000000000000000000000600052602160045260246000fd5b600381106125105761250f6124d0565b5b50565b6000819050612521826124ff565b919050565b600061253182612513565b9050919050565b61254181612526565b82525050565b60006101008201905061255d600083018b6123a4565b818103602083015261256f818a61244a565b905061257e60408301896123a4565b61258b60608301886124c1565b61259860808301876123a4565b6125a560a08301866123a4565b6125b260c0830185612538565b81810360e08301526125c4818461244a565b90509998505050505050505050565b60008115159050919050565b6125e8816125d3565b82525050565b600060c08201905061260360008301896123a4565b8181036020830152612615818861244a565b905061262460408301876123a4565b61263160608301866124c1565b61263e60808301856123a4565b61264b60a08301846125df565b979650505050505050565b6000806040838503121561266d5761266c6120c8565b5b600083013567ffffffffffffffff81111561268b5761268a6120cd565b5b6126978582860161224d565b92505060206126a8858286016120f3565b9150509250929050565b60006020820190506126c760008301846124c1565b92915050565b60006020820190506126e260008301846125df565b92915050565b7f696e76616c696465207573657200000000000000000000000000000000000000600082015250565b600061271e600d83612406565b9150612729826126e8565b602082019050919050565b6000602082019050818103600083015261274d81612711565b9050919050565b7f796f752061726520616c726561647920766f7465640000000000000000000000600082015250565b600061278a601583612406565b915061279582612754565b602082019050919050565b600060208201905081810360008301526127b98161277d565b9050919050565b7f4e487b7100000000000000000000000000000000000000000000000000000000600052601160045260246000fd5b60006127fa826120d2565b9150612805836120d2565b9250827fffffffffffffffffffffffffffffffffffffffffffffffffffffffffffffffff0382111561283a576128396127c0565b5b828201905092915050565b6000612850826120d2565b91507fffffffffffffffffffffffffffffffffffffffffffffffffffffffffffffffff821415612883576128826127c0565b5b600182019050919050565b7f796f752063616e277420766f746520616e6f7468657220776172642063616e6460008201527f6964617465000000000000000000000000000000000000000000000000000000602082015250565b60006128ea602583612406565b91506128f58261288e565b604082019050919050565b60006020820190508181036000830152612919816128dd565b9050919050565b7f73616d652063616e6469646174652063616e277420626520726567697374657260008201527f20616761696e0000000000000000000000000000000000000000000000000000602082015250565b600061297c602683612406565b915061298782612920565b604082019050919050565b600060208201905081810360008301526129ab8161296f565b9050919050565b7f617574686f726974792063616e206f6e6c792063616c6c20746869732066756e60008201527f6374696f6e000000000000000000000000000000000000000000000000000000602082015250565b6000612a0e602583612406565b9150612a19826129b2565b604082019050919050565b60006020820190508181036000830152612a3d81612a01565b9050919050565b7f616c7265616479206170726f7665640000000000000000000000000000000000600082015250565b6000612a7a600f83612406565b9150612a8582612a44565b602082019050919050565b60006020820190508181036000830152612aa981612a6d565b9050919050565b7f4e487b7100000000000000000000000000000000000000000000000000000000600052602260045260246000fd5b60006002820490506001821680612af757607f821691505b60208210811415612b0b57612b0a612ab0565b5b50919050565b7f74686572206973206e6f20737563682063616e64696461746500000000000000600082015250565b6000612b47601983612406565b9150612b5282612b11565b602082019050919050565b60006020820190508181036000830152612b7681612b3a565b9050919050565b7f7468657265206973206e6f2063616e6469646174650000000000000000000000600082015250565b6000612bb3601583612406565b9150612bbe82612b7d565b602082019050919050565b60006020820190508181036000830152612be281612ba6565b9050919050565b7f616c726561647920637265617465640000000000000000000000000000000000600082015250565b6000612c1f600f83612406565b9150612c2a82612be9565b602082019050919050565b60006020820190508181036000830152612c4e81612c12565b9050919050565b7f416c726561647920766f74657220494420416c6c6f6361746564200000000000600082015250565b6000612c8b601b83612406565b9150612c9682612c55565b602082019050919050565b60006020820190508181036000830152612cba81612c7e565b9050919050565b7f4669737420796f75206e65656420746f20726567697374657200000000000000600082015250565b6000612cf7601983612406565b9150612d0282612cc1565b602082019050919050565b60006020820190508181036000830152612d2681612cea565b905091905056fea2646970667358221220c7008ec8bdb117fd4a2394600639501ac6a91e4f30344120711dc819a8f9347464736f6c634300080a0033",
  "immutableReferences": {},
  "source": "// SPDX-License-Identifier: GPL-3.0\npragma solidity ^0.8.7;\n\nimport \"./election.sol\";\n\ncontract Voteing is Election{\n     function vote(uint candidateId) public {\n        require(candidateId > 0 && candidateId <=  candidateCount, \"invalide user\");\n        require(!votes[msg.sender], \"you are already voted\");\n        \n        for(uint i=1001; i<=1000+voterCount; i++ ){\n            if(voter[i].voterAddress == msg.sender){\n                if(voter[i].voterWard == candidatelist[candidateId].ward && voter[i].status == true){\n                     votes[msg.sender] = true;\n                      candidatelist[candidateId].vote++;\n                }else{\n                    revert(\"you can't vote another ward candidate\");\n                }       \n            }\n        }\n    }\n}",
  "sourcePath": "/home/nisamudheen/Desktop/sps/voting_smartcontract/contracts/Voting.sol",
  "compiler": {
    "name": "solc",
    "version": "0.8.10+commit.fc410830.Emscripten.clang"
  },
  "schemaVersion": "3.4.3",
  "updatedAt": "2021-12-28T16:35:52.281Z",
  "networkType": "ethereum",
  "devdoc": {
    "kind": "dev",
    "methods": {},
    "version": 1
  },
  "userdoc": {
    "kind": "user",
    "methods": {},
    "version": 1
  }
}