{
  "contractName": "Voteing",
  "abi": [
    {
      "inputs": [],
      "name": "applyForCantidate",
      "outputs": [],
      "stateMutability": "nonpayable",
      "type": "function"
    },
    {
      "inputs": [
        {
          "internalType": "address",
          "name": "_voteraddress",
          "type": "address"
        }
      ],
      "name": "approveCadidedress",
      "outputs": [],
      "stateMutability": "nonpayable",
      "type": "function"
    },
    {
      "inputs": [
        {
          "internalType": "uint256",
          "name": "",
          "type": "uint256"
        }
      ],
      "name": "candidateReg",
      "outputs": [
        {
          "internalType": "uint256",
          "name": "CandidateId",
          "type": "uint256"
        },
        {
          "internalType": "string",
          "name": "name",
          "type": "string"
        },
        {
          "internalType": "uint256",
          "name": "ward",
          "type": "uint256"
        },
        {
          "internalType": "uint256",
          "name": "voteCount",
          "type": "uint256"
        },
        {
          "internalType": "address",
          "name": "id",
          "type": "address"
        },
        {
          "internalType": "uint256",
          "name": "VoterId",
          "type": "uint256"
        },
        {
          "internalType": "enum Election.candidateStatus",
          "name": "status",
          "type": "uint8"
        }
      ],
      "stateMutability": "view",
      "type": "function",
      "constant": true
    },
    {
      "inputs": [
        {
          "internalType": "uint256",
          "name": "",
          "type": "uint256"
        }
      ],
      "name": "candidateslist",
      "outputs": [
        {
          "internalType": "uint256",
          "name": "CandidateId",
          "type": "uint256"
        },
        {
          "internalType": "string",
          "name": "name",
          "type": "string"
        },
        {
          "internalType": "uint256",
          "name": "ward",
          "type": "uint256"
        },
        {
          "internalType": "uint256",
          "name": "voteCount",
          "type": "uint256"
        },
        {
          "internalType": "address",
          "name": "id",
          "type": "address"
        },
        {
          "internalType": "uint256",
          "name": "VoterId",
          "type": "uint256"
        },
        {
          "internalType": "enum Election.candidateStatus",
          "name": "status",
          "type": "uint8"
        }
      ],
      "stateMutability": "view",
      "type": "function",
      "constant": true
    },
    {
      "inputs": [],
      "name": "result",
      "outputs": [
        {
          "internalType": "string",
          "name": "",
          "type": "string"
        },
        {
          "internalType": "uint256",
          "name": "",
          "type": "uint256"
        }
      ],
      "stateMutability": "view",
      "type": "function",
      "constant": true
    },
    {
      "inputs": [
        {
          "internalType": "uint256",
          "name": "",
          "type": "uint256"
        }
      ],
      "name": "voter",
      "outputs": [
        {
          "internalType": "uint256",
          "name": "index",
          "type": "uint256"
        },
        {
          "internalType": "string",
          "name": "voterName",
          "type": "string"
        },
        {
          "internalType": "uint256",
          "name": "voterWard",
          "type": "uint256"
        },
        {
          "internalType": "address",
          "name": "voterAddress",
          "type": "address"
        },
        {
          "internalType": "bool",
          "name": "verify",
          "type": "bool"
        },
        {
          "internalType": "uint256",
          "name": "voterId",
          "type": "uint256"
        }
      ],
      "stateMutability": "view",
      "type": "function",
      "constant": true
    },
    {
      "inputs": [
        {
          "internalType": "string",
          "name": "_name",
          "type": "string"
        },
        {
          "internalType": "uint256",
          "name": "_ward",
          "type": "uint256"
        },
        {
          "internalType": "uint256",
          "name": "_age",
          "type": "uint256"
        }
      ],
      "name": "voterIdReg",
      "outputs": [],
      "stateMutability": "nonpayable",
      "type": "function"
    },
    {
      "inputs": [
        {
          "internalType": "string",
          "name": "_name",
          "type": "string"
        },
        {
          "internalType": "uint256",
          "name": "_ward",
          "type": "uint256"
        },
        {
          "internalType": "uint256",
          "name": "_voterId",
          "type": "uint256"
        }
      ],
      "name": "voterRegistration",
      "outputs": [],
      "stateMutability": "nonpayable",
      "type": "function"
    },
    {
      "inputs": [
        {
          "internalType": "uint256",
          "name": "_voterId",
          "type": "uint256"
        }
      ],
      "name": "voterVerify",
      "outputs": [],
      "stateMutability": "nonpayable",
      "type": "function"
    },
    {
      "inputs": [
        {
          "internalType": "uint256",
          "name": "",
          "type": "uint256"
        }
      ],
      "name": "voteridcard",
      "outputs": [
        {
          "internalType": "string",
          "name": "voterName",
          "type": "string"
        },
        {
          "internalType": "uint256",
          "name": "voterWard",
          "type": "uint256"
        },
        {
          "internalType": "uint256",
          "name": "age",
          "type": "uint256"
        },
        {
          "internalType": "uint256",
          "name": "voterIds",
          "type": "uint256"
        }
      ],
      "stateMutability": "view",
      "type": "function",
      "constant": true
    },
    {
      "inputs": [
        {
          "internalType": "address",
          "name": "",
          "type": "address"
        }
      ],
      "name": "votes",
      "outputs": [
        {
          "internalType": "bool",
          "name": "",
          "type": "bool"
        }
      ],
      "stateMutability": "view",
      "type": "function",
      "constant": true
    },
    {
      "inputs": [
        {
          "internalType": "uint256",
          "name": "candidatesId",
          "type": "uint256"
        }
      ],
      "name": "vote",
      "outputs": [],
      "stateMutability": "nonpayable",
      "type": "function"
    }
  ],
  "bytecode": "0x60806040526103e860005534801561001657600080fd5b5033600360006101000a81548173ffffffffffffffffffffffffffffffffffffffff021916908373ffffffffffffffffffffffffffffffffffffffff160217905550612632806100676000396000f3fe608060405234801561001057600080fd5b50600436106100b45760003560e01c806395cf05091161007157806395cf050914610169578063ab8ed1ba14610185578063bcaf189b146101ba578063ca6ea96d146101f0578063d8bff5a51461020c578063d8d4c9261461023c576100b4565b80630121b93f146100b9578063542ac40d146100d557806365372147146100df578063656ee5cc146100fe5780637bd019251461011a578063905d04c21461014d575b600080fd5b6100d360048036038101906100ce9190611a31565b610272565b005b6100dd61050d565b005b6100e76108d5565b6040516100f5929190611b06565b60405180910390f35b61011860048036038101906101139190611c6b565b610a44565b005b610134600480360381019061012f9190611a31565b610c2c565b6040516101449493929190611cda565b60405180910390f35b61016760048036038101906101629190611a31565b610ce4565b005b610183600480360381019061017e9190611d84565b610ed5565b005b61019f600480360381019061019a9190611a31565b611561565b6040516101b196959493929190611ddb565b60405180910390f35b6101d460048036038101906101cf9190611a31565b611652565b6040516101e79796959493929190611eba565b60405180910390f35b61020a60048036038101906102059190611c6b565b611749565b005b61022660048036038101906102219190611d84565b61182d565b6040516102339190611f30565b60405180910390f35b61025660048036038101906102519190611a31565b61184d565b6040516102699796959493929190611eba565b60405180910390f35b60008111801561028457506008548111155b6102c3576040517f08c379a00000000000000000000000000000000000000000000000000000000081526004016102ba90611f97565b60405180910390fd5b600460003373ffffffffffffffffffffffffffffffffffffffff1673ffffffffffffffffffffffffffffffffffffffff16815260200190815260200160002060009054906101000a900460ff1615610350576040517f08c379a000000000000000000000000000000000000000000000000000000000815260040161034790612003565b60405180910390fd5b6000600190505b6009548111610509573373ffffffffffffffffffffffffffffffffffffffff166005600083815260200190815260200160002060030160009054906101000a900473ffffffffffffffffffffffffffffffffffffffff1673ffffffffffffffffffffffffffffffffffffffff1614156104f6576007600083815260200190815260200160002060020154600560008381526020019081526020016000206002015414801561042c5750600115156005600083815260200190815260200160002060030160149054906101000a900460ff161515145b156104ba576001600460003373ffffffffffffffffffffffffffffffffffffffff1673ffffffffffffffffffffffffffffffffffffffff16815260200190815260200160002060006101000a81548160ff0219169083151502179055506007600083815260200190815260200160002060030160008154809291906104b090612052565b91905055506104f5565b6040517f08c379a00000000000000000000000000000000000000000000000000000000081526004016104ec9061210d565b60405180910390fd5b5b808061050190612052565b915050610357565b5050565b6000600190505b60095481116108d2573373ffffffffffffffffffffffffffffffffffffffff166005600083815260200190815260200160002060030160009054906101000a900473ffffffffffffffffffffffffffffffffffffffff1673ffffffffffffffffffffffffffffffffffffffff161480156105b55750600115156005600083815260200190815260200160002060030160149054906101000a900460ff161515145b1561080c57600860008154809291906105cd90612052565b919050555060006040518060e0016040528060085481526020016005600085815260200190815260200160002060010180546106089061215c565b80601f01602080910402602001604051908101604052809291908181526020018280546106349061215c565b80156106815780601f1061065657610100808354040283529160200191610681565b820191906000526020600020905b81548152906001019060200180831161066457829003601f168201915b5050505050815260200160056000858152602001908152602001600020600201548152602001600081526020016005600085815260200190815260200160002060030160009054906101000a900473ffffffffffffffffffffffffffffffffffffffff1673ffffffffffffffffffffffffffffffffffffffff1681526020016005600085815260200190815260200160002060040154815260200182600281111561072f5761072e611e43565b5b81525060066000600854815260200190815260200160002060008201518160000155602082015181600101908051906020019061076d929190611944565b50604082015181600201556060820151816003015560808201518160040160006101000a81548173ffffffffffffffffffffffffffffffffffffffff021916908373ffffffffffffffffffffffffffffffffffffffff16021790555060a0820151816005015560c08201518160060160006101000a81548160ff021916908360028111156107fe576107fd611e43565b5b0217905550905050506108bf565b3373ffffffffffffffffffffffffffffffffffffffff166006600083815260200190815260200160002060040160009054906101000a900473ffffffffffffffffffffffffffffffffffffffff1673ffffffffffffffffffffffffffffffffffffffff16148061087e57506000600954145b156108be576040517f08c379a00000000000000000000000000000000000000000000000000000000081526004016108b5906121da565b60405180910390fd5b5b80806108ca90612052565b915050610514565b50565b606060006001600a54101561091f576040517f08c379a000000000000000000000000000000000000000000000000000000000815260040161091690612246565b60405180910390fd5b6000806000600190505b600a54811161098057826007600083815260200190815260200160002060030154111561096d57600760008281526020019081526020016000206003015492508091505b808061097890612052565b915050610929565b506007600082815260200190815260200160002060010160076000838152602001908152602001600020600301548180546109ba9061215c565b80601f01602080910402602001604051908101604052809291908181526020018280546109e69061215c565b8015610a335780601f10610a0857610100808354040283529160200191610a33565b820191906000526020600020905b815481529060010190602001808311610a1657829003601f168201915b505050505091509350935050509091565b6000600190505b6009548111610b0c573373ffffffffffffffffffffffffffffffffffffffff166005600083815260200190815260200160002060030160009054906101000a900473ffffffffffffffffffffffffffffffffffffffff1673ffffffffffffffffffffffffffffffffffffffff161415610af9576040517f08c379a0000000000000000000000000000000000000000000000000000000008152600401610af0906122b2565b60405180910390fd5b8080610b0490612052565b915050610a4b565b5060096000815480929190610b2090612052565b91905055506040518060c0016040528060095481526020018481526020018381526020013373ffffffffffffffffffffffffffffffffffffffff16815260200160001515815260200182815250600560006009548152602001908152602001600020600082015181600001556020820151816001019080519060200190610ba8929190611944565b506040820151816002015560608201518160030160006101000a81548173ffffffffffffffffffffffffffffffffffffffff021916908373ffffffffffffffffffffffffffffffffffffffff16021790555060808201518160030160146101000a81548160ff02191690831515021790555060a08201518160040155905050505050565b6002602052806000526040600020600091509050806000018054610c4f9061215c565b80601f0160208091040260200160405190810160405280929190818152602001828054610c7b9061215c565b8015610cc85780601f10610c9d57610100808354040283529160200191610cc8565b820191906000526020600020905b815481529060010190602001808311610cab57829003601f168201915b5050505050908060010154908060020154908060030154905084565b600360009054906101000a900473ffffffffffffffffffffffffffffffffffffffff1673ffffffffffffffffffffffffffffffffffffffff163373ffffffffffffffffffffffffffffffffffffffff1614610d74576040517f08c379a0000000000000000000000000000000000000000000000000000000008152600401610d6b90612344565b60405180910390fd5b600115156005600083815260200190815260200160002060030160149054906101000a900460ff1615151415610ddf576040517f08c379a0000000000000000000000000000000000000000000000000000000008152600401610dd6906123b0565b60405180910390fd5b6000811080610def575060015481115b15610e2f576040517f08c379a0000000000000000000000000000000000000000000000000000000008152600401610e269061241c565b60405180910390fd5b600260008281526020019081526020016000206003015460056000838152602001908152602001600020600401541415610e975760016005600083815260200190815260200160002060030160146101000a81548160ff021916908315150217905550610ed2565b6040517f08c379a0000000000000000000000000000000000000000000000000000000008152600401610ec990612488565b60405180910390fd5b50565b600360009054906101000a900473ffffffffffffffffffffffffffffffffffffffff1673ffffffffffffffffffffffffffffffffffffffff163373ffffffffffffffffffffffffffffffffffffffff1614610f65576040517f08c379a0000000000000000000000000000000000000000000000000000000008152600401610f5c90612344565b60405180910390fd5b60005b600a548111611029578173ffffffffffffffffffffffffffffffffffffffff166007600083815260200190815260200160002060040160009054906101000a900473ffffffffffffffffffffffffffffffffffffffff1673ffffffffffffffffffffffffffffffffffffffff161415611016576040517f08c379a000000000000000000000000000000000000000000000000000000000815260040161100d906124f4565b60405180910390fd5b808061102190612052565b915050610f68565b506000600190505b600854811161155d578173ffffffffffffffffffffffffffffffffffffffff166006600083815260200190815260200160002060040160009054906101000a900473ffffffffffffffffffffffffffffffffffffffff1673ffffffffffffffffffffffffffffffffffffffff16141561154a576000600190505b6001548111611548576002600082815260200190815260200160002060010154600660008481526020019081526020016000206002015414801561111a575060026000828152602001908152602001600020600301546006600084815260200190815260200160002060050154145b1561153557600a600081548092919061113290612052565b91905055506000600190506040518060e0016040528060085481526020016006600086815260200190815260200160002060010180546111719061215c565b80601f016020809104026020016040519081016040528092919081815260200182805461119d9061215c565b80156111ea5780601f106111bf576101008083540402835291602001916111ea565b820191906000526020600020905b8154815290600101906020018083116111cd57829003601f168201915b5050505050815260200160066000868152602001908152602001600020600201548152602001600081526020013373ffffffffffffffffffffffffffffffffffffffff1681526020016006600086815260200190815260200160002060050154815260200182600281111561126257611261611e43565b5b8152506006600085815260200190815260200160002060008201518160000155602082015181600101908051906020019061129e929190611944565b50604082015181600201556060820151816003015560808201518160040160006101000a81548173ffffffffffffffffffffffffffffffffffffffff021916908373ffffffffffffffffffffffffffffffffffffffff16021790555060a0820151816005015560c08201518160060160006101000a81548160ff0219169083600281111561132f5761132e611e43565b5b02179055509050506040518060e00160405280600a54815260200160066000868152602001908152602001600020600101805461136b9061215c565b80601f01602080910402602001604051908101604052809291908181526020018280546113979061215c565b80156113e45780601f106113b9576101008083540402835291602001916113e4565b820191906000526020600020905b8154815290600101906020018083116113c757829003601f168201915b5050505050815260200160066000868152602001908152602001600020600201548152602001600081526020018573ffffffffffffffffffffffffffffffffffffffff1681526020016006600086815260200190815260200160002060050154815260200182600281111561145c5761145b611e43565b5b81525060076000600a54815260200190815260200160002060008201518160000155602082015181600101908051906020019061149a929190611944565b50604082015181600201556060820151816003015560808201518160040160006101000a81548173ffffffffffffffffffffffffffffffffffffffff021916908373ffffffffffffffffffffffffffffffffffffffff16021790555060a0820151816005015560c08201518160060160006101000a81548160ff0219169083600281111561152b5761152a611e43565b5b0217905550905050505b808061154090612052565b9150506110ab565b505b808061155590612052565b915050611031565b5050565b600560205280600052604060002060009150905080600001549080600101805461158a9061215c565b80601f01602080910402602001604051908101604052809291908181526020018280546115b69061215c565b80156116035780601f106115d857610100808354040283529160200191611603565b820191906000526020600020905b8154815290600101906020018083116115e657829003601f168201915b5050505050908060020154908060030160009054906101000a900473ffffffffffffffffffffffffffffffffffffffff16908060030160149054906101000a900460ff16908060040154905086565b600660205280600052604060002060009150905080600001549080600101805461167b9061215c565b80601f01602080910402602001604051908101604052809291908181526020018280546116a79061215c565b80156116f45780601f106116c9576101008083540402835291602001916116f4565b820191906000526020600020905b8154815290600101906020018083116116d757829003601f168201915b5050505050908060020154908060030154908060040160009054906101000a900473ffffffffffffffffffffffffffffffffffffffff16908060050154908060060160009054906101000a900460ff16905087565b601281101561178d576040517f08c379a000000000000000000000000000000000000000000000000000000000815260040161178490612586565b60405180910390fd5b600160008154809291906117a090612052565b919050555060405180608001604052808481526020018381526020018281526020016001546000546117d291906125a6565b8152506002600060015481526020019081526020016000206000820151816000019080519060200190611806929190611944565b50602082015181600101556040820151816002015560608201518160030155905050505050565b60046020528060005260406000206000915054906101000a900460ff1681565b60076020528060005260406000206000915090508060000154908060010180546118769061215c565b80601f01602080910402602001604051908101604052809291908181526020018280546118a29061215c565b80156118ef5780601f106118c4576101008083540402835291602001916118ef565b820191906000526020600020905b8154815290600101906020018083116118d257829003601f168201915b5050505050908060020154908060030154908060040160009054906101000a900473ffffffffffffffffffffffffffffffffffffffff16908060050154908060060160009054906101000a900460ff16905087565b8280546119509061215c565b90600052602060002090601f01602090048101928261197257600085556119b9565b82601f1061198b57805160ff19168380011785556119b9565b828001600101855582156119b9579182015b828111156119b857825182559160200191906001019061199d565b5b5090506119c691906119ca565b5090565b5b808211156119e35760008160009055506001016119cb565b5090565b6000604051905090565b600080fd5b600080fd5b6000819050919050565b611a0e816119fb565b8114611a1957600080fd5b50565b600081359050611a2b81611a05565b92915050565b600060208284031215611a4757611a466119f1565b5b6000611a5584828501611a1c565b91505092915050565b600081519050919050565b600082825260208201905092915050565b60005b83811015611a98578082015181840152602081019050611a7d565b83811115611aa7576000848401525b50505050565b6000601f19601f8301169050919050565b6000611ac982611a5e565b611ad38185611a69565b9350611ae3818560208601611a7a565b611aec81611aad565b840191505092915050565b611b00816119fb565b82525050565b60006040820190508181036000830152611b208185611abe565b9050611b2f6020830184611af7565b9392505050565b600080fd5b600080fd5b7f4e487b7100000000000000000000000000000000000000000000000000000000600052604160045260246000fd5b611b7882611aad565b810181811067ffffffffffffffff82111715611b9757611b96611b40565b5b80604052505050565b6000611baa6119e7565b9050611bb68282611b6f565b919050565b600067ffffffffffffffff821115611bd657611bd5611b40565b5b611bdf82611aad565b9050602081019050919050565b82818337600083830152505050565b6000611c0e611c0984611bbb565b611ba0565b905082815260208101848484011115611c2a57611c29611b3b565b5b611c35848285611bec565b509392505050565b600082601f830112611c5257611c51611b36565b5b8135611c62848260208601611bfb565b91505092915050565b600080600060608486031215611c8457611c836119f1565b5b600084013567ffffffffffffffff811115611ca257611ca16119f6565b5b611cae86828701611c3d565b9350506020611cbf86828701611a1c565b9250506040611cd086828701611a1c565b9150509250925092565b60006080820190508181036000830152611cf48187611abe565b9050611d036020830186611af7565b611d106040830185611af7565b611d1d6060830184611af7565b95945050505050565b600073ffffffffffffffffffffffffffffffffffffffff82169050919050565b6000611d5182611d26565b9050919050565b611d6181611d46565b8114611d6c57600080fd5b50565b600081359050611d7e81611d58565b92915050565b600060208284031215611d9a57611d996119f1565b5b6000611da884828501611d6f565b91505092915050565b611dba81611d46565b82525050565b60008115159050919050565b611dd581611dc0565b82525050565b600060c082019050611df06000830189611af7565b8181036020830152611e028188611abe565b9050611e116040830187611af7565b611e1e6060830186611db1565b611e2b6080830185611dcc565b611e3860a0830184611af7565b979650505050505050565b7f4e487b7100000000000000000000000000000000000000000000000000000000600052602160045260246000fd5b60038110611e8357611e82611e43565b5b50565b6000819050611e9482611e72565b919050565b6000611ea482611e86565b9050919050565b611eb481611e99565b82525050565b600060e082019050611ecf600083018a611af7565b8181036020830152611ee18189611abe565b9050611ef06040830188611af7565b611efd6060830187611af7565b611f0a6080830186611db1565b611f1760a0830185611af7565b611f2460c0830184611eab565b98975050505050505050565b6000602082019050611f456000830184611dcc565b92915050565b7f696e76616c696465207573657200000000000000000000000000000000000000600082015250565b6000611f81600d83611a69565b9150611f8c82611f4b565b602082019050919050565b60006020820190508181036000830152611fb081611f74565b9050919050565b7f796f752061726520616c726561647920766f7465640000000000000000000000600082015250565b6000611fed601583611a69565b9150611ff882611fb7565b602082019050919050565b6000602082019050818103600083015261201c81611fe0565b9050919050565b7f4e487b7100000000000000000000000000000000000000000000000000000000600052601160045260246000fd5b600061205d826119fb565b91507fffffffffffffffffffffffffffffffffffffffffffffffffffffffffffffffff8214156120905761208f612023565b5b600182019050919050565b7f796f752063616e277420766f746520616e6f7468657220776172642063616e6460008201527f6964617465000000000000000000000000000000000000000000000000000000602082015250565b60006120f7602583611a69565b91506121028261209b565b604082019050919050565b60006020820190508181036000830152612126816120ea565b9050919050565b7f4e487b7100000000000000000000000000000000000000000000000000000000600052602260045260246000fd5b6000600282049050600182168061217457607f821691505b602082108114156121885761218761212d565b5b50919050565b7f73616d652063616e6469646174652063616e2774206265206164646400000000600082015250565b60006121c4601c83611a69565b91506121cf8261218e565b602082019050919050565b600060208201905081810360008301526121f3816121b7565b9050919050565b7f7468657265206973206e6f2063616e6469646174650000000000000000000000600082015250565b6000612230601583611a69565b915061223b826121fa565b602082019050919050565b6000602082019050818103600083015261225f81612223565b9050919050565b7f616c726561647920637265617465640000000000000000000000000000000000600082015250565b600061229c600f83611a69565b91506122a782612266565b602082019050919050565b600060208201905081810360008301526122cb8161228f565b9050919050565b7f617574686f726974792063616e206f6e6c792063616c6c20746869732066756e60008201527f6374696f6e000000000000000000000000000000000000000000000000000000602082015250565b600061232e602583611a69565b9150612339826122d2565b604082019050919050565b6000602082019050818103600083015261235d81612321565b9050919050565b7f616c726561647920766572696679000000000000000000000000000000000000600082015250565b600061239a600e83611a69565b91506123a582612364565b602082019050919050565b600060208201905081810360008301526123c98161238d565b9050919050565b7f766f746572206e6f7420666f756e640000000000000000000000000000000000600082015250565b6000612406600f83611a69565b9150612411826123d0565b602082019050919050565b60006020820190508181036000830152612435816123f9565b9050919050565b7f766f746572206964206e6f20666f756e64000000000000000000000000000000600082015250565b6000612472601183611a69565b915061247d8261243c565b602082019050919050565b600060208201905081810360008301526124a181612465565b9050919050565b7f616c7265616479206170726f7665640000000000000000000000000000000000600082015250565b60006124de600f83611a69565b91506124e9826124a8565b602082019050919050565b6000602082019050818103600083015261250d816124d1565b9050919050565b7f5468697320706572736f6e206973206e6f7420656c696769626c6520666f722060008201527f766f746572732049640000000000000000000000000000000000000000000000602082015250565b6000612570602983611a69565b915061257b82612514565b604082019050919050565b6000602082019050818103600083015261259f81612563565b9050919050565b60006125b1826119fb565b91506125bc836119fb565b9250827fffffffffffffffffffffffffffffffffffffffffffffffffffffffffffffffff038211156125f1576125f0612023565b5b82820190509291505056fea26469706673582212203a7d66549f7e10305586336fcdd6ab9b696143968ebcaae6786d2817f326ff3764736f6c634300080a0033",
  "immutableReferences": {},
  "source": "// SPDX-License-Identifier: GPL-3.0\npragma solidity ^0.8.7;\n\nimport \"./election.sol\";\n\ncontract Voteing is Election{\n     function vote(uint candidatesId) public {\n        require(candidatesId > 0 && candidatesId <=  candedatesCount, \"invalide user\");\n        require(!votes[msg.sender], \"you are already voted\");\n        \n        for(uint i=1; i<=voterCount; i++ ){\n            if(voter[i].voterAddress == msg.sender){\n                if(voter[i].voterWard == candidateslist[candidatesId].ward && voter[i].verify == true){\n                     votes[msg.sender] = true;\n                      candidateslist[candidatesId].voteCount++;\n                }else{\n                    revert(\"you can't vote another ward candidate\");\n                }       \n            }\n        }\n    }\n}",
  "sourcePath": "/home/nisamudheen/Desktop/sps/voting_smartcontract/contracts/Voting.sol",
  "compiler": {
    "name": "solc",
    "version": "0.8.10+commit.fc410830.Emscripten.clang"
  },
  "schemaVersion": "3.4.3",
  "updatedAt": "2021-12-13T04:44:03.970Z",
  "networkType": "ethereum",
  "devdoc": {
    "kind": "dev",
    "methods": {},
    "version": 1
  },
  "userdoc": {
    "kind": "user",
    "methods": {},
    "version": 1
  }
}